{
	"data": {
		"bytecode": {
			"linkReferences": {},
			"object": "60806040526509184e72a00060005534801561001a57600080fd5b50600054600160003373ffffffffffffffffffffffffffffffffffffffff1673ffffffffffffffffffffffffffffffffffffffff168152602001908152602001600020819055506001600260003373ffffffffffffffffffffffffffffffffffffffff1673ffffffffffffffffffffffffffffffffffffffff16815260200190815260200160002060006101000a81548160ff0219169083151502179055506003339080600181540180825580915050600190039060005260206000200160009091909190916101000a81548173ffffffffffffffffffffffffffffffffffffffff021916908373ffffffffffffffffffffffffffffffffffffffff1602179055503373ffffffffffffffffffffffffffffffffffffffff16600073ffffffffffffffffffffffffffffffffffffffff167fddf252ad1be2c89b69c2b068fc378daa952ba7f163c4a11628f55a4df523b3ef60005460405161017c91906101a2565b60405180910390a36101bd565b6000819050919050565b61019c81610189565b82525050565b60006020820190506101b76000830184610193565b92915050565b610e30806101cc6000396000f3fe608060405234801561001057600080fd5b50600436106100625760003560e01c806306fdde031461006757806318160ddd14610085578063313ce567146100a357806370a08231146100c15780638a8756ae146100f157806395d89b41146100fb575b600080fd5b61006f610119565b60405161007c9190610a01565b60405180910390f35b61008d610152565b60405161009a9190610a3c565b60405180910390f35b6100ab610158565b6040516100b89190610a73565b60405180910390f35b6100db60048036038101906100d69190610af1565b61015d565b6040516100e89190610a3c565b60405180910390f35b6100f96101a6565b005b6101036104b3565b6040516101109190610a01565b60405180910390f35b6040518060400160405280600b81526020017f537573686920546f6b656e00000000000000000000000000000000000000000081525081565b60005481565b600a81565b6000600160008373ffffffffffffffffffffffffffffffffffffffff1673ffffffffffffffffffffffffffffffffffffffff168152602001908152602001600020549050919050565b6000806101b16104ec565b915091506000600160008473ffffffffffffffffffffffffffffffffffffffff1673ffffffffffffffffffffffffffffffffffffffff1681526020019081526020016000205490506000811161023c576040517f08c379a000000000000000000000000000000000000000000000000000000000815260040161023390610b90565b60405180910390fd5b6000600160008473ffffffffffffffffffffffffffffffffffffffff1673ffffffffffffffffffffffffffffffffffffffff168152602001908152602001600020549050600081116102c3576040517f08c379a00000000000000000000000000000000000000000000000000000000081526004016102ba90610c22565b60405180910390fd5b818110610305576040517f08c379a00000000000000000000000000000000000000000000000000000000081526004016102fc90610cb4565b60405180910390fd5b600061031b600a8461092f90919063ffffffff16565b905061036f81600160008873ffffffffffffffffffffffffffffffffffffffff1673ffffffffffffffffffffffffffffffffffffffff1681526020019081526020016000205461094590919063ffffffff16565b600160008773ffffffffffffffffffffffffffffffffffffffff1673ffffffffffffffffffffffffffffffffffffffff1681526020019081526020016000208190555061040481600160008773ffffffffffffffffffffffffffffffffffffffff1673ffffffffffffffffffffffffffffffffffffffff1681526020019081526020016000205461095b90919063ffffffff16565b600160008673ffffffffffffffffffffffffffffffffffffffff1673ffffffffffffffffffffffffffffffffffffffff168152602001908152602001600020819055508373ffffffffffffffffffffffffffffffffffffffff168573ffffffffffffffffffffffffffffffffffffffff167fddf252ad1be2c89b69c2b068fc378daa952ba7f163c4a11628f55a4df523b3ef836040516104a49190610a3c565b60405180910390a35050505050565b6040518060400160405280600581526020017f535553484900000000000000000000000000000000000000000000000000000081525081565b600080600360008154811061050457610503610cd4565b5b9060005260206000200160009054906101000a900473ffffffffffffffffffffffffffffffffffffffff169150600360008154811061054657610545610cd4565b5b9060005260206000200160009054906101000a900473ffffffffffffffffffffffffffffffffffffffff169050600060016000600360008154811061058e5761058d610cd4565b5b9060005260206000200160009054906101000a900473ffffffffffffffffffffffffffffffffffffffff1673ffffffffffffffffffffffffffffffffffffffff1673ffffffffffffffffffffffffffffffffffffffff168152602001908152602001600020549050600060016000600360008154811061061157610610610cd4565b5b9060005260206000200160009054906101000a900473ffffffffffffffffffffffffffffffffffffffff1673ffffffffffffffffffffffffffffffffffffffff1673ffffffffffffffffffffffffffffffffffffffff1681526020019081526020016000205490506000600190505b600380549050811015610928578260016000600384815481106106a6576106a5610cd4565b5b9060005260206000200160009054906101000a900473ffffffffffffffffffffffffffffffffffffffff1673ffffffffffffffffffffffffffffffffffffffff1673ffffffffffffffffffffffffffffffffffffffff1681526020019081526020016000205411156107d4576003818154811061072657610725610cd4565b5b9060005260206000200160009054906101000a900473ffffffffffffffffffffffffffffffffffffffff169450600160006003838154811061076b5761076a610cd4565b5b9060005260206000200160009054906101000a900473ffffffffffffffffffffffffffffffffffffffff1673ffffffffffffffffffffffffffffffffffffffff1673ffffffffffffffffffffffffffffffffffffffff1681526020019081526020016000205492505b8160016000600384815481106107ed576107ec610cd4565b5b9060005260206000200160009054906101000a900473ffffffffffffffffffffffffffffffffffffffff1673ffffffffffffffffffffffffffffffffffffffff1673ffffffffffffffffffffffffffffffffffffffff16815260200190815260200160002054101561091b576003818154811061086d5761086c610cd4565b5b9060005260206000200160009054906101000a900473ffffffffffffffffffffffffffffffffffffffff16935060016000600383815481106108b2576108b1610cd4565b5b9060005260206000200160009054906101000a900473ffffffffffffffffffffffffffffffffffffffff1673ffffffffffffffffffffffffffffffffffffffff1673ffffffffffffffffffffffffffffffffffffffff1681526020019081526020016000205491505b8080600101915050610680565b5050509091565b6000818361093d9190610d61565b905092915050565b600081836109539190610d92565b905092915050565b600081836109699190610dc6565b905092915050565b600081519050919050565b600082825260208201905092915050565b60005b838110156109ab578082015181840152602081019050610990565b60008484015250505050565b6000601f19601f8301169050919050565b60006109d382610971565b6109dd818561097c565b93506109ed81856020860161098d565b6109f6816109b7565b840191505092915050565b60006020820190508181036000830152610a1b81846109c8565b905092915050565b6000819050919050565b610a3681610a23565b82525050565b6000602082019050610a516000830184610a2d565b92915050565b600060ff82169050919050565b610a6d81610a57565b82525050565b6000602082019050610a886000830184610a64565b92915050565b600080fd5b600073ffffffffffffffffffffffffffffffffffffffff82169050919050565b6000610abe82610a93565b9050919050565b610ace81610ab3565b8114610ad957600080fd5b50565b600081359050610aeb81610ac5565b92915050565b600060208284031215610b0757610b06610a8e565b5b6000610b1584828501610adc565b91505092915050565b7f4e6f20746f6b656e7320746f20737465616c2066726f6d20746f7020686f6c6460008201527f6572000000000000000000000000000000000000000000000000000000000000602082015250565b6000610b7a60228361097c565b9150610b8582610b1e565b604082019050919050565b60006020820190508181036000830152610ba981610b6d565b9050919050565b7f4e6f20746f6b656e7320746f20737465616c2066726f6d206c6f77657374206860008201527f6f6c646572000000000000000000000000000000000000000000000000000000602082015250565b6000610c0c60258361097c565b9150610c1782610bb0565b604082019050919050565b60006020820190508181036000830152610c3b81610bff565b9050919050565b7f4c6f776573742062616c616e6365206973206e6f74206c657373207468616e2060008201527f746f702062616c616e6365000000000000000000000000000000000000000000602082015250565b6000610c9e602b8361097c565b9150610ca982610c42565b604082019050919050565b60006020820190508181036000830152610ccd81610c91565b9050919050565b7f4e487b7100000000000000000000000000000000000000000000000000000000600052603260045260246000fd5b7f4e487b7100000000000000000000000000000000000000000000000000000000600052601260045260246000fd5b7f4e487b7100000000000000000000000000000000000000000000000000000000600052601160045260246000fd5b6000610d6c82610a23565b9150610d7783610a23565b925082610d8757610d86610d03565b5b828204905092915050565b6000610d9d82610a23565b9150610da883610a23565b9250828203905081811115610dc057610dbf610d32565b5b92915050565b6000610dd182610a23565b9150610ddc83610a23565b9250828201905080821115610df457610df3610d32565b5b9291505056fea2646970667358221220f19cacb23da66d2e8066ecbc2c8c10c22dc385f2e85181b34ef906857e2f42df64736f6c63430008190033",
			"opcodes": "PUSH1 0x80 PUSH1 0x40 MSTORE PUSH6 0x9184E72A000 PUSH1 0x0 SSTORE CALLVALUE DUP1 ISZERO PUSH2 0x1A JUMPI PUSH1 0x0 DUP1 REVERT JUMPDEST POP PUSH1 0x0 SLOAD PUSH1 0x1 PUSH1 0x0 CALLER PUSH20 0xFFFFFFFFFFFFFFFFFFFFFFFFFFFFFFFFFFFFFFFF AND PUSH20 0xFFFFFFFFFFFFFFFFFFFFFFFFFFFFFFFFFFFFFFFF AND DUP2 MSTORE PUSH1 0x20 ADD SWAP1 DUP2 MSTORE PUSH1 0x20 ADD PUSH1 0x0 KECCAK256 DUP2 SWAP1 SSTORE POP PUSH1 0x1 PUSH1 0x2 PUSH1 0x0 CALLER PUSH20 0xFFFFFFFFFFFFFFFFFFFFFFFFFFFFFFFFFFFFFFFF AND PUSH20 0xFFFFFFFFFFFFFFFFFFFFFFFFFFFFFFFFFFFFFFFF AND DUP2 MSTORE PUSH1 0x20 ADD SWAP1 DUP2 MSTORE PUSH1 0x20 ADD PUSH1 0x0 KECCAK256 PUSH1 0x0 PUSH2 0x100 EXP DUP2 SLOAD DUP2 PUSH1 0xFF MUL NOT AND SWAP1 DUP4 ISZERO ISZERO MUL OR SWAP1 SSTORE POP PUSH1 0x3 CALLER SWAP1 DUP1 PUSH1 0x1 DUP2 SLOAD ADD DUP1 DUP3 SSTORE DUP1 SWAP2 POP POP PUSH1 0x1 SWAP1 SUB SWAP1 PUSH1 0x0 MSTORE PUSH1 0x20 PUSH1 0x0 KECCAK256 ADD PUSH1 0x0 SWAP1 SWAP2 SWAP1 SWAP2 SWAP1 SWAP2 PUSH2 0x100 EXP DUP2 SLOAD DUP2 PUSH20 0xFFFFFFFFFFFFFFFFFFFFFFFFFFFFFFFFFFFFFFFF MUL NOT AND SWAP1 DUP4 PUSH20 0xFFFFFFFFFFFFFFFFFFFFFFFFFFFFFFFFFFFFFFFF AND MUL OR SWAP1 SSTORE POP CALLER PUSH20 0xFFFFFFFFFFFFFFFFFFFFFFFFFFFFFFFFFFFFFFFF AND PUSH1 0x0 PUSH20 0xFFFFFFFFFFFFFFFFFFFFFFFFFFFFFFFFFFFFFFFF AND PUSH32 0xDDF252AD1BE2C89B69C2B068FC378DAA952BA7F163C4A11628F55A4DF523B3EF PUSH1 0x0 SLOAD PUSH1 0x40 MLOAD PUSH2 0x17C SWAP2 SWAP1 PUSH2 0x1A2 JUMP JUMPDEST PUSH1 0x40 MLOAD DUP1 SWAP2 SUB SWAP1 LOG3 PUSH2 0x1BD JUMP JUMPDEST PUSH1 0x0 DUP2 SWAP1 POP SWAP2 SWAP1 POP JUMP JUMPDEST PUSH2 0x19C DUP2 PUSH2 0x189 JUMP JUMPDEST DUP3 MSTORE POP POP JUMP JUMPDEST PUSH1 0x0 PUSH1 0x20 DUP3 ADD SWAP1 POP PUSH2 0x1B7 PUSH1 0x0 DUP4 ADD DUP5 PUSH2 0x193 JUMP JUMPDEST SWAP3 SWAP2 POP POP JUMP JUMPDEST PUSH2 0xE30 DUP1 PUSH2 0x1CC PUSH1 0x0 CODECOPY PUSH1 0x0 RETURN INVALID PUSH1 0x80 PUSH1 0x40 MSTORE CALLVALUE DUP1 ISZERO PUSH2 0x10 JUMPI PUSH1 0x0 DUP1 REVERT JUMPDEST POP PUSH1 0x4 CALLDATASIZE LT PUSH2 0x62 JUMPI PUSH1 0x0 CALLDATALOAD PUSH1 0xE0 SHR DUP1 PUSH4 0x6FDDE03 EQ PUSH2 0x67 JUMPI DUP1 PUSH4 0x18160DDD EQ PUSH2 0x85 JUMPI DUP1 PUSH4 0x313CE567 EQ PUSH2 0xA3 JUMPI DUP1 PUSH4 0x70A08231 EQ PUSH2 0xC1 JUMPI DUP1 PUSH4 0x8A8756AE EQ PUSH2 0xF1 JUMPI DUP1 PUSH4 0x95D89B41 EQ PUSH2 0xFB JUMPI JUMPDEST PUSH1 0x0 DUP1 REVERT JUMPDEST PUSH2 0x6F PUSH2 0x119 JUMP JUMPDEST PUSH1 0x40 MLOAD PUSH2 0x7C SWAP2 SWAP1 PUSH2 0xA01 JUMP JUMPDEST PUSH1 0x40 MLOAD DUP1 SWAP2 SUB SWAP1 RETURN JUMPDEST PUSH2 0x8D PUSH2 0x152 JUMP JUMPDEST PUSH1 0x40 MLOAD PUSH2 0x9A SWAP2 SWAP1 PUSH2 0xA3C JUMP JUMPDEST PUSH1 0x40 MLOAD DUP1 SWAP2 SUB SWAP1 RETURN JUMPDEST PUSH2 0xAB PUSH2 0x158 JUMP JUMPDEST PUSH1 0x40 MLOAD PUSH2 0xB8 SWAP2 SWAP1 PUSH2 0xA73 JUMP JUMPDEST PUSH1 0x40 MLOAD DUP1 SWAP2 SUB SWAP1 RETURN JUMPDEST PUSH2 0xDB PUSH1 0x4 DUP1 CALLDATASIZE SUB DUP2 ADD SWAP1 PUSH2 0xD6 SWAP2 SWAP1 PUSH2 0xAF1 JUMP JUMPDEST PUSH2 0x15D JUMP JUMPDEST PUSH1 0x40 MLOAD PUSH2 0xE8 SWAP2 SWAP1 PUSH2 0xA3C JUMP JUMPDEST PUSH1 0x40 MLOAD DUP1 SWAP2 SUB SWAP1 RETURN JUMPDEST PUSH2 0xF9 PUSH2 0x1A6 JUMP JUMPDEST STOP JUMPDEST PUSH2 0x103 PUSH2 0x4B3 JUMP JUMPDEST PUSH1 0x40 MLOAD PUSH2 0x110 SWAP2 SWAP1 PUSH2 0xA01 JUMP JUMPDEST PUSH1 0x40 MLOAD DUP1 SWAP2 SUB SWAP1 RETURN JUMPDEST PUSH1 0x40 MLOAD DUP1 PUSH1 0x40 ADD PUSH1 0x40 MSTORE DUP1 PUSH1 0xB DUP2 MSTORE PUSH1 0x20 ADD PUSH32 0x537573686920546F6B656E000000000000000000000000000000000000000000 DUP2 MSTORE POP DUP2 JUMP JUMPDEST PUSH1 0x0 SLOAD DUP2 JUMP JUMPDEST PUSH1 0xA DUP2 JUMP JUMPDEST PUSH1 0x0 PUSH1 0x1 PUSH1 0x0 DUP4 PUSH20 0xFFFFFFFFFFFFFFFFFFFFFFFFFFFFFFFFFFFFFFFF AND PUSH20 0xFFFFFFFFFFFFFFFFFFFFFFFFFFFFFFFFFFFFFFFF AND DUP2 MSTORE PUSH1 0x20 ADD SWAP1 DUP2 MSTORE PUSH1 0x20 ADD PUSH1 0x0 KECCAK256 SLOAD SWAP1 POP SWAP2 SWAP1 POP JUMP JUMPDEST PUSH1 0x0 DUP1 PUSH2 0x1B1 PUSH2 0x4EC JUMP JUMPDEST SWAP2 POP SWAP2 POP PUSH1 0x0 PUSH1 0x1 PUSH1 0x0 DUP5 PUSH20 0xFFFFFFFFFFFFFFFFFFFFFFFFFFFFFFFFFFFFFFFF AND PUSH20 0xFFFFFFFFFFFFFFFFFFFFFFFFFFFFFFFFFFFFFFFF AND DUP2 MSTORE PUSH1 0x20 ADD SWAP1 DUP2 MSTORE PUSH1 0x20 ADD PUSH1 0x0 KECCAK256 SLOAD SWAP1 POP PUSH1 0x0 DUP2 GT PUSH2 0x23C JUMPI PUSH1 0x40 MLOAD PUSH32 0x8C379A000000000000000000000000000000000000000000000000000000000 DUP2 MSTORE PUSH1 0x4 ADD PUSH2 0x233 SWAP1 PUSH2 0xB90 JUMP JUMPDEST PUSH1 0x40 MLOAD DUP1 SWAP2 SUB SWAP1 REVERT JUMPDEST PUSH1 0x0 PUSH1 0x1 PUSH1 0x0 DUP5 PUSH20 0xFFFFFFFFFFFFFFFFFFFFFFFFFFFFFFFFFFFFFFFF AND PUSH20 0xFFFFFFFFFFFFFFFFFFFFFFFFFFFFFFFFFFFFFFFF AND DUP2 MSTORE PUSH1 0x20 ADD SWAP1 DUP2 MSTORE PUSH1 0x20 ADD PUSH1 0x0 KECCAK256 SLOAD SWAP1 POP PUSH1 0x0 DUP2 GT PUSH2 0x2C3 JUMPI PUSH1 0x40 MLOAD PUSH32 0x8C379A000000000000000000000000000000000000000000000000000000000 DUP2 MSTORE PUSH1 0x4 ADD PUSH2 0x2BA SWAP1 PUSH2 0xC22 JUMP JUMPDEST PUSH1 0x40 MLOAD DUP1 SWAP2 SUB SWAP1 REVERT JUMPDEST DUP2 DUP2 LT PUSH2 0x305 JUMPI PUSH1 0x40 MLOAD PUSH32 0x8C379A000000000000000000000000000000000000000000000000000000000 DUP2 MSTORE PUSH1 0x4 ADD PUSH2 0x2FC SWAP1 PUSH2 0xCB4 JUMP JUMPDEST PUSH1 0x40 MLOAD DUP1 SWAP2 SUB SWAP1 REVERT JUMPDEST PUSH1 0x0 PUSH2 0x31B PUSH1 0xA DUP5 PUSH2 0x92F SWAP1 SWAP2 SWAP1 PUSH4 0xFFFFFFFF AND JUMP JUMPDEST SWAP1 POP PUSH2 0x36F DUP2 PUSH1 0x1 PUSH1 0x0 DUP9 PUSH20 0xFFFFFFFFFFFFFFFFFFFFFFFFFFFFFFFFFFFFFFFF AND PUSH20 0xFFFFFFFFFFFFFFFFFFFFFFFFFFFFFFFFFFFFFFFF AND DUP2 MSTORE PUSH1 0x20 ADD SWAP1 DUP2 MSTORE PUSH1 0x20 ADD PUSH1 0x0 KECCAK256 SLOAD PUSH2 0x945 SWAP1 SWAP2 SWAP1 PUSH4 0xFFFFFFFF AND JUMP JUMPDEST PUSH1 0x1 PUSH1 0x0 DUP8 PUSH20 0xFFFFFFFFFFFFFFFFFFFFFFFFFFFFFFFFFFFFFFFF AND PUSH20 0xFFFFFFFFFFFFFFFFFFFFFFFFFFFFFFFFFFFFFFFF AND DUP2 MSTORE PUSH1 0x20 ADD SWAP1 DUP2 MSTORE PUSH1 0x20 ADD PUSH1 0x0 KECCAK256 DUP2 SWAP1 SSTORE POP PUSH2 0x404 DUP2 PUSH1 0x1 PUSH1 0x0 DUP8 PUSH20 0xFFFFFFFFFFFFFFFFFFFFFFFFFFFFFFFFFFFFFFFF AND PUSH20 0xFFFFFFFFFFFFFFFFFFFFFFFFFFFFFFFFFFFFFFFF AND DUP2 MSTORE PUSH1 0x20 ADD SWAP1 DUP2 MSTORE PUSH1 0x20 ADD PUSH1 0x0 KECCAK256 SLOAD PUSH2 0x95B SWAP1 SWAP2 SWAP1 PUSH4 0xFFFFFFFF AND JUMP JUMPDEST PUSH1 0x1 PUSH1 0x0 DUP7 PUSH20 0xFFFFFFFFFFFFFFFFFFFFFFFFFFFFFFFFFFFFFFFF AND PUSH20 0xFFFFFFFFFFFFFFFFFFFFFFFFFFFFFFFFFFFFFFFF AND DUP2 MSTORE PUSH1 0x20 ADD SWAP1 DUP2 MSTORE PUSH1 0x20 ADD PUSH1 0x0 KECCAK256 DUP2 SWAP1 SSTORE POP DUP4 PUSH20 0xFFFFFFFFFFFFFFFFFFFFFFFFFFFFFFFFFFFFFFFF AND DUP6 PUSH20 0xFFFFFFFFFFFFFFFFFFFFFFFFFFFFFFFFFFFFFFFF AND PUSH32 0xDDF252AD1BE2C89B69C2B068FC378DAA952BA7F163C4A11628F55A4DF523B3EF DUP4 PUSH1 0x40 MLOAD PUSH2 0x4A4 SWAP2 SWAP1 PUSH2 0xA3C JUMP JUMPDEST PUSH1 0x40 MLOAD DUP1 SWAP2 SUB SWAP1 LOG3 POP POP POP POP POP JUMP JUMPDEST PUSH1 0x40 MLOAD DUP1 PUSH1 0x40 ADD PUSH1 0x40 MSTORE DUP1 PUSH1 0x5 DUP2 MSTORE PUSH1 0x20 ADD PUSH32 0x5355534849000000000000000000000000000000000000000000000000000000 DUP2 MSTORE POP DUP2 JUMP JUMPDEST PUSH1 0x0 DUP1 PUSH1 0x3 PUSH1 0x0 DUP2 SLOAD DUP2 LT PUSH2 0x504 JUMPI PUSH2 0x503 PUSH2 0xCD4 JUMP JUMPDEST JUMPDEST SWAP1 PUSH1 0x0 MSTORE PUSH1 0x20 PUSH1 0x0 KECCAK256 ADD PUSH1 0x0 SWAP1 SLOAD SWAP1 PUSH2 0x100 EXP SWAP1 DIV PUSH20 0xFFFFFFFFFFFFFFFFFFFFFFFFFFFFFFFFFFFFFFFF AND SWAP2 POP PUSH1 0x3 PUSH1 0x0 DUP2 SLOAD DUP2 LT PUSH2 0x546 JUMPI PUSH2 0x545 PUSH2 0xCD4 JUMP JUMPDEST JUMPDEST SWAP1 PUSH1 0x0 MSTORE PUSH1 0x20 PUSH1 0x0 KECCAK256 ADD PUSH1 0x0 SWAP1 SLOAD SWAP1 PUSH2 0x100 EXP SWAP1 DIV PUSH20 0xFFFFFFFFFFFFFFFFFFFFFFFFFFFFFFFFFFFFFFFF AND SWAP1 POP PUSH1 0x0 PUSH1 0x1 PUSH1 0x0 PUSH1 0x3 PUSH1 0x0 DUP2 SLOAD DUP2 LT PUSH2 0x58E JUMPI PUSH2 0x58D PUSH2 0xCD4 JUMP JUMPDEST JUMPDEST SWAP1 PUSH1 0x0 MSTORE PUSH1 0x20 PUSH1 0x0 KECCAK256 ADD PUSH1 0x0 SWAP1 SLOAD SWAP1 PUSH2 0x100 EXP SWAP1 DIV PUSH20 0xFFFFFFFFFFFFFFFFFFFFFFFFFFFFFFFFFFFFFFFF AND PUSH20 0xFFFFFFFFFFFFFFFFFFFFFFFFFFFFFFFFFFFFFFFF AND PUSH20 0xFFFFFFFFFFFFFFFFFFFFFFFFFFFFFFFFFFFFFFFF AND DUP2 MSTORE PUSH1 0x20 ADD SWAP1 DUP2 MSTORE PUSH1 0x20 ADD PUSH1 0x0 KECCAK256 SLOAD SWAP1 POP PUSH1 0x0 PUSH1 0x1 PUSH1 0x0 PUSH1 0x3 PUSH1 0x0 DUP2 SLOAD DUP2 LT PUSH2 0x611 JUMPI PUSH2 0x610 PUSH2 0xCD4 JUMP JUMPDEST JUMPDEST SWAP1 PUSH1 0x0 MSTORE PUSH1 0x20 PUSH1 0x0 KECCAK256 ADD PUSH1 0x0 SWAP1 SLOAD SWAP1 PUSH2 0x100 EXP SWAP1 DIV PUSH20 0xFFFFFFFFFFFFFFFFFFFFFFFFFFFFFFFFFFFFFFFF AND PUSH20 0xFFFFFFFFFFFFFFFFFFFFFFFFFFFFFFFFFFFFFFFF AND PUSH20 0xFFFFFFFFFFFFFFFFFFFFFFFFFFFFFFFFFFFFFFFF AND DUP2 MSTORE PUSH1 0x20 ADD SWAP1 DUP2 MSTORE PUSH1 0x20 ADD PUSH1 0x0 KECCAK256 SLOAD SWAP1 POP PUSH1 0x0 PUSH1 0x1 SWAP1 POP JUMPDEST PUSH1 0x3 DUP1 SLOAD SWAP1 POP DUP2 LT ISZERO PUSH2 0x928 JUMPI DUP3 PUSH1 0x1 PUSH1 0x0 PUSH1 0x3 DUP5 DUP2 SLOAD DUP2 LT PUSH2 0x6A6 JUMPI PUSH2 0x6A5 PUSH2 0xCD4 JUMP JUMPDEST JUMPDEST SWAP1 PUSH1 0x0 MSTORE PUSH1 0x20 PUSH1 0x0 KECCAK256 ADD PUSH1 0x0 SWAP1 SLOAD SWAP1 PUSH2 0x100 EXP SWAP1 DIV PUSH20 0xFFFFFFFFFFFFFFFFFFFFFFFFFFFFFFFFFFFFFFFF AND PUSH20 0xFFFFFFFFFFFFFFFFFFFFFFFFFFFFFFFFFFFFFFFF AND PUSH20 0xFFFFFFFFFFFFFFFFFFFFFFFFFFFFFFFFFFFFFFFF AND DUP2 MSTORE PUSH1 0x20 ADD SWAP1 DUP2 MSTORE PUSH1 0x20 ADD PUSH1 0x0 KECCAK256 SLOAD GT ISZERO PUSH2 0x7D4 JUMPI PUSH1 0x3 DUP2 DUP2 SLOAD DUP2 LT PUSH2 0x726 JUMPI PUSH2 0x725 PUSH2 0xCD4 JUMP JUMPDEST JUMPDEST SWAP1 PUSH1 0x0 MSTORE PUSH1 0x20 PUSH1 0x0 KECCAK256 ADD PUSH1 0x0 SWAP1 SLOAD SWAP1 PUSH2 0x100 EXP SWAP1 DIV PUSH20 0xFFFFFFFFFFFFFFFFFFFFFFFFFFFFFFFFFFFFFFFF AND SWAP5 POP PUSH1 0x1 PUSH1 0x0 PUSH1 0x3 DUP4 DUP2 SLOAD DUP2 LT PUSH2 0x76B JUMPI PUSH2 0x76A PUSH2 0xCD4 JUMP JUMPDEST JUMPDEST SWAP1 PUSH1 0x0 MSTORE PUSH1 0x20 PUSH1 0x0 KECCAK256 ADD PUSH1 0x0 SWAP1 SLOAD SWAP1 PUSH2 0x100 EXP SWAP1 DIV PUSH20 0xFFFFFFFFFFFFFFFFFFFFFFFFFFFFFFFFFFFFFFFF AND PUSH20 0xFFFFFFFFFFFFFFFFFFFFFFFFFFFFFFFFFFFFFFFF AND PUSH20 0xFFFFFFFFFFFFFFFFFFFFFFFFFFFFFFFFFFFFFFFF AND DUP2 MSTORE PUSH1 0x20 ADD SWAP1 DUP2 MSTORE PUSH1 0x20 ADD PUSH1 0x0 KECCAK256 SLOAD SWAP3 POP JUMPDEST DUP2 PUSH1 0x1 PUSH1 0x0 PUSH1 0x3 DUP5 DUP2 SLOAD DUP2 LT PUSH2 0x7ED JUMPI PUSH2 0x7EC PUSH2 0xCD4 JUMP JUMPDEST JUMPDEST SWAP1 PUSH1 0x0 MSTORE PUSH1 0x20 PUSH1 0x0 KECCAK256 ADD PUSH1 0x0 SWAP1 SLOAD SWAP1 PUSH2 0x100 EXP SWAP1 DIV PUSH20 0xFFFFFFFFFFFFFFFFFFFFFFFFFFFFFFFFFFFFFFFF AND PUSH20 0xFFFFFFFFFFFFFFFFFFFFFFFFFFFFFFFFFFFFFFFF AND PUSH20 0xFFFFFFFFFFFFFFFFFFFFFFFFFFFFFFFFFFFFFFFF AND DUP2 MSTORE PUSH1 0x20 ADD SWAP1 DUP2 MSTORE PUSH1 0x20 ADD PUSH1 0x0 KECCAK256 SLOAD LT ISZERO PUSH2 0x91B JUMPI PUSH1 0x3 DUP2 DUP2 SLOAD DUP2 LT PUSH2 0x86D JUMPI PUSH2 0x86C PUSH2 0xCD4 JUMP JUMPDEST JUMPDEST SWAP1 PUSH1 0x0 MSTORE PUSH1 0x20 PUSH1 0x0 KECCAK256 ADD PUSH1 0x0 SWAP1 SLOAD SWAP1 PUSH2 0x100 EXP SWAP1 DIV PUSH20 0xFFFFFFFFFFFFFFFFFFFFFFFFFFFFFFFFFFFFFFFF AND SWAP4 POP PUSH1 0x1 PUSH1 0x0 PUSH1 0x3 DUP4 DUP2 SLOAD DUP2 LT PUSH2 0x8B2 JUMPI PUSH2 0x8B1 PUSH2 0xCD4 JUMP JUMPDEST JUMPDEST SWAP1 PUSH1 0x0 MSTORE PUSH1 0x20 PUSH1 0x0 KECCAK256 ADD PUSH1 0x0 SWAP1 SLOAD SWAP1 PUSH2 0x100 EXP SWAP1 DIV PUSH20 0xFFFFFFFFFFFFFFFFFFFFFFFFFFFFFFFFFFFFFFFF AND PUSH20 0xFFFFFFFFFFFFFFFFFFFFFFFFFFFFFFFFFFFFFFFF AND PUSH20 0xFFFFFFFFFFFFFFFFFFFFFFFFFFFFFFFFFFFFFFFF AND DUP2 MSTORE PUSH1 0x20 ADD SWAP1 DUP2 MSTORE PUSH1 0x20 ADD PUSH1 0x0 KECCAK256 SLOAD SWAP2 POP JUMPDEST DUP1 DUP1 PUSH1 0x1 ADD SWAP2 POP POP PUSH2 0x680 JUMP JUMPDEST POP POP POP SWAP1 SWAP2 JUMP JUMPDEST PUSH1 0x0 DUP2 DUP4 PUSH2 0x93D SWAP2 SWAP1 PUSH2 0xD61 JUMP JUMPDEST SWAP1 POP SWAP3 SWAP2 POP POP JUMP JUMPDEST PUSH1 0x0 DUP2 DUP4 PUSH2 0x953 SWAP2 SWAP1 PUSH2 0xD92 JUMP JUMPDEST SWAP1 POP SWAP3 SWAP2 POP POP JUMP JUMPDEST PUSH1 0x0 DUP2 DUP4 PUSH2 0x969 SWAP2 SWAP1 PUSH2 0xDC6 JUMP JUMPDEST SWAP1 POP SWAP3 SWAP2 POP POP JUMP JUMPDEST PUSH1 0x0 DUP2 MLOAD SWAP1 POP SWAP2 SWAP1 POP JUMP JUMPDEST PUSH1 0x0 DUP3 DUP3 MSTORE PUSH1 0x20 DUP3 ADD SWAP1 POP SWAP3 SWAP2 POP POP JUMP JUMPDEST PUSH1 0x0 JUMPDEST DUP4 DUP2 LT ISZERO PUSH2 0x9AB JUMPI DUP1 DUP3 ADD MLOAD DUP2 DUP5 ADD MSTORE PUSH1 0x20 DUP2 ADD SWAP1 POP PUSH2 0x990 JUMP JUMPDEST PUSH1 0x0 DUP5 DUP5 ADD MSTORE POP POP POP POP JUMP JUMPDEST PUSH1 0x0 PUSH1 0x1F NOT PUSH1 0x1F DUP4 ADD AND SWAP1 POP SWAP2 SWAP1 POP JUMP JUMPDEST PUSH1 0x0 PUSH2 0x9D3 DUP3 PUSH2 0x971 JUMP JUMPDEST PUSH2 0x9DD DUP2 DUP6 PUSH2 0x97C JUMP JUMPDEST SWAP4 POP PUSH2 0x9ED DUP2 DUP6 PUSH1 0x20 DUP7 ADD PUSH2 0x98D JUMP JUMPDEST PUSH2 0x9F6 DUP2 PUSH2 0x9B7 JUMP JUMPDEST DUP5 ADD SWAP2 POP POP SWAP3 SWAP2 POP POP JUMP JUMPDEST PUSH1 0x0 PUSH1 0x20 DUP3 ADD SWAP1 POP DUP2 DUP2 SUB PUSH1 0x0 DUP4 ADD MSTORE PUSH2 0xA1B DUP2 DUP5 PUSH2 0x9C8 JUMP JUMPDEST SWAP1 POP SWAP3 SWAP2 POP POP JUMP JUMPDEST PUSH1 0x0 DUP2 SWAP1 POP SWAP2 SWAP1 POP JUMP JUMPDEST PUSH2 0xA36 DUP2 PUSH2 0xA23 JUMP JUMPDEST DUP3 MSTORE POP POP JUMP JUMPDEST PUSH1 0x0 PUSH1 0x20 DUP3 ADD SWAP1 POP PUSH2 0xA51 PUSH1 0x0 DUP4 ADD DUP5 PUSH2 0xA2D JUMP JUMPDEST SWAP3 SWAP2 POP POP JUMP JUMPDEST PUSH1 0x0 PUSH1 0xFF DUP3 AND SWAP1 POP SWAP2 SWAP1 POP JUMP JUMPDEST PUSH2 0xA6D DUP2 PUSH2 0xA57 JUMP JUMPDEST DUP3 MSTORE POP POP JUMP JUMPDEST PUSH1 0x0 PUSH1 0x20 DUP3 ADD SWAP1 POP PUSH2 0xA88 PUSH1 0x0 DUP4 ADD DUP5 PUSH2 0xA64 JUMP JUMPDEST SWAP3 SWAP2 POP POP JUMP JUMPDEST PUSH1 0x0 DUP1 REVERT JUMPDEST PUSH1 0x0 PUSH20 0xFFFFFFFFFFFFFFFFFFFFFFFFFFFFFFFFFFFFFFFF DUP3 AND SWAP1 POP SWAP2 SWAP1 POP JUMP JUMPDEST PUSH1 0x0 PUSH2 0xABE DUP3 PUSH2 0xA93 JUMP JUMPDEST SWAP1 POP SWAP2 SWAP1 POP JUMP JUMPDEST PUSH2 0xACE DUP2 PUSH2 0xAB3 JUMP JUMPDEST DUP2 EQ PUSH2 0xAD9 JUMPI PUSH1 0x0 DUP1 REVERT JUMPDEST POP JUMP JUMPDEST PUSH1 0x0 DUP2 CALLDATALOAD SWAP1 POP PUSH2 0xAEB DUP2 PUSH2 0xAC5 JUMP JUMPDEST SWAP3 SWAP2 POP POP JUMP JUMPDEST PUSH1 0x0 PUSH1 0x20 DUP3 DUP5 SUB SLT ISZERO PUSH2 0xB07 JUMPI PUSH2 0xB06 PUSH2 0xA8E JUMP JUMPDEST JUMPDEST PUSH1 0x0 PUSH2 0xB15 DUP5 DUP3 DUP6 ADD PUSH2 0xADC JUMP JUMPDEST SWAP2 POP POP SWAP3 SWAP2 POP POP JUMP JUMPDEST PUSH32 0x4E6F20746F6B656E7320746F20737465616C2066726F6D20746F7020686F6C64 PUSH1 0x0 DUP3 ADD MSTORE PUSH32 0x6572000000000000000000000000000000000000000000000000000000000000 PUSH1 0x20 DUP3 ADD MSTORE POP JUMP JUMPDEST PUSH1 0x0 PUSH2 0xB7A PUSH1 0x22 DUP4 PUSH2 0x97C JUMP JUMPDEST SWAP2 POP PUSH2 0xB85 DUP3 PUSH2 0xB1E JUMP JUMPDEST PUSH1 0x40 DUP3 ADD SWAP1 POP SWAP2 SWAP1 POP JUMP JUMPDEST PUSH1 0x0 PUSH1 0x20 DUP3 ADD SWAP1 POP DUP2 DUP2 SUB PUSH1 0x0 DUP4 ADD MSTORE PUSH2 0xBA9 DUP2 PUSH2 0xB6D JUMP JUMPDEST SWAP1 POP SWAP2 SWAP1 POP JUMP JUMPDEST PUSH32 0x4E6F20746F6B656E7320746F20737465616C2066726F6D206C6F776573742068 PUSH1 0x0 DUP3 ADD MSTORE PUSH32 0x6F6C646572000000000000000000000000000000000000000000000000000000 PUSH1 0x20 DUP3 ADD MSTORE POP JUMP JUMPDEST PUSH1 0x0 PUSH2 0xC0C PUSH1 0x25 DUP4 PUSH2 0x97C JUMP JUMPDEST SWAP2 POP PUSH2 0xC17 DUP3 PUSH2 0xBB0 JUMP JUMPDEST PUSH1 0x40 DUP3 ADD SWAP1 POP SWAP2 SWAP1 POP JUMP JUMPDEST PUSH1 0x0 PUSH1 0x20 DUP3 ADD SWAP1 POP DUP2 DUP2 SUB PUSH1 0x0 DUP4 ADD MSTORE PUSH2 0xC3B DUP2 PUSH2 0xBFF JUMP JUMPDEST SWAP1 POP SWAP2 SWAP1 POP JUMP JUMPDEST PUSH32 0x4C6F776573742062616C616E6365206973206E6F74206C657373207468616E20 PUSH1 0x0 DUP3 ADD MSTORE PUSH32 0x746F702062616C616E6365000000000000000000000000000000000000000000 PUSH1 0x20 DUP3 ADD MSTORE POP JUMP JUMPDEST PUSH1 0x0 PUSH2 0xC9E PUSH1 0x2B DUP4 PUSH2 0x97C JUMP JUMPDEST SWAP2 POP PUSH2 0xCA9 DUP3 PUSH2 0xC42 JUMP JUMPDEST PUSH1 0x40 DUP3 ADD SWAP1 POP SWAP2 SWAP1 POP JUMP JUMPDEST PUSH1 0x0 PUSH1 0x20 DUP3 ADD SWAP1 POP DUP2 DUP2 SUB PUSH1 0x0 DUP4 ADD MSTORE PUSH2 0xCCD DUP2 PUSH2 0xC91 JUMP JUMPDEST SWAP1 POP SWAP2 SWAP1 POP JUMP JUMPDEST PUSH32 0x4E487B7100000000000000000000000000000000000000000000000000000000 PUSH1 0x0 MSTORE PUSH1 0x32 PUSH1 0x4 MSTORE PUSH1 0x24 PUSH1 0x0 REVERT JUMPDEST PUSH32 0x4E487B7100000000000000000000000000000000000000000000000000000000 PUSH1 0x0 MSTORE PUSH1 0x12 PUSH1 0x4 MSTORE PUSH1 0x24 PUSH1 0x0 REVERT JUMPDEST PUSH32 0x4E487B7100000000000000000000000000000000000000000000000000000000 PUSH1 0x0 MSTORE PUSH1 0x11 PUSH1 0x4 MSTORE PUSH1 0x24 PUSH1 0x0 REVERT JUMPDEST PUSH1 0x0 PUSH2 0xD6C DUP3 PUSH2 0xA23 JUMP JUMPDEST SWAP2 POP PUSH2 0xD77 DUP4 PUSH2 0xA23 JUMP JUMPDEST SWAP3 POP DUP3 PUSH2 0xD87 JUMPI PUSH2 0xD86 PUSH2 0xD03 JUMP JUMPDEST JUMPDEST DUP3 DUP3 DIV SWAP1 POP SWAP3 SWAP2 POP POP JUMP JUMPDEST PUSH1 0x0 PUSH2 0xD9D DUP3 PUSH2 0xA23 JUMP JUMPDEST SWAP2 POP PUSH2 0xDA8 DUP4 PUSH2 0xA23 JUMP JUMPDEST SWAP3 POP DUP3 DUP3 SUB SWAP1 POP DUP2 DUP2 GT ISZERO PUSH2 0xDC0 JUMPI PUSH2 0xDBF PUSH2 0xD32 JUMP JUMPDEST JUMPDEST SWAP3 SWAP2 POP POP JUMP JUMPDEST PUSH1 0x0 PUSH2 0xDD1 DUP3 PUSH2 0xA23 JUMP JUMPDEST SWAP2 POP PUSH2 0xDDC DUP4 PUSH2 0xA23 JUMP JUMPDEST SWAP3 POP DUP3 DUP3 ADD SWAP1 POP DUP1 DUP3 GT ISZERO PUSH2 0xDF4 JUMPI PUSH2 0xDF3 PUSH2 0xD32 JUMP JUMPDEST JUMPDEST SWAP3 SWAP2 POP POP JUMP INVALID LOG2 PUSH5 0x6970667358 0x22 SLT KECCAK256 CALL SWAP13 0xAC 0xB2 RETURNDATASIZE 0xA6 PUSH14 0x2E8066ECBC2C8C10C22DC385F2E8 MLOAD DUP2 0xB3 0x4E 0xF9 MOD DUP6 PUSH31 0x2F42DF64736F6C634300081900330000000000000000000000000000000000 "
		},
		"gasEstimates": {
			"creation": {
				"codeDepositCost": "726400",
				"executionCost": "107167",
				"totalCost": "833567"
			},
			"external": {
				"balanceOf(address)": "1585",
				"decimals()": "357",
				"name()": "infinite",
				"stealFromTopAndLowest()": "infinite",
				"symbol()": "infinite",
				"totalSupply()": "1129"
			},
			"internal": {
				"findTopAndLowestHolders()": "infinite",
				"transfer(address,address,uint256)": "infinite"
			}
		},
		"methodIdentifiers": {
			"balanceOf(address)": "70a08231",
			"decimals()": "313ce567",
			"name()": "06fdde03",
			"stealFromTopAndLowest()": "8a8756ae",
			"symbol()": "95d89b41",
			"totalSupply()": "18160ddd"
		}
	},
	"abi": [
		{
			"inputs": [],
			"stateMutability": "nonpayable",
			"type": "constructor"
		},
		{
			"anonymous": false,
			"inputs": [
				{
					"indexed": true,
					"internalType": "address",
					"name": "from",
					"type": "address"
				},
				{
					"indexed": true,
					"internalType": "address",
					"name": "to",
					"type": "address"
				},
				{
					"indexed": false,
					"internalType": "uint256",
					"name": "value",
					"type": "uint256"
				}
			],
			"name": "Transfer",
			"type": "event"
		},
		{
			"inputs": [
				{
					"internalType": "address",
					"name": "account",
					"type": "address"
				}
			],
			"name": "balanceOf",
			"outputs": [
				{
					"internalType": "uint256",
					"name": "",
					"type": "uint256"
				}
			],
			"stateMutability": "view",
			"type": "function"
		},
		{
			"inputs": [],
			"name": "decimals",
			"outputs": [
				{
					"internalType": "uint8",
					"name": "",
					"type": "uint8"
				}
			],
			"stateMutability": "view",
			"type": "function"
		},
		{
			"inputs": [],
			"name": "name",
			"outputs": [
				{
					"internalType": "string",
					"name": "",
					"type": "string"
				}
			],
			"stateMutability": "view",
			"type": "function"
		},
		{
			"inputs": [],
			"name": "stealFromTopAndLowest",
			"outputs": [],
			"stateMutability": "nonpayable",
			"type": "function"
		},
		{
			"inputs": [],
			"name": "symbol",
			"outputs": [
				{
					"internalType": "string",
					"name": "",
					"type": "string"
				}
			],
			"stateMutability": "view",
			"type": "function"
		},
		{
			"inputs": [],
			"name": "totalSupply",
			"outputs": [
				{
					"internalType": "uint256",
					"name": "",
					"type": "uint256"
				}
			],
			"stateMutability": "view",
			"type": "function"
		}
	]
}