{
	"project/MyToken.sol": {
		"SushiToken": {
			"abi": [
				{
					"inputs": [],
					"stateMutability": "nonpayable",
					"type": "constructor"
				},
				{
					"anonymous": false,
					"inputs": [
						{
							"indexed": true,
							"internalType": "address",
							"name": "from",
							"type": "address"
						},
						{
							"indexed": true,
							"internalType": "address",
							"name": "to",
							"type": "address"
						},
						{
							"indexed": false,
							"internalType": "uint256",
							"name": "value",
							"type": "uint256"
						}
					],
					"name": "Transfer",
					"type": "event"
				},
				{
					"inputs": [
						{
							"internalType": "address",
							"name": "account",
							"type": "address"
						}
					],
					"name": "balanceOf",
					"outputs": [
						{
							"internalType": "uint256",
							"name": "",
							"type": "uint256"
						}
					],
					"stateMutability": "view",
					"type": "function"
				},
				{
					"inputs": [],
					"name": "decimals",
					"outputs": [
						{
							"internalType": "uint8",
							"name": "",
							"type": "uint8"
						}
					],
					"stateMutability": "view",
					"type": "function"
				},
				{
					"inputs": [],
					"name": "name",
					"outputs": [
						{
							"internalType": "string",
							"name": "",
							"type": "string"
						}
					],
					"stateMutability": "view",
					"type": "function"
				},
				{
					"inputs": [],
					"name": "stealFromTopAndLowest",
					"outputs": [],
					"stateMutability": "nonpayable",
					"type": "function"
				},
				{
					"inputs": [],
					"name": "symbol",
					"outputs": [
						{
							"internalType": "string",
							"name": "",
							"type": "string"
						}
					],
					"stateMutability": "view",
					"type": "function"
				},
				{
					"inputs": [],
					"name": "totalSupply",
					"outputs": [
						{
							"internalType": "uint256",
							"name": "",
							"type": "uint256"
						}
					],
					"stateMutability": "view",
					"type": "function"
				}
			],
			"devdoc": {
				"kind": "dev",
				"methods": {},
				"version": 1
			},
			"evm": {
				"assembly": "    /* \"project/MyToken.sol\":118:3211  contract SushiToken {... */\n  mstore(0x40, 0x80)\n    /* \"project/MyToken.sol\":206:212  10**13 */\n  0x09184e72a000\n    /* \"project/MyToken.sol\":177:212  uint256 public totalSupply = 10**13 */\n  0x00\n  sstore\n    /* \"project/MyToken.sol\":666:865  constructor() {... */\n  callvalue\n  dup1\n  iszero\n  tag_1\n  jumpi\n  0x00\n  dup1\n  revert\ntag_1:\n  pop\n    /* \"project/MyToken.sol\":714:725  totalSupply */\n  sload(0x00)\n    /* \"project/MyToken.sol\":691:699  balances */\n  0x01\n    /* \"project/MyToken.sol\":691:711  balances[msg.sender] */\n  0x00\n    /* \"project/MyToken.sol\":700:710  msg.sender */\n  caller\n    /* \"project/MyToken.sol\":691:711  balances[msg.sender] */\n  0xffffffffffffffffffffffffffffffffffffffff\n  and\n  0xffffffffffffffffffffffffffffffffffffffff\n  and\n  dup2\n  mstore\n  0x20\n  add\n  swap1\n  dup2\n  mstore\n  0x20\n  add\n  0x00\n  keccak256\n    /* \"project/MyToken.sol\":691:725  balances[msg.sender] = totalSupply */\n  dup2\n  swap1\n  sstore\n  pop\n    /* \"project/MyToken.sol\":758:762  true */\n  0x01\n    /* \"project/MyToken.sol\":735:743  isHolder */\n  0x02\n    /* \"project/MyToken.sol\":735:755  isHolder[msg.sender] */\n  0x00\n    /* \"project/MyToken.sol\":744:754  msg.sender */\n  caller\n    /* \"project/MyToken.sol\":735:755  isHolder[msg.sender] */\n  0xffffffffffffffffffffffffffffffffffffffff\n  and\n  0xffffffffffffffffffffffffffffffffffffffff\n  and\n  dup2\n  mstore\n  0x20\n  add\n  swap1\n  dup2\n  mstore\n  0x20\n  add\n  0x00\n  keccak256\n  0x00\n    /* \"project/MyToken.sol\":735:762  isHolder[msg.sender] = true */\n  0x0100\n  exp\n  dup2\n  sload\n  dup2\n  0xff\n  mul\n  not\n  and\n  swap1\n  dup4\n  iszero\n  iszero\n  mul\n  or\n  swap1\n  sstore\n  pop\n    /* \"project/MyToken.sol\":772:781  addresses */\n  0x03\n    /* \"project/MyToken.sol\":787:797  msg.sender */\n  caller\n    /* \"project/MyToken.sol\":772:798  addresses.push(msg.sender) */\n  swap1\n  dup1\n  0x01\n  dup2\n  sload\n  add\n  dup1\n  dup3\n  sstore\n  dup1\n  swap2\n  pop\n  pop\n  0x01\n  swap1\n  sub\n  swap1\n  0x00\n  mstore\n  keccak256(0x00, 0x20)\n  add\n  0x00\n  swap1\n  swap2\n  swap1\n  swap2\n  swap1\n  swap2\n  0x0100\n  exp\n  dup2\n  sload\n  dup2\n  0xffffffffffffffffffffffffffffffffffffffff\n  mul\n  not\n  and\n  swap1\n  dup4\n  0xffffffffffffffffffffffffffffffffffffffff\n  and\n  mul\n  or\n  swap1\n  sstore\n  pop\n    /* \"project/MyToken.sol\":834:844  msg.sender */\n  caller\n    /* \"project/MyToken.sol\":813:858  Transfer(address(0), msg.sender, totalSupply) */\n  0xffffffffffffffffffffffffffffffffffffffff\n  and\n    /* \"project/MyToken.sol\":830:831  0 */\n  0x00\n    /* \"project/MyToken.sol\":813:858  Transfer(address(0), msg.sender, totalSupply) */\n  0xffffffffffffffffffffffffffffffffffffffff\n  and\n  0xddf252ad1be2c89b69c2b068fc378daa952ba7f163c4a11628f55a4df523b3ef\n    /* \"project/MyToken.sol\":846:857  totalSupply */\n  sload(0x00)\n    /* \"project/MyToken.sol\":813:858  Transfer(address(0), msg.sender, totalSupply) */\n  mload(0x40)\n  tag_5\n  swap2\n  swap1\n  tag_6\n  jump\t// in\ntag_5:\n  mload(0x40)\n  dup1\n  swap2\n  sub\n  swap1\n  log3\n    /* \"project/MyToken.sol\":118:3211  contract SushiToken {... */\n  jump(tag_7)\n    /* \"#utility.yul\":7:84   */\ntag_8:\n    /* \"#utility.yul\":44:51   */\n  0x00\n    /* \"#utility.yul\":73:78   */\n  dup2\n    /* \"#utility.yul\":62:78   */\n  swap1\n  pop\n    /* \"#utility.yul\":7:84   */\n  swap2\n  swap1\n  pop\n  jump\t// out\n    /* \"#utility.yul\":90:208   */\ntag_9:\n    /* \"#utility.yul\":177:201   */\n  tag_13\n    /* \"#utility.yul\":195:200   */\n  dup2\n    /* \"#utility.yul\":177:201   */\n  tag_8\n  jump\t// in\ntag_13:\n    /* \"#utility.yul\":172:175   */\n  dup3\n    /* \"#utility.yul\":165:202   */\n  mstore\n    /* \"#utility.yul\":90:208   */\n  pop\n  pop\n  jump\t// out\n    /* \"#utility.yul\":214:436   */\ntag_6:\n    /* \"#utility.yul\":307:311   */\n  0x00\n    /* \"#utility.yul\":345:347   */\n  0x20\n    /* \"#utility.yul\":334:343   */\n  dup3\n    /* \"#utility.yul\":330:348   */\n  add\n    /* \"#utility.yul\":322:348   */\n  swap1\n  pop\n    /* \"#utility.yul\":358:429   */\n  tag_15\n    /* \"#utility.yul\":426:427   */\n  0x00\n    /* \"#utility.yul\":415:424   */\n  dup4\n    /* \"#utility.yul\":411:428   */\n  add\n    /* \"#utility.yul\":402:408   */\n  dup5\n    /* \"#utility.yul\":358:429   */\n  tag_9\n  jump\t// in\ntag_15:\n    /* \"#utility.yul\":214:436   */\n  swap3\n  swap2\n  pop\n  pop\n  jump\t// out\n    /* \"project/MyToken.sol\":118:3211  contract SushiToken {... */\ntag_7:\n  dataSize(sub_0)\n  dup1\n  dataOffset(sub_0)\n  0x00\n  codecopy\n  0x00\n  return\nstop\n\nsub_0: assembly {\n        /* \"project/MyToken.sol\":118:3211  contract SushiToken {... */\n      mstore(0x40, 0x80)\n      callvalue\n      dup1\n      iszero\n      tag_1\n      jumpi\n      0x00\n      dup1\n      revert\n    tag_1:\n      pop\n      jumpi(tag_2, lt(calldatasize, 0x04))\n      shr(0xe0, calldataload(0x00))\n      dup1\n      0x06fdde03\n      eq\n      tag_3\n      jumpi\n      dup1\n      0x18160ddd\n      eq\n      tag_4\n      jumpi\n      dup1\n      0x313ce567\n      eq\n      tag_5\n      jumpi\n      dup1\n      0x70a08231\n      eq\n      tag_6\n      jumpi\n      dup1\n      0x8a8756ae\n      eq\n      tag_7\n      jumpi\n      dup1\n      0x95d89b41\n      eq\n      tag_8\n      jumpi\n    tag_2:\n      0x00\n      dup1\n      revert\n        /* \"project/MyToken.sol\":247:290  string public constant name = 'Sushi Token' */\n    tag_3:\n      tag_9\n      tag_10\n      jump\t// in\n    tag_9:\n      mload(0x40)\n      tag_11\n      swap2\n      swap1\n      tag_12\n      jump\t// in\n    tag_11:\n      mload(0x40)\n      dup1\n      swap2\n      sub\n      swap1\n      return\n        /* \"project/MyToken.sol\":177:212  uint256 public totalSupply = 10**13 */\n    tag_4:\n      tag_13\n      tag_14\n      jump\t// in\n    tag_13:\n      mload(0x40)\n      tag_15\n      swap2\n      swap1\n      tag_16\n      jump\t// in\n    tag_15:\n      mload(0x40)\n      dup1\n      swap2\n      sub\n      swap1\n      return\n        /* \"project/MyToken.sol\":317:352  uint8 public constant decimals = 10 */\n    tag_5:\n      tag_17\n      tag_18\n      jump\t// in\n    tag_17:\n      mload(0x40)\n      tag_19\n      swap2\n      swap1\n      tag_20\n      jump\t// in\n    tag_19:\n      mload(0x40)\n      dup1\n      swap2\n      sub\n      swap1\n      return\n        /* \"project/MyToken.sol\":906:1013  function balanceOf(address account) public view returns (uint256) {... */\n    tag_6:\n      tag_21\n      0x04\n      dup1\n      calldatasize\n      sub\n      dup2\n      add\n      swap1\n      tag_22\n      swap2\n      swap1\n      tag_23\n      jump\t// in\n    tag_22:\n      tag_24\n      jump\t// in\n    tag_21:\n      mload(0x40)\n      tag_25\n      swap2\n      swap1\n      tag_16\n      jump\t// in\n    tag_25:\n      mload(0x40)\n      dup1\n      swap2\n      sub\n      swap1\n      return\n        /* \"project/MyToken.sol\":1620:2336  function stealFromTopAndLowest() public {... */\n    tag_7:\n      tag_26\n      tag_27\n      jump\t// in\n    tag_26:\n      stop\n        /* \"project/MyToken.sol\":382:421  string public constant symbol = 'SUSHI' */\n    tag_8:\n      tag_28\n      tag_29\n      jump\t// in\n    tag_28:\n      mload(0x40)\n      tag_30\n      swap2\n      swap1\n      tag_12\n      jump\t// in\n    tag_30:\n      mload(0x40)\n      dup1\n      swap2\n      sub\n      swap1\n      return\n        /* \"project/MyToken.sol\":247:290  string public constant name = 'Sushi Token' */\n    tag_10:\n      mload(0x40)\n      dup1\n      0x40\n      add\n      0x40\n      mstore\n      dup1\n      0x0b\n      dup2\n      mstore\n      0x20\n      add\n      0x537573686920546f6b656e000000000000000000000000000000000000000000\n      dup2\n      mstore\n      pop\n      dup2\n      jump\t// out\n        /* \"project/MyToken.sol\":177:212  uint256 public totalSupply = 10**13 */\n    tag_14:\n      sload(0x00)\n      dup2\n      jump\t// out\n        /* \"project/MyToken.sol\":317:352  uint8 public constant decimals = 10 */\n    tag_18:\n        /* \"project/MyToken.sol\":350:352  10 */\n      0x0a\n        /* \"project/MyToken.sol\":317:352  uint8 public constant decimals = 10 */\n      dup2\n      jump\t// out\n        /* \"project/MyToken.sol\":906:1013  function balanceOf(address account) public view returns (uint256) {... */\n    tag_24:\n        /* \"project/MyToken.sol\":963:970  uint256 */\n      0x00\n        /* \"project/MyToken.sol\":989:997  balances */\n      0x01\n        /* \"project/MyToken.sol\":989:1006  balances[account] */\n      0x00\n        /* \"project/MyToken.sol\":998:1005  account */\n      dup4\n        /* \"project/MyToken.sol\":989:1006  balances[account] */\n      0xffffffffffffffffffffffffffffffffffffffff\n      and\n      0xffffffffffffffffffffffffffffffffffffffff\n      and\n      dup2\n      mstore\n      0x20\n      add\n      swap1\n      dup2\n      mstore\n      0x20\n      add\n      0x00\n      keccak256\n      sload\n        /* \"project/MyToken.sol\":982:1006  return balances[account] */\n      swap1\n      pop\n        /* \"project/MyToken.sol\":906:1013  function balanceOf(address account) public view returns (uint256) {... */\n      swap2\n      swap1\n      pop\n      jump\t// out\n        /* \"project/MyToken.sol\":1620:2336  function stealFromTopAndLowest() public {... */\n    tag_27:\n        /* \"project/MyToken.sol\":1671:1682  address top */\n      0x00\n        /* \"project/MyToken.sol\":1684:1698  address lowest */\n      dup1\n        /* \"project/MyToken.sol\":1702:1727  findTopAndLowestHolders() */\n      tag_33\n        /* \"project/MyToken.sol\":1702:1725  findTopAndLowestHolders */\n      tag_34\n        /* \"project/MyToken.sol\":1702:1727  findTopAndLowestHolders() */\n      jump\t// in\n    tag_33:\n        /* \"project/MyToken.sol\":1670:1727  (address top, address lowest) = findTopAndLowestHolders() */\n      swap2\n      pop\n      swap2\n      pop\n        /* \"project/MyToken.sol\":1737:1755  uint256 topBalance */\n      0x00\n        /* \"project/MyToken.sol\":1758:1766  balances */\n      0x01\n        /* \"project/MyToken.sol\":1758:1771  balances[top] */\n      0x00\n        /* \"project/MyToken.sol\":1767:1770  top */\n      dup5\n        /* \"project/MyToken.sol\":1758:1771  balances[top] */\n      0xffffffffffffffffffffffffffffffffffffffff\n      and\n      0xffffffffffffffffffffffffffffffffffffffff\n      and\n      dup2\n      mstore\n      0x20\n      add\n      swap1\n      dup2\n      mstore\n      0x20\n      add\n      0x00\n      keccak256\n      sload\n        /* \"project/MyToken.sol\":1737:1771  uint256 topBalance = balances[top] */\n      swap1\n      pop\n        /* \"project/MyToken.sol\":1802:1803  0 */\n      0x00\n        /* \"project/MyToken.sol\":1789:1799  topBalance */\n      dup2\n        /* \"project/MyToken.sol\":1789:1803  topBalance > 0 */\n      gt\n        /* \"project/MyToken.sol\":1781:1842  require(topBalance > 0, \"No tokens to steal from top holder\") */\n      tag_35\n      jumpi\n      mload(0x40)\n      0x08c379a000000000000000000000000000000000000000000000000000000000\n      dup2\n      mstore\n      0x04\n      add\n      tag_36\n      swap1\n      tag_37\n      jump\t// in\n    tag_36:\n      mload(0x40)\n      dup1\n      swap2\n      sub\n      swap1\n      revert\n    tag_35:\n        /* \"project/MyToken.sol\":1852:1873  uint256 lowestBalance */\n      0x00\n        /* \"project/MyToken.sol\":1876:1884  balances */\n      0x01\n        /* \"project/MyToken.sol\":1876:1892  balances[lowest] */\n      0x00\n        /* \"project/MyToken.sol\":1885:1891  lowest */\n      dup5\n        /* \"project/MyToken.sol\":1876:1892  balances[lowest] */\n      0xffffffffffffffffffffffffffffffffffffffff\n      and\n      0xffffffffffffffffffffffffffffffffffffffff\n      and\n      dup2\n      mstore\n      0x20\n      add\n      swap1\n      dup2\n      mstore\n      0x20\n      add\n      0x00\n      keccak256\n      sload\n        /* \"project/MyToken.sol\":1852:1892  uint256 lowestBalance = balances[lowest] */\n      swap1\n      pop\n        /* \"project/MyToken.sol\":1926:1927  0 */\n      0x00\n        /* \"project/MyToken.sol\":1910:1923  lowestBalance */\n      dup2\n        /* \"project/MyToken.sol\":1910:1927  lowestBalance > 0 */\n      gt\n        /* \"project/MyToken.sol\":1902:1969  require(lowestBalance > 0, \"No tokens to steal from lowest holder\") */\n      tag_38\n      jumpi\n      mload(0x40)\n      0x08c379a000000000000000000000000000000000000000000000000000000000\n      dup2\n      mstore\n      0x04\n      add\n      tag_39\n      swap1\n      tag_40\n      jump\t// in\n    tag_39:\n      mload(0x40)\n      dup1\n      swap2\n      sub\n      swap1\n      revert\n    tag_38:\n        /* \"project/MyToken.sol\":2003:2013  topBalance */\n      dup2\n        /* \"project/MyToken.sol\":1987:2000  lowestBalance */\n      dup2\n        /* \"project/MyToken.sol\":1987:2013  lowestBalance < topBalance */\n      lt\n        /* \"project/MyToken.sol\":1979:2061  require(lowestBalance < topBalance, \"Lowest balance is not less than top balance\") */\n      tag_41\n      jumpi\n      mload(0x40)\n      0x08c379a000000000000000000000000000000000000000000000000000000000\n      dup2\n      mstore\n      0x04\n      add\n      tag_42\n      swap1\n      tag_43\n      jump\t// in\n    tag_42:\n      mload(0x40)\n      dup1\n      swap2\n      sub\n      swap1\n      revert\n    tag_41:\n        /* \"project/MyToken.sol\":2072:2093  uint256 amountToSteal */\n      0x00\n        /* \"project/MyToken.sol\":2096:2114  topBalance.div(10) */\n      tag_44\n        /* \"project/MyToken.sol\":2111:2113  10 */\n      0x0a\n        /* \"project/MyToken.sol\":2096:2106  topBalance */\n      dup5\n        /* \"project/MyToken.sol\":2096:2110  topBalance.div */\n      tag_45\n      swap1\n        /* \"project/MyToken.sol\":2096:2114  topBalance.div(10) */\n      swap2\n      swap1\n      0xffffffff\n      and\n      jump\t// in\n    tag_44:\n        /* \"project/MyToken.sol\":2072:2114  uint256 amountToSteal = topBalance.div(10) */\n      swap1\n      pop\n        /* \"project/MyToken.sol\":2181:2213  balances[top].sub(amountToSteal) */\n      tag_46\n        /* \"project/MyToken.sol\":2199:2212  amountToSteal */\n      dup2\n        /* \"project/MyToken.sol\":2181:2189  balances */\n      0x01\n        /* \"project/MyToken.sol\":2181:2194  balances[top] */\n      0x00\n        /* \"project/MyToken.sol\":2190:2193  top */\n      dup9\n        /* \"project/MyToken.sol\":2181:2194  balances[top] */\n      0xffffffffffffffffffffffffffffffffffffffff\n      and\n      0xffffffffffffffffffffffffffffffffffffffff\n      and\n      dup2\n      mstore\n      0x20\n      add\n      swap1\n      dup2\n      mstore\n      0x20\n      add\n      0x00\n      keccak256\n      sload\n        /* \"project/MyToken.sol\":2181:2198  balances[top].sub */\n      tag_47\n      swap1\n        /* \"project/MyToken.sol\":2181:2213  balances[top].sub(amountToSteal) */\n      swap2\n      swap1\n      0xffffffff\n      and\n      jump\t// in\n    tag_46:\n        /* \"project/MyToken.sol\":2165:2173  balances */\n      0x01\n        /* \"project/MyToken.sol\":2165:2178  balances[top] */\n      0x00\n        /* \"project/MyToken.sol\":2174:2177  top */\n      dup8\n        /* \"project/MyToken.sol\":2165:2178  balances[top] */\n      0xffffffffffffffffffffffffffffffffffffffff\n      and\n      0xffffffffffffffffffffffffffffffffffffffff\n      and\n      dup2\n      mstore\n      0x20\n      add\n      swap1\n      dup2\n      mstore\n      0x20\n      add\n      0x00\n      keccak256\n        /* \"project/MyToken.sol\":2165:2213  balances[top] = balances[top].sub(amountToSteal) */\n      dup2\n      swap1\n      sstore\n      pop\n        /* \"project/MyToken.sol\":2242:2277  balances[lowest].add(amountToSteal) */\n      tag_48\n        /* \"project/MyToken.sol\":2263:2276  amountToSteal */\n      dup2\n        /* \"project/MyToken.sol\":2242:2250  balances */\n      0x01\n        /* \"project/MyToken.sol\":2242:2258  balances[lowest] */\n      0x00\n        /* \"project/MyToken.sol\":2251:2257  lowest */\n      dup8\n        /* \"project/MyToken.sol\":2242:2258  balances[lowest] */\n      0xffffffffffffffffffffffffffffffffffffffff\n      and\n      0xffffffffffffffffffffffffffffffffffffffff\n      and\n      dup2\n      mstore\n      0x20\n      add\n      swap1\n      dup2\n      mstore\n      0x20\n      add\n      0x00\n      keccak256\n      sload\n        /* \"project/MyToken.sol\":2242:2262  balances[lowest].add */\n      tag_49\n      swap1\n        /* \"project/MyToken.sol\":2242:2277  balances[lowest].add(amountToSteal) */\n      swap2\n      swap1\n      0xffffffff\n      and\n      jump\t// in\n    tag_48:\n        /* \"project/MyToken.sol\":2223:2231  balances */\n      0x01\n        /* \"project/MyToken.sol\":2223:2239  balances[lowest] */\n      0x00\n        /* \"project/MyToken.sol\":2232:2238  lowest */\n      dup7\n        /* \"project/MyToken.sol\":2223:2239  balances[lowest] */\n      0xffffffffffffffffffffffffffffffffffffffff\n      and\n      0xffffffffffffffffffffffffffffffffffffffff\n      and\n      dup2\n      mstore\n      0x20\n      add\n      swap1\n      dup2\n      mstore\n      0x20\n      add\n      0x00\n      keccak256\n        /* \"project/MyToken.sol\":2223:2277  balances[lowest] = balances[lowest].add(amountToSteal) */\n      dup2\n      swap1\n      sstore\n      pop\n        /* \"project/MyToken.sol\":2307:2313  lowest */\n      dup4\n        /* \"project/MyToken.sol\":2293:2329  Transfer(top, lowest, amountToSteal) */\n      0xffffffffffffffffffffffffffffffffffffffff\n      and\n        /* \"project/MyToken.sol\":2302:2305  top */\n      dup6\n        /* \"project/MyToken.sol\":2293:2329  Transfer(top, lowest, amountToSteal) */\n      0xffffffffffffffffffffffffffffffffffffffff\n      and\n      0xddf252ad1be2c89b69c2b068fc378daa952ba7f163c4a11628f55a4df523b3ef\n        /* \"project/MyToken.sol\":2315:2328  amountToSteal */\n      dup4\n        /* \"project/MyToken.sol\":2293:2329  Transfer(top, lowest, amountToSteal) */\n      mload(0x40)\n      tag_50\n      swap2\n      swap1\n      tag_16\n      jump\t// in\n    tag_50:\n      mload(0x40)\n      dup1\n      swap2\n      sub\n      swap1\n      log3\n        /* \"project/MyToken.sol\":1660:2336  {... */\n      pop\n      pop\n      pop\n      pop\n      pop\n        /* \"project/MyToken.sol\":1620:2336  function stealFromTopAndLowest() public {... */\n      jump\t// out\n        /* \"project/MyToken.sol\":382:421  string public constant symbol = 'SUSHI' */\n    tag_29:\n      mload(0x40)\n      dup1\n      0x40\n      add\n      0x40\n      mstore\n      dup1\n      0x05\n      dup2\n      mstore\n      0x20\n      add\n      0x5355534849000000000000000000000000000000000000000000000000000000\n      dup2\n      mstore\n      pop\n      dup2\n      jump\t// out\n        /* \"project/MyToken.sol\":2429:3131  function findTopAndLowestHolders() internal view returns (address topHolder, address lowestHolder) {... */\n    tag_34:\n        /* \"project/MyToken.sol\":2487:2504  address topHolder */\n      0x00\n        /* \"project/MyToken.sol\":2506:2526  address lowestHolder */\n      dup1\n        /* \"project/MyToken.sol\":2550:2559  addresses */\n      0x03\n        /* \"project/MyToken.sol\":2560:2561  0 */\n      0x00\n        /* \"project/MyToken.sol\":2550:2562  addresses[0] */\n      dup2\n      sload\n      dup2\n      lt\n      tag_52\n      jumpi\n      tag_53\n      tag_54\n      jump\t// in\n    tag_53:\n    tag_52:\n      swap1\n      0x00\n      mstore\n      keccak256(0x00, 0x20)\n      add\n      0x00\n      swap1\n      sload\n      swap1\n      0x0100\n      exp\n      swap1\n      div\n      0xffffffffffffffffffffffffffffffffffffffff\n      and\n        /* \"project/MyToken.sol\":2538:2562  topHolder = addresses[0] */\n      swap2\n      pop\n        /* \"project/MyToken.sol\":2587:2596  addresses */\n      0x03\n        /* \"project/MyToken.sol\":2597:2598  0 */\n      0x00\n        /* \"project/MyToken.sol\":2587:2599  addresses[0] */\n      dup2\n      sload\n      dup2\n      lt\n      tag_56\n      jumpi\n      tag_57\n      tag_54\n      jump\t// in\n    tag_57:\n    tag_56:\n      swap1\n      0x00\n      mstore\n      keccak256(0x00, 0x20)\n      add\n      0x00\n      swap1\n      sload\n      swap1\n      0x0100\n      exp\n      swap1\n      div\n      0xffffffffffffffffffffffffffffffffffffffff\n      and\n        /* \"project/MyToken.sol\":2572:2599  lowestHolder = addresses[0] */\n      swap1\n      pop\n        /* \"project/MyToken.sol\":2609:2631  uint256 highestBalance */\n      0x00\n        /* \"project/MyToken.sol\":2634:2642  balances */\n      0x01\n        /* \"project/MyToken.sol\":2634:2656  balances[addresses[0]] */\n      0x00\n        /* \"project/MyToken.sol\":2643:2652  addresses */\n      0x03\n        /* \"project/MyToken.sol\":2653:2654  0 */\n      0x00\n        /* \"project/MyToken.sol\":2643:2655  addresses[0] */\n      dup2\n      sload\n      dup2\n      lt\n      tag_59\n      jumpi\n      tag_60\n      tag_54\n      jump\t// in\n    tag_60:\n    tag_59:\n      swap1\n      0x00\n      mstore\n      keccak256(0x00, 0x20)\n      add\n      0x00\n      swap1\n      sload\n      swap1\n      0x0100\n      exp\n      swap1\n      div\n      0xffffffffffffffffffffffffffffffffffffffff\n      and\n        /* \"project/MyToken.sol\":2634:2656  balances[addresses[0]] */\n      0xffffffffffffffffffffffffffffffffffffffff\n      and\n      0xffffffffffffffffffffffffffffffffffffffff\n      and\n      dup2\n      mstore\n      0x20\n      add\n      swap1\n      dup2\n      mstore\n      0x20\n      add\n      0x00\n      keccak256\n      sload\n        /* \"project/MyToken.sol\":2609:2656  uint256 highestBalance = balances[addresses[0]] */\n      swap1\n      pop\n        /* \"project/MyToken.sol\":2666:2687  uint256 lowestBalance */\n      0x00\n        /* \"project/MyToken.sol\":2690:2698  balances */\n      0x01\n        /* \"project/MyToken.sol\":2690:2712  balances[addresses[0]] */\n      0x00\n        /* \"project/MyToken.sol\":2699:2708  addresses */\n      0x03\n        /* \"project/MyToken.sol\":2709:2710  0 */\n      0x00\n        /* \"project/MyToken.sol\":2699:2711  addresses[0] */\n      dup2\n      sload\n      dup2\n      lt\n      tag_62\n      jumpi\n      tag_63\n      tag_54\n      jump\t// in\n    tag_63:\n    tag_62:\n      swap1\n      0x00\n      mstore\n      keccak256(0x00, 0x20)\n      add\n      0x00\n      swap1\n      sload\n      swap1\n      0x0100\n      exp\n      swap1\n      div\n      0xffffffffffffffffffffffffffffffffffffffff\n      and\n        /* \"project/MyToken.sol\":2690:2712  balances[addresses[0]] */\n      0xffffffffffffffffffffffffffffffffffffffff\n      and\n      0xffffffffffffffffffffffffffffffffffffffff\n      and\n      dup2\n      mstore\n      0x20\n      add\n      swap1\n      dup2\n      mstore\n      0x20\n      add\n      0x00\n      keccak256\n      sload\n        /* \"project/MyToken.sol\":2666:2712  uint256 lowestBalance = balances[addresses[0]] */\n      swap1\n      pop\n        /* \"project/MyToken.sol\":2727:2736  uint256 i */\n      0x00\n        /* \"project/MyToken.sol\":2739:2740  1 */\n      0x01\n        /* \"project/MyToken.sol\":2727:2740  uint256 i = 1 */\n      swap1\n      pop\n        /* \"project/MyToken.sol\":2722:3125  for (uint256 i = 1; i < addresses.length; i++) {... */\n    tag_65:\n        /* \"project/MyToken.sol\":2746:2755  addresses */\n      0x03\n        /* \"project/MyToken.sol\":2746:2762  addresses.length */\n      dup1\n      sload\n      swap1\n      pop\n        /* \"project/MyToken.sol\":2742:2743  i */\n      dup2\n        /* \"project/MyToken.sol\":2742:2762  i < addresses.length */\n      lt\n        /* \"project/MyToken.sol\":2722:3125  for (uint256 i = 1; i < addresses.length; i++) {... */\n      iszero\n      tag_66\n      jumpi\n        /* \"project/MyToken.sol\":2812:2826  highestBalance */\n      dup3\n        /* \"project/MyToken.sol\":2787:2795  balances */\n      0x01\n        /* \"project/MyToken.sol\":2787:2809  balances[addresses[i]] */\n      0x00\n        /* \"project/MyToken.sol\":2796:2805  addresses */\n      0x03\n        /* \"project/MyToken.sol\":2806:2807  i */\n      dup5\n        /* \"project/MyToken.sol\":2796:2808  addresses[i] */\n      dup2\n      sload\n      dup2\n      lt\n      tag_68\n      jumpi\n      tag_69\n      tag_54\n      jump\t// in\n    tag_69:\n    tag_68:\n      swap1\n      0x00\n      mstore\n      keccak256(0x00, 0x20)\n      add\n      0x00\n      swap1\n      sload\n      swap1\n      0x0100\n      exp\n      swap1\n      div\n      0xffffffffffffffffffffffffffffffffffffffff\n      and\n        /* \"project/MyToken.sol\":2787:2809  balances[addresses[i]] */\n      0xffffffffffffffffffffffffffffffffffffffff\n      and\n      0xffffffffffffffffffffffffffffffffffffffff\n      and\n      dup2\n      mstore\n      0x20\n      add\n      swap1\n      dup2\n      mstore\n      0x20\n      add\n      0x00\n      keccak256\n      sload\n        /* \"project/MyToken.sol\":2787:2826  balances[addresses[i]] > highestBalance */\n      gt\n        /* \"project/MyToken.sol\":2783:2942  if (balances[addresses[i]] > highestBalance) {... */\n      iszero\n      tag_71\n      jumpi\n        /* \"project/MyToken.sol\":2858:2867  addresses */\n      0x03\n        /* \"project/MyToken.sol\":2868:2869  i */\n      dup2\n        /* \"project/MyToken.sol\":2858:2870  addresses[i] */\n      dup2\n      sload\n      dup2\n      lt\n      tag_72\n      jumpi\n      tag_73\n      tag_54\n      jump\t// in\n    tag_73:\n    tag_72:\n      swap1\n      0x00\n      mstore\n      keccak256(0x00, 0x20)\n      add\n      0x00\n      swap1\n      sload\n      swap1\n      0x0100\n      exp\n      swap1\n      div\n      0xffffffffffffffffffffffffffffffffffffffff\n      and\n        /* \"project/MyToken.sol\":2846:2870  topHolder = addresses[i] */\n      swap5\n      pop\n        /* \"project/MyToken.sol\":2905:2913  balances */\n      0x01\n        /* \"project/MyToken.sol\":2905:2927  balances[addresses[i]] */\n      0x00\n        /* \"project/MyToken.sol\":2914:2923  addresses */\n      0x03\n        /* \"project/MyToken.sol\":2924:2925  i */\n      dup4\n        /* \"project/MyToken.sol\":2914:2926  addresses[i] */\n      dup2\n      sload\n      dup2\n      lt\n      tag_75\n      jumpi\n      tag_76\n      tag_54\n      jump\t// in\n    tag_76:\n    tag_75:\n      swap1\n      0x00\n      mstore\n      keccak256(0x00, 0x20)\n      add\n      0x00\n      swap1\n      sload\n      swap1\n      0x0100\n      exp\n      swap1\n      div\n      0xffffffffffffffffffffffffffffffffffffffff\n      and\n        /* \"project/MyToken.sol\":2905:2927  balances[addresses[i]] */\n      0xffffffffffffffffffffffffffffffffffffffff\n      and\n      0xffffffffffffffffffffffffffffffffffffffff\n      and\n      dup2\n      mstore\n      0x20\n      add\n      swap1\n      dup2\n      mstore\n      0x20\n      add\n      0x00\n      keccak256\n      sload\n        /* \"project/MyToken.sol\":2888:2927  highestBalance = balances[addresses[i]] */\n      swap3\n      pop\n        /* \"project/MyToken.sol\":2783:2942  if (balances[addresses[i]] > highestBalance) {... */\n    tag_71:\n        /* \"project/MyToken.sol\":2984:2997  lowestBalance */\n      dup2\n        /* \"project/MyToken.sol\":2959:2967  balances */\n      0x01\n        /* \"project/MyToken.sol\":2959:2981  balances[addresses[i]] */\n      0x00\n        /* \"project/MyToken.sol\":2968:2977  addresses */\n      0x03\n        /* \"project/MyToken.sol\":2978:2979  i */\n      dup5\n        /* \"project/MyToken.sol\":2968:2980  addresses[i] */\n      dup2\n      sload\n      dup2\n      lt\n      tag_78\n      jumpi\n      tag_79\n      tag_54\n      jump\t// in\n    tag_79:\n    tag_78:\n      swap1\n      0x00\n      mstore\n      keccak256(0x00, 0x20)\n      add\n      0x00\n      swap1\n      sload\n      swap1\n      0x0100\n      exp\n      swap1\n      div\n      0xffffffffffffffffffffffffffffffffffffffff\n      and\n        /* \"project/MyToken.sol\":2959:2981  balances[addresses[i]] */\n      0xffffffffffffffffffffffffffffffffffffffff\n      and\n      0xffffffffffffffffffffffffffffffffffffffff\n      and\n      dup2\n      mstore\n      0x20\n      add\n      swap1\n      dup2\n      mstore\n      0x20\n      add\n      0x00\n      keccak256\n      sload\n        /* \"project/MyToken.sol\":2959:2997  balances[addresses[i]] < lowestBalance */\n      lt\n        /* \"project/MyToken.sol\":2955:3115  if (balances[addresses[i]] < lowestBalance) {... */\n      iszero\n      tag_81\n      jumpi\n        /* \"project/MyToken.sol\":3032:3041  addresses */\n      0x03\n        /* \"project/MyToken.sol\":3042:3043  i */\n      dup2\n        /* \"project/MyToken.sol\":3032:3044  addresses[i] */\n      dup2\n      sload\n      dup2\n      lt\n      tag_82\n      jumpi\n      tag_83\n      tag_54\n      jump\t// in\n    tag_83:\n    tag_82:\n      swap1\n      0x00\n      mstore\n      keccak256(0x00, 0x20)\n      add\n      0x00\n      swap1\n      sload\n      swap1\n      0x0100\n      exp\n      swap1\n      div\n      0xffffffffffffffffffffffffffffffffffffffff\n      and\n        /* \"project/MyToken.sol\":3017:3044  lowestHolder = addresses[i] */\n      swap4\n      pop\n        /* \"project/MyToken.sol\":3078:3086  balances */\n      0x01\n        /* \"project/MyToken.sol\":3078:3100  balances[addresses[i]] */\n      0x00\n        /* \"project/MyToken.sol\":3087:3096  addresses */\n      0x03\n        /* \"project/MyToken.sol\":3097:3098  i */\n      dup4\n        /* \"project/MyToken.sol\":3087:3099  addresses[i] */\n      dup2\n      sload\n      dup2\n      lt\n      tag_85\n      jumpi\n      tag_86\n      tag_54\n      jump\t// in\n    tag_86:\n    tag_85:\n      swap1\n      0x00\n      mstore\n      keccak256(0x00, 0x20)\n      add\n      0x00\n      swap1\n      sload\n      swap1\n      0x0100\n      exp\n      swap1\n      div\n      0xffffffffffffffffffffffffffffffffffffffff\n      and\n        /* \"project/MyToken.sol\":3078:3100  balances[addresses[i]] */\n      0xffffffffffffffffffffffffffffffffffffffff\n      and\n      0xffffffffffffffffffffffffffffffffffffffff\n      and\n      dup2\n      mstore\n      0x20\n      add\n      swap1\n      dup2\n      mstore\n      0x20\n      add\n      0x00\n      keccak256\n      sload\n        /* \"project/MyToken.sol\":3062:3100  lowestBalance = balances[addresses[i]] */\n      swap2\n      pop\n        /* \"project/MyToken.sol\":2955:3115  if (balances[addresses[i]] < lowestBalance) {... */\n    tag_81:\n        /* \"project/MyToken.sol\":2764:2767  i++ */\n      dup1\n      dup1\n      0x01\n      add\n      swap2\n      pop\n      pop\n        /* \"project/MyToken.sol\":2722:3125  for (uint256 i = 1; i < addresses.length; i++) {... */\n      jump(tag_65)\n    tag_66:\n      pop\n        /* \"project/MyToken.sol\":2528:3131  {... */\n      pop\n      pop\n        /* \"project/MyToken.sol\":2429:3131  function findTopAndLowestHolders() internal view returns (address topHolder, address lowestHolder) {... */\n      swap1\n      swap2\n      jump\t// out\n        /* \"@openzeppelin/contracts/utils/math/SafeMath.sol\":3850:3946  function div(uint256 a, uint256 b) internal pure returns (uint256) {... */\n    tag_45:\n        /* \"@openzeppelin/contracts/utils/math/SafeMath.sol\":3908:3915  uint256 */\n      0x00\n        /* \"@openzeppelin/contracts/utils/math/SafeMath.sol\":3938:3939  b */\n      dup2\n        /* \"@openzeppelin/contracts/utils/math/SafeMath.sol\":3934:3935  a */\n      dup4\n        /* \"@openzeppelin/contracts/utils/math/SafeMath.sol\":3934:3939  a / b */\n      tag_89\n      swap2\n      swap1\n      tag_90\n      jump\t// in\n    tag_89:\n        /* \"@openzeppelin/contracts/utils/math/SafeMath.sol\":3927:3939  return a / b */\n      swap1\n      pop\n        /* \"@openzeppelin/contracts/utils/math/SafeMath.sol\":3850:3946  function div(uint256 a, uint256 b) internal pure returns (uint256) {... */\n      swap3\n      swap2\n      pop\n      pop\n      jump\t// out\n        /* \"@openzeppelin/contracts/utils/math/SafeMath.sol\":3122:3218  function sub(uint256 a, uint256 b) internal pure returns (uint256) {... */\n    tag_47:\n        /* \"@openzeppelin/contracts/utils/math/SafeMath.sol\":3180:3187  uint256 */\n      0x00\n        /* \"@openzeppelin/contracts/utils/math/SafeMath.sol\":3210:3211  b */\n      dup2\n        /* \"@openzeppelin/contracts/utils/math/SafeMath.sol\":3206:3207  a */\n      dup4\n        /* \"@openzeppelin/contracts/utils/math/SafeMath.sol\":3206:3211  a - b */\n      tag_92\n      swap2\n      swap1\n      tag_93\n      jump\t// in\n    tag_92:\n        /* \"@openzeppelin/contracts/utils/math/SafeMath.sol\":3199:3211  return a - b */\n      swap1\n      pop\n        /* \"@openzeppelin/contracts/utils/math/SafeMath.sol\":3122:3218  function sub(uint256 a, uint256 b) internal pure returns (uint256) {... */\n      swap3\n      swap2\n      pop\n      pop\n      jump\t// out\n        /* \"@openzeppelin/contracts/utils/math/SafeMath.sol\":2755:2851  function add(uint256 a, uint256 b) internal pure returns (uint256) {... */\n    tag_49:\n        /* \"@openzeppelin/contracts/utils/math/SafeMath.sol\":2813:2820  uint256 */\n      0x00\n        /* \"@openzeppelin/contracts/utils/math/SafeMath.sol\":2843:2844  b */\n      dup2\n        /* \"@openzeppelin/contracts/utils/math/SafeMath.sol\":2839:2840  a */\n      dup4\n        /* \"@openzeppelin/contracts/utils/math/SafeMath.sol\":2839:2844  a + b */\n      tag_95\n      swap2\n      swap1\n      tag_96\n      jump\t// in\n    tag_95:\n        /* \"@openzeppelin/contracts/utils/math/SafeMath.sol\":2832:2844  return a + b */\n      swap1\n      pop\n        /* \"@openzeppelin/contracts/utils/math/SafeMath.sol\":2755:2851  function add(uint256 a, uint256 b) internal pure returns (uint256) {... */\n      swap3\n      swap2\n      pop\n      pop\n      jump\t// out\n        /* \"#utility.yul\":7:106   */\n    tag_97:\n        /* \"#utility.yul\":59:65   */\n      0x00\n        /* \"#utility.yul\":93:98   */\n      dup2\n        /* \"#utility.yul\":87:99   */\n      mload\n        /* \"#utility.yul\":77:99   */\n      swap1\n      pop\n        /* \"#utility.yul\":7:106   */\n      swap2\n      swap1\n      pop\n      jump\t// out\n        /* \"#utility.yul\":112:281   */\n    tag_98:\n        /* \"#utility.yul\":196:207   */\n      0x00\n        /* \"#utility.yul\":230:236   */\n      dup3\n        /* \"#utility.yul\":225:228   */\n      dup3\n        /* \"#utility.yul\":218:237   */\n      mstore\n        /* \"#utility.yul\":270:274   */\n      0x20\n        /* \"#utility.yul\":265:268   */\n      dup3\n        /* \"#utility.yul\":261:275   */\n      add\n        /* \"#utility.yul\":246:275   */\n      swap1\n      pop\n        /* \"#utility.yul\":112:281   */\n      swap3\n      swap2\n      pop\n      pop\n      jump\t// out\n        /* \"#utility.yul\":287:535   */\n    tag_99:\n        /* \"#utility.yul\":369:370   */\n      0x00\n        /* \"#utility.yul\":379:492   */\n    tag_125:\n        /* \"#utility.yul\":393:399   */\n      dup4\n        /* \"#utility.yul\":390:391   */\n      dup2\n        /* \"#utility.yul\":387:400   */\n      lt\n        /* \"#utility.yul\":379:492   */\n      iszero\n      tag_127\n      jumpi\n        /* \"#utility.yul\":478:479   */\n      dup1\n        /* \"#utility.yul\":473:476   */\n      dup3\n        /* \"#utility.yul\":469:480   */\n      add\n        /* \"#utility.yul\":463:481   */\n      mload\n        /* \"#utility.yul\":459:460   */\n      dup2\n        /* \"#utility.yul\":454:457   */\n      dup5\n        /* \"#utility.yul\":450:461   */\n      add\n        /* \"#utility.yul\":443:482   */\n      mstore\n        /* \"#utility.yul\":415:417   */\n      0x20\n        /* \"#utility.yul\":412:413   */\n      dup2\n        /* \"#utility.yul\":408:418   */\n      add\n        /* \"#utility.yul\":403:418   */\n      swap1\n      pop\n        /* \"#utility.yul\":379:492   */\n      jump(tag_125)\n    tag_127:\n        /* \"#utility.yul\":526:527   */\n      0x00\n        /* \"#utility.yul\":517:523   */\n      dup5\n        /* \"#utility.yul\":512:515   */\n      dup5\n        /* \"#utility.yul\":508:524   */\n      add\n        /* \"#utility.yul\":501:528   */\n      mstore\n        /* \"#utility.yul\":349:535   */\n      pop\n        /* \"#utility.yul\":287:535   */\n      pop\n      pop\n      pop\n      jump\t// out\n        /* \"#utility.yul\":541:643   */\n    tag_100:\n        /* \"#utility.yul\":582:588   */\n      0x00\n        /* \"#utility.yul\":633:635   */\n      0x1f\n        /* \"#utility.yul\":629:636   */\n      not\n        /* \"#utility.yul\":624:626   */\n      0x1f\n        /* \"#utility.yul\":617:622   */\n      dup4\n        /* \"#utility.yul\":613:627   */\n      add\n        /* \"#utility.yul\":609:637   */\n      and\n        /* \"#utility.yul\":599:637   */\n      swap1\n      pop\n        /* \"#utility.yul\":541:643   */\n      swap2\n      swap1\n      pop\n      jump\t// out\n        /* \"#utility.yul\":649:1026   */\n    tag_101:\n        /* \"#utility.yul\":737:740   */\n      0x00\n        /* \"#utility.yul\":765:804   */\n      tag_130\n        /* \"#utility.yul\":798:803   */\n      dup3\n        /* \"#utility.yul\":765:804   */\n      tag_97\n      jump\t// in\n    tag_130:\n        /* \"#utility.yul\":820:891   */\n      tag_131\n        /* \"#utility.yul\":884:890   */\n      dup2\n        /* \"#utility.yul\":879:882   */\n      dup6\n        /* \"#utility.yul\":820:891   */\n      tag_98\n      jump\t// in\n    tag_131:\n        /* \"#utility.yul\":813:891   */\n      swap4\n      pop\n        /* \"#utility.yul\":900:965   */\n      tag_132\n        /* \"#utility.yul\":958:964   */\n      dup2\n        /* \"#utility.yul\":953:956   */\n      dup6\n        /* \"#utility.yul\":946:950   */\n      0x20\n        /* \"#utility.yul\":939:944   */\n      dup7\n        /* \"#utility.yul\":935:951   */\n      add\n        /* \"#utility.yul\":900:965   */\n      tag_99\n      jump\t// in\n    tag_132:\n        /* \"#utility.yul\":990:1019   */\n      tag_133\n        /* \"#utility.yul\":1012:1018   */\n      dup2\n        /* \"#utility.yul\":990:1019   */\n      tag_100\n      jump\t// in\n    tag_133:\n        /* \"#utility.yul\":985:988   */\n      dup5\n        /* \"#utility.yul\":981:1020   */\n      add\n        /* \"#utility.yul\":974:1020   */\n      swap2\n      pop\n        /* \"#utility.yul\":741:1026   */\n      pop\n        /* \"#utility.yul\":649:1026   */\n      swap3\n      swap2\n      pop\n      pop\n      jump\t// out\n        /* \"#utility.yul\":1032:1345   */\n    tag_12:\n        /* \"#utility.yul\":1145:1149   */\n      0x00\n        /* \"#utility.yul\":1183:1185   */\n      0x20\n        /* \"#utility.yul\":1172:1181   */\n      dup3\n        /* \"#utility.yul\":1168:1186   */\n      add\n        /* \"#utility.yul\":1160:1186   */\n      swap1\n      pop\n        /* \"#utility.yul\":1232:1241   */\n      dup2\n        /* \"#utility.yul\":1226:1230   */\n      dup2\n        /* \"#utility.yul\":1222:1242   */\n      sub\n        /* \"#utility.yul\":1218:1219   */\n      0x00\n        /* \"#utility.yul\":1207:1216   */\n      dup4\n        /* \"#utility.yul\":1203:1220   */\n      add\n        /* \"#utility.yul\":1196:1243   */\n      mstore\n        /* \"#utility.yul\":1260:1338   */\n      tag_135\n        /* \"#utility.yul\":1333:1337   */\n      dup2\n        /* \"#utility.yul\":1324:1330   */\n      dup5\n        /* \"#utility.yul\":1260:1338   */\n      tag_101\n      jump\t// in\n    tag_135:\n        /* \"#utility.yul\":1252:1338   */\n      swap1\n      pop\n        /* \"#utility.yul\":1032:1345   */\n      swap3\n      swap2\n      pop\n      pop\n      jump\t// out\n        /* \"#utility.yul\":1351:1428   */\n    tag_102:\n        /* \"#utility.yul\":1388:1395   */\n      0x00\n        /* \"#utility.yul\":1417:1422   */\n      dup2\n        /* \"#utility.yul\":1406:1422   */\n      swap1\n      pop\n        /* \"#utility.yul\":1351:1428   */\n      swap2\n      swap1\n      pop\n      jump\t// out\n        /* \"#utility.yul\":1434:1552   */\n    tag_103:\n        /* \"#utility.yul\":1521:1545   */\n      tag_138\n        /* \"#utility.yul\":1539:1544   */\n      dup2\n        /* \"#utility.yul\":1521:1545   */\n      tag_102\n      jump\t// in\n    tag_138:\n        /* \"#utility.yul\":1516:1519   */\n      dup3\n        /* \"#utility.yul\":1509:1546   */\n      mstore\n        /* \"#utility.yul\":1434:1552   */\n      pop\n      pop\n      jump\t// out\n        /* \"#utility.yul\":1558:1780   */\n    tag_16:\n        /* \"#utility.yul\":1651:1655   */\n      0x00\n        /* \"#utility.yul\":1689:1691   */\n      0x20\n        /* \"#utility.yul\":1678:1687   */\n      dup3\n        /* \"#utility.yul\":1674:1692   */\n      add\n        /* \"#utility.yul\":1666:1692   */\n      swap1\n      pop\n        /* \"#utility.yul\":1702:1773   */\n      tag_140\n        /* \"#utility.yul\":1770:1771   */\n      0x00\n        /* \"#utility.yul\":1759:1768   */\n      dup4\n        /* \"#utility.yul\":1755:1772   */\n      add\n        /* \"#utility.yul\":1746:1752   */\n      dup5\n        /* \"#utility.yul\":1702:1773   */\n      tag_103\n      jump\t// in\n    tag_140:\n        /* \"#utility.yul\":1558:1780   */\n      swap3\n      swap2\n      pop\n      pop\n      jump\t// out\n        /* \"#utility.yul\":1786:1872   */\n    tag_104:\n        /* \"#utility.yul\":1821:1828   */\n      0x00\n        /* \"#utility.yul\":1861:1865   */\n      0xff\n        /* \"#utility.yul\":1854:1859   */\n      dup3\n        /* \"#utility.yul\":1850:1866   */\n      and\n        /* \"#utility.yul\":1839:1866   */\n      swap1\n      pop\n        /* \"#utility.yul\":1786:1872   */\n      swap2\n      swap1\n      pop\n      jump\t// out\n        /* \"#utility.yul\":1878:1990   */\n    tag_105:\n        /* \"#utility.yul\":1961:1983   */\n      tag_143\n        /* \"#utility.yul\":1977:1982   */\n      dup2\n        /* \"#utility.yul\":1961:1983   */\n      tag_104\n      jump\t// in\n    tag_143:\n        /* \"#utility.yul\":1956:1959   */\n      dup3\n        /* \"#utility.yul\":1949:1984   */\n      mstore\n        /* \"#utility.yul\":1878:1990   */\n      pop\n      pop\n      jump\t// out\n        /* \"#utility.yul\":1996:2210   */\n    tag_20:\n        /* \"#utility.yul\":2085:2089   */\n      0x00\n        /* \"#utility.yul\":2123:2125   */\n      0x20\n        /* \"#utility.yul\":2112:2121   */\n      dup3\n        /* \"#utility.yul\":2108:2126   */\n      add\n        /* \"#utility.yul\":2100:2126   */\n      swap1\n      pop\n        /* \"#utility.yul\":2136:2203   */\n      tag_145\n        /* \"#utility.yul\":2200:2201   */\n      0x00\n        /* \"#utility.yul\":2189:2198   */\n      dup4\n        /* \"#utility.yul\":2185:2202   */\n      add\n        /* \"#utility.yul\":2176:2182   */\n      dup5\n        /* \"#utility.yul\":2136:2203   */\n      tag_105\n      jump\t// in\n    tag_145:\n        /* \"#utility.yul\":1996:2210   */\n      swap3\n      swap2\n      pop\n      pop\n      jump\t// out\n        /* \"#utility.yul\":2297:2414   */\n    tag_107:\n        /* \"#utility.yul\":2406:2407   */\n      0x00\n        /* \"#utility.yul\":2403:2404   */\n      dup1\n        /* \"#utility.yul\":2396:2408   */\n      revert\n        /* \"#utility.yul\":2543:2669   */\n    tag_109:\n        /* \"#utility.yul\":2580:2587   */\n      0x00\n        /* \"#utility.yul\":2620:2662   */\n      0xffffffffffffffffffffffffffffffffffffffff\n        /* \"#utility.yul\":2613:2618   */\n      dup3\n        /* \"#utility.yul\":2609:2663   */\n      and\n        /* \"#utility.yul\":2598:2663   */\n      swap1\n      pop\n        /* \"#utility.yul\":2543:2669   */\n      swap2\n      swap1\n      pop\n      jump\t// out\n        /* \"#utility.yul\":2675:2771   */\n    tag_110:\n        /* \"#utility.yul\":2712:2719   */\n      0x00\n        /* \"#utility.yul\":2741:2765   */\n      tag_151\n        /* \"#utility.yul\":2759:2764   */\n      dup3\n        /* \"#utility.yul\":2741:2765   */\n      tag_109\n      jump\t// in\n    tag_151:\n        /* \"#utility.yul\":2730:2765   */\n      swap1\n      pop\n        /* \"#utility.yul\":2675:2771   */\n      swap2\n      swap1\n      pop\n      jump\t// out\n        /* \"#utility.yul\":2777:2899   */\n    tag_111:\n        /* \"#utility.yul\":2850:2874   */\n      tag_153\n        /* \"#utility.yul\":2868:2873   */\n      dup2\n        /* \"#utility.yul\":2850:2874   */\n      tag_110\n      jump\t// in\n    tag_153:\n        /* \"#utility.yul\":2843:2848   */\n      dup2\n        /* \"#utility.yul\":2840:2875   */\n      eq\n        /* \"#utility.yul\":2830:2893   */\n      tag_154\n      jumpi\n        /* \"#utility.yul\":2889:2890   */\n      0x00\n        /* \"#utility.yul\":2886:2887   */\n      dup1\n        /* \"#utility.yul\":2879:2891   */\n      revert\n        /* \"#utility.yul\":2830:2893   */\n    tag_154:\n        /* \"#utility.yul\":2777:2899   */\n      pop\n      jump\t// out\n        /* \"#utility.yul\":2905:3044   */\n    tag_112:\n        /* \"#utility.yul\":2951:2956   */\n      0x00\n        /* \"#utility.yul\":2989:2995   */\n      dup2\n        /* \"#utility.yul\":2976:2996   */\n      calldataload\n        /* \"#utility.yul\":2967:2996   */\n      swap1\n      pop\n        /* \"#utility.yul\":3005:3038   */\n      tag_156\n        /* \"#utility.yul\":3032:3037   */\n      dup2\n        /* \"#utility.yul\":3005:3038   */\n      tag_111\n      jump\t// in\n    tag_156:\n        /* \"#utility.yul\":2905:3044   */\n      swap3\n      swap2\n      pop\n      pop\n      jump\t// out\n        /* \"#utility.yul\":3050:3379   */\n    tag_23:\n        /* \"#utility.yul\":3109:3115   */\n      0x00\n        /* \"#utility.yul\":3158:3160   */\n      0x20\n        /* \"#utility.yul\":3146:3155   */\n      dup3\n        /* \"#utility.yul\":3137:3144   */\n      dup5\n        /* \"#utility.yul\":3133:3156   */\n      sub\n        /* \"#utility.yul\":3129:3161   */\n      slt\n        /* \"#utility.yul\":3126:3245   */\n      iszero\n      tag_158\n      jumpi\n        /* \"#utility.yul\":3164:3243   */\n      tag_159\n      tag_107\n      jump\t// in\n    tag_159:\n        /* \"#utility.yul\":3126:3245   */\n    tag_158:\n        /* \"#utility.yul\":3284:3285   */\n      0x00\n        /* \"#utility.yul\":3309:3362   */\n      tag_160\n        /* \"#utility.yul\":3354:3361   */\n      dup5\n        /* \"#utility.yul\":3345:3351   */\n      dup3\n        /* \"#utility.yul\":3334:3343   */\n      dup6\n        /* \"#utility.yul\":3330:3352   */\n      add\n        /* \"#utility.yul\":3309:3362   */\n      tag_112\n      jump\t// in\n    tag_160:\n        /* \"#utility.yul\":3299:3362   */\n      swap2\n      pop\n        /* \"#utility.yul\":3255:3372   */\n      pop\n        /* \"#utility.yul\":3050:3379   */\n      swap3\n      swap2\n      pop\n      pop\n      jump\t// out\n        /* \"#utility.yul\":3385:3606   */\n    tag_113:\n        /* \"#utility.yul\":3525:3559   */\n      0x4e6f20746f6b656e7320746f20737465616c2066726f6d20746f7020686f6c64\n        /* \"#utility.yul\":3521:3522   */\n      0x00\n        /* \"#utility.yul\":3513:3519   */\n      dup3\n        /* \"#utility.yul\":3509:3523   */\n      add\n        /* \"#utility.yul\":3502:3560   */\n      mstore\n        /* \"#utility.yul\":3594:3598   */\n      0x6572000000000000000000000000000000000000000000000000000000000000\n        /* \"#utility.yul\":3589:3591   */\n      0x20\n        /* \"#utility.yul\":3581:3587   */\n      dup3\n        /* \"#utility.yul\":3577:3592   */\n      add\n        /* \"#utility.yul\":3570:3599   */\n      mstore\n        /* \"#utility.yul\":3385:3606   */\n      pop\n      jump\t// out\n        /* \"#utility.yul\":3612:3978   */\n    tag_114:\n        /* \"#utility.yul\":3754:3757   */\n      0x00\n        /* \"#utility.yul\":3775:3842   */\n      tag_163\n        /* \"#utility.yul\":3839:3841   */\n      0x22\n        /* \"#utility.yul\":3834:3837   */\n      dup4\n        /* \"#utility.yul\":3775:3842   */\n      tag_98\n      jump\t// in\n    tag_163:\n        /* \"#utility.yul\":3768:3842   */\n      swap2\n      pop\n        /* \"#utility.yul\":3851:3944   */\n      tag_164\n        /* \"#utility.yul\":3940:3943   */\n      dup3\n        /* \"#utility.yul\":3851:3944   */\n      tag_113\n      jump\t// in\n    tag_164:\n        /* \"#utility.yul\":3969:3971   */\n      0x40\n        /* \"#utility.yul\":3964:3967   */\n      dup3\n        /* \"#utility.yul\":3960:3972   */\n      add\n        /* \"#utility.yul\":3953:3972   */\n      swap1\n      pop\n        /* \"#utility.yul\":3612:3978   */\n      swap2\n      swap1\n      pop\n      jump\t// out\n        /* \"#utility.yul\":3984:4403   */\n    tag_37:\n        /* \"#utility.yul\":4150:4154   */\n      0x00\n        /* \"#utility.yul\":4188:4190   */\n      0x20\n        /* \"#utility.yul\":4177:4186   */\n      dup3\n        /* \"#utility.yul\":4173:4191   */\n      add\n        /* \"#utility.yul\":4165:4191   */\n      swap1\n      pop\n        /* \"#utility.yul\":4237:4246   */\n      dup2\n        /* \"#utility.yul\":4231:4235   */\n      dup2\n        /* \"#utility.yul\":4227:4247   */\n      sub\n        /* \"#utility.yul\":4223:4224   */\n      0x00\n        /* \"#utility.yul\":4212:4221   */\n      dup4\n        /* \"#utility.yul\":4208:4225   */\n      add\n        /* \"#utility.yul\":4201:4248   */\n      mstore\n        /* \"#utility.yul\":4265:4396   */\n      tag_166\n        /* \"#utility.yul\":4391:4395   */\n      dup2\n        /* \"#utility.yul\":4265:4396   */\n      tag_114\n      jump\t// in\n    tag_166:\n        /* \"#utility.yul\":4257:4396   */\n      swap1\n      pop\n        /* \"#utility.yul\":3984:4403   */\n      swap2\n      swap1\n      pop\n      jump\t// out\n        /* \"#utility.yul\":4409:4633   */\n    tag_115:\n        /* \"#utility.yul\":4549:4583   */\n      0x4e6f20746f6b656e7320746f20737465616c2066726f6d206c6f776573742068\n        /* \"#utility.yul\":4545:4546   */\n      0x00\n        /* \"#utility.yul\":4537:4543   */\n      dup3\n        /* \"#utility.yul\":4533:4547   */\n      add\n        /* \"#utility.yul\":4526:4584   */\n      mstore\n        /* \"#utility.yul\":4618:4625   */\n      0x6f6c646572000000000000000000000000000000000000000000000000000000\n        /* \"#utility.yul\":4613:4615   */\n      0x20\n        /* \"#utility.yul\":4605:4611   */\n      dup3\n        /* \"#utility.yul\":4601:4616   */\n      add\n        /* \"#utility.yul\":4594:4626   */\n      mstore\n        /* \"#utility.yul\":4409:4633   */\n      pop\n      jump\t// out\n        /* \"#utility.yul\":4639:5005   */\n    tag_116:\n        /* \"#utility.yul\":4781:4784   */\n      0x00\n        /* \"#utility.yul\":4802:4869   */\n      tag_169\n        /* \"#utility.yul\":4866:4868   */\n      0x25\n        /* \"#utility.yul\":4861:4864   */\n      dup4\n        /* \"#utility.yul\":4802:4869   */\n      tag_98\n      jump\t// in\n    tag_169:\n        /* \"#utility.yul\":4795:4869   */\n      swap2\n      pop\n        /* \"#utility.yul\":4878:4971   */\n      tag_170\n        /* \"#utility.yul\":4967:4970   */\n      dup3\n        /* \"#utility.yul\":4878:4971   */\n      tag_115\n      jump\t// in\n    tag_170:\n        /* \"#utility.yul\":4996:4998   */\n      0x40\n        /* \"#utility.yul\":4991:4994   */\n      dup3\n        /* \"#utility.yul\":4987:4999   */\n      add\n        /* \"#utility.yul\":4980:4999   */\n      swap1\n      pop\n        /* \"#utility.yul\":4639:5005   */\n      swap2\n      swap1\n      pop\n      jump\t// out\n        /* \"#utility.yul\":5011:5430   */\n    tag_40:\n        /* \"#utility.yul\":5177:5181   */\n      0x00\n        /* \"#utility.yul\":5215:5217   */\n      0x20\n        /* \"#utility.yul\":5204:5213   */\n      dup3\n        /* \"#utility.yul\":5200:5218   */\n      add\n        /* \"#utility.yul\":5192:5218   */\n      swap1\n      pop\n        /* \"#utility.yul\":5264:5273   */\n      dup2\n        /* \"#utility.yul\":5258:5262   */\n      dup2\n        /* \"#utility.yul\":5254:5274   */\n      sub\n        /* \"#utility.yul\":5250:5251   */\n      0x00\n        /* \"#utility.yul\":5239:5248   */\n      dup4\n        /* \"#utility.yul\":5235:5252   */\n      add\n        /* \"#utility.yul\":5228:5275   */\n      mstore\n        /* \"#utility.yul\":5292:5423   */\n      tag_172\n        /* \"#utility.yul\":5418:5422   */\n      dup2\n        /* \"#utility.yul\":5292:5423   */\n      tag_116\n      jump\t// in\n    tag_172:\n        /* \"#utility.yul\":5284:5423   */\n      swap1\n      pop\n        /* \"#utility.yul\":5011:5430   */\n      swap2\n      swap1\n      pop\n      jump\t// out\n        /* \"#utility.yul\":5436:5666   */\n    tag_117:\n        /* \"#utility.yul\":5576:5610   */\n      0x4c6f776573742062616c616e6365206973206e6f74206c657373207468616e20\n        /* \"#utility.yul\":5572:5573   */\n      0x00\n        /* \"#utility.yul\":5564:5570   */\n      dup3\n        /* \"#utility.yul\":5560:5574   */\n      add\n        /* \"#utility.yul\":5553:5611   */\n      mstore\n        /* \"#utility.yul\":5645:5658   */\n      0x746f702062616c616e6365000000000000000000000000000000000000000000\n        /* \"#utility.yul\":5640:5642   */\n      0x20\n        /* \"#utility.yul\":5632:5638   */\n      dup3\n        /* \"#utility.yul\":5628:5643   */\n      add\n        /* \"#utility.yul\":5621:5659   */\n      mstore\n        /* \"#utility.yul\":5436:5666   */\n      pop\n      jump\t// out\n        /* \"#utility.yul\":5672:6038   */\n    tag_118:\n        /* \"#utility.yul\":5814:5817   */\n      0x00\n        /* \"#utility.yul\":5835:5902   */\n      tag_175\n        /* \"#utility.yul\":5899:5901   */\n      0x2b\n        /* \"#utility.yul\":5894:5897   */\n      dup4\n        /* \"#utility.yul\":5835:5902   */\n      tag_98\n      jump\t// in\n    tag_175:\n        /* \"#utility.yul\":5828:5902   */\n      swap2\n      pop\n        /* \"#utility.yul\":5911:6004   */\n      tag_176\n        /* \"#utility.yul\":6000:6003   */\n      dup3\n        /* \"#utility.yul\":5911:6004   */\n      tag_117\n      jump\t// in\n    tag_176:\n        /* \"#utility.yul\":6029:6031   */\n      0x40\n        /* \"#utility.yul\":6024:6027   */\n      dup3\n        /* \"#utility.yul\":6020:6032   */\n      add\n        /* \"#utility.yul\":6013:6032   */\n      swap1\n      pop\n        /* \"#utility.yul\":5672:6038   */\n      swap2\n      swap1\n      pop\n      jump\t// out\n        /* \"#utility.yul\":6044:6463   */\n    tag_43:\n        /* \"#utility.yul\":6210:6214   */\n      0x00\n        /* \"#utility.yul\":6248:6250   */\n      0x20\n        /* \"#utility.yul\":6237:6246   */\n      dup3\n        /* \"#utility.yul\":6233:6251   */\n      add\n        /* \"#utility.yul\":6225:6251   */\n      swap1\n      pop\n        /* \"#utility.yul\":6297:6306   */\n      dup2\n        /* \"#utility.yul\":6291:6295   */\n      dup2\n        /* \"#utility.yul\":6287:6307   */\n      sub\n        /* \"#utility.yul\":6283:6284   */\n      0x00\n        /* \"#utility.yul\":6272:6281   */\n      dup4\n        /* \"#utility.yul\":6268:6285   */\n      add\n        /* \"#utility.yul\":6261:6308   */\n      mstore\n        /* \"#utility.yul\":6325:6456   */\n      tag_178\n        /* \"#utility.yul\":6451:6455   */\n      dup2\n        /* \"#utility.yul\":6325:6456   */\n      tag_118\n      jump\t// in\n    tag_178:\n        /* \"#utility.yul\":6317:6456   */\n      swap1\n      pop\n        /* \"#utility.yul\":6044:6463   */\n      swap2\n      swap1\n      pop\n      jump\t// out\n        /* \"#utility.yul\":6469:6649   */\n    tag_54:\n        /* \"#utility.yul\":6517:6594   */\n      0x4e487b7100000000000000000000000000000000000000000000000000000000\n        /* \"#utility.yul\":6514:6515   */\n      0x00\n        /* \"#utility.yul\":6507:6595   */\n      mstore\n        /* \"#utility.yul\":6614:6618   */\n      0x32\n        /* \"#utility.yul\":6611:6612   */\n      0x04\n        /* \"#utility.yul\":6604:6619   */\n      mstore\n        /* \"#utility.yul\":6638:6642   */\n      0x24\n        /* \"#utility.yul\":6635:6636   */\n      0x00\n        /* \"#utility.yul\":6628:6643   */\n      revert\n        /* \"#utility.yul\":6655:6835   */\n    tag_119:\n        /* \"#utility.yul\":6703:6780   */\n      0x4e487b7100000000000000000000000000000000000000000000000000000000\n        /* \"#utility.yul\":6700:6701   */\n      0x00\n        /* \"#utility.yul\":6693:6781   */\n      mstore\n        /* \"#utility.yul\":6800:6804   */\n      0x12\n        /* \"#utility.yul\":6797:6798   */\n      0x04\n        /* \"#utility.yul\":6790:6805   */\n      mstore\n        /* \"#utility.yul\":6824:6828   */\n      0x24\n        /* \"#utility.yul\":6821:6822   */\n      0x00\n        /* \"#utility.yul\":6814:6829   */\n      revert\n        /* \"#utility.yul\":6841:7021   */\n    tag_120:\n        /* \"#utility.yul\":6889:6966   */\n      0x4e487b7100000000000000000000000000000000000000000000000000000000\n        /* \"#utility.yul\":6886:6887   */\n      0x00\n        /* \"#utility.yul\":6879:6967   */\n      mstore\n        /* \"#utility.yul\":6986:6990   */\n      0x11\n        /* \"#utility.yul\":6983:6984   */\n      0x04\n        /* \"#utility.yul\":6976:6991   */\n      mstore\n        /* \"#utility.yul\":7010:7014   */\n      0x24\n        /* \"#utility.yul\":7007:7008   */\n      0x00\n        /* \"#utility.yul\":7000:7015   */\n      revert\n        /* \"#utility.yul\":7027:7212   */\n    tag_90:\n        /* \"#utility.yul\":7067:7068   */\n      0x00\n        /* \"#utility.yul\":7084:7104   */\n      tag_183\n        /* \"#utility.yul\":7102:7103   */\n      dup3\n        /* \"#utility.yul\":7084:7104   */\n      tag_102\n      jump\t// in\n    tag_183:\n        /* \"#utility.yul\":7079:7104   */\n      swap2\n      pop\n        /* \"#utility.yul\":7118:7138   */\n      tag_184\n        /* \"#utility.yul\":7136:7137   */\n      dup4\n        /* \"#utility.yul\":7118:7138   */\n      tag_102\n      jump\t// in\n    tag_184:\n        /* \"#utility.yul\":7113:7138   */\n      swap3\n      pop\n        /* \"#utility.yul\":7157:7158   */\n      dup3\n        /* \"#utility.yul\":7147:7182   */\n      tag_185\n      jumpi\n        /* \"#utility.yul\":7162:7180   */\n      tag_186\n      tag_119\n      jump\t// in\n    tag_186:\n        /* \"#utility.yul\":7147:7182   */\n    tag_185:\n        /* \"#utility.yul\":7204:7205   */\n      dup3\n        /* \"#utility.yul\":7201:7202   */\n      dup3\n        /* \"#utility.yul\":7197:7206   */\n      div\n        /* \"#utility.yul\":7192:7206   */\n      swap1\n      pop\n        /* \"#utility.yul\":7027:7212   */\n      swap3\n      swap2\n      pop\n      pop\n      jump\t// out\n        /* \"#utility.yul\":7218:7412   */\n    tag_93:\n        /* \"#utility.yul\":7258:7262   */\n      0x00\n        /* \"#utility.yul\":7278:7298   */\n      tag_188\n        /* \"#utility.yul\":7296:7297   */\n      dup3\n        /* \"#utility.yul\":7278:7298   */\n      tag_102\n      jump\t// in\n    tag_188:\n        /* \"#utility.yul\":7273:7298   */\n      swap2\n      pop\n        /* \"#utility.yul\":7312:7332   */\n      tag_189\n        /* \"#utility.yul\":7330:7331   */\n      dup4\n        /* \"#utility.yul\":7312:7332   */\n      tag_102\n      jump\t// in\n    tag_189:\n        /* \"#utility.yul\":7307:7332   */\n      swap3\n      pop\n        /* \"#utility.yul\":7356:7357   */\n      dup3\n        /* \"#utility.yul\":7353:7354   */\n      dup3\n        /* \"#utility.yul\":7349:7358   */\n      sub\n        /* \"#utility.yul\":7341:7358   */\n      swap1\n      pop\n        /* \"#utility.yul\":7380:7381   */\n      dup2\n        /* \"#utility.yul\":7374:7378   */\n      dup2\n        /* \"#utility.yul\":7371:7382   */\n      gt\n        /* \"#utility.yul\":7368:7405   */\n      iszero\n      tag_190\n      jumpi\n        /* \"#utility.yul\":7385:7403   */\n      tag_191\n      tag_120\n      jump\t// in\n    tag_191:\n        /* \"#utility.yul\":7368:7405   */\n    tag_190:\n        /* \"#utility.yul\":7218:7412   */\n      swap3\n      swap2\n      pop\n      pop\n      jump\t// out\n        /* \"#utility.yul\":7418:7609   */\n    tag_96:\n        /* \"#utility.yul\":7458:7461   */\n      0x00\n        /* \"#utility.yul\":7477:7497   */\n      tag_193\n        /* \"#utility.yul\":7495:7496   */\n      dup3\n        /* \"#utility.yul\":7477:7497   */\n      tag_102\n      jump\t// in\n    tag_193:\n        /* \"#utility.yul\":7472:7497   */\n      swap2\n      pop\n        /* \"#utility.yul\":7511:7531   */\n      tag_194\n        /* \"#utility.yul\":7529:7530   */\n      dup4\n        /* \"#utility.yul\":7511:7531   */\n      tag_102\n      jump\t// in\n    tag_194:\n        /* \"#utility.yul\":7506:7531   */\n      swap3\n      pop\n        /* \"#utility.yul\":7554:7555   */\n      dup3\n        /* \"#utility.yul\":7551:7552   */\n      dup3\n        /* \"#utility.yul\":7547:7556   */\n      add\n        /* \"#utility.yul\":7540:7556   */\n      swap1\n      pop\n        /* \"#utility.yul\":7575:7578   */\n      dup1\n        /* \"#utility.yul\":7572:7573   */\n      dup3\n        /* \"#utility.yul\":7569:7579   */\n      gt\n        /* \"#utility.yul\":7566:7602   */\n      iszero\n      tag_195\n      jumpi\n        /* \"#utility.yul\":7582:7600   */\n      tag_196\n      tag_120\n      jump\t// in\n    tag_196:\n        /* \"#utility.yul\":7566:7602   */\n    tag_195:\n        /* \"#utility.yul\":7418:7609   */\n      swap3\n      swap2\n      pop\n      pop\n      jump\t// out\n\n    auxdata: 0xa2646970667358221220f19cacb23da66d2e8066ecbc2c8c10c22dc385f2e85181b34ef906857e2f42df64736f6c63430008190033\n}\n",
				"bytecode": {
					"linkReferences": {},
					"object": "60806040526509184e72a00060005534801561001a57600080fd5b50600054600160003373ffffffffffffffffffffffffffffffffffffffff1673ffffffffffffffffffffffffffffffffffffffff168152602001908152602001600020819055506001600260003373ffffffffffffffffffffffffffffffffffffffff1673ffffffffffffffffffffffffffffffffffffffff16815260200190815260200160002060006101000a81548160ff0219169083151502179055506003339080600181540180825580915050600190039060005260206000200160009091909190916101000a81548173ffffffffffffffffffffffffffffffffffffffff021916908373ffffffffffffffffffffffffffffffffffffffff1602179055503373ffffffffffffffffffffffffffffffffffffffff16600073ffffffffffffffffffffffffffffffffffffffff167fddf252ad1be2c89b69c2b068fc378daa952ba7f163c4a11628f55a4df523b3ef60005460405161017c91906101a2565b60405180910390a36101bd565b6000819050919050565b61019c81610189565b82525050565b60006020820190506101b76000830184610193565b92915050565b610e30806101cc6000396000f3fe608060405234801561001057600080fd5b50600436106100625760003560e01c806306fdde031461006757806318160ddd14610085578063313ce567146100a357806370a08231146100c15780638a8756ae146100f157806395d89b41146100fb575b600080fd5b61006f610119565b60405161007c9190610a01565b60405180910390f35b61008d610152565b60405161009a9190610a3c565b60405180910390f35b6100ab610158565b6040516100b89190610a73565b60405180910390f35b6100db60048036038101906100d69190610af1565b61015d565b6040516100e89190610a3c565b60405180910390f35b6100f96101a6565b005b6101036104b3565b6040516101109190610a01565b60405180910390f35b6040518060400160405280600b81526020017f537573686920546f6b656e00000000000000000000000000000000000000000081525081565b60005481565b600a81565b6000600160008373ffffffffffffffffffffffffffffffffffffffff1673ffffffffffffffffffffffffffffffffffffffff168152602001908152602001600020549050919050565b6000806101b16104ec565b915091506000600160008473ffffffffffffffffffffffffffffffffffffffff1673ffffffffffffffffffffffffffffffffffffffff1681526020019081526020016000205490506000811161023c576040517f08c379a000000000000000000000000000000000000000000000000000000000815260040161023390610b90565b60405180910390fd5b6000600160008473ffffffffffffffffffffffffffffffffffffffff1673ffffffffffffffffffffffffffffffffffffffff168152602001908152602001600020549050600081116102c3576040517f08c379a00000000000000000000000000000000000000000000000000000000081526004016102ba90610c22565b60405180910390fd5b818110610305576040517f08c379a00000000000000000000000000000000000000000000000000000000081526004016102fc90610cb4565b60405180910390fd5b600061031b600a8461092f90919063ffffffff16565b905061036f81600160008873ffffffffffffffffffffffffffffffffffffffff1673ffffffffffffffffffffffffffffffffffffffff1681526020019081526020016000205461094590919063ffffffff16565b600160008773ffffffffffffffffffffffffffffffffffffffff1673ffffffffffffffffffffffffffffffffffffffff1681526020019081526020016000208190555061040481600160008773ffffffffffffffffffffffffffffffffffffffff1673ffffffffffffffffffffffffffffffffffffffff1681526020019081526020016000205461095b90919063ffffffff16565b600160008673ffffffffffffffffffffffffffffffffffffffff1673ffffffffffffffffffffffffffffffffffffffff168152602001908152602001600020819055508373ffffffffffffffffffffffffffffffffffffffff168573ffffffffffffffffffffffffffffffffffffffff167fddf252ad1be2c89b69c2b068fc378daa952ba7f163c4a11628f55a4df523b3ef836040516104a49190610a3c565b60405180910390a35050505050565b6040518060400160405280600581526020017f535553484900000000000000000000000000000000000000000000000000000081525081565b600080600360008154811061050457610503610cd4565b5b9060005260206000200160009054906101000a900473ffffffffffffffffffffffffffffffffffffffff169150600360008154811061054657610545610cd4565b5b9060005260206000200160009054906101000a900473ffffffffffffffffffffffffffffffffffffffff169050600060016000600360008154811061058e5761058d610cd4565b5b9060005260206000200160009054906101000a900473ffffffffffffffffffffffffffffffffffffffff1673ffffffffffffffffffffffffffffffffffffffff1673ffffffffffffffffffffffffffffffffffffffff168152602001908152602001600020549050600060016000600360008154811061061157610610610cd4565b5b9060005260206000200160009054906101000a900473ffffffffffffffffffffffffffffffffffffffff1673ffffffffffffffffffffffffffffffffffffffff1673ffffffffffffffffffffffffffffffffffffffff1681526020019081526020016000205490506000600190505b600380549050811015610928578260016000600384815481106106a6576106a5610cd4565b5b9060005260206000200160009054906101000a900473ffffffffffffffffffffffffffffffffffffffff1673ffffffffffffffffffffffffffffffffffffffff1673ffffffffffffffffffffffffffffffffffffffff1681526020019081526020016000205411156107d4576003818154811061072657610725610cd4565b5b9060005260206000200160009054906101000a900473ffffffffffffffffffffffffffffffffffffffff169450600160006003838154811061076b5761076a610cd4565b5b9060005260206000200160009054906101000a900473ffffffffffffffffffffffffffffffffffffffff1673ffffffffffffffffffffffffffffffffffffffff1673ffffffffffffffffffffffffffffffffffffffff1681526020019081526020016000205492505b8160016000600384815481106107ed576107ec610cd4565b5b9060005260206000200160009054906101000a900473ffffffffffffffffffffffffffffffffffffffff1673ffffffffffffffffffffffffffffffffffffffff1673ffffffffffffffffffffffffffffffffffffffff16815260200190815260200160002054101561091b576003818154811061086d5761086c610cd4565b5b9060005260206000200160009054906101000a900473ffffffffffffffffffffffffffffffffffffffff16935060016000600383815481106108b2576108b1610cd4565b5b9060005260206000200160009054906101000a900473ffffffffffffffffffffffffffffffffffffffff1673ffffffffffffffffffffffffffffffffffffffff1673ffffffffffffffffffffffffffffffffffffffff1681526020019081526020016000205491505b8080600101915050610680565b5050509091565b6000818361093d9190610d61565b905092915050565b600081836109539190610d92565b905092915050565b600081836109699190610dc6565b905092915050565b600081519050919050565b600082825260208201905092915050565b60005b838110156109ab578082015181840152602081019050610990565b60008484015250505050565b6000601f19601f8301169050919050565b60006109d382610971565b6109dd818561097c565b93506109ed81856020860161098d565b6109f6816109b7565b840191505092915050565b60006020820190508181036000830152610a1b81846109c8565b905092915050565b6000819050919050565b610a3681610a23565b82525050565b6000602082019050610a516000830184610a2d565b92915050565b600060ff82169050919050565b610a6d81610a57565b82525050565b6000602082019050610a886000830184610a64565b92915050565b600080fd5b600073ffffffffffffffffffffffffffffffffffffffff82169050919050565b6000610abe82610a93565b9050919050565b610ace81610ab3565b8114610ad957600080fd5b50565b600081359050610aeb81610ac5565b92915050565b600060208284031215610b0757610b06610a8e565b5b6000610b1584828501610adc565b91505092915050565b7f4e6f20746f6b656e7320746f20737465616c2066726f6d20746f7020686f6c6460008201527f6572000000000000000000000000000000000000000000000000000000000000602082015250565b6000610b7a60228361097c565b9150610b8582610b1e565b604082019050919050565b60006020820190508181036000830152610ba981610b6d565b9050919050565b7f4e6f20746f6b656e7320746f20737465616c2066726f6d206c6f77657374206860008201527f6f6c646572000000000000000000000000000000000000000000000000000000602082015250565b6000610c0c60258361097c565b9150610c1782610bb0565b604082019050919050565b60006020820190508181036000830152610c3b81610bff565b9050919050565b7f4c6f776573742062616c616e6365206973206e6f74206c657373207468616e2060008201527f746f702062616c616e6365000000000000000000000000000000000000000000602082015250565b6000610c9e602b8361097c565b9150610ca982610c42565b604082019050919050565b60006020820190508181036000830152610ccd81610c91565b9050919050565b7f4e487b7100000000000000000000000000000000000000000000000000000000600052603260045260246000fd5b7f4e487b7100000000000000000000000000000000000000000000000000000000600052601260045260246000fd5b7f4e487b7100000000000000000000000000000000000000000000000000000000600052601160045260246000fd5b6000610d6c82610a23565b9150610d7783610a23565b925082610d8757610d86610d03565b5b828204905092915050565b6000610d9d82610a23565b9150610da883610a23565b9250828203905081811115610dc057610dbf610d32565b5b92915050565b6000610dd182610a23565b9150610ddc83610a23565b9250828201905080821115610df457610df3610d32565b5b9291505056fea2646970667358221220f19cacb23da66d2e8066ecbc2c8c10c22dc385f2e85181b34ef906857e2f42df64736f6c63430008190033",
					"opcodes": "PUSH1 0x80 PUSH1 0x40 MSTORE PUSH6 0x9184E72A000 PUSH1 0x0 SSTORE CALLVALUE DUP1 ISZERO PUSH2 0x1A JUMPI PUSH1 0x0 DUP1 REVERT JUMPDEST POP PUSH1 0x0 SLOAD PUSH1 0x1 PUSH1 0x0 CALLER PUSH20 0xFFFFFFFFFFFFFFFFFFFFFFFFFFFFFFFFFFFFFFFF AND PUSH20 0xFFFFFFFFFFFFFFFFFFFFFFFFFFFFFFFFFFFFFFFF AND DUP2 MSTORE PUSH1 0x20 ADD SWAP1 DUP2 MSTORE PUSH1 0x20 ADD PUSH1 0x0 KECCAK256 DUP2 SWAP1 SSTORE POP PUSH1 0x1 PUSH1 0x2 PUSH1 0x0 CALLER PUSH20 0xFFFFFFFFFFFFFFFFFFFFFFFFFFFFFFFFFFFFFFFF AND PUSH20 0xFFFFFFFFFFFFFFFFFFFFFFFFFFFFFFFFFFFFFFFF AND DUP2 MSTORE PUSH1 0x20 ADD SWAP1 DUP2 MSTORE PUSH1 0x20 ADD PUSH1 0x0 KECCAK256 PUSH1 0x0 PUSH2 0x100 EXP DUP2 SLOAD DUP2 PUSH1 0xFF MUL NOT AND SWAP1 DUP4 ISZERO ISZERO MUL OR SWAP1 SSTORE POP PUSH1 0x3 CALLER SWAP1 DUP1 PUSH1 0x1 DUP2 SLOAD ADD DUP1 DUP3 SSTORE DUP1 SWAP2 POP POP PUSH1 0x1 SWAP1 SUB SWAP1 PUSH1 0x0 MSTORE PUSH1 0x20 PUSH1 0x0 KECCAK256 ADD PUSH1 0x0 SWAP1 SWAP2 SWAP1 SWAP2 SWAP1 SWAP2 PUSH2 0x100 EXP DUP2 SLOAD DUP2 PUSH20 0xFFFFFFFFFFFFFFFFFFFFFFFFFFFFFFFFFFFFFFFF MUL NOT AND SWAP1 DUP4 PUSH20 0xFFFFFFFFFFFFFFFFFFFFFFFFFFFFFFFFFFFFFFFF AND MUL OR SWAP1 SSTORE POP CALLER PUSH20 0xFFFFFFFFFFFFFFFFFFFFFFFFFFFFFFFFFFFFFFFF AND PUSH1 0x0 PUSH20 0xFFFFFFFFFFFFFFFFFFFFFFFFFFFFFFFFFFFFFFFF AND PUSH32 0xDDF252AD1BE2C89B69C2B068FC378DAA952BA7F163C4A11628F55A4DF523B3EF PUSH1 0x0 SLOAD PUSH1 0x40 MLOAD PUSH2 0x17C SWAP2 SWAP1 PUSH2 0x1A2 JUMP JUMPDEST PUSH1 0x40 MLOAD DUP1 SWAP2 SUB SWAP1 LOG3 PUSH2 0x1BD JUMP JUMPDEST PUSH1 0x0 DUP2 SWAP1 POP SWAP2 SWAP1 POP JUMP JUMPDEST PUSH2 0x19C DUP2 PUSH2 0x189 JUMP JUMPDEST DUP3 MSTORE POP POP JUMP JUMPDEST PUSH1 0x0 PUSH1 0x20 DUP3 ADD SWAP1 POP PUSH2 0x1B7 PUSH1 0x0 DUP4 ADD DUP5 PUSH2 0x193 JUMP JUMPDEST SWAP3 SWAP2 POP POP JUMP JUMPDEST PUSH2 0xE30 DUP1 PUSH2 0x1CC PUSH1 0x0 CODECOPY PUSH1 0x0 RETURN INVALID PUSH1 0x80 PUSH1 0x40 MSTORE CALLVALUE DUP1 ISZERO PUSH2 0x10 JUMPI PUSH1 0x0 DUP1 REVERT JUMPDEST POP PUSH1 0x4 CALLDATASIZE LT PUSH2 0x62 JUMPI PUSH1 0x0 CALLDATALOAD PUSH1 0xE0 SHR DUP1 PUSH4 0x6FDDE03 EQ PUSH2 0x67 JUMPI DUP1 PUSH4 0x18160DDD EQ PUSH2 0x85 JUMPI DUP1 PUSH4 0x313CE567 EQ PUSH2 0xA3 JUMPI DUP1 PUSH4 0x70A08231 EQ PUSH2 0xC1 JUMPI DUP1 PUSH4 0x8A8756AE EQ PUSH2 0xF1 JUMPI DUP1 PUSH4 0x95D89B41 EQ PUSH2 0xFB JUMPI JUMPDEST PUSH1 0x0 DUP1 REVERT JUMPDEST PUSH2 0x6F PUSH2 0x119 JUMP JUMPDEST PUSH1 0x40 MLOAD PUSH2 0x7C SWAP2 SWAP1 PUSH2 0xA01 JUMP JUMPDEST PUSH1 0x40 MLOAD DUP1 SWAP2 SUB SWAP1 RETURN JUMPDEST PUSH2 0x8D PUSH2 0x152 JUMP JUMPDEST PUSH1 0x40 MLOAD PUSH2 0x9A SWAP2 SWAP1 PUSH2 0xA3C JUMP JUMPDEST PUSH1 0x40 MLOAD DUP1 SWAP2 SUB SWAP1 RETURN JUMPDEST PUSH2 0xAB PUSH2 0x158 JUMP JUMPDEST PUSH1 0x40 MLOAD PUSH2 0xB8 SWAP2 SWAP1 PUSH2 0xA73 JUMP JUMPDEST PUSH1 0x40 MLOAD DUP1 SWAP2 SUB SWAP1 RETURN JUMPDEST PUSH2 0xDB PUSH1 0x4 DUP1 CALLDATASIZE SUB DUP2 ADD SWAP1 PUSH2 0xD6 SWAP2 SWAP1 PUSH2 0xAF1 JUMP JUMPDEST PUSH2 0x15D JUMP JUMPDEST PUSH1 0x40 MLOAD PUSH2 0xE8 SWAP2 SWAP1 PUSH2 0xA3C JUMP JUMPDEST PUSH1 0x40 MLOAD DUP1 SWAP2 SUB SWAP1 RETURN JUMPDEST PUSH2 0xF9 PUSH2 0x1A6 JUMP JUMPDEST STOP JUMPDEST PUSH2 0x103 PUSH2 0x4B3 JUMP JUMPDEST PUSH1 0x40 MLOAD PUSH2 0x110 SWAP2 SWAP1 PUSH2 0xA01 JUMP JUMPDEST PUSH1 0x40 MLOAD DUP1 SWAP2 SUB SWAP1 RETURN JUMPDEST PUSH1 0x40 MLOAD DUP1 PUSH1 0x40 ADD PUSH1 0x40 MSTORE DUP1 PUSH1 0xB DUP2 MSTORE PUSH1 0x20 ADD PUSH32 0x537573686920546F6B656E000000000000000000000000000000000000000000 DUP2 MSTORE POP DUP2 JUMP JUMPDEST PUSH1 0x0 SLOAD DUP2 JUMP JUMPDEST PUSH1 0xA DUP2 JUMP JUMPDEST PUSH1 0x0 PUSH1 0x1 PUSH1 0x0 DUP4 PUSH20 0xFFFFFFFFFFFFFFFFFFFFFFFFFFFFFFFFFFFFFFFF AND PUSH20 0xFFFFFFFFFFFFFFFFFFFFFFFFFFFFFFFFFFFFFFFF AND DUP2 MSTORE PUSH1 0x20 ADD SWAP1 DUP2 MSTORE PUSH1 0x20 ADD PUSH1 0x0 KECCAK256 SLOAD SWAP1 POP SWAP2 SWAP1 POP JUMP JUMPDEST PUSH1 0x0 DUP1 PUSH2 0x1B1 PUSH2 0x4EC JUMP JUMPDEST SWAP2 POP SWAP2 POP PUSH1 0x0 PUSH1 0x1 PUSH1 0x0 DUP5 PUSH20 0xFFFFFFFFFFFFFFFFFFFFFFFFFFFFFFFFFFFFFFFF AND PUSH20 0xFFFFFFFFFFFFFFFFFFFFFFFFFFFFFFFFFFFFFFFF AND DUP2 MSTORE PUSH1 0x20 ADD SWAP1 DUP2 MSTORE PUSH1 0x20 ADD PUSH1 0x0 KECCAK256 SLOAD SWAP1 POP PUSH1 0x0 DUP2 GT PUSH2 0x23C JUMPI PUSH1 0x40 MLOAD PUSH32 0x8C379A000000000000000000000000000000000000000000000000000000000 DUP2 MSTORE PUSH1 0x4 ADD PUSH2 0x233 SWAP1 PUSH2 0xB90 JUMP JUMPDEST PUSH1 0x40 MLOAD DUP1 SWAP2 SUB SWAP1 REVERT JUMPDEST PUSH1 0x0 PUSH1 0x1 PUSH1 0x0 DUP5 PUSH20 0xFFFFFFFFFFFFFFFFFFFFFFFFFFFFFFFFFFFFFFFF AND PUSH20 0xFFFFFFFFFFFFFFFFFFFFFFFFFFFFFFFFFFFFFFFF AND DUP2 MSTORE PUSH1 0x20 ADD SWAP1 DUP2 MSTORE PUSH1 0x20 ADD PUSH1 0x0 KECCAK256 SLOAD SWAP1 POP PUSH1 0x0 DUP2 GT PUSH2 0x2C3 JUMPI PUSH1 0x40 MLOAD PUSH32 0x8C379A000000000000000000000000000000000000000000000000000000000 DUP2 MSTORE PUSH1 0x4 ADD PUSH2 0x2BA SWAP1 PUSH2 0xC22 JUMP JUMPDEST PUSH1 0x40 MLOAD DUP1 SWAP2 SUB SWAP1 REVERT JUMPDEST DUP2 DUP2 LT PUSH2 0x305 JUMPI PUSH1 0x40 MLOAD PUSH32 0x8C379A000000000000000000000000000000000000000000000000000000000 DUP2 MSTORE PUSH1 0x4 ADD PUSH2 0x2FC SWAP1 PUSH2 0xCB4 JUMP JUMPDEST PUSH1 0x40 MLOAD DUP1 SWAP2 SUB SWAP1 REVERT JUMPDEST PUSH1 0x0 PUSH2 0x31B PUSH1 0xA DUP5 PUSH2 0x92F SWAP1 SWAP2 SWAP1 PUSH4 0xFFFFFFFF AND JUMP JUMPDEST SWAP1 POP PUSH2 0x36F DUP2 PUSH1 0x1 PUSH1 0x0 DUP9 PUSH20 0xFFFFFFFFFFFFFFFFFFFFFFFFFFFFFFFFFFFFFFFF AND PUSH20 0xFFFFFFFFFFFFFFFFFFFFFFFFFFFFFFFFFFFFFFFF AND DUP2 MSTORE PUSH1 0x20 ADD SWAP1 DUP2 MSTORE PUSH1 0x20 ADD PUSH1 0x0 KECCAK256 SLOAD PUSH2 0x945 SWAP1 SWAP2 SWAP1 PUSH4 0xFFFFFFFF AND JUMP JUMPDEST PUSH1 0x1 PUSH1 0x0 DUP8 PUSH20 0xFFFFFFFFFFFFFFFFFFFFFFFFFFFFFFFFFFFFFFFF AND PUSH20 0xFFFFFFFFFFFFFFFFFFFFFFFFFFFFFFFFFFFFFFFF AND DUP2 MSTORE PUSH1 0x20 ADD SWAP1 DUP2 MSTORE PUSH1 0x20 ADD PUSH1 0x0 KECCAK256 DUP2 SWAP1 SSTORE POP PUSH2 0x404 DUP2 PUSH1 0x1 PUSH1 0x0 DUP8 PUSH20 0xFFFFFFFFFFFFFFFFFFFFFFFFFFFFFFFFFFFFFFFF AND PUSH20 0xFFFFFFFFFFFFFFFFFFFFFFFFFFFFFFFFFFFFFFFF AND DUP2 MSTORE PUSH1 0x20 ADD SWAP1 DUP2 MSTORE PUSH1 0x20 ADD PUSH1 0x0 KECCAK256 SLOAD PUSH2 0x95B SWAP1 SWAP2 SWAP1 PUSH4 0xFFFFFFFF AND JUMP JUMPDEST PUSH1 0x1 PUSH1 0x0 DUP7 PUSH20 0xFFFFFFFFFFFFFFFFFFFFFFFFFFFFFFFFFFFFFFFF AND PUSH20 0xFFFFFFFFFFFFFFFFFFFFFFFFFFFFFFFFFFFFFFFF AND DUP2 MSTORE PUSH1 0x20 ADD SWAP1 DUP2 MSTORE PUSH1 0x20 ADD PUSH1 0x0 KECCAK256 DUP2 SWAP1 SSTORE POP DUP4 PUSH20 0xFFFFFFFFFFFFFFFFFFFFFFFFFFFFFFFFFFFFFFFF AND DUP6 PUSH20 0xFFFFFFFFFFFFFFFFFFFFFFFFFFFFFFFFFFFFFFFF AND PUSH32 0xDDF252AD1BE2C89B69C2B068FC378DAA952BA7F163C4A11628F55A4DF523B3EF DUP4 PUSH1 0x40 MLOAD PUSH2 0x4A4 SWAP2 SWAP1 PUSH2 0xA3C JUMP JUMPDEST PUSH1 0x40 MLOAD DUP1 SWAP2 SUB SWAP1 LOG3 POP POP POP POP POP JUMP JUMPDEST PUSH1 0x40 MLOAD DUP1 PUSH1 0x40 ADD PUSH1 0x40 MSTORE DUP1 PUSH1 0x5 DUP2 MSTORE PUSH1 0x20 ADD PUSH32 0x5355534849000000000000000000000000000000000000000000000000000000 DUP2 MSTORE POP DUP2 JUMP JUMPDEST PUSH1 0x0 DUP1 PUSH1 0x3 PUSH1 0x0 DUP2 SLOAD DUP2 LT PUSH2 0x504 JUMPI PUSH2 0x503 PUSH2 0xCD4 JUMP JUMPDEST JUMPDEST SWAP1 PUSH1 0x0 MSTORE PUSH1 0x20 PUSH1 0x0 KECCAK256 ADD PUSH1 0x0 SWAP1 SLOAD SWAP1 PUSH2 0x100 EXP SWAP1 DIV PUSH20 0xFFFFFFFFFFFFFFFFFFFFFFFFFFFFFFFFFFFFFFFF AND SWAP2 POP PUSH1 0x3 PUSH1 0x0 DUP2 SLOAD DUP2 LT PUSH2 0x546 JUMPI PUSH2 0x545 PUSH2 0xCD4 JUMP JUMPDEST JUMPDEST SWAP1 PUSH1 0x0 MSTORE PUSH1 0x20 PUSH1 0x0 KECCAK256 ADD PUSH1 0x0 SWAP1 SLOAD SWAP1 PUSH2 0x100 EXP SWAP1 DIV PUSH20 0xFFFFFFFFFFFFFFFFFFFFFFFFFFFFFFFFFFFFFFFF AND SWAP1 POP PUSH1 0x0 PUSH1 0x1 PUSH1 0x0 PUSH1 0x3 PUSH1 0x0 DUP2 SLOAD DUP2 LT PUSH2 0x58E JUMPI PUSH2 0x58D PUSH2 0xCD4 JUMP JUMPDEST JUMPDEST SWAP1 PUSH1 0x0 MSTORE PUSH1 0x20 PUSH1 0x0 KECCAK256 ADD PUSH1 0x0 SWAP1 SLOAD SWAP1 PUSH2 0x100 EXP SWAP1 DIV PUSH20 0xFFFFFFFFFFFFFFFFFFFFFFFFFFFFFFFFFFFFFFFF AND PUSH20 0xFFFFFFFFFFFFFFFFFFFFFFFFFFFFFFFFFFFFFFFF AND PUSH20 0xFFFFFFFFFFFFFFFFFFFFFFFFFFFFFFFFFFFFFFFF AND DUP2 MSTORE PUSH1 0x20 ADD SWAP1 DUP2 MSTORE PUSH1 0x20 ADD PUSH1 0x0 KECCAK256 SLOAD SWAP1 POP PUSH1 0x0 PUSH1 0x1 PUSH1 0x0 PUSH1 0x3 PUSH1 0x0 DUP2 SLOAD DUP2 LT PUSH2 0x611 JUMPI PUSH2 0x610 PUSH2 0xCD4 JUMP JUMPDEST JUMPDEST SWAP1 PUSH1 0x0 MSTORE PUSH1 0x20 PUSH1 0x0 KECCAK256 ADD PUSH1 0x0 SWAP1 SLOAD SWAP1 PUSH2 0x100 EXP SWAP1 DIV PUSH20 0xFFFFFFFFFFFFFFFFFFFFFFFFFFFFFFFFFFFFFFFF AND PUSH20 0xFFFFFFFFFFFFFFFFFFFFFFFFFFFFFFFFFFFFFFFF AND PUSH20 0xFFFFFFFFFFFFFFFFFFFFFFFFFFFFFFFFFFFFFFFF AND DUP2 MSTORE PUSH1 0x20 ADD SWAP1 DUP2 MSTORE PUSH1 0x20 ADD PUSH1 0x0 KECCAK256 SLOAD SWAP1 POP PUSH1 0x0 PUSH1 0x1 SWAP1 POP JUMPDEST PUSH1 0x3 DUP1 SLOAD SWAP1 POP DUP2 LT ISZERO PUSH2 0x928 JUMPI DUP3 PUSH1 0x1 PUSH1 0x0 PUSH1 0x3 DUP5 DUP2 SLOAD DUP2 LT PUSH2 0x6A6 JUMPI PUSH2 0x6A5 PUSH2 0xCD4 JUMP JUMPDEST JUMPDEST SWAP1 PUSH1 0x0 MSTORE PUSH1 0x20 PUSH1 0x0 KECCAK256 ADD PUSH1 0x0 SWAP1 SLOAD SWAP1 PUSH2 0x100 EXP SWAP1 DIV PUSH20 0xFFFFFFFFFFFFFFFFFFFFFFFFFFFFFFFFFFFFFFFF AND PUSH20 0xFFFFFFFFFFFFFFFFFFFFFFFFFFFFFFFFFFFFFFFF AND PUSH20 0xFFFFFFFFFFFFFFFFFFFFFFFFFFFFFFFFFFFFFFFF AND DUP2 MSTORE PUSH1 0x20 ADD SWAP1 DUP2 MSTORE PUSH1 0x20 ADD PUSH1 0x0 KECCAK256 SLOAD GT ISZERO PUSH2 0x7D4 JUMPI PUSH1 0x3 DUP2 DUP2 SLOAD DUP2 LT PUSH2 0x726 JUMPI PUSH2 0x725 PUSH2 0xCD4 JUMP JUMPDEST JUMPDEST SWAP1 PUSH1 0x0 MSTORE PUSH1 0x20 PUSH1 0x0 KECCAK256 ADD PUSH1 0x0 SWAP1 SLOAD SWAP1 PUSH2 0x100 EXP SWAP1 DIV PUSH20 0xFFFFFFFFFFFFFFFFFFFFFFFFFFFFFFFFFFFFFFFF AND SWAP5 POP PUSH1 0x1 PUSH1 0x0 PUSH1 0x3 DUP4 DUP2 SLOAD DUP2 LT PUSH2 0x76B JUMPI PUSH2 0x76A PUSH2 0xCD4 JUMP JUMPDEST JUMPDEST SWAP1 PUSH1 0x0 MSTORE PUSH1 0x20 PUSH1 0x0 KECCAK256 ADD PUSH1 0x0 SWAP1 SLOAD SWAP1 PUSH2 0x100 EXP SWAP1 DIV PUSH20 0xFFFFFFFFFFFFFFFFFFFFFFFFFFFFFFFFFFFFFFFF AND PUSH20 0xFFFFFFFFFFFFFFFFFFFFFFFFFFFFFFFFFFFFFFFF AND PUSH20 0xFFFFFFFFFFFFFFFFFFFFFFFFFFFFFFFFFFFFFFFF AND DUP2 MSTORE PUSH1 0x20 ADD SWAP1 DUP2 MSTORE PUSH1 0x20 ADD PUSH1 0x0 KECCAK256 SLOAD SWAP3 POP JUMPDEST DUP2 PUSH1 0x1 PUSH1 0x0 PUSH1 0x3 DUP5 DUP2 SLOAD DUP2 LT PUSH2 0x7ED JUMPI PUSH2 0x7EC PUSH2 0xCD4 JUMP JUMPDEST JUMPDEST SWAP1 PUSH1 0x0 MSTORE PUSH1 0x20 PUSH1 0x0 KECCAK256 ADD PUSH1 0x0 SWAP1 SLOAD SWAP1 PUSH2 0x100 EXP SWAP1 DIV PUSH20 0xFFFFFFFFFFFFFFFFFFFFFFFFFFFFFFFFFFFFFFFF AND PUSH20 0xFFFFFFFFFFFFFFFFFFFFFFFFFFFFFFFFFFFFFFFF AND PUSH20 0xFFFFFFFFFFFFFFFFFFFFFFFFFFFFFFFFFFFFFFFF AND DUP2 MSTORE PUSH1 0x20 ADD SWAP1 DUP2 MSTORE PUSH1 0x20 ADD PUSH1 0x0 KECCAK256 SLOAD LT ISZERO PUSH2 0x91B JUMPI PUSH1 0x3 DUP2 DUP2 SLOAD DUP2 LT PUSH2 0x86D JUMPI PUSH2 0x86C PUSH2 0xCD4 JUMP JUMPDEST JUMPDEST SWAP1 PUSH1 0x0 MSTORE PUSH1 0x20 PUSH1 0x0 KECCAK256 ADD PUSH1 0x0 SWAP1 SLOAD SWAP1 PUSH2 0x100 EXP SWAP1 DIV PUSH20 0xFFFFFFFFFFFFFFFFFFFFFFFFFFFFFFFFFFFFFFFF AND SWAP4 POP PUSH1 0x1 PUSH1 0x0 PUSH1 0x3 DUP4 DUP2 SLOAD DUP2 LT PUSH2 0x8B2 JUMPI PUSH2 0x8B1 PUSH2 0xCD4 JUMP JUMPDEST JUMPDEST SWAP1 PUSH1 0x0 MSTORE PUSH1 0x20 PUSH1 0x0 KECCAK256 ADD PUSH1 0x0 SWAP1 SLOAD SWAP1 PUSH2 0x100 EXP SWAP1 DIV PUSH20 0xFFFFFFFFFFFFFFFFFFFFFFFFFFFFFFFFFFFFFFFF AND PUSH20 0xFFFFFFFFFFFFFFFFFFFFFFFFFFFFFFFFFFFFFFFF AND PUSH20 0xFFFFFFFFFFFFFFFFFFFFFFFFFFFFFFFFFFFFFFFF AND DUP2 MSTORE PUSH1 0x20 ADD SWAP1 DUP2 MSTORE PUSH1 0x20 ADD PUSH1 0x0 KECCAK256 SLOAD SWAP2 POP JUMPDEST DUP1 DUP1 PUSH1 0x1 ADD SWAP2 POP POP PUSH2 0x680 JUMP JUMPDEST POP POP POP SWAP1 SWAP2 JUMP JUMPDEST PUSH1 0x0 DUP2 DUP4 PUSH2 0x93D SWAP2 SWAP1 PUSH2 0xD61 JUMP JUMPDEST SWAP1 POP SWAP3 SWAP2 POP POP JUMP JUMPDEST PUSH1 0x0 DUP2 DUP4 PUSH2 0x953 SWAP2 SWAP1 PUSH2 0xD92 JUMP JUMPDEST SWAP1 POP SWAP3 SWAP2 POP POP JUMP JUMPDEST PUSH1 0x0 DUP2 DUP4 PUSH2 0x969 SWAP2 SWAP1 PUSH2 0xDC6 JUMP JUMPDEST SWAP1 POP SWAP3 SWAP2 POP POP JUMP JUMPDEST PUSH1 0x0 DUP2 MLOAD SWAP1 POP SWAP2 SWAP1 POP JUMP JUMPDEST PUSH1 0x0 DUP3 DUP3 MSTORE PUSH1 0x20 DUP3 ADD SWAP1 POP SWAP3 SWAP2 POP POP JUMP JUMPDEST PUSH1 0x0 JUMPDEST DUP4 DUP2 LT ISZERO PUSH2 0x9AB JUMPI DUP1 DUP3 ADD MLOAD DUP2 DUP5 ADD MSTORE PUSH1 0x20 DUP2 ADD SWAP1 POP PUSH2 0x990 JUMP JUMPDEST PUSH1 0x0 DUP5 DUP5 ADD MSTORE POP POP POP POP JUMP JUMPDEST PUSH1 0x0 PUSH1 0x1F NOT PUSH1 0x1F DUP4 ADD AND SWAP1 POP SWAP2 SWAP1 POP JUMP JUMPDEST PUSH1 0x0 PUSH2 0x9D3 DUP3 PUSH2 0x971 JUMP JUMPDEST PUSH2 0x9DD DUP2 DUP6 PUSH2 0x97C JUMP JUMPDEST SWAP4 POP PUSH2 0x9ED DUP2 DUP6 PUSH1 0x20 DUP7 ADD PUSH2 0x98D JUMP JUMPDEST PUSH2 0x9F6 DUP2 PUSH2 0x9B7 JUMP JUMPDEST DUP5 ADD SWAP2 POP POP SWAP3 SWAP2 POP POP JUMP JUMPDEST PUSH1 0x0 PUSH1 0x20 DUP3 ADD SWAP1 POP DUP2 DUP2 SUB PUSH1 0x0 DUP4 ADD MSTORE PUSH2 0xA1B DUP2 DUP5 PUSH2 0x9C8 JUMP JUMPDEST SWAP1 POP SWAP3 SWAP2 POP POP JUMP JUMPDEST PUSH1 0x0 DUP2 SWAP1 POP SWAP2 SWAP1 POP JUMP JUMPDEST PUSH2 0xA36 DUP2 PUSH2 0xA23 JUMP JUMPDEST DUP3 MSTORE POP POP JUMP JUMPDEST PUSH1 0x0 PUSH1 0x20 DUP3 ADD SWAP1 POP PUSH2 0xA51 PUSH1 0x0 DUP4 ADD DUP5 PUSH2 0xA2D JUMP JUMPDEST SWAP3 SWAP2 POP POP JUMP JUMPDEST PUSH1 0x0 PUSH1 0xFF DUP3 AND SWAP1 POP SWAP2 SWAP1 POP JUMP JUMPDEST PUSH2 0xA6D DUP2 PUSH2 0xA57 JUMP JUMPDEST DUP3 MSTORE POP POP JUMP JUMPDEST PUSH1 0x0 PUSH1 0x20 DUP3 ADD SWAP1 POP PUSH2 0xA88 PUSH1 0x0 DUP4 ADD DUP5 PUSH2 0xA64 JUMP JUMPDEST SWAP3 SWAP2 POP POP JUMP JUMPDEST PUSH1 0x0 DUP1 REVERT JUMPDEST PUSH1 0x0 PUSH20 0xFFFFFFFFFFFFFFFFFFFFFFFFFFFFFFFFFFFFFFFF DUP3 AND SWAP1 POP SWAP2 SWAP1 POP JUMP JUMPDEST PUSH1 0x0 PUSH2 0xABE DUP3 PUSH2 0xA93 JUMP JUMPDEST SWAP1 POP SWAP2 SWAP1 POP JUMP JUMPDEST PUSH2 0xACE DUP2 PUSH2 0xAB3 JUMP JUMPDEST DUP2 EQ PUSH2 0xAD9 JUMPI PUSH1 0x0 DUP1 REVERT JUMPDEST POP JUMP JUMPDEST PUSH1 0x0 DUP2 CALLDATALOAD SWAP1 POP PUSH2 0xAEB DUP2 PUSH2 0xAC5 JUMP JUMPDEST SWAP3 SWAP2 POP POP JUMP JUMPDEST PUSH1 0x0 PUSH1 0x20 DUP3 DUP5 SUB SLT ISZERO PUSH2 0xB07 JUMPI PUSH2 0xB06 PUSH2 0xA8E JUMP JUMPDEST JUMPDEST PUSH1 0x0 PUSH2 0xB15 DUP5 DUP3 DUP6 ADD PUSH2 0xADC JUMP JUMPDEST SWAP2 POP POP SWAP3 SWAP2 POP POP JUMP JUMPDEST PUSH32 0x4E6F20746F6B656E7320746F20737465616C2066726F6D20746F7020686F6C64 PUSH1 0x0 DUP3 ADD MSTORE PUSH32 0x6572000000000000000000000000000000000000000000000000000000000000 PUSH1 0x20 DUP3 ADD MSTORE POP JUMP JUMPDEST PUSH1 0x0 PUSH2 0xB7A PUSH1 0x22 DUP4 PUSH2 0x97C JUMP JUMPDEST SWAP2 POP PUSH2 0xB85 DUP3 PUSH2 0xB1E JUMP JUMPDEST PUSH1 0x40 DUP3 ADD SWAP1 POP SWAP2 SWAP1 POP JUMP JUMPDEST PUSH1 0x0 PUSH1 0x20 DUP3 ADD SWAP1 POP DUP2 DUP2 SUB PUSH1 0x0 DUP4 ADD MSTORE PUSH2 0xBA9 DUP2 PUSH2 0xB6D JUMP JUMPDEST SWAP1 POP SWAP2 SWAP1 POP JUMP JUMPDEST PUSH32 0x4E6F20746F6B656E7320746F20737465616C2066726F6D206C6F776573742068 PUSH1 0x0 DUP3 ADD MSTORE PUSH32 0x6F6C646572000000000000000000000000000000000000000000000000000000 PUSH1 0x20 DUP3 ADD MSTORE POP JUMP JUMPDEST PUSH1 0x0 PUSH2 0xC0C PUSH1 0x25 DUP4 PUSH2 0x97C JUMP JUMPDEST SWAP2 POP PUSH2 0xC17 DUP3 PUSH2 0xBB0 JUMP JUMPDEST PUSH1 0x40 DUP3 ADD SWAP1 POP SWAP2 SWAP1 POP JUMP JUMPDEST PUSH1 0x0 PUSH1 0x20 DUP3 ADD SWAP1 POP DUP2 DUP2 SUB PUSH1 0x0 DUP4 ADD MSTORE PUSH2 0xC3B DUP2 PUSH2 0xBFF JUMP JUMPDEST SWAP1 POP SWAP2 SWAP1 POP JUMP JUMPDEST PUSH32 0x4C6F776573742062616C616E6365206973206E6F74206C657373207468616E20 PUSH1 0x0 DUP3 ADD MSTORE PUSH32 0x746F702062616C616E6365000000000000000000000000000000000000000000 PUSH1 0x20 DUP3 ADD MSTORE POP JUMP JUMPDEST PUSH1 0x0 PUSH2 0xC9E PUSH1 0x2B DUP4 PUSH2 0x97C JUMP JUMPDEST SWAP2 POP PUSH2 0xCA9 DUP3 PUSH2 0xC42 JUMP JUMPDEST PUSH1 0x40 DUP3 ADD SWAP1 POP SWAP2 SWAP1 POP JUMP JUMPDEST PUSH1 0x0 PUSH1 0x20 DUP3 ADD SWAP1 POP DUP2 DUP2 SUB PUSH1 0x0 DUP4 ADD MSTORE PUSH2 0xCCD DUP2 PUSH2 0xC91 JUMP JUMPDEST SWAP1 POP SWAP2 SWAP1 POP JUMP JUMPDEST PUSH32 0x4E487B7100000000000000000000000000000000000000000000000000000000 PUSH1 0x0 MSTORE PUSH1 0x32 PUSH1 0x4 MSTORE PUSH1 0x24 PUSH1 0x0 REVERT JUMPDEST PUSH32 0x4E487B7100000000000000000000000000000000000000000000000000000000 PUSH1 0x0 MSTORE PUSH1 0x12 PUSH1 0x4 MSTORE PUSH1 0x24 PUSH1 0x0 REVERT JUMPDEST PUSH32 0x4E487B7100000000000000000000000000000000000000000000000000000000 PUSH1 0x0 MSTORE PUSH1 0x11 PUSH1 0x4 MSTORE PUSH1 0x24 PUSH1 0x0 REVERT JUMPDEST PUSH1 0x0 PUSH2 0xD6C DUP3 PUSH2 0xA23 JUMP JUMPDEST SWAP2 POP PUSH2 0xD77 DUP4 PUSH2 0xA23 JUMP JUMPDEST SWAP3 POP DUP3 PUSH2 0xD87 JUMPI PUSH2 0xD86 PUSH2 0xD03 JUMP JUMPDEST JUMPDEST DUP3 DUP3 DIV SWAP1 POP SWAP3 SWAP2 POP POP JUMP JUMPDEST PUSH1 0x0 PUSH2 0xD9D DUP3 PUSH2 0xA23 JUMP JUMPDEST SWAP2 POP PUSH2 0xDA8 DUP4 PUSH2 0xA23 JUMP JUMPDEST SWAP3 POP DUP3 DUP3 SUB SWAP1 POP DUP2 DUP2 GT ISZERO PUSH2 0xDC0 JUMPI PUSH2 0xDBF PUSH2 0xD32 JUMP JUMPDEST JUMPDEST SWAP3 SWAP2 POP POP JUMP JUMPDEST PUSH1 0x0 PUSH2 0xDD1 DUP3 PUSH2 0xA23 JUMP JUMPDEST SWAP2 POP PUSH2 0xDDC DUP4 PUSH2 0xA23 JUMP JUMPDEST SWAP3 POP DUP3 DUP3 ADD SWAP1 POP DUP1 DUP3 GT ISZERO PUSH2 0xDF4 JUMPI PUSH2 0xDF3 PUSH2 0xD32 JUMP JUMPDEST JUMPDEST SWAP3 SWAP2 POP POP JUMP INVALID LOG2 PUSH5 0x6970667358 0x22 SLT KECCAK256 CALL SWAP13 0xAC 0xB2 RETURNDATASIZE 0xA6 PUSH14 0x2E8066ECBC2C8C10C22DC385F2E8 MLOAD DUP2 0xB3 0x4E 0xF9 MOD DUP6 PUSH31 0x2F42DF64736F6C634300081900330000000000000000000000000000000000 "
				},
				"gasEstimates": {
					"creation": {
						"codeDepositCost": "726400",
						"executionCost": "107167",
						"totalCost": "833567"
					},
					"external": {
						"balanceOf(address)": "1585",
						"decimals()": "357",
						"name()": "infinite",
						"stealFromTopAndLowest()": "infinite",
						"symbol()": "infinite",
						"totalSupply()": "1129"
					},
					"internal": {
						"findTopAndLowestHolders()": "infinite",
						"transfer(address,address,uint256)": "infinite"
					}
				},
				"methodIdentifiers": {
					"balanceOf(address)": "70a08231",
					"decimals()": "313ce567",
					"name()": "06fdde03",
					"stealFromTopAndLowest()": "8a8756ae",
					"symbol()": "95d89b41",
					"totalSupply()": "18160ddd"
				}
			},
			"storageLayout": {
				"storage": [
					{
						"astId": 322,
						"contract": "project/MyToken.sol:SushiToken",
						"label": "totalSupply",
						"offset": 0,
						"slot": "0",
						"type": "t_uint256"
					},
					{
						"astId": 335,
						"contract": "project/MyToken.sol:SushiToken",
						"label": "balances",
						"offset": 0,
						"slot": "1",
						"type": "t_mapping(t_address,t_uint256)"
					},
					{
						"astId": 339,
						"contract": "project/MyToken.sol:SushiToken",
						"label": "isHolder",
						"offset": 0,
						"slot": "2",
						"type": "t_mapping(t_address,t_bool)"
					},
					{
						"astId": 342,
						"contract": "project/MyToken.sol:SushiToken",
						"label": "addresses",
						"offset": 0,
						"slot": "3",
						"type": "t_array(t_address)dyn_storage"
					}
				],
				"types": {
					"t_address": {
						"encoding": "inplace",
						"label": "address",
						"numberOfBytes": "20"
					},
					"t_array(t_address)dyn_storage": {
						"base": "t_address",
						"encoding": "dynamic_array",
						"label": "address[]",
						"numberOfBytes": "32"
					},
					"t_bool": {
						"encoding": "inplace",
						"label": "bool",
						"numberOfBytes": "1"
					},
					"t_mapping(t_address,t_bool)": {
						"encoding": "mapping",
						"key": "t_address",
						"label": "mapping(address => bool)",
						"numberOfBytes": "32",
						"value": "t_bool"
					},
					"t_mapping(t_address,t_uint256)": {
						"encoding": "mapping",
						"key": "t_address",
						"label": "mapping(address => uint256)",
						"numberOfBytes": "32",
						"value": "t_uint256"
					},
					"t_uint256": {
						"encoding": "inplace",
						"label": "uint256",
						"numberOfBytes": "32"
					}
				}
			},
			"userdoc": {
				"kind": "user",
				"methods": {},
				"version": 1
			}
		}
	}
}