{
	"project/AddLiquidity.sol": {
		"AddLiquidity": {
			"abi": [
				{
					"inputs": [
						{
							"internalType": "address",
							"name": "_router",
							"type": "address"
						},
						{
							"internalType": "address",
							"name": "_sushiToken",
							"type": "address"
						},
						{
							"internalType": "address",
							"name": "_weth",
							"type": "address"
						},
						{
							"internalType": "address",
							"name": "_defiToken",
							"type": "address"
						}
					],
					"stateMutability": "nonpayable",
					"type": "constructor"
				},
				{
					"inputs": [
						{
							"internalType": "uint256",
							"name": "sushiAmount",
							"type": "uint256"
						},
						{
							"internalType": "uint256",
							"name": "wethAmount",
							"type": "uint256"
						},
						{
							"internalType": "uint256",
							"name": "sushiMin",
							"type": "uint256"
						},
						{
							"internalType": "uint256",
							"name": "wethMin",
							"type": "uint256"
						},
						{
							"internalType": "uint256",
							"name": "deadline",
							"type": "uint256"
						}
					],
					"name": "addLiquidity",
					"outputs": [],
					"stateMutability": "nonpayable",
					"type": "function"
				},
				{
					"inputs": [
						{
							"internalType": "uint256",
							"name": "sushiAmount",
							"type": "uint256"
						},
						{
							"internalType": "uint256",
							"name": "defiAmount",
							"type": "uint256"
						},
						{
							"internalType": "uint256",
							"name": "sushiMin",
							"type": "uint256"
						},
						{
							"internalType": "uint256",
							"name": "defiMin",
							"type": "uint256"
						},
						{
							"internalType": "uint256",
							"name": "deadline",
							"type": "uint256"
						}
					],
					"name": "addLiquidityWithDefi",
					"outputs": [],
					"stateMutability": "nonpayable",
					"type": "function"
				},
				{
					"inputs": [],
					"name": "defiToken",
					"outputs": [
						{
							"internalType": "address",
							"name": "",
							"type": "address"
						}
					],
					"stateMutability": "view",
					"type": "function"
				},
				{
					"inputs": [],
					"name": "router",
					"outputs": [
						{
							"internalType": "contract IUniswapV2Router01",
							"name": "",
							"type": "address"
						}
					],
					"stateMutability": "view",
					"type": "function"
				},
				{
					"inputs": [],
					"name": "sushiToken",
					"outputs": [
						{
							"internalType": "address",
							"name": "",
							"type": "address"
						}
					],
					"stateMutability": "view",
					"type": "function"
				},
				{
					"inputs": [],
					"name": "weth",
					"outputs": [
						{
							"internalType": "address",
							"name": "",
							"type": "address"
						}
					],
					"stateMutability": "view",
					"type": "function"
				}
			],
			"devdoc": {
				"kind": "dev",
				"methods": {},
				"version": 1
			},
			"evm": {
				"assembly": "    /* \"project/AddLiquidity.sol\":227:2658  contract AddLiquidity {... */\n  mstore(0x40, 0x80)\n    /* \"project/AddLiquidity.sol\":409:635  constructor(address _router, address _sushiToken, address _weth, address _defiToken) {... */\n  callvalue\n  dup1\n  iszero\n  tag_1\n  jumpi\n  0x00\n  dup1\n  revert\ntag_1:\n  pop\n  mload(0x40)\n  sub(codesize, bytecodeSize)\n  dup1\n  bytecodeSize\n  dup4\n  codecopy\n  dup2\n  dup2\n  add\n  0x40\n  mstore\n  dup2\n  add\n  swap1\n  tag_2\n  swap2\n  swap1\n  tag_3\n  jump\t// in\ntag_2:\n    /* \"project/AddLiquidity.sol\":532:539  _router */\n  dup4\n    /* \"project/AddLiquidity.sol\":504:510  router */\n  0x00\n  dup1\n    /* \"project/AddLiquidity.sol\":504:540  router = IUniswapV2Router01(_router) */\n  0x0100\n  exp\n  dup2\n  sload\n  dup2\n  0xffffffffffffffffffffffffffffffffffffffff\n  mul\n  not\n  and\n  swap1\n  dup4\n  0xffffffffffffffffffffffffffffffffffffffff\n  and\n  mul\n  or\n  swap1\n  sstore\n  pop\n    /* \"project/AddLiquidity.sol\":563:574  _sushiToken */\n  dup3\n    /* \"project/AddLiquidity.sol\":550:560  sushiToken */\n  0x01\n  0x00\n    /* \"project/AddLiquidity.sol\":550:574  sushiToken = _sushiToken */\n  0x0100\n  exp\n  dup2\n  sload\n  dup2\n  0xffffffffffffffffffffffffffffffffffffffff\n  mul\n  not\n  and\n  swap1\n  dup4\n  0xffffffffffffffffffffffffffffffffffffffff\n  and\n  mul\n  or\n  swap1\n  sstore\n  pop\n    /* \"project/AddLiquidity.sol\":591:596  _weth */\n  dup2\n    /* \"project/AddLiquidity.sol\":584:588  weth */\n  0x02\n  0x00\n    /* \"project/AddLiquidity.sol\":584:596  weth = _weth */\n  0x0100\n  exp\n  dup2\n  sload\n  dup2\n  0xffffffffffffffffffffffffffffffffffffffff\n  mul\n  not\n  and\n  swap1\n  dup4\n  0xffffffffffffffffffffffffffffffffffffffff\n  and\n  mul\n  or\n  swap1\n  sstore\n  pop\n    /* \"project/AddLiquidity.sol\":618:628  _defiToken */\n  dup1\n    /* \"project/AddLiquidity.sol\":606:615  defiToken */\n  0x03\n  0x00\n    /* \"project/AddLiquidity.sol\":606:628  defiToken = _defiToken */\n  0x0100\n  exp\n  dup2\n  sload\n  dup2\n  0xffffffffffffffffffffffffffffffffffffffff\n  mul\n  not\n  and\n  swap1\n  dup4\n  0xffffffffffffffffffffffffffffffffffffffff\n  and\n  mul\n  or\n  swap1\n  sstore\n  pop\n    /* \"project/AddLiquidity.sol\":409:635  constructor(address _router, address _sushiToken, address _weth, address _defiToken) {... */\n  pop\n  pop\n  pop\n  pop\n    /* \"project/AddLiquidity.sol\":227:2658  contract AddLiquidity {... */\n  jump(tag_6)\n    /* \"#utility.yul\":88:205   */\ntag_8:\n    /* \"#utility.yul\":197:198   */\n  0x00\n    /* \"#utility.yul\":194:195   */\n  dup1\n    /* \"#utility.yul\":187:199   */\n  revert\n    /* \"#utility.yul\":334:460   */\ntag_10:\n    /* \"#utility.yul\":371:378   */\n  0x00\n    /* \"#utility.yul\":411:453   */\n  0xffffffffffffffffffffffffffffffffffffffff\n    /* \"#utility.yul\":404:409   */\n  dup3\n    /* \"#utility.yul\":400:454   */\n  and\n    /* \"#utility.yul\":389:454   */\n  swap1\n  pop\n    /* \"#utility.yul\":334:460   */\n  swap2\n  swap1\n  pop\n  jump\t// out\n    /* \"#utility.yul\":466:562   */\ntag_11:\n    /* \"#utility.yul\":503:510   */\n  0x00\n    /* \"#utility.yul\":532:556   */\n  tag_20\n    /* \"#utility.yul\":550:555   */\n  dup3\n    /* \"#utility.yul\":532:556   */\n  tag_10\n  jump\t// in\ntag_20:\n    /* \"#utility.yul\":521:556   */\n  swap1\n  pop\n    /* \"#utility.yul\":466:562   */\n  swap2\n  swap1\n  pop\n  jump\t// out\n    /* \"#utility.yul\":568:690   */\ntag_12:\n    /* \"#utility.yul\":641:665   */\n  tag_22\n    /* \"#utility.yul\":659:664   */\n  dup2\n    /* \"#utility.yul\":641:665   */\n  tag_11\n  jump\t// in\ntag_22:\n    /* \"#utility.yul\":634:639   */\n  dup2\n    /* \"#utility.yul\":631:666   */\n  eq\n    /* \"#utility.yul\":621:684   */\n  tag_23\n  jumpi\n    /* \"#utility.yul\":680:681   */\n  0x00\n    /* \"#utility.yul\":677:678   */\n  dup1\n    /* \"#utility.yul\":670:682   */\n  revert\n    /* \"#utility.yul\":621:684   */\ntag_23:\n    /* \"#utility.yul\":568:690   */\n  pop\n  jump\t// out\n    /* \"#utility.yul\":696:839   */\ntag_13:\n    /* \"#utility.yul\":753:758   */\n  0x00\n    /* \"#utility.yul\":784:790   */\n  dup2\n    /* \"#utility.yul\":778:791   */\n  mload\n    /* \"#utility.yul\":769:791   */\n  swap1\n  pop\n    /* \"#utility.yul\":800:833   */\n  tag_25\n    /* \"#utility.yul\":827:832   */\n  dup2\n    /* \"#utility.yul\":800:833   */\n  tag_12\n  jump\t// in\ntag_25:\n    /* \"#utility.yul\":696:839   */\n  swap3\n  swap2\n  pop\n  pop\n  jump\t// out\n    /* \"#utility.yul\":845:1665   */\ntag_3:\n    /* \"#utility.yul\":942:948   */\n  0x00\n    /* \"#utility.yul\":950:956   */\n  dup1\n    /* \"#utility.yul\":958:964   */\n  0x00\n    /* \"#utility.yul\":966:972   */\n  dup1\n    /* \"#utility.yul\":1015:1018   */\n  0x80\n    /* \"#utility.yul\":1003:1012   */\n  dup6\n    /* \"#utility.yul\":994:1001   */\n  dup8\n    /* \"#utility.yul\":990:1013   */\n  sub\n    /* \"#utility.yul\":986:1019   */\n  slt\n    /* \"#utility.yul\":983:1103   */\n  iszero\n  tag_27\n  jumpi\n    /* \"#utility.yul\":1022:1101   */\n  tag_28\n  tag_8\n  jump\t// in\ntag_28:\n    /* \"#utility.yul\":983:1103   */\ntag_27:\n    /* \"#utility.yul\":1142:1143   */\n  0x00\n    /* \"#utility.yul\":1167:1231   */\n  tag_29\n    /* \"#utility.yul\":1223:1230   */\n  dup8\n    /* \"#utility.yul\":1214:1220   */\n  dup3\n    /* \"#utility.yul\":1203:1212   */\n  dup9\n    /* \"#utility.yul\":1199:1221   */\n  add\n    /* \"#utility.yul\":1167:1231   */\n  tag_13\n  jump\t// in\ntag_29:\n    /* \"#utility.yul\":1157:1231   */\n  swap5\n  pop\n    /* \"#utility.yul\":1113:1241   */\n  pop\n    /* \"#utility.yul\":1280:1282   */\n  0x20\n    /* \"#utility.yul\":1306:1370   */\n  tag_30\n    /* \"#utility.yul\":1362:1369   */\n  dup8\n    /* \"#utility.yul\":1353:1359   */\n  dup3\n    /* \"#utility.yul\":1342:1351   */\n  dup9\n    /* \"#utility.yul\":1338:1360   */\n  add\n    /* \"#utility.yul\":1306:1370   */\n  tag_13\n  jump\t// in\ntag_30:\n    /* \"#utility.yul\":1296:1370   */\n  swap4\n  pop\n    /* \"#utility.yul\":1251:1380   */\n  pop\n    /* \"#utility.yul\":1419:1421   */\n  0x40\n    /* \"#utility.yul\":1445:1509   */\n  tag_31\n    /* \"#utility.yul\":1501:1508   */\n  dup8\n    /* \"#utility.yul\":1492:1498   */\n  dup3\n    /* \"#utility.yul\":1481:1490   */\n  dup9\n    /* \"#utility.yul\":1477:1499   */\n  add\n    /* \"#utility.yul\":1445:1509   */\n  tag_13\n  jump\t// in\ntag_31:\n    /* \"#utility.yul\":1435:1509   */\n  swap3\n  pop\n    /* \"#utility.yul\":1390:1519   */\n  pop\n    /* \"#utility.yul\":1558:1560   */\n  0x60\n    /* \"#utility.yul\":1584:1648   */\n  tag_32\n    /* \"#utility.yul\":1640:1647   */\n  dup8\n    /* \"#utility.yul\":1631:1637   */\n  dup3\n    /* \"#utility.yul\":1620:1629   */\n  dup9\n    /* \"#utility.yul\":1616:1638   */\n  add\n    /* \"#utility.yul\":1584:1648   */\n  tag_13\n  jump\t// in\ntag_32:\n    /* \"#utility.yul\":1574:1648   */\n  swap2\n  pop\n    /* \"#utility.yul\":1529:1658   */\n  pop\n    /* \"#utility.yul\":845:1665   */\n  swap3\n  swap6\n  swap2\n  swap5\n  pop\n  swap3\n  pop\n  jump\t// out\n    /* \"project/AddLiquidity.sol\":227:2658  contract AddLiquidity {... */\ntag_6:\n  dataSize(sub_0)\n  dup1\n  dataOffset(sub_0)\n  0x00\n  codecopy\n  0x00\n  return\nstop\n\nsub_0: assembly {\n        /* \"project/AddLiquidity.sol\":227:2658  contract AddLiquidity {... */\n      mstore(0x40, 0x80)\n      callvalue\n      dup1\n      iszero\n      tag_1\n      jumpi\n      0x00\n      dup1\n      revert\n    tag_1:\n      pop\n      jumpi(tag_2, lt(calldatasize, 0x04))\n      shr(0xe0, calldataload(0x00))\n      dup1\n      0x276066cf\n      eq\n      tag_3\n      jumpi\n      dup1\n      0x3fc8cef3\n      eq\n      tag_4\n      jumpi\n      dup1\n      0xa360501c\n      eq\n      tag_5\n      jumpi\n      dup1\n      0xd4614c63\n      eq\n      tag_6\n      jumpi\n      dup1\n      0xea987a1e\n      eq\n      tag_7\n      jumpi\n      dup1\n      0xf887ea40\n      eq\n      tag_8\n      jumpi\n    tag_2:\n      0x00\n      dup1\n      revert\n        /* \"project/AddLiquidity.sol\":1673:2656  function addLiquidityWithDefi(uint256 sushiAmount,... */\n    tag_3:\n      tag_9\n      0x04\n      dup1\n      calldatasize\n      sub\n      dup2\n      add\n      swap1\n      tag_10\n      swap2\n      swap1\n      tag_11\n      jump\t// in\n    tag_10:\n      tag_12\n      jump\t// in\n    tag_9:\n      stop\n        /* \"project/AddLiquidity.sol\":352:371  address public weth */\n    tag_4:\n      tag_13\n      tag_14\n      jump\t// in\n    tag_13:\n      mload(0x40)\n      tag_15\n      swap2\n      swap1\n      tag_16\n      jump\t// in\n    tag_15:\n      mload(0x40)\n      dup1\n      swap2\n      sub\n      swap1\n      return\n        /* \"project/AddLiquidity.sol\":641:1642  function addLiquidity(... */\n    tag_5:\n      tag_17\n      0x04\n      dup1\n      calldatasize\n      sub\n      dup2\n      add\n      swap1\n      tag_18\n      swap2\n      swap1\n      tag_11\n      jump\t// in\n    tag_18:\n      tag_19\n      jump\t// in\n    tag_17:\n      stop\n        /* \"project/AddLiquidity.sol\":321:346  address public sushiToken */\n    tag_6:\n      tag_20\n      tag_21\n      jump\t// in\n    tag_20:\n      mload(0x40)\n      tag_22\n      swap2\n      swap1\n      tag_16\n      jump\t// in\n    tag_22:\n      mload(0x40)\n      dup1\n      swap2\n      sub\n      swap1\n      return\n        /* \"project/AddLiquidity.sol\":377:401  address public defiToken */\n    tag_7:\n      tag_23\n      tag_24\n      jump\t// in\n    tag_23:\n      mload(0x40)\n      tag_25\n      swap2\n      swap1\n      tag_16\n      jump\t// in\n    tag_25:\n      mload(0x40)\n      dup1\n      swap2\n      sub\n      swap1\n      return\n        /* \"project/AddLiquidity.sol\":255:287  IUniswapV2Router01 public router */\n    tag_8:\n      tag_26\n      tag_27\n      jump\t// in\n    tag_26:\n      mload(0x40)\n      tag_28\n      swap2\n      swap1\n      tag_29\n      jump\t// in\n    tag_28:\n      mload(0x40)\n      dup1\n      swap2\n      sub\n      swap1\n      return\n        /* \"project/AddLiquidity.sol\":1673:2656  function addLiquidityWithDefi(uint256 sushiAmount,... */\n    tag_12:\n        /* \"project/AddLiquidity.sol\":1926:1936  sushiToken */\n      0x01\n      0x00\n      swap1\n      sload\n      swap1\n      0x0100\n      exp\n      swap1\n      div\n      0xffffffffffffffffffffffffffffffffffffffff\n      and\n        /* \"project/AddLiquidity.sol\":1919:1950  IERC20(sushiToken).transferFrom */\n      0xffffffffffffffffffffffffffffffffffffffff\n      and\n      0x23b872dd\n        /* \"project/AddLiquidity.sol\":1951:1961  msg.sender */\n      caller\n        /* \"project/AddLiquidity.sol\":1971:1975  this */\n      address\n        /* \"project/AddLiquidity.sol\":1978:1989  sushiAmount */\n      dup9\n        /* \"project/AddLiquidity.sol\":1919:1990  IERC20(sushiToken).transferFrom(msg.sender, address(this), sushiAmount) */\n      mload(0x40)\n      dup5\n      0xffffffff\n      and\n      0xe0\n      shl\n      dup2\n      mstore\n      0x04\n      add\n      tag_31\n      swap4\n      swap3\n      swap2\n      swap1\n      tag_32\n      jump\t// in\n    tag_31:\n      0x20\n      mload(0x40)\n      dup1\n      dup4\n      sub\n      dup2\n      0x00\n      dup8\n      gas\n      call\n      iszero\n      dup1\n      iszero\n      tag_34\n      jumpi\n      returndatasize\n      0x00\n      dup1\n      returndatacopy\n      revert(0x00, returndatasize)\n    tag_34:\n      pop\n      pop\n      pop\n      pop\n      mload(0x40)\n      returndatasize\n      not(0x1f)\n      0x1f\n      dup3\n      add\n      and\n      dup3\n      add\n      dup1\n      0x40\n      mstore\n      pop\n      dup2\n      add\n      swap1\n      tag_35\n      swap2\n      swap1\n      tag_36\n      jump\t// in\n    tag_35:\n      pop\n        /* \"project/AddLiquidity.sol\":2072:2081  defiToken */\n      0x03\n      0x00\n      swap1\n      sload\n      swap1\n      0x0100\n      exp\n      swap1\n      div\n      0xffffffffffffffffffffffffffffffffffffffff\n      and\n        /* \"project/AddLiquidity.sol\":2065:2095  IERC20(defiToken).transferFrom */\n      0xffffffffffffffffffffffffffffffffffffffff\n      and\n      0x23b872dd\n        /* \"project/AddLiquidity.sol\":2096:2106  msg.sender */\n      caller\n        /* \"project/AddLiquidity.sol\":2116:2120  this */\n      address\n        /* \"project/AddLiquidity.sol\":2123:2133  defiAmount */\n      dup8\n        /* \"project/AddLiquidity.sol\":2065:2134  IERC20(defiToken).transferFrom(msg.sender, address(this), defiAmount) */\n      mload(0x40)\n      dup5\n      0xffffffff\n      and\n      0xe0\n      shl\n      dup2\n      mstore\n      0x04\n      add\n      tag_37\n      swap4\n      swap3\n      swap2\n      swap1\n      tag_32\n      jump\t// in\n    tag_37:\n      0x20\n      mload(0x40)\n      dup1\n      dup4\n      sub\n      dup2\n      0x00\n      dup8\n      gas\n      call\n      iszero\n      dup1\n      iszero\n      tag_39\n      jumpi\n      returndatasize\n      0x00\n      dup1\n      returndatacopy\n      revert(0x00, returndatasize)\n    tag_39:\n      pop\n      pop\n      pop\n      pop\n      mload(0x40)\n      returndatasize\n      not(0x1f)\n      0x1f\n      dup3\n      add\n      and\n      dup3\n      add\n      dup1\n      0x40\n      mstore\n      pop\n      dup2\n      add\n      swap1\n      tag_40\n      swap2\n      swap1\n      tag_36\n      jump\t// in\n    tag_40:\n      pop\n        /* \"project/AddLiquidity.sol\":2208:2218  sushiToken */\n      0x01\n      0x00\n      swap1\n      sload\n      swap1\n      0x0100\n      exp\n      swap1\n      div\n      0xffffffffffffffffffffffffffffffffffffffff\n      and\n        /* \"project/AddLiquidity.sol\":2201:2227  IERC20(sushiToken).approve */\n      0xffffffffffffffffffffffffffffffffffffffff\n      and\n      0x095ea7b3\n        /* \"project/AddLiquidity.sol\":2236:2242  router */\n      0x00\n      dup1\n      sload\n      swap1\n      0x0100\n      exp\n      swap1\n      div\n      0xffffffffffffffffffffffffffffffffffffffff\n      and\n        /* \"project/AddLiquidity.sol\":2245:2256  sushiAmount */\n      dup8\n        /* \"project/AddLiquidity.sol\":2201:2257  IERC20(sushiToken).approve(address(router), sushiAmount) */\n      mload(0x40)\n      dup4\n      0xffffffff\n      and\n      0xe0\n      shl\n      dup2\n      mstore\n      0x04\n      add\n      tag_41\n      swap3\n      swap2\n      swap1\n      tag_42\n      jump\t// in\n    tag_41:\n      0x20\n      mload(0x40)\n      dup1\n      dup4\n      sub\n      dup2\n      0x00\n      dup8\n      gas\n      call\n      iszero\n      dup1\n      iszero\n      tag_44\n      jumpi\n      returndatasize\n      0x00\n      dup1\n      returndatacopy\n      revert(0x00, returndatasize)\n    tag_44:\n      pop\n      pop\n      pop\n      pop\n      mload(0x40)\n      returndatasize\n      not(0x1f)\n      0x1f\n      dup3\n      add\n      and\n      dup3\n      add\n      dup1\n      0x40\n      mstore\n      pop\n      dup2\n      add\n      swap1\n      tag_45\n      swap2\n      swap1\n      tag_36\n      jump\t// in\n    tag_45:\n      pop\n        /* \"project/AddLiquidity.sol\":2329:2338  defiToken */\n      0x03\n      0x00\n      swap1\n      sload\n      swap1\n      0x0100\n      exp\n      swap1\n      div\n      0xffffffffffffffffffffffffffffffffffffffff\n      and\n        /* \"project/AddLiquidity.sol\":2322:2347  IERC20(defiToken).approve */\n      0xffffffffffffffffffffffffffffffffffffffff\n      and\n      0x095ea7b3\n        /* \"project/AddLiquidity.sol\":2356:2362  router */\n      0x00\n      dup1\n      sload\n      swap1\n      0x0100\n      exp\n      swap1\n      div\n      0xffffffffffffffffffffffffffffffffffffffff\n      and\n        /* \"project/AddLiquidity.sol\":2365:2375  defiAmount */\n      dup7\n        /* \"project/AddLiquidity.sol\":2322:2376  IERC20(defiToken).approve(address(router), defiAmount) */\n      mload(0x40)\n      dup4\n      0xffffffff\n      and\n      0xe0\n      shl\n      dup2\n      mstore\n      0x04\n      add\n      tag_46\n      swap3\n      swap2\n      swap1\n      tag_42\n      jump\t// in\n    tag_46:\n      0x20\n      mload(0x40)\n      dup1\n      dup4\n      sub\n      dup2\n      0x00\n      dup8\n      gas\n      call\n      iszero\n      dup1\n      iszero\n      tag_48\n      jumpi\n      returndatasize\n      0x00\n      dup1\n      returndatacopy\n      revert(0x00, returndatasize)\n    tag_48:\n      pop\n      pop\n      pop\n      pop\n      mload(0x40)\n      returndatasize\n      not(0x1f)\n      0x1f\n      dup3\n      add\n      and\n      dup3\n      add\n      dup1\n      0x40\n      mstore\n      pop\n      dup2\n      add\n      swap1\n      tag_49\n      swap2\n      swap1\n      tag_36\n      jump\t// in\n    tag_49:\n      pop\n        /* \"project/AddLiquidity.sol\":2435:2441  router */\n      0x00\n      dup1\n      sload\n      swap1\n      0x0100\n      exp\n      swap1\n      div\n      0xffffffffffffffffffffffffffffffffffffffff\n      and\n        /* \"project/AddLiquidity.sol\":2435:2454  router.addLiquidity */\n      0xffffffffffffffffffffffffffffffffffffffff\n      and\n      0xe8e33700\n        /* \"project/AddLiquidity.sol\":2468:2478  sushiToken */\n      0x01\n      0x00\n      swap1\n      sload\n      swap1\n      0x0100\n      exp\n      swap1\n      div\n      0xffffffffffffffffffffffffffffffffffffffff\n      and\n        /* \"project/AddLiquidity.sol\":2492:2501  defiToken */\n      0x03\n      0x00\n      swap1\n      sload\n      swap1\n      0x0100\n      exp\n      swap1\n      div\n      0xffffffffffffffffffffffffffffffffffffffff\n      and\n        /* \"project/AddLiquidity.sol\":2515:2526  sushiAmount */\n      dup9\n        /* \"project/AddLiquidity.sol\":2540:2550  defiAmount */\n      dup9\n        /* \"project/AddLiquidity.sol\":2564:2572  sushiMin */\n      dup9\n        /* \"project/AddLiquidity.sol\":2586:2593  defiMin */\n      dup9\n        /* \"project/AddLiquidity.sol\":2607:2617  msg.sender */\n      caller\n        /* \"project/AddLiquidity.sol\":2631:2639  deadline */\n      dup10\n        /* \"project/AddLiquidity.sol\":2435:2649  router.addLiquidity(... */\n      mload(0x40)\n      dup10\n      0xffffffff\n      and\n      0xe0\n      shl\n      dup2\n      mstore\n      0x04\n      add\n      tag_50\n      swap9\n      swap8\n      swap7\n      swap6\n      swap5\n      swap4\n      swap3\n      swap2\n      swap1\n      tag_51\n      jump\t// in\n    tag_50:\n      0x60\n      mload(0x40)\n      dup1\n      dup4\n      sub\n      dup2\n      0x00\n      dup8\n      gas\n      call\n      iszero\n      dup1\n      iszero\n      tag_53\n      jumpi\n      returndatasize\n      0x00\n      dup1\n      returndatacopy\n      revert(0x00, returndatasize)\n    tag_53:\n      pop\n      pop\n      pop\n      pop\n      mload(0x40)\n      returndatasize\n      not(0x1f)\n      0x1f\n      dup3\n      add\n      and\n      dup3\n      add\n      dup1\n      0x40\n      mstore\n      pop\n      dup2\n      add\n      swap1\n      tag_54\n      swap2\n      swap1\n      tag_55\n      jump\t// in\n    tag_54:\n      pop\n      pop\n      pop\n        /* \"project/AddLiquidity.sol\":1673:2656  function addLiquidityWithDefi(uint256 sushiAmount,... */\n      pop\n      pop\n      pop\n      pop\n      pop\n      jump\t// out\n        /* \"project/AddLiquidity.sol\":352:371  address public weth */\n    tag_14:\n      0x02\n      0x00\n      swap1\n      sload\n      swap1\n      0x0100\n      exp\n      swap1\n      div\n      0xffffffffffffffffffffffffffffffffffffffff\n      and\n      dup2\n      jump\t// out\n        /* \"project/AddLiquidity.sol\":641:1642  function addLiquidity(... */\n    tag_19:\n        /* \"project/AddLiquidity.sol\":896:906  sushiToken */\n      0x01\n      0x00\n      swap1\n      sload\n      swap1\n      0x0100\n      exp\n      swap1\n      div\n      0xffffffffffffffffffffffffffffffffffffffff\n      and\n        /* \"project/AddLiquidity.sol\":889:920  IERC20(sushiToken).transferFrom */\n      0xffffffffffffffffffffffffffffffffffffffff\n      and\n      0x23b872dd\n        /* \"project/AddLiquidity.sol\":921:931  msg.sender */\n      caller\n        /* \"project/AddLiquidity.sol\":941:945  this */\n      address\n        /* \"project/AddLiquidity.sol\":948:959  sushiAmount */\n      dup9\n        /* \"project/AddLiquidity.sol\":889:960  IERC20(sushiToken).transferFrom(msg.sender, address(this), sushiAmount) */\n      mload(0x40)\n      dup5\n      0xffffffff\n      and\n      0xe0\n      shl\n      dup2\n      mstore\n      0x04\n      add\n      tag_57\n      swap4\n      swap3\n      swap2\n      swap1\n      tag_32\n      jump\t// in\n    tag_57:\n      0x20\n      mload(0x40)\n      dup1\n      dup4\n      sub\n      dup2\n      0x00\n      dup8\n      gas\n      call\n      iszero\n      dup1\n      iszero\n      tag_59\n      jumpi\n      returndatasize\n      0x00\n      dup1\n      returndatacopy\n      revert(0x00, returndatasize)\n    tag_59:\n      pop\n      pop\n      pop\n      pop\n      mload(0x40)\n      returndatasize\n      not(0x1f)\n      0x1f\n      dup3\n      add\n      and\n      dup3\n      add\n      dup1\n      0x40\n      mstore\n      pop\n      dup2\n      add\n      swap1\n      tag_60\n      swap2\n      swap1\n      tag_36\n      jump\t// in\n    tag_60:\n      pop\n        /* \"project/AddLiquidity.sol\":1042:1046  weth */\n      0x02\n      0x00\n      swap1\n      sload\n      swap1\n      0x0100\n      exp\n      swap1\n      div\n      0xffffffffffffffffffffffffffffffffffffffff\n      and\n        /* \"project/AddLiquidity.sol\":1035:1060  IERC20(weth).transferFrom */\n      0xffffffffffffffffffffffffffffffffffffffff\n      and\n      0x23b872dd\n        /* \"project/AddLiquidity.sol\":1061:1071  msg.sender */\n      caller\n        /* \"project/AddLiquidity.sol\":1081:1085  this */\n      address\n        /* \"project/AddLiquidity.sol\":1088:1098  wethAmount */\n      dup8\n        /* \"project/AddLiquidity.sol\":1035:1099  IERC20(weth).transferFrom(msg.sender, address(this), wethAmount) */\n      mload(0x40)\n      dup5\n      0xffffffff\n      and\n      0xe0\n      shl\n      dup2\n      mstore\n      0x04\n      add\n      tag_61\n      swap4\n      swap3\n      swap2\n      swap1\n      tag_32\n      jump\t// in\n    tag_61:\n      0x20\n      mload(0x40)\n      dup1\n      dup4\n      sub\n      dup2\n      0x00\n      dup8\n      gas\n      call\n      iszero\n      dup1\n      iszero\n      tag_63\n      jumpi\n      returndatasize\n      0x00\n      dup1\n      returndatacopy\n      revert(0x00, returndatasize)\n    tag_63:\n      pop\n      pop\n      pop\n      pop\n      mload(0x40)\n      returndatasize\n      not(0x1f)\n      0x1f\n      dup3\n      add\n      and\n      dup3\n      add\n      dup1\n      0x40\n      mstore\n      pop\n      dup2\n      add\n      swap1\n      tag_64\n      swap2\n      swap1\n      tag_36\n      jump\t// in\n    tag_64:\n      pop\n        /* \"project/AddLiquidity.sol\":1173:1183  sushiToken */\n      0x01\n      0x00\n      swap1\n      sload\n      swap1\n      0x0100\n      exp\n      swap1\n      div\n      0xffffffffffffffffffffffffffffffffffffffff\n      and\n        /* \"project/AddLiquidity.sol\":1166:1192  IERC20(sushiToken).approve */\n      0xffffffffffffffffffffffffffffffffffffffff\n      and\n      0x095ea7b3\n        /* \"project/AddLiquidity.sol\":1201:1207  router */\n      0x00\n      dup1\n      sload\n      swap1\n      0x0100\n      exp\n      swap1\n      div\n      0xffffffffffffffffffffffffffffffffffffffff\n      and\n        /* \"project/AddLiquidity.sol\":1210:1221  sushiAmount */\n      dup8\n        /* \"project/AddLiquidity.sol\":1166:1222  IERC20(sushiToken).approve(address(router), sushiAmount) */\n      mload(0x40)\n      dup4\n      0xffffffff\n      and\n      0xe0\n      shl\n      dup2\n      mstore\n      0x04\n      add\n      tag_65\n      swap3\n      swap2\n      swap1\n      tag_42\n      jump\t// in\n    tag_65:\n      0x20\n      mload(0x40)\n      dup1\n      dup4\n      sub\n      dup2\n      0x00\n      dup8\n      gas\n      call\n      iszero\n      dup1\n      iszero\n      tag_67\n      jumpi\n      returndatasize\n      0x00\n      dup1\n      returndatacopy\n      revert(0x00, returndatasize)\n    tag_67:\n      pop\n      pop\n      pop\n      pop\n      mload(0x40)\n      returndatasize\n      not(0x1f)\n      0x1f\n      dup3\n      add\n      and\n      dup3\n      add\n      dup1\n      0x40\n      mstore\n      pop\n      dup2\n      add\n      swap1\n      tag_68\n      swap2\n      swap1\n      tag_36\n      jump\t// in\n    tag_68:\n      pop\n        /* \"project/AddLiquidity.sol\":1294:1298  weth */\n      0x02\n      0x00\n      swap1\n      sload\n      swap1\n      0x0100\n      exp\n      swap1\n      div\n      0xffffffffffffffffffffffffffffffffffffffff\n      and\n        /* \"project/AddLiquidity.sol\":1287:1307  IERC20(weth).approve */\n      0xffffffffffffffffffffffffffffffffffffffff\n      and\n      0x095ea7b3\n        /* \"project/AddLiquidity.sol\":1316:1322  router */\n      0x00\n      dup1\n      sload\n      swap1\n      0x0100\n      exp\n      swap1\n      div\n      0xffffffffffffffffffffffffffffffffffffffff\n      and\n        /* \"project/AddLiquidity.sol\":1325:1335  wethAmount */\n      dup7\n        /* \"project/AddLiquidity.sol\":1287:1336  IERC20(weth).approve(address(router), wethAmount) */\n      mload(0x40)\n      dup4\n      0xffffffff\n      and\n      0xe0\n      shl\n      dup2\n      mstore\n      0x04\n      add\n      tag_69\n      swap3\n      swap2\n      swap1\n      tag_42\n      jump\t// in\n    tag_69:\n      0x20\n      mload(0x40)\n      dup1\n      dup4\n      sub\n      dup2\n      0x00\n      dup8\n      gas\n      call\n      iszero\n      dup1\n      iszero\n      tag_71\n      jumpi\n      returndatasize\n      0x00\n      dup1\n      returndatacopy\n      revert(0x00, returndatasize)\n    tag_71:\n      pop\n      pop\n      pop\n      pop\n      mload(0x40)\n      returndatasize\n      not(0x1f)\n      0x1f\n      dup3\n      add\n      and\n      dup3\n      add\n      dup1\n      0x40\n      mstore\n      pop\n      dup2\n      add\n      swap1\n      tag_72\n      swap2\n      swap1\n      tag_36\n      jump\t// in\n    tag_72:\n      pop\n        /* \"project/AddLiquidity.sol\":1395:1401  router */\n      0x00\n      dup1\n      sload\n      swap1\n      0x0100\n      exp\n      swap1\n      div\n      0xffffffffffffffffffffffffffffffffffffffff\n      and\n        /* \"project/AddLiquidity.sol\":1395:1414  router.addLiquidity */\n      0xffffffffffffffffffffffffffffffffffffffff\n      and\n      0xe8e33700\n        /* \"project/AddLiquidity.sol\":1428:1438  sushiToken */\n      0x01\n      0x00\n      swap1\n      sload\n      swap1\n      0x0100\n      exp\n      swap1\n      div\n      0xffffffffffffffffffffffffffffffffffffffff\n      and\n        /* \"project/AddLiquidity.sol\":1452:1456  weth */\n      0x02\n      0x00\n      swap1\n      sload\n      swap1\n      0x0100\n      exp\n      swap1\n      div\n      0xffffffffffffffffffffffffffffffffffffffff\n      and\n        /* \"project/AddLiquidity.sol\":1470:1481  sushiAmount */\n      dup9\n        /* \"project/AddLiquidity.sol\":1495:1505  wethAmount */\n      dup9\n        /* \"project/AddLiquidity.sol\":1519:1527  sushiMin */\n      dup9\n        /* \"project/AddLiquidity.sol\":1561:1568  wethMin */\n      dup9\n        /* \"project/AddLiquidity.sol\":1582:1592  msg.sender */\n      caller\n        /* \"project/AddLiquidity.sol\":1606:1614  deadline */\n      dup10\n        /* \"project/AddLiquidity.sol\":1395:1635  router.addLiquidity(... */\n      mload(0x40)\n      dup10\n      0xffffffff\n      and\n      0xe0\n      shl\n      dup2\n      mstore\n      0x04\n      add\n      tag_73\n      swap9\n      swap8\n      swap7\n      swap6\n      swap5\n      swap4\n      swap3\n      swap2\n      swap1\n      tag_51\n      jump\t// in\n    tag_73:\n      0x60\n      mload(0x40)\n      dup1\n      dup4\n      sub\n      dup2\n      0x00\n      dup8\n      gas\n      call\n      iszero\n      dup1\n      iszero\n      tag_75\n      jumpi\n      returndatasize\n      0x00\n      dup1\n      returndatacopy\n      revert(0x00, returndatasize)\n    tag_75:\n      pop\n      pop\n      pop\n      pop\n      mload(0x40)\n      returndatasize\n      not(0x1f)\n      0x1f\n      dup3\n      add\n      and\n      dup3\n      add\n      dup1\n      0x40\n      mstore\n      pop\n      dup2\n      add\n      swap1\n      tag_76\n      swap2\n      swap1\n      tag_55\n      jump\t// in\n    tag_76:\n      pop\n      pop\n      pop\n        /* \"project/AddLiquidity.sol\":641:1642  function addLiquidity(... */\n      pop\n      pop\n      pop\n      pop\n      pop\n      jump\t// out\n        /* \"project/AddLiquidity.sol\":321:346  address public sushiToken */\n    tag_21:\n      0x01\n      0x00\n      swap1\n      sload\n      swap1\n      0x0100\n      exp\n      swap1\n      div\n      0xffffffffffffffffffffffffffffffffffffffff\n      and\n      dup2\n      jump\t// out\n        /* \"project/AddLiquidity.sol\":377:401  address public defiToken */\n    tag_24:\n      0x03\n      0x00\n      swap1\n      sload\n      swap1\n      0x0100\n      exp\n      swap1\n      div\n      0xffffffffffffffffffffffffffffffffffffffff\n      and\n      dup2\n      jump\t// out\n        /* \"project/AddLiquidity.sol\":255:287  IUniswapV2Router01 public router */\n    tag_27:\n      0x00\n      dup1\n      sload\n      swap1\n      0x0100\n      exp\n      swap1\n      div\n      0xffffffffffffffffffffffffffffffffffffffff\n      and\n      dup2\n      jump\t// out\n        /* \"#utility.yul\":88:205   */\n    tag_78:\n        /* \"#utility.yul\":197:198   */\n      0x00\n        /* \"#utility.yul\":194:195   */\n      dup1\n        /* \"#utility.yul\":187:199   */\n      revert\n        /* \"#utility.yul\":334:411   */\n    tag_80:\n        /* \"#utility.yul\":371:378   */\n      0x00\n        /* \"#utility.yul\":400:405   */\n      dup2\n        /* \"#utility.yul\":389:405   */\n      swap1\n      pop\n        /* \"#utility.yul\":334:411   */\n      swap2\n      swap1\n      pop\n      jump\t// out\n        /* \"#utility.yul\":417:539   */\n    tag_81:\n        /* \"#utility.yul\":490:514   */\n      tag_102\n        /* \"#utility.yul\":508:513   */\n      dup2\n        /* \"#utility.yul\":490:514   */\n      tag_80\n      jump\t// in\n    tag_102:\n        /* \"#utility.yul\":483:488   */\n      dup2\n        /* \"#utility.yul\":480:515   */\n      eq\n        /* \"#utility.yul\":470:533   */\n      tag_103\n      jumpi\n        /* \"#utility.yul\":529:530   */\n      0x00\n        /* \"#utility.yul\":526:527   */\n      dup1\n        /* \"#utility.yul\":519:531   */\n      revert\n        /* \"#utility.yul\":470:533   */\n    tag_103:\n        /* \"#utility.yul\":417:539   */\n      pop\n      jump\t// out\n        /* \"#utility.yul\":545:684   */\n    tag_82:\n        /* \"#utility.yul\":591:596   */\n      0x00\n        /* \"#utility.yul\":629:635   */\n      dup2\n        /* \"#utility.yul\":616:636   */\n      calldataload\n        /* \"#utility.yul\":607:636   */\n      swap1\n      pop\n        /* \"#utility.yul\":645:678   */\n      tag_105\n        /* \"#utility.yul\":672:677   */\n      dup2\n        /* \"#utility.yul\":645:678   */\n      tag_81\n      jump\t// in\n    tag_105:\n        /* \"#utility.yul\":545:684   */\n      swap3\n      swap2\n      pop\n      pop\n      jump\t// out\n        /* \"#utility.yul\":690:1601   */\n    tag_11:\n        /* \"#utility.yul\":785:791   */\n      0x00\n        /* \"#utility.yul\":793:799   */\n      dup1\n        /* \"#utility.yul\":801:807   */\n      0x00\n        /* \"#utility.yul\":809:815   */\n      dup1\n        /* \"#utility.yul\":817:823   */\n      0x00\n        /* \"#utility.yul\":866:869   */\n      0xa0\n        /* \"#utility.yul\":854:863   */\n      dup7\n        /* \"#utility.yul\":845:852   */\n      dup9\n        /* \"#utility.yul\":841:864   */\n      sub\n        /* \"#utility.yul\":837:870   */\n      slt\n        /* \"#utility.yul\":834:954   */\n      iszero\n      tag_107\n      jumpi\n        /* \"#utility.yul\":873:952   */\n      tag_108\n      tag_78\n      jump\t// in\n    tag_108:\n        /* \"#utility.yul\":834:954   */\n    tag_107:\n        /* \"#utility.yul\":993:994   */\n      0x00\n        /* \"#utility.yul\":1018:1071   */\n      tag_109\n        /* \"#utility.yul\":1063:1070   */\n      dup9\n        /* \"#utility.yul\":1054:1060   */\n      dup3\n        /* \"#utility.yul\":1043:1052   */\n      dup10\n        /* \"#utility.yul\":1039:1061   */\n      add\n        /* \"#utility.yul\":1018:1071   */\n      tag_82\n      jump\t// in\n    tag_109:\n        /* \"#utility.yul\":1008:1071   */\n      swap6\n      pop\n        /* \"#utility.yul\":964:1081   */\n      pop\n        /* \"#utility.yul\":1120:1122   */\n      0x20\n        /* \"#utility.yul\":1146:1199   */\n      tag_110\n        /* \"#utility.yul\":1191:1198   */\n      dup9\n        /* \"#utility.yul\":1182:1188   */\n      dup3\n        /* \"#utility.yul\":1171:1180   */\n      dup10\n        /* \"#utility.yul\":1167:1189   */\n      add\n        /* \"#utility.yul\":1146:1199   */\n      tag_82\n      jump\t// in\n    tag_110:\n        /* \"#utility.yul\":1136:1199   */\n      swap5\n      pop\n        /* \"#utility.yul\":1091:1209   */\n      pop\n        /* \"#utility.yul\":1248:1250   */\n      0x40\n        /* \"#utility.yul\":1274:1327   */\n      tag_111\n        /* \"#utility.yul\":1319:1326   */\n      dup9\n        /* \"#utility.yul\":1310:1316   */\n      dup3\n        /* \"#utility.yul\":1299:1308   */\n      dup10\n        /* \"#utility.yul\":1295:1317   */\n      add\n        /* \"#utility.yul\":1274:1327   */\n      tag_82\n      jump\t// in\n    tag_111:\n        /* \"#utility.yul\":1264:1327   */\n      swap4\n      pop\n        /* \"#utility.yul\":1219:1337   */\n      pop\n        /* \"#utility.yul\":1376:1378   */\n      0x60\n        /* \"#utility.yul\":1402:1455   */\n      tag_112\n        /* \"#utility.yul\":1447:1454   */\n      dup9\n        /* \"#utility.yul\":1438:1444   */\n      dup3\n        /* \"#utility.yul\":1427:1436   */\n      dup10\n        /* \"#utility.yul\":1423:1445   */\n      add\n        /* \"#utility.yul\":1402:1455   */\n      tag_82\n      jump\t// in\n    tag_112:\n        /* \"#utility.yul\":1392:1455   */\n      swap3\n      pop\n        /* \"#utility.yul\":1347:1465   */\n      pop\n        /* \"#utility.yul\":1504:1507   */\n      0x80\n        /* \"#utility.yul\":1531:1584   */\n      tag_113\n        /* \"#utility.yul\":1576:1583   */\n      dup9\n        /* \"#utility.yul\":1567:1573   */\n      dup3\n        /* \"#utility.yul\":1556:1565   */\n      dup10\n        /* \"#utility.yul\":1552:1574   */\n      add\n        /* \"#utility.yul\":1531:1584   */\n      tag_82\n      jump\t// in\n    tag_113:\n        /* \"#utility.yul\":1521:1584   */\n      swap2\n      pop\n        /* \"#utility.yul\":1475:1594   */\n      pop\n        /* \"#utility.yul\":690:1601   */\n      swap3\n      swap6\n      pop\n      swap3\n      swap6\n      swap1\n      swap4\n      pop\n      jump\t// out\n        /* \"#utility.yul\":1607:1733   */\n    tag_83:\n        /* \"#utility.yul\":1644:1651   */\n      0x00\n        /* \"#utility.yul\":1684:1726   */\n      0xffffffffffffffffffffffffffffffffffffffff\n        /* \"#utility.yul\":1677:1682   */\n      dup3\n        /* \"#utility.yul\":1673:1727   */\n      and\n        /* \"#utility.yul\":1662:1727   */\n      swap1\n      pop\n        /* \"#utility.yul\":1607:1733   */\n      swap2\n      swap1\n      pop\n      jump\t// out\n        /* \"#utility.yul\":1739:1835   */\n    tag_84:\n        /* \"#utility.yul\":1776:1783   */\n      0x00\n        /* \"#utility.yul\":1805:1829   */\n      tag_116\n        /* \"#utility.yul\":1823:1828   */\n      dup3\n        /* \"#utility.yul\":1805:1829   */\n      tag_83\n      jump\t// in\n    tag_116:\n        /* \"#utility.yul\":1794:1829   */\n      swap1\n      pop\n        /* \"#utility.yul\":1739:1835   */\n      swap2\n      swap1\n      pop\n      jump\t// out\n        /* \"#utility.yul\":1841:1959   */\n    tag_85:\n        /* \"#utility.yul\":1928:1952   */\n      tag_118\n        /* \"#utility.yul\":1946:1951   */\n      dup2\n        /* \"#utility.yul\":1928:1952   */\n      tag_84\n      jump\t// in\n    tag_118:\n        /* \"#utility.yul\":1923:1926   */\n      dup3\n        /* \"#utility.yul\":1916:1953   */\n      mstore\n        /* \"#utility.yul\":1841:1959   */\n      pop\n      pop\n      jump\t// out\n        /* \"#utility.yul\":1965:2187   */\n    tag_16:\n        /* \"#utility.yul\":2058:2062   */\n      0x00\n        /* \"#utility.yul\":2096:2098   */\n      0x20\n        /* \"#utility.yul\":2085:2094   */\n      dup3\n        /* \"#utility.yul\":2081:2099   */\n      add\n        /* \"#utility.yul\":2073:2099   */\n      swap1\n      pop\n        /* \"#utility.yul\":2109:2180   */\n      tag_120\n        /* \"#utility.yul\":2177:2178   */\n      0x00\n        /* \"#utility.yul\":2166:2175   */\n      dup4\n        /* \"#utility.yul\":2162:2179   */\n      add\n        /* \"#utility.yul\":2153:2159   */\n      dup5\n        /* \"#utility.yul\":2109:2180   */\n      tag_85\n      jump\t// in\n    tag_120:\n        /* \"#utility.yul\":1965:2187   */\n      swap3\n      swap2\n      pop\n      pop\n      jump\t// out\n        /* \"#utility.yul\":2193:2253   */\n    tag_86:\n        /* \"#utility.yul\":2221:2224   */\n      0x00\n        /* \"#utility.yul\":2242:2247   */\n      dup2\n        /* \"#utility.yul\":2235:2247   */\n      swap1\n      pop\n        /* \"#utility.yul\":2193:2253   */\n      swap2\n      swap1\n      pop\n      jump\t// out\n        /* \"#utility.yul\":2259:2401   */\n    tag_87:\n        /* \"#utility.yul\":2309:2318   */\n      0x00\n        /* \"#utility.yul\":2342:2395   */\n      tag_123\n        /* \"#utility.yul\":2360:2394   */\n      tag_124\n        /* \"#utility.yul\":2369:2393   */\n      tag_125\n        /* \"#utility.yul\":2387:2392   */\n      dup5\n        /* \"#utility.yul\":2369:2393   */\n      tag_83\n      jump\t// in\n    tag_125:\n        /* \"#utility.yul\":2360:2394   */\n      tag_86\n      jump\t// in\n    tag_124:\n        /* \"#utility.yul\":2342:2395   */\n      tag_83\n      jump\t// in\n    tag_123:\n        /* \"#utility.yul\":2329:2395   */\n      swap1\n      pop\n        /* \"#utility.yul\":2259:2401   */\n      swap2\n      swap1\n      pop\n      jump\t// out\n        /* \"#utility.yul\":2407:2533   */\n    tag_88:\n        /* \"#utility.yul\":2457:2466   */\n      0x00\n        /* \"#utility.yul\":2490:2527   */\n      tag_127\n        /* \"#utility.yul\":2521:2526   */\n      dup3\n        /* \"#utility.yul\":2490:2527   */\n      tag_87\n      jump\t// in\n    tag_127:\n        /* \"#utility.yul\":2477:2527   */\n      swap1\n      pop\n        /* \"#utility.yul\":2407:2533   */\n      swap2\n      swap1\n      pop\n      jump\t// out\n        /* \"#utility.yul\":2539:2691   */\n    tag_89:\n        /* \"#utility.yul\":2615:2624   */\n      0x00\n        /* \"#utility.yul\":2648:2685   */\n      tag_129\n        /* \"#utility.yul\":2679:2684   */\n      dup3\n        /* \"#utility.yul\":2648:2685   */\n      tag_88\n      jump\t// in\n    tag_129:\n        /* \"#utility.yul\":2635:2685   */\n      swap1\n      pop\n        /* \"#utility.yul\":2539:2691   */\n      swap2\n      swap1\n      pop\n      jump\t// out\n        /* \"#utility.yul\":2697:2880   */\n    tag_90:\n        /* \"#utility.yul\":2810:2873   */\n      tag_131\n        /* \"#utility.yul\":2867:2872   */\n      dup2\n        /* \"#utility.yul\":2810:2873   */\n      tag_89\n      jump\t// in\n    tag_131:\n        /* \"#utility.yul\":2805:2808   */\n      dup3\n        /* \"#utility.yul\":2798:2874   */\n      mstore\n        /* \"#utility.yul\":2697:2880   */\n      pop\n      pop\n      jump\t// out\n        /* \"#utility.yul\":2886:3160   */\n    tag_29:\n        /* \"#utility.yul\":3005:3009   */\n      0x00\n        /* \"#utility.yul\":3043:3045   */\n      0x20\n        /* \"#utility.yul\":3032:3041   */\n      dup3\n        /* \"#utility.yul\":3028:3046   */\n      add\n        /* \"#utility.yul\":3020:3046   */\n      swap1\n      pop\n        /* \"#utility.yul\":3056:3153   */\n      tag_133\n        /* \"#utility.yul\":3150:3151   */\n      0x00\n        /* \"#utility.yul\":3139:3148   */\n      dup4\n        /* \"#utility.yul\":3135:3152   */\n      add\n        /* \"#utility.yul\":3126:3132   */\n      dup5\n        /* \"#utility.yul\":3056:3153   */\n      tag_90\n      jump\t// in\n    tag_133:\n        /* \"#utility.yul\":2886:3160   */\n      swap3\n      swap2\n      pop\n      pop\n      jump\t// out\n        /* \"#utility.yul\":3166:3284   */\n    tag_91:\n        /* \"#utility.yul\":3253:3277   */\n      tag_135\n        /* \"#utility.yul\":3271:3276   */\n      dup2\n        /* \"#utility.yul\":3253:3277   */\n      tag_80\n      jump\t// in\n    tag_135:\n        /* \"#utility.yul\":3248:3251   */\n      dup3\n        /* \"#utility.yul\":3241:3278   */\n      mstore\n        /* \"#utility.yul\":3166:3284   */\n      pop\n      pop\n      jump\t// out\n        /* \"#utility.yul\":3290:3732   */\n    tag_32:\n        /* \"#utility.yul\":3439:3443   */\n      0x00\n        /* \"#utility.yul\":3477:3479   */\n      0x60\n        /* \"#utility.yul\":3466:3475   */\n      dup3\n        /* \"#utility.yul\":3462:3480   */\n      add\n        /* \"#utility.yul\":3454:3480   */\n      swap1\n      pop\n        /* \"#utility.yul\":3490:3561   */\n      tag_137\n        /* \"#utility.yul\":3558:3559   */\n      0x00\n        /* \"#utility.yul\":3547:3556   */\n      dup4\n        /* \"#utility.yul\":3543:3560   */\n      add\n        /* \"#utility.yul\":3534:3540   */\n      dup7\n        /* \"#utility.yul\":3490:3561   */\n      tag_85\n      jump\t// in\n    tag_137:\n        /* \"#utility.yul\":3571:3643   */\n      tag_138\n        /* \"#utility.yul\":3639:3641   */\n      0x20\n        /* \"#utility.yul\":3628:3637   */\n      dup4\n        /* \"#utility.yul\":3624:3642   */\n      add\n        /* \"#utility.yul\":3615:3621   */\n      dup6\n        /* \"#utility.yul\":3571:3643   */\n      tag_85\n      jump\t// in\n    tag_138:\n        /* \"#utility.yul\":3653:3725   */\n      tag_139\n        /* \"#utility.yul\":3721:3723   */\n      0x40\n        /* \"#utility.yul\":3710:3719   */\n      dup4\n        /* \"#utility.yul\":3706:3724   */\n      add\n        /* \"#utility.yul\":3697:3703   */\n      dup5\n        /* \"#utility.yul\":3653:3725   */\n      tag_91\n      jump\t// in\n    tag_139:\n        /* \"#utility.yul\":3290:3732   */\n      swap5\n      swap4\n      pop\n      pop\n      pop\n      pop\n      jump\t// out\n        /* \"#utility.yul\":3738:3828   */\n    tag_92:\n        /* \"#utility.yul\":3772:3779   */\n      0x00\n        /* \"#utility.yul\":3815:3820   */\n      dup2\n        /* \"#utility.yul\":3808:3821   */\n      iszero\n        /* \"#utility.yul\":3801:3822   */\n      iszero\n        /* \"#utility.yul\":3790:3822   */\n      swap1\n      pop\n        /* \"#utility.yul\":3738:3828   */\n      swap2\n      swap1\n      pop\n      jump\t// out\n        /* \"#utility.yul\":3834:3950   */\n    tag_93:\n        /* \"#utility.yul\":3904:3925   */\n      tag_142\n        /* \"#utility.yul\":3919:3924   */\n      dup2\n        /* \"#utility.yul\":3904:3925   */\n      tag_92\n      jump\t// in\n    tag_142:\n        /* \"#utility.yul\":3897:3902   */\n      dup2\n        /* \"#utility.yul\":3894:3926   */\n      eq\n        /* \"#utility.yul\":3884:3944   */\n      tag_143\n      jumpi\n        /* \"#utility.yul\":3940:3941   */\n      0x00\n        /* \"#utility.yul\":3937:3938   */\n      dup1\n        /* \"#utility.yul\":3930:3942   */\n      revert\n        /* \"#utility.yul\":3884:3944   */\n    tag_143:\n        /* \"#utility.yul\":3834:3950   */\n      pop\n      jump\t// out\n        /* \"#utility.yul\":3956:4093   */\n    tag_94:\n        /* \"#utility.yul\":4010:4015   */\n      0x00\n        /* \"#utility.yul\":4041:4047   */\n      dup2\n        /* \"#utility.yul\":4035:4048   */\n      mload\n        /* \"#utility.yul\":4026:4048   */\n      swap1\n      pop\n        /* \"#utility.yul\":4057:4087   */\n      tag_145\n        /* \"#utility.yul\":4081:4086   */\n      dup2\n        /* \"#utility.yul\":4057:4087   */\n      tag_93\n      jump\t// in\n    tag_145:\n        /* \"#utility.yul\":3956:4093   */\n      swap3\n      swap2\n      pop\n      pop\n      jump\t// out\n        /* \"#utility.yul\":4099:4444   */\n    tag_36:\n        /* \"#utility.yul\":4166:4172   */\n      0x00\n        /* \"#utility.yul\":4215:4217   */\n      0x20\n        /* \"#utility.yul\":4203:4212   */\n      dup3\n        /* \"#utility.yul\":4194:4201   */\n      dup5\n        /* \"#utility.yul\":4190:4213   */\n      sub\n        /* \"#utility.yul\":4186:4218   */\n      slt\n        /* \"#utility.yul\":4183:4302   */\n      iszero\n      tag_147\n      jumpi\n        /* \"#utility.yul\":4221:4300   */\n      tag_148\n      tag_78\n      jump\t// in\n    tag_148:\n        /* \"#utility.yul\":4183:4302   */\n    tag_147:\n        /* \"#utility.yul\":4341:4342   */\n      0x00\n        /* \"#utility.yul\":4366:4427   */\n      tag_149\n        /* \"#utility.yul\":4419:4426   */\n      dup5\n        /* \"#utility.yul\":4410:4416   */\n      dup3\n        /* \"#utility.yul\":4399:4408   */\n      dup6\n        /* \"#utility.yul\":4395:4417   */\n      add\n        /* \"#utility.yul\":4366:4427   */\n      tag_94\n      jump\t// in\n    tag_149:\n        /* \"#utility.yul\":4356:4427   */\n      swap2\n      pop\n        /* \"#utility.yul\":4312:4437   */\n      pop\n        /* \"#utility.yul\":4099:4444   */\n      swap3\n      swap2\n      pop\n      pop\n      jump\t// out\n        /* \"#utility.yul\":4450:4782   */\n    tag_42:\n        /* \"#utility.yul\":4571:4575   */\n      0x00\n        /* \"#utility.yul\":4609:4611   */\n      0x40\n        /* \"#utility.yul\":4598:4607   */\n      dup3\n        /* \"#utility.yul\":4594:4612   */\n      add\n        /* \"#utility.yul\":4586:4612   */\n      swap1\n      pop\n        /* \"#utility.yul\":4622:4693   */\n      tag_151\n        /* \"#utility.yul\":4690:4691   */\n      0x00\n        /* \"#utility.yul\":4679:4688   */\n      dup4\n        /* \"#utility.yul\":4675:4692   */\n      add\n        /* \"#utility.yul\":4666:4672   */\n      dup6\n        /* \"#utility.yul\":4622:4693   */\n      tag_85\n      jump\t// in\n    tag_151:\n        /* \"#utility.yul\":4703:4775   */\n      tag_152\n        /* \"#utility.yul\":4771:4773   */\n      0x20\n        /* \"#utility.yul\":4760:4769   */\n      dup4\n        /* \"#utility.yul\":4756:4774   */\n      add\n        /* \"#utility.yul\":4747:4753   */\n      dup5\n        /* \"#utility.yul\":4703:4775   */\n      tag_91\n      jump\t// in\n    tag_152:\n        /* \"#utility.yul\":4450:4782   */\n      swap4\n      swap3\n      pop\n      pop\n      pop\n      jump\t// out\n        /* \"#utility.yul\":4788:5785   */\n    tag_51:\n        /* \"#utility.yul\":5077:5081   */\n      0x00\n        /* \"#utility.yul\":5115:5118   */\n      0x0100\n        /* \"#utility.yul\":5104:5113   */\n      dup3\n        /* \"#utility.yul\":5100:5119   */\n      add\n        /* \"#utility.yul\":5092:5119   */\n      swap1\n      pop\n        /* \"#utility.yul\":5129:5200   */\n      tag_154\n        /* \"#utility.yul\":5197:5198   */\n      0x00\n        /* \"#utility.yul\":5186:5195   */\n      dup4\n        /* \"#utility.yul\":5182:5199   */\n      add\n        /* \"#utility.yul\":5173:5179   */\n      dup12\n        /* \"#utility.yul\":5129:5200   */\n      tag_85\n      jump\t// in\n    tag_154:\n        /* \"#utility.yul\":5210:5282   */\n      tag_155\n        /* \"#utility.yul\":5278:5280   */\n      0x20\n        /* \"#utility.yul\":5267:5276   */\n      dup4\n        /* \"#utility.yul\":5263:5281   */\n      add\n        /* \"#utility.yul\":5254:5260   */\n      dup11\n        /* \"#utility.yul\":5210:5282   */\n      tag_85\n      jump\t// in\n    tag_155:\n        /* \"#utility.yul\":5292:5364   */\n      tag_156\n        /* \"#utility.yul\":5360:5362   */\n      0x40\n        /* \"#utility.yul\":5349:5358   */\n      dup4\n        /* \"#utility.yul\":5345:5363   */\n      add\n        /* \"#utility.yul\":5336:5342   */\n      dup10\n        /* \"#utility.yul\":5292:5364   */\n      tag_91\n      jump\t// in\n    tag_156:\n        /* \"#utility.yul\":5374:5446   */\n      tag_157\n        /* \"#utility.yul\":5442:5444   */\n      0x60\n        /* \"#utility.yul\":5431:5440   */\n      dup4\n        /* \"#utility.yul\":5427:5445   */\n      add\n        /* \"#utility.yul\":5418:5424   */\n      dup9\n        /* \"#utility.yul\":5374:5446   */\n      tag_91\n      jump\t// in\n    tag_157:\n        /* \"#utility.yul\":5456:5529   */\n      tag_158\n        /* \"#utility.yul\":5524:5527   */\n      0x80\n        /* \"#utility.yul\":5513:5522   */\n      dup4\n        /* \"#utility.yul\":5509:5528   */\n      add\n        /* \"#utility.yul\":5500:5506   */\n      dup8\n        /* \"#utility.yul\":5456:5529   */\n      tag_91\n      jump\t// in\n    tag_158:\n        /* \"#utility.yul\":5539:5612   */\n      tag_159\n        /* \"#utility.yul\":5607:5610   */\n      0xa0\n        /* \"#utility.yul\":5596:5605   */\n      dup4\n        /* \"#utility.yul\":5592:5611   */\n      add\n        /* \"#utility.yul\":5583:5589   */\n      dup7\n        /* \"#utility.yul\":5539:5612   */\n      tag_91\n      jump\t// in\n    tag_159:\n        /* \"#utility.yul\":5622:5695   */\n      tag_160\n        /* \"#utility.yul\":5690:5693   */\n      0xc0\n        /* \"#utility.yul\":5679:5688   */\n      dup4\n        /* \"#utility.yul\":5675:5694   */\n      add\n        /* \"#utility.yul\":5666:5672   */\n      dup6\n        /* \"#utility.yul\":5622:5695   */\n      tag_85\n      jump\t// in\n    tag_160:\n        /* \"#utility.yul\":5705:5778   */\n      tag_161\n        /* \"#utility.yul\":5773:5776   */\n      0xe0\n        /* \"#utility.yul\":5762:5771   */\n      dup4\n        /* \"#utility.yul\":5758:5777   */\n      add\n        /* \"#utility.yul\":5749:5755   */\n      dup5\n        /* \"#utility.yul\":5705:5778   */\n      tag_91\n      jump\t// in\n    tag_161:\n        /* \"#utility.yul\":4788:5785   */\n      swap10\n      swap9\n      pop\n      pop\n      pop\n      pop\n      pop\n      pop\n      pop\n      pop\n      pop\n      jump\t// out\n        /* \"#utility.yul\":5791:5934   */\n    tag_95:\n        /* \"#utility.yul\":5848:5853   */\n      0x00\n        /* \"#utility.yul\":5879:5885   */\n      dup2\n        /* \"#utility.yul\":5873:5886   */\n      mload\n        /* \"#utility.yul\":5864:5886   */\n      swap1\n      pop\n        /* \"#utility.yul\":5895:5928   */\n      tag_163\n        /* \"#utility.yul\":5922:5927   */\n      dup2\n        /* \"#utility.yul\":5895:5928   */\n      tag_81\n      jump\t// in\n    tag_163:\n        /* \"#utility.yul\":5791:5934   */\n      swap3\n      swap2\n      pop\n      pop\n      jump\t// out\n        /* \"#utility.yul\":5940:6603   */\n    tag_55:\n        /* \"#utility.yul\":6028:6034   */\n      0x00\n        /* \"#utility.yul\":6036:6042   */\n      dup1\n        /* \"#utility.yul\":6044:6050   */\n      0x00\n        /* \"#utility.yul\":6093:6095   */\n      0x60\n        /* \"#utility.yul\":6081:6090   */\n      dup5\n        /* \"#utility.yul\":6072:6079   */\n      dup7\n        /* \"#utility.yul\":6068:6091   */\n      sub\n        /* \"#utility.yul\":6064:6096   */\n      slt\n        /* \"#utility.yul\":6061:6180   */\n      iszero\n      tag_165\n      jumpi\n        /* \"#utility.yul\":6099:6178   */\n      tag_166\n      tag_78\n      jump\t// in\n    tag_166:\n        /* \"#utility.yul\":6061:6180   */\n    tag_165:\n        /* \"#utility.yul\":6219:6220   */\n      0x00\n        /* \"#utility.yul\":6244:6308   */\n      tag_167\n        /* \"#utility.yul\":6300:6307   */\n      dup7\n        /* \"#utility.yul\":6291:6297   */\n      dup3\n        /* \"#utility.yul\":6280:6289   */\n      dup8\n        /* \"#utility.yul\":6276:6298   */\n      add\n        /* \"#utility.yul\":6244:6308   */\n      tag_95\n      jump\t// in\n    tag_167:\n        /* \"#utility.yul\":6234:6308   */\n      swap4\n      pop\n        /* \"#utility.yul\":6190:6318   */\n      pop\n        /* \"#utility.yul\":6357:6359   */\n      0x20\n        /* \"#utility.yul\":6383:6447   */\n      tag_168\n        /* \"#utility.yul\":6439:6446   */\n      dup7\n        /* \"#utility.yul\":6430:6436   */\n      dup3\n        /* \"#utility.yul\":6419:6428   */\n      dup8\n        /* \"#utility.yul\":6415:6437   */\n      add\n        /* \"#utility.yul\":6383:6447   */\n      tag_95\n      jump\t// in\n    tag_168:\n        /* \"#utility.yul\":6373:6447   */\n      swap3\n      pop\n        /* \"#utility.yul\":6328:6457   */\n      pop\n        /* \"#utility.yul\":6496:6498   */\n      0x40\n        /* \"#utility.yul\":6522:6586   */\n      tag_169\n        /* \"#utility.yul\":6578:6585   */\n      dup7\n        /* \"#utility.yul\":6569:6575   */\n      dup3\n        /* \"#utility.yul\":6558:6567   */\n      dup8\n        /* \"#utility.yul\":6554:6576   */\n      add\n        /* \"#utility.yul\":6522:6586   */\n      tag_95\n      jump\t// in\n    tag_169:\n        /* \"#utility.yul\":6512:6586   */\n      swap2\n      pop\n        /* \"#utility.yul\":6467:6596   */\n      pop\n        /* \"#utility.yul\":5940:6603   */\n      swap3\n      pop\n      swap3\n      pop\n      swap3\n      jump\t// out\n\n    auxdata: 0xa2646970667358221220578a9c705f56ee920809930771f1403fd0515bf256f2dcfed2da2c9c9c5fc85864736f6c63430008190033\n}\n",
				"bytecode": {
					"linkReferences": {},
					"object": "608060405234801561001057600080fd5b50604051610ec0380380610ec0833981810160405281019061003291906101a1565b836000806101000a81548173ffffffffffffffffffffffffffffffffffffffff021916908373ffffffffffffffffffffffffffffffffffffffff16021790555082600160006101000a81548173ffffffffffffffffffffffffffffffffffffffff021916908373ffffffffffffffffffffffffffffffffffffffff16021790555081600260006101000a81548173ffffffffffffffffffffffffffffffffffffffff021916908373ffffffffffffffffffffffffffffffffffffffff16021790555080600360006101000a81548173ffffffffffffffffffffffffffffffffffffffff021916908373ffffffffffffffffffffffffffffffffffffffff16021790555050505050610208565b600080fd5b600073ffffffffffffffffffffffffffffffffffffffff82169050919050565b600061016e82610143565b9050919050565b61017e81610163565b811461018957600080fd5b50565b60008151905061019b81610175565b92915050565b600080600080608085870312156101bb576101ba61013e565b5b60006101c98782880161018c565b94505060206101da8782880161018c565b93505060406101eb8782880161018c565b92505060606101fc8782880161018c565b91505092959194509250565b610ca9806102176000396000f3fe608060405234801561001057600080fd5b50600436106100625760003560e01c8063276066cf146100675780633fc8cef314610083578063a360501c146100a1578063d4614c63146100bd578063ea987a1e146100db578063f887ea40146100f9575b600080fd5b610081600480360381019061007c9190610968565b610117565b005b61008b6104d7565b6040516100989190610a24565b60405180910390f35b6100bb60048036038101906100b69190610968565b6104fd565b005b6100c56108bd565b6040516100d29190610a24565b60405180910390f35b6100e36108e3565b6040516100f09190610a24565b60405180910390f35b610101610909565b60405161010e9190610a9e565b60405180910390f35b600160009054906101000a900473ffffffffffffffffffffffffffffffffffffffff1673ffffffffffffffffffffffffffffffffffffffff166323b872dd3330886040518463ffffffff1660e01b815260040161017693929190610ac8565b6020604051808303816000875af1158015610195573d6000803e3d6000fd5b505050506040513d601f19601f820116820180604052508101906101b99190610b37565b50600360009054906101000a900473ffffffffffffffffffffffffffffffffffffffff1673ffffffffffffffffffffffffffffffffffffffff166323b872dd3330876040518463ffffffff1660e01b815260040161021993929190610ac8565b6020604051808303816000875af1158015610238573d6000803e3d6000fd5b505050506040513d601f19601f8201168201806040525081019061025c9190610b37565b50600160009054906101000a900473ffffffffffffffffffffffffffffffffffffffff1673ffffffffffffffffffffffffffffffffffffffff1663095ea7b360008054906101000a900473ffffffffffffffffffffffffffffffffffffffff16876040518363ffffffff1660e01b81526004016102da929190610b64565b6020604051808303816000875af11580156102f9573d6000803e3d6000fd5b505050506040513d601f19601f8201168201806040525081019061031d9190610b37565b50600360009054906101000a900473ffffffffffffffffffffffffffffffffffffffff1673ffffffffffffffffffffffffffffffffffffffff1663095ea7b360008054906101000a900473ffffffffffffffffffffffffffffffffffffffff16866040518363ffffffff1660e01b815260040161039b929190610b64565b6020604051808303816000875af11580156103ba573d6000803e3d6000fd5b505050506040513d601f19601f820116820180604052508101906103de9190610b37565b5060008054906101000a900473ffffffffffffffffffffffffffffffffffffffff1673ffffffffffffffffffffffffffffffffffffffff1663e8e33700600160009054906101000a900473ffffffffffffffffffffffffffffffffffffffff16600360009054906101000a900473ffffffffffffffffffffffffffffffffffffffff168888888833896040518963ffffffff1660e01b815260040161048a989796959493929190610b8d565b6060604051808303816000875af11580156104a9573d6000803e3d6000fd5b505050506040513d601f19601f820116820180604052508101906104cd9190610c20565b5050505050505050565b600260009054906101000a900473ffffffffffffffffffffffffffffffffffffffff1681565b600160009054906101000a900473ffffffffffffffffffffffffffffffffffffffff1673ffffffffffffffffffffffffffffffffffffffff166323b872dd3330886040518463ffffffff1660e01b815260040161055c93929190610ac8565b6020604051808303816000875af115801561057b573d6000803e3d6000fd5b505050506040513d601f19601f8201168201806040525081019061059f9190610b37565b50600260009054906101000a900473ffffffffffffffffffffffffffffffffffffffff1673ffffffffffffffffffffffffffffffffffffffff166323b872dd3330876040518463ffffffff1660e01b81526004016105ff93929190610ac8565b6020604051808303816000875af115801561061e573d6000803e3d6000fd5b505050506040513d601f19601f820116820180604052508101906106429190610b37565b50600160009054906101000a900473ffffffffffffffffffffffffffffffffffffffff1673ffffffffffffffffffffffffffffffffffffffff1663095ea7b360008054906101000a900473ffffffffffffffffffffffffffffffffffffffff16876040518363ffffffff1660e01b81526004016106c0929190610b64565b6020604051808303816000875af11580156106df573d6000803e3d6000fd5b505050506040513d601f19601f820116820180604052508101906107039190610b37565b50600260009054906101000a900473ffffffffffffffffffffffffffffffffffffffff1673ffffffffffffffffffffffffffffffffffffffff1663095ea7b360008054906101000a900473ffffffffffffffffffffffffffffffffffffffff16866040518363ffffffff1660e01b8152600401610781929190610b64565b6020604051808303816000875af11580156107a0573d6000803e3d6000fd5b505050506040513d601f19601f820116820180604052508101906107c49190610b37565b5060008054906101000a900473ffffffffffffffffffffffffffffffffffffffff1673ffffffffffffffffffffffffffffffffffffffff1663e8e33700600160009054906101000a900473ffffffffffffffffffffffffffffffffffffffff16600260009054906101000a900473ffffffffffffffffffffffffffffffffffffffff168888888833896040518963ffffffff1660e01b8152600401610870989796959493929190610b8d565b6060604051808303816000875af115801561088f573d6000803e3d6000fd5b505050506040513d601f19601f820116820180604052508101906108b39190610c20565b5050505050505050565b600160009054906101000a900473ffffffffffffffffffffffffffffffffffffffff1681565b600360009054906101000a900473ffffffffffffffffffffffffffffffffffffffff1681565b60008054906101000a900473ffffffffffffffffffffffffffffffffffffffff1681565b600080fd5b6000819050919050565b61094581610932565b811461095057600080fd5b50565b6000813590506109628161093c565b92915050565b600080600080600060a086880312156109845761098361092d565b5b600061099288828901610953565b95505060206109a388828901610953565b94505060406109b488828901610953565b93505060606109c588828901610953565b92505060806109d688828901610953565b9150509295509295909350565b600073ffffffffffffffffffffffffffffffffffffffff82169050919050565b6000610a0e826109e3565b9050919050565b610a1e81610a03565b82525050565b6000602082019050610a396000830184610a15565b92915050565b6000819050919050565b6000610a64610a5f610a5a846109e3565b610a3f565b6109e3565b9050919050565b6000610a7682610a49565b9050919050565b6000610a8882610a6b565b9050919050565b610a9881610a7d565b82525050565b6000602082019050610ab36000830184610a8f565b92915050565b610ac281610932565b82525050565b6000606082019050610add6000830186610a15565b610aea6020830185610a15565b610af76040830184610ab9565b949350505050565b60008115159050919050565b610b1481610aff565b8114610b1f57600080fd5b50565b600081519050610b3181610b0b565b92915050565b600060208284031215610b4d57610b4c61092d565b5b6000610b5b84828501610b22565b91505092915050565b6000604082019050610b796000830185610a15565b610b866020830184610ab9565b9392505050565b600061010082019050610ba3600083018b610a15565b610bb0602083018a610a15565b610bbd6040830189610ab9565b610bca6060830188610ab9565b610bd76080830187610ab9565b610be460a0830186610ab9565b610bf160c0830185610a15565b610bfe60e0830184610ab9565b9998505050505050505050565b600081519050610c1a8161093c565b92915050565b600080600060608486031215610c3957610c3861092d565b5b6000610c4786828701610c0b565b9350506020610c5886828701610c0b565b9250506040610c6986828701610c0b565b915050925092509256fea2646970667358221220578a9c705f56ee920809930771f1403fd0515bf256f2dcfed2da2c9c9c5fc85864736f6c63430008190033",
					"opcodes": "PUSH1 0x80 PUSH1 0x40 MSTORE CALLVALUE DUP1 ISZERO PUSH2 0x10 JUMPI PUSH1 0x0 DUP1 REVERT JUMPDEST POP PUSH1 0x40 MLOAD PUSH2 0xEC0 CODESIZE SUB DUP1 PUSH2 0xEC0 DUP4 CODECOPY DUP2 DUP2 ADD PUSH1 0x40 MSTORE DUP2 ADD SWAP1 PUSH2 0x32 SWAP2 SWAP1 PUSH2 0x1A1 JUMP JUMPDEST DUP4 PUSH1 0x0 DUP1 PUSH2 0x100 EXP DUP2 SLOAD DUP2 PUSH20 0xFFFFFFFFFFFFFFFFFFFFFFFFFFFFFFFFFFFFFFFF MUL NOT AND SWAP1 DUP4 PUSH20 0xFFFFFFFFFFFFFFFFFFFFFFFFFFFFFFFFFFFFFFFF AND MUL OR SWAP1 SSTORE POP DUP3 PUSH1 0x1 PUSH1 0x0 PUSH2 0x100 EXP DUP2 SLOAD DUP2 PUSH20 0xFFFFFFFFFFFFFFFFFFFFFFFFFFFFFFFFFFFFFFFF MUL NOT AND SWAP1 DUP4 PUSH20 0xFFFFFFFFFFFFFFFFFFFFFFFFFFFFFFFFFFFFFFFF AND MUL OR SWAP1 SSTORE POP DUP2 PUSH1 0x2 PUSH1 0x0 PUSH2 0x100 EXP DUP2 SLOAD DUP2 PUSH20 0xFFFFFFFFFFFFFFFFFFFFFFFFFFFFFFFFFFFFFFFF MUL NOT AND SWAP1 DUP4 PUSH20 0xFFFFFFFFFFFFFFFFFFFFFFFFFFFFFFFFFFFFFFFF AND MUL OR SWAP1 SSTORE POP DUP1 PUSH1 0x3 PUSH1 0x0 PUSH2 0x100 EXP DUP2 SLOAD DUP2 PUSH20 0xFFFFFFFFFFFFFFFFFFFFFFFFFFFFFFFFFFFFFFFF MUL NOT AND SWAP1 DUP4 PUSH20 0xFFFFFFFFFFFFFFFFFFFFFFFFFFFFFFFFFFFFFFFF AND MUL OR SWAP1 SSTORE POP POP POP POP POP PUSH2 0x208 JUMP JUMPDEST PUSH1 0x0 DUP1 REVERT JUMPDEST PUSH1 0x0 PUSH20 0xFFFFFFFFFFFFFFFFFFFFFFFFFFFFFFFFFFFFFFFF DUP3 AND SWAP1 POP SWAP2 SWAP1 POP JUMP JUMPDEST PUSH1 0x0 PUSH2 0x16E DUP3 PUSH2 0x143 JUMP JUMPDEST SWAP1 POP SWAP2 SWAP1 POP JUMP JUMPDEST PUSH2 0x17E DUP2 PUSH2 0x163 JUMP JUMPDEST DUP2 EQ PUSH2 0x189 JUMPI PUSH1 0x0 DUP1 REVERT JUMPDEST POP JUMP JUMPDEST PUSH1 0x0 DUP2 MLOAD SWAP1 POP PUSH2 0x19B DUP2 PUSH2 0x175 JUMP JUMPDEST SWAP3 SWAP2 POP POP JUMP JUMPDEST PUSH1 0x0 DUP1 PUSH1 0x0 DUP1 PUSH1 0x80 DUP6 DUP8 SUB SLT ISZERO PUSH2 0x1BB JUMPI PUSH2 0x1BA PUSH2 0x13E JUMP JUMPDEST JUMPDEST PUSH1 0x0 PUSH2 0x1C9 DUP8 DUP3 DUP9 ADD PUSH2 0x18C JUMP JUMPDEST SWAP5 POP POP PUSH1 0x20 PUSH2 0x1DA DUP8 DUP3 DUP9 ADD PUSH2 0x18C JUMP JUMPDEST SWAP4 POP POP PUSH1 0x40 PUSH2 0x1EB DUP8 DUP3 DUP9 ADD PUSH2 0x18C JUMP JUMPDEST SWAP3 POP POP PUSH1 0x60 PUSH2 0x1FC DUP8 DUP3 DUP9 ADD PUSH2 0x18C JUMP JUMPDEST SWAP2 POP POP SWAP3 SWAP6 SWAP2 SWAP5 POP SWAP3 POP JUMP JUMPDEST PUSH2 0xCA9 DUP1 PUSH2 0x217 PUSH1 0x0 CODECOPY PUSH1 0x0 RETURN INVALID PUSH1 0x80 PUSH1 0x40 MSTORE CALLVALUE DUP1 ISZERO PUSH2 0x10 JUMPI PUSH1 0x0 DUP1 REVERT JUMPDEST POP PUSH1 0x4 CALLDATASIZE LT PUSH2 0x62 JUMPI PUSH1 0x0 CALLDATALOAD PUSH1 0xE0 SHR DUP1 PUSH4 0x276066CF EQ PUSH2 0x67 JUMPI DUP1 PUSH4 0x3FC8CEF3 EQ PUSH2 0x83 JUMPI DUP1 PUSH4 0xA360501C EQ PUSH2 0xA1 JUMPI DUP1 PUSH4 0xD4614C63 EQ PUSH2 0xBD JUMPI DUP1 PUSH4 0xEA987A1E EQ PUSH2 0xDB JUMPI DUP1 PUSH4 0xF887EA40 EQ PUSH2 0xF9 JUMPI JUMPDEST PUSH1 0x0 DUP1 REVERT JUMPDEST PUSH2 0x81 PUSH1 0x4 DUP1 CALLDATASIZE SUB DUP2 ADD SWAP1 PUSH2 0x7C SWAP2 SWAP1 PUSH2 0x968 JUMP JUMPDEST PUSH2 0x117 JUMP JUMPDEST STOP JUMPDEST PUSH2 0x8B PUSH2 0x4D7 JUMP JUMPDEST PUSH1 0x40 MLOAD PUSH2 0x98 SWAP2 SWAP1 PUSH2 0xA24 JUMP JUMPDEST PUSH1 0x40 MLOAD DUP1 SWAP2 SUB SWAP1 RETURN JUMPDEST PUSH2 0xBB PUSH1 0x4 DUP1 CALLDATASIZE SUB DUP2 ADD SWAP1 PUSH2 0xB6 SWAP2 SWAP1 PUSH2 0x968 JUMP JUMPDEST PUSH2 0x4FD JUMP JUMPDEST STOP JUMPDEST PUSH2 0xC5 PUSH2 0x8BD JUMP JUMPDEST PUSH1 0x40 MLOAD PUSH2 0xD2 SWAP2 SWAP1 PUSH2 0xA24 JUMP JUMPDEST PUSH1 0x40 MLOAD DUP1 SWAP2 SUB SWAP1 RETURN JUMPDEST PUSH2 0xE3 PUSH2 0x8E3 JUMP JUMPDEST PUSH1 0x40 MLOAD PUSH2 0xF0 SWAP2 SWAP1 PUSH2 0xA24 JUMP JUMPDEST PUSH1 0x40 MLOAD DUP1 SWAP2 SUB SWAP1 RETURN JUMPDEST PUSH2 0x101 PUSH2 0x909 JUMP JUMPDEST PUSH1 0x40 MLOAD PUSH2 0x10E SWAP2 SWAP1 PUSH2 0xA9E JUMP JUMPDEST PUSH1 0x40 MLOAD DUP1 SWAP2 SUB SWAP1 RETURN JUMPDEST PUSH1 0x1 PUSH1 0x0 SWAP1 SLOAD SWAP1 PUSH2 0x100 EXP SWAP1 DIV PUSH20 0xFFFFFFFFFFFFFFFFFFFFFFFFFFFFFFFFFFFFFFFF AND PUSH20 0xFFFFFFFFFFFFFFFFFFFFFFFFFFFFFFFFFFFFFFFF AND PUSH4 0x23B872DD CALLER ADDRESS DUP9 PUSH1 0x40 MLOAD DUP5 PUSH4 0xFFFFFFFF AND PUSH1 0xE0 SHL DUP2 MSTORE PUSH1 0x4 ADD PUSH2 0x176 SWAP4 SWAP3 SWAP2 SWAP1 PUSH2 0xAC8 JUMP JUMPDEST PUSH1 0x20 PUSH1 0x40 MLOAD DUP1 DUP4 SUB DUP2 PUSH1 0x0 DUP8 GAS CALL ISZERO DUP1 ISZERO PUSH2 0x195 JUMPI RETURNDATASIZE PUSH1 0x0 DUP1 RETURNDATACOPY RETURNDATASIZE PUSH1 0x0 REVERT JUMPDEST POP POP POP POP PUSH1 0x40 MLOAD RETURNDATASIZE PUSH1 0x1F NOT PUSH1 0x1F DUP3 ADD AND DUP3 ADD DUP1 PUSH1 0x40 MSTORE POP DUP2 ADD SWAP1 PUSH2 0x1B9 SWAP2 SWAP1 PUSH2 0xB37 JUMP JUMPDEST POP PUSH1 0x3 PUSH1 0x0 SWAP1 SLOAD SWAP1 PUSH2 0x100 EXP SWAP1 DIV PUSH20 0xFFFFFFFFFFFFFFFFFFFFFFFFFFFFFFFFFFFFFFFF AND PUSH20 0xFFFFFFFFFFFFFFFFFFFFFFFFFFFFFFFFFFFFFFFF AND PUSH4 0x23B872DD CALLER ADDRESS DUP8 PUSH1 0x40 MLOAD DUP5 PUSH4 0xFFFFFFFF AND PUSH1 0xE0 SHL DUP2 MSTORE PUSH1 0x4 ADD PUSH2 0x219 SWAP4 SWAP3 SWAP2 SWAP1 PUSH2 0xAC8 JUMP JUMPDEST PUSH1 0x20 PUSH1 0x40 MLOAD DUP1 DUP4 SUB DUP2 PUSH1 0x0 DUP8 GAS CALL ISZERO DUP1 ISZERO PUSH2 0x238 JUMPI RETURNDATASIZE PUSH1 0x0 DUP1 RETURNDATACOPY RETURNDATASIZE PUSH1 0x0 REVERT JUMPDEST POP POP POP POP PUSH1 0x40 MLOAD RETURNDATASIZE PUSH1 0x1F NOT PUSH1 0x1F DUP3 ADD AND DUP3 ADD DUP1 PUSH1 0x40 MSTORE POP DUP2 ADD SWAP1 PUSH2 0x25C SWAP2 SWAP1 PUSH2 0xB37 JUMP JUMPDEST POP PUSH1 0x1 PUSH1 0x0 SWAP1 SLOAD SWAP1 PUSH2 0x100 EXP SWAP1 DIV PUSH20 0xFFFFFFFFFFFFFFFFFFFFFFFFFFFFFFFFFFFFFFFF AND PUSH20 0xFFFFFFFFFFFFFFFFFFFFFFFFFFFFFFFFFFFFFFFF AND PUSH4 0x95EA7B3 PUSH1 0x0 DUP1 SLOAD SWAP1 PUSH2 0x100 EXP SWAP1 DIV PUSH20 0xFFFFFFFFFFFFFFFFFFFFFFFFFFFFFFFFFFFFFFFF AND DUP8 PUSH1 0x40 MLOAD DUP4 PUSH4 0xFFFFFFFF AND PUSH1 0xE0 SHL DUP2 MSTORE PUSH1 0x4 ADD PUSH2 0x2DA SWAP3 SWAP2 SWAP1 PUSH2 0xB64 JUMP JUMPDEST PUSH1 0x20 PUSH1 0x40 MLOAD DUP1 DUP4 SUB DUP2 PUSH1 0x0 DUP8 GAS CALL ISZERO DUP1 ISZERO PUSH2 0x2F9 JUMPI RETURNDATASIZE PUSH1 0x0 DUP1 RETURNDATACOPY RETURNDATASIZE PUSH1 0x0 REVERT JUMPDEST POP POP POP POP PUSH1 0x40 MLOAD RETURNDATASIZE PUSH1 0x1F NOT PUSH1 0x1F DUP3 ADD AND DUP3 ADD DUP1 PUSH1 0x40 MSTORE POP DUP2 ADD SWAP1 PUSH2 0x31D SWAP2 SWAP1 PUSH2 0xB37 JUMP JUMPDEST POP PUSH1 0x3 PUSH1 0x0 SWAP1 SLOAD SWAP1 PUSH2 0x100 EXP SWAP1 DIV PUSH20 0xFFFFFFFFFFFFFFFFFFFFFFFFFFFFFFFFFFFFFFFF AND PUSH20 0xFFFFFFFFFFFFFFFFFFFFFFFFFFFFFFFFFFFFFFFF AND PUSH4 0x95EA7B3 PUSH1 0x0 DUP1 SLOAD SWAP1 PUSH2 0x100 EXP SWAP1 DIV PUSH20 0xFFFFFFFFFFFFFFFFFFFFFFFFFFFFFFFFFFFFFFFF AND DUP7 PUSH1 0x40 MLOAD DUP4 PUSH4 0xFFFFFFFF AND PUSH1 0xE0 SHL DUP2 MSTORE PUSH1 0x4 ADD PUSH2 0x39B SWAP3 SWAP2 SWAP1 PUSH2 0xB64 JUMP JUMPDEST PUSH1 0x20 PUSH1 0x40 MLOAD DUP1 DUP4 SUB DUP2 PUSH1 0x0 DUP8 GAS CALL ISZERO DUP1 ISZERO PUSH2 0x3BA JUMPI RETURNDATASIZE PUSH1 0x0 DUP1 RETURNDATACOPY RETURNDATASIZE PUSH1 0x0 REVERT JUMPDEST POP POP POP POP PUSH1 0x40 MLOAD RETURNDATASIZE PUSH1 0x1F NOT PUSH1 0x1F DUP3 ADD AND DUP3 ADD DUP1 PUSH1 0x40 MSTORE POP DUP2 ADD SWAP1 PUSH2 0x3DE SWAP2 SWAP1 PUSH2 0xB37 JUMP JUMPDEST POP PUSH1 0x0 DUP1 SLOAD SWAP1 PUSH2 0x100 EXP SWAP1 DIV PUSH20 0xFFFFFFFFFFFFFFFFFFFFFFFFFFFFFFFFFFFFFFFF AND PUSH20 0xFFFFFFFFFFFFFFFFFFFFFFFFFFFFFFFFFFFFFFFF AND PUSH4 0xE8E33700 PUSH1 0x1 PUSH1 0x0 SWAP1 SLOAD SWAP1 PUSH2 0x100 EXP SWAP1 DIV PUSH20 0xFFFFFFFFFFFFFFFFFFFFFFFFFFFFFFFFFFFFFFFF AND PUSH1 0x3 PUSH1 0x0 SWAP1 SLOAD SWAP1 PUSH2 0x100 EXP SWAP1 DIV PUSH20 0xFFFFFFFFFFFFFFFFFFFFFFFFFFFFFFFFFFFFFFFF AND DUP9 DUP9 DUP9 DUP9 CALLER DUP10 PUSH1 0x40 MLOAD DUP10 PUSH4 0xFFFFFFFF AND PUSH1 0xE0 SHL DUP2 MSTORE PUSH1 0x4 ADD PUSH2 0x48A SWAP9 SWAP8 SWAP7 SWAP6 SWAP5 SWAP4 SWAP3 SWAP2 SWAP1 PUSH2 0xB8D JUMP JUMPDEST PUSH1 0x60 PUSH1 0x40 MLOAD DUP1 DUP4 SUB DUP2 PUSH1 0x0 DUP8 GAS CALL ISZERO DUP1 ISZERO PUSH2 0x4A9 JUMPI RETURNDATASIZE PUSH1 0x0 DUP1 RETURNDATACOPY RETURNDATASIZE PUSH1 0x0 REVERT JUMPDEST POP POP POP POP PUSH1 0x40 MLOAD RETURNDATASIZE PUSH1 0x1F NOT PUSH1 0x1F DUP3 ADD AND DUP3 ADD DUP1 PUSH1 0x40 MSTORE POP DUP2 ADD SWAP1 PUSH2 0x4CD SWAP2 SWAP1 PUSH2 0xC20 JUMP JUMPDEST POP POP POP POP POP POP POP POP JUMP JUMPDEST PUSH1 0x2 PUSH1 0x0 SWAP1 SLOAD SWAP1 PUSH2 0x100 EXP SWAP1 DIV PUSH20 0xFFFFFFFFFFFFFFFFFFFFFFFFFFFFFFFFFFFFFFFF AND DUP2 JUMP JUMPDEST PUSH1 0x1 PUSH1 0x0 SWAP1 SLOAD SWAP1 PUSH2 0x100 EXP SWAP1 DIV PUSH20 0xFFFFFFFFFFFFFFFFFFFFFFFFFFFFFFFFFFFFFFFF AND PUSH20 0xFFFFFFFFFFFFFFFFFFFFFFFFFFFFFFFFFFFFFFFF AND PUSH4 0x23B872DD CALLER ADDRESS DUP9 PUSH1 0x40 MLOAD DUP5 PUSH4 0xFFFFFFFF AND PUSH1 0xE0 SHL DUP2 MSTORE PUSH1 0x4 ADD PUSH2 0x55C SWAP4 SWAP3 SWAP2 SWAP1 PUSH2 0xAC8 JUMP JUMPDEST PUSH1 0x20 PUSH1 0x40 MLOAD DUP1 DUP4 SUB DUP2 PUSH1 0x0 DUP8 GAS CALL ISZERO DUP1 ISZERO PUSH2 0x57B JUMPI RETURNDATASIZE PUSH1 0x0 DUP1 RETURNDATACOPY RETURNDATASIZE PUSH1 0x0 REVERT JUMPDEST POP POP POP POP PUSH1 0x40 MLOAD RETURNDATASIZE PUSH1 0x1F NOT PUSH1 0x1F DUP3 ADD AND DUP3 ADD DUP1 PUSH1 0x40 MSTORE POP DUP2 ADD SWAP1 PUSH2 0x59F SWAP2 SWAP1 PUSH2 0xB37 JUMP JUMPDEST POP PUSH1 0x2 PUSH1 0x0 SWAP1 SLOAD SWAP1 PUSH2 0x100 EXP SWAP1 DIV PUSH20 0xFFFFFFFFFFFFFFFFFFFFFFFFFFFFFFFFFFFFFFFF AND PUSH20 0xFFFFFFFFFFFFFFFFFFFFFFFFFFFFFFFFFFFFFFFF AND PUSH4 0x23B872DD CALLER ADDRESS DUP8 PUSH1 0x40 MLOAD DUP5 PUSH4 0xFFFFFFFF AND PUSH1 0xE0 SHL DUP2 MSTORE PUSH1 0x4 ADD PUSH2 0x5FF SWAP4 SWAP3 SWAP2 SWAP1 PUSH2 0xAC8 JUMP JUMPDEST PUSH1 0x20 PUSH1 0x40 MLOAD DUP1 DUP4 SUB DUP2 PUSH1 0x0 DUP8 GAS CALL ISZERO DUP1 ISZERO PUSH2 0x61E JUMPI RETURNDATASIZE PUSH1 0x0 DUP1 RETURNDATACOPY RETURNDATASIZE PUSH1 0x0 REVERT JUMPDEST POP POP POP POP PUSH1 0x40 MLOAD RETURNDATASIZE PUSH1 0x1F NOT PUSH1 0x1F DUP3 ADD AND DUP3 ADD DUP1 PUSH1 0x40 MSTORE POP DUP2 ADD SWAP1 PUSH2 0x642 SWAP2 SWAP1 PUSH2 0xB37 JUMP JUMPDEST POP PUSH1 0x1 PUSH1 0x0 SWAP1 SLOAD SWAP1 PUSH2 0x100 EXP SWAP1 DIV PUSH20 0xFFFFFFFFFFFFFFFFFFFFFFFFFFFFFFFFFFFFFFFF AND PUSH20 0xFFFFFFFFFFFFFFFFFFFFFFFFFFFFFFFFFFFFFFFF AND PUSH4 0x95EA7B3 PUSH1 0x0 DUP1 SLOAD SWAP1 PUSH2 0x100 EXP SWAP1 DIV PUSH20 0xFFFFFFFFFFFFFFFFFFFFFFFFFFFFFFFFFFFFFFFF AND DUP8 PUSH1 0x40 MLOAD DUP4 PUSH4 0xFFFFFFFF AND PUSH1 0xE0 SHL DUP2 MSTORE PUSH1 0x4 ADD PUSH2 0x6C0 SWAP3 SWAP2 SWAP1 PUSH2 0xB64 JUMP JUMPDEST PUSH1 0x20 PUSH1 0x40 MLOAD DUP1 DUP4 SUB DUP2 PUSH1 0x0 DUP8 GAS CALL ISZERO DUP1 ISZERO PUSH2 0x6DF JUMPI RETURNDATASIZE PUSH1 0x0 DUP1 RETURNDATACOPY RETURNDATASIZE PUSH1 0x0 REVERT JUMPDEST POP POP POP POP PUSH1 0x40 MLOAD RETURNDATASIZE PUSH1 0x1F NOT PUSH1 0x1F DUP3 ADD AND DUP3 ADD DUP1 PUSH1 0x40 MSTORE POP DUP2 ADD SWAP1 PUSH2 0x703 SWAP2 SWAP1 PUSH2 0xB37 JUMP JUMPDEST POP PUSH1 0x2 PUSH1 0x0 SWAP1 SLOAD SWAP1 PUSH2 0x100 EXP SWAP1 DIV PUSH20 0xFFFFFFFFFFFFFFFFFFFFFFFFFFFFFFFFFFFFFFFF AND PUSH20 0xFFFFFFFFFFFFFFFFFFFFFFFFFFFFFFFFFFFFFFFF AND PUSH4 0x95EA7B3 PUSH1 0x0 DUP1 SLOAD SWAP1 PUSH2 0x100 EXP SWAP1 DIV PUSH20 0xFFFFFFFFFFFFFFFFFFFFFFFFFFFFFFFFFFFFFFFF AND DUP7 PUSH1 0x40 MLOAD DUP4 PUSH4 0xFFFFFFFF AND PUSH1 0xE0 SHL DUP2 MSTORE PUSH1 0x4 ADD PUSH2 0x781 SWAP3 SWAP2 SWAP1 PUSH2 0xB64 JUMP JUMPDEST PUSH1 0x20 PUSH1 0x40 MLOAD DUP1 DUP4 SUB DUP2 PUSH1 0x0 DUP8 GAS CALL ISZERO DUP1 ISZERO PUSH2 0x7A0 JUMPI RETURNDATASIZE PUSH1 0x0 DUP1 RETURNDATACOPY RETURNDATASIZE PUSH1 0x0 REVERT JUMPDEST POP POP POP POP PUSH1 0x40 MLOAD RETURNDATASIZE PUSH1 0x1F NOT PUSH1 0x1F DUP3 ADD AND DUP3 ADD DUP1 PUSH1 0x40 MSTORE POP DUP2 ADD SWAP1 PUSH2 0x7C4 SWAP2 SWAP1 PUSH2 0xB37 JUMP JUMPDEST POP PUSH1 0x0 DUP1 SLOAD SWAP1 PUSH2 0x100 EXP SWAP1 DIV PUSH20 0xFFFFFFFFFFFFFFFFFFFFFFFFFFFFFFFFFFFFFFFF AND PUSH20 0xFFFFFFFFFFFFFFFFFFFFFFFFFFFFFFFFFFFFFFFF AND PUSH4 0xE8E33700 PUSH1 0x1 PUSH1 0x0 SWAP1 SLOAD SWAP1 PUSH2 0x100 EXP SWAP1 DIV PUSH20 0xFFFFFFFFFFFFFFFFFFFFFFFFFFFFFFFFFFFFFFFF AND PUSH1 0x2 PUSH1 0x0 SWAP1 SLOAD SWAP1 PUSH2 0x100 EXP SWAP1 DIV PUSH20 0xFFFFFFFFFFFFFFFFFFFFFFFFFFFFFFFFFFFFFFFF AND DUP9 DUP9 DUP9 DUP9 CALLER DUP10 PUSH1 0x40 MLOAD DUP10 PUSH4 0xFFFFFFFF AND PUSH1 0xE0 SHL DUP2 MSTORE PUSH1 0x4 ADD PUSH2 0x870 SWAP9 SWAP8 SWAP7 SWAP6 SWAP5 SWAP4 SWAP3 SWAP2 SWAP1 PUSH2 0xB8D JUMP JUMPDEST PUSH1 0x60 PUSH1 0x40 MLOAD DUP1 DUP4 SUB DUP2 PUSH1 0x0 DUP8 GAS CALL ISZERO DUP1 ISZERO PUSH2 0x88F JUMPI RETURNDATASIZE PUSH1 0x0 DUP1 RETURNDATACOPY RETURNDATASIZE PUSH1 0x0 REVERT JUMPDEST POP POP POP POP PUSH1 0x40 MLOAD RETURNDATASIZE PUSH1 0x1F NOT PUSH1 0x1F DUP3 ADD AND DUP3 ADD DUP1 PUSH1 0x40 MSTORE POP DUP2 ADD SWAP1 PUSH2 0x8B3 SWAP2 SWAP1 PUSH2 0xC20 JUMP JUMPDEST POP POP POP POP POP POP POP POP JUMP JUMPDEST PUSH1 0x1 PUSH1 0x0 SWAP1 SLOAD SWAP1 PUSH2 0x100 EXP SWAP1 DIV PUSH20 0xFFFFFFFFFFFFFFFFFFFFFFFFFFFFFFFFFFFFFFFF AND DUP2 JUMP JUMPDEST PUSH1 0x3 PUSH1 0x0 SWAP1 SLOAD SWAP1 PUSH2 0x100 EXP SWAP1 DIV PUSH20 0xFFFFFFFFFFFFFFFFFFFFFFFFFFFFFFFFFFFFFFFF AND DUP2 JUMP JUMPDEST PUSH1 0x0 DUP1 SLOAD SWAP1 PUSH2 0x100 EXP SWAP1 DIV PUSH20 0xFFFFFFFFFFFFFFFFFFFFFFFFFFFFFFFFFFFFFFFF AND DUP2 JUMP JUMPDEST PUSH1 0x0 DUP1 REVERT JUMPDEST PUSH1 0x0 DUP2 SWAP1 POP SWAP2 SWAP1 POP JUMP JUMPDEST PUSH2 0x945 DUP2 PUSH2 0x932 JUMP JUMPDEST DUP2 EQ PUSH2 0x950 JUMPI PUSH1 0x0 DUP1 REVERT JUMPDEST POP JUMP JUMPDEST PUSH1 0x0 DUP2 CALLDATALOAD SWAP1 POP PUSH2 0x962 DUP2 PUSH2 0x93C JUMP JUMPDEST SWAP3 SWAP2 POP POP JUMP JUMPDEST PUSH1 0x0 DUP1 PUSH1 0x0 DUP1 PUSH1 0x0 PUSH1 0xA0 DUP7 DUP9 SUB SLT ISZERO PUSH2 0x984 JUMPI PUSH2 0x983 PUSH2 0x92D JUMP JUMPDEST JUMPDEST PUSH1 0x0 PUSH2 0x992 DUP9 DUP3 DUP10 ADD PUSH2 0x953 JUMP JUMPDEST SWAP6 POP POP PUSH1 0x20 PUSH2 0x9A3 DUP9 DUP3 DUP10 ADD PUSH2 0x953 JUMP JUMPDEST SWAP5 POP POP PUSH1 0x40 PUSH2 0x9B4 DUP9 DUP3 DUP10 ADD PUSH2 0x953 JUMP JUMPDEST SWAP4 POP POP PUSH1 0x60 PUSH2 0x9C5 DUP9 DUP3 DUP10 ADD PUSH2 0x953 JUMP JUMPDEST SWAP3 POP POP PUSH1 0x80 PUSH2 0x9D6 DUP9 DUP3 DUP10 ADD PUSH2 0x953 JUMP JUMPDEST SWAP2 POP POP SWAP3 SWAP6 POP SWAP3 SWAP6 SWAP1 SWAP4 POP JUMP JUMPDEST PUSH1 0x0 PUSH20 0xFFFFFFFFFFFFFFFFFFFFFFFFFFFFFFFFFFFFFFFF DUP3 AND SWAP1 POP SWAP2 SWAP1 POP JUMP JUMPDEST PUSH1 0x0 PUSH2 0xA0E DUP3 PUSH2 0x9E3 JUMP JUMPDEST SWAP1 POP SWAP2 SWAP1 POP JUMP JUMPDEST PUSH2 0xA1E DUP2 PUSH2 0xA03 JUMP JUMPDEST DUP3 MSTORE POP POP JUMP JUMPDEST PUSH1 0x0 PUSH1 0x20 DUP3 ADD SWAP1 POP PUSH2 0xA39 PUSH1 0x0 DUP4 ADD DUP5 PUSH2 0xA15 JUMP JUMPDEST SWAP3 SWAP2 POP POP JUMP JUMPDEST PUSH1 0x0 DUP2 SWAP1 POP SWAP2 SWAP1 POP JUMP JUMPDEST PUSH1 0x0 PUSH2 0xA64 PUSH2 0xA5F PUSH2 0xA5A DUP5 PUSH2 0x9E3 JUMP JUMPDEST PUSH2 0xA3F JUMP JUMPDEST PUSH2 0x9E3 JUMP JUMPDEST SWAP1 POP SWAP2 SWAP1 POP JUMP JUMPDEST PUSH1 0x0 PUSH2 0xA76 DUP3 PUSH2 0xA49 JUMP JUMPDEST SWAP1 POP SWAP2 SWAP1 POP JUMP JUMPDEST PUSH1 0x0 PUSH2 0xA88 DUP3 PUSH2 0xA6B JUMP JUMPDEST SWAP1 POP SWAP2 SWAP1 POP JUMP JUMPDEST PUSH2 0xA98 DUP2 PUSH2 0xA7D JUMP JUMPDEST DUP3 MSTORE POP POP JUMP JUMPDEST PUSH1 0x0 PUSH1 0x20 DUP3 ADD SWAP1 POP PUSH2 0xAB3 PUSH1 0x0 DUP4 ADD DUP5 PUSH2 0xA8F JUMP JUMPDEST SWAP3 SWAP2 POP POP JUMP JUMPDEST PUSH2 0xAC2 DUP2 PUSH2 0x932 JUMP JUMPDEST DUP3 MSTORE POP POP JUMP JUMPDEST PUSH1 0x0 PUSH1 0x60 DUP3 ADD SWAP1 POP PUSH2 0xADD PUSH1 0x0 DUP4 ADD DUP7 PUSH2 0xA15 JUMP JUMPDEST PUSH2 0xAEA PUSH1 0x20 DUP4 ADD DUP6 PUSH2 0xA15 JUMP JUMPDEST PUSH2 0xAF7 PUSH1 0x40 DUP4 ADD DUP5 PUSH2 0xAB9 JUMP JUMPDEST SWAP5 SWAP4 POP POP POP POP JUMP JUMPDEST PUSH1 0x0 DUP2 ISZERO ISZERO SWAP1 POP SWAP2 SWAP1 POP JUMP JUMPDEST PUSH2 0xB14 DUP2 PUSH2 0xAFF JUMP JUMPDEST DUP2 EQ PUSH2 0xB1F JUMPI PUSH1 0x0 DUP1 REVERT JUMPDEST POP JUMP JUMPDEST PUSH1 0x0 DUP2 MLOAD SWAP1 POP PUSH2 0xB31 DUP2 PUSH2 0xB0B JUMP JUMPDEST SWAP3 SWAP2 POP POP JUMP JUMPDEST PUSH1 0x0 PUSH1 0x20 DUP3 DUP5 SUB SLT ISZERO PUSH2 0xB4D JUMPI PUSH2 0xB4C PUSH2 0x92D JUMP JUMPDEST JUMPDEST PUSH1 0x0 PUSH2 0xB5B DUP5 DUP3 DUP6 ADD PUSH2 0xB22 JUMP JUMPDEST SWAP2 POP POP SWAP3 SWAP2 POP POP JUMP JUMPDEST PUSH1 0x0 PUSH1 0x40 DUP3 ADD SWAP1 POP PUSH2 0xB79 PUSH1 0x0 DUP4 ADD DUP6 PUSH2 0xA15 JUMP JUMPDEST PUSH2 0xB86 PUSH1 0x20 DUP4 ADD DUP5 PUSH2 0xAB9 JUMP JUMPDEST SWAP4 SWAP3 POP POP POP JUMP JUMPDEST PUSH1 0x0 PUSH2 0x100 DUP3 ADD SWAP1 POP PUSH2 0xBA3 PUSH1 0x0 DUP4 ADD DUP12 PUSH2 0xA15 JUMP JUMPDEST PUSH2 0xBB0 PUSH1 0x20 DUP4 ADD DUP11 PUSH2 0xA15 JUMP JUMPDEST PUSH2 0xBBD PUSH1 0x40 DUP4 ADD DUP10 PUSH2 0xAB9 JUMP JUMPDEST PUSH2 0xBCA PUSH1 0x60 DUP4 ADD DUP9 PUSH2 0xAB9 JUMP JUMPDEST PUSH2 0xBD7 PUSH1 0x80 DUP4 ADD DUP8 PUSH2 0xAB9 JUMP JUMPDEST PUSH2 0xBE4 PUSH1 0xA0 DUP4 ADD DUP7 PUSH2 0xAB9 JUMP JUMPDEST PUSH2 0xBF1 PUSH1 0xC0 DUP4 ADD DUP6 PUSH2 0xA15 JUMP JUMPDEST PUSH2 0xBFE PUSH1 0xE0 DUP4 ADD DUP5 PUSH2 0xAB9 JUMP JUMPDEST SWAP10 SWAP9 POP POP POP POP POP POP POP POP POP JUMP JUMPDEST PUSH1 0x0 DUP2 MLOAD SWAP1 POP PUSH2 0xC1A DUP2 PUSH2 0x93C JUMP JUMPDEST SWAP3 SWAP2 POP POP JUMP JUMPDEST PUSH1 0x0 DUP1 PUSH1 0x0 PUSH1 0x60 DUP5 DUP7 SUB SLT ISZERO PUSH2 0xC39 JUMPI PUSH2 0xC38 PUSH2 0x92D JUMP JUMPDEST JUMPDEST PUSH1 0x0 PUSH2 0xC47 DUP7 DUP3 DUP8 ADD PUSH2 0xC0B JUMP JUMPDEST SWAP4 POP POP PUSH1 0x20 PUSH2 0xC58 DUP7 DUP3 DUP8 ADD PUSH2 0xC0B JUMP JUMPDEST SWAP3 POP POP PUSH1 0x40 PUSH2 0xC69 DUP7 DUP3 DUP8 ADD PUSH2 0xC0B JUMP JUMPDEST SWAP2 POP POP SWAP3 POP SWAP3 POP SWAP3 JUMP INVALID LOG2 PUSH5 0x6970667358 0x22 SLT KECCAK256 JUMPI DUP11 SWAP13 PUSH17 0x5F56EE920809930771F1403FD0515BF256 CALLCODE 0xDC INVALID 0xD2 0xDA 0x2C SWAP13 SWAP13 PUSH0 0xC8 PC PUSH5 0x736F6C6343 STOP ADDMOD NOT STOP CALLER "
				},
				"gasEstimates": {
					"creation": {
						"codeDepositCost": "648200",
						"executionCost": "infinite",
						"totalCost": "infinite"
					},
					"external": {
						"addLiquidity(uint256,uint256,uint256,uint256,uint256)": "infinite",
						"addLiquidityWithDefi(uint256,uint256,uint256,uint256,uint256)": "infinite",
						"defiToken()": "1280",
						"router()": "infinite",
						"sushiToken()": "1258",
						"weth()": "1214"
					}
				},
				"methodIdentifiers": {
					"addLiquidity(uint256,uint256,uint256,uint256,uint256)": "a360501c",
					"addLiquidityWithDefi(uint256,uint256,uint256,uint256,uint256)": "276066cf",
					"defiToken()": "ea987a1e",
					"router()": "f887ea40",
					"sushiToken()": "d4614c63",
					"weth()": "3fc8cef3"
				}
			},
			"storageLayout": {
				"storage": [
					{
						"astId": 7,
						"contract": "project/AddLiquidity.sol:AddLiquidity",
						"label": "router",
						"offset": 0,
						"slot": "0",
						"type": "t_contract(IUniswapV2Router01)532"
					},
					{
						"astId": 9,
						"contract": "project/AddLiquidity.sol:AddLiquidity",
						"label": "sushiToken",
						"offset": 0,
						"slot": "1",
						"type": "t_address"
					},
					{
						"astId": 11,
						"contract": "project/AddLiquidity.sol:AddLiquidity",
						"label": "weth",
						"offset": 0,
						"slot": "2",
						"type": "t_address"
					},
					{
						"astId": 13,
						"contract": "project/AddLiquidity.sol:AddLiquidity",
						"label": "defiToken",
						"offset": 0,
						"slot": "3",
						"type": "t_address"
					}
				],
				"types": {
					"t_address": {
						"encoding": "inplace",
						"label": "address",
						"numberOfBytes": "20"
					},
					"t_contract(IUniswapV2Router01)532": {
						"encoding": "inplace",
						"label": "contract IUniswapV2Router01",
						"numberOfBytes": "20"
					}
				}
			},
			"userdoc": {
				"kind": "user",
				"methods": {},
				"version": 1
			}
		}
	}
}