{
	"project/LuluToken.sol": {
		"LuluToken": {
			"abi": [
				{
					"inputs": [],
					"stateMutability": "nonpayable",
					"type": "constructor"
				},
				{
					"anonymous": false,
					"inputs": [
						{
							"indexed": true,
							"internalType": "address",
							"name": "owner",
							"type": "address"
						},
						{
							"indexed": true,
							"internalType": "address",
							"name": "spender",
							"type": "address"
						},
						{
							"indexed": false,
							"internalType": "uint256",
							"name": "value",
							"type": "uint256"
						}
					],
					"name": "Approval",
					"type": "event"
				},
				{
					"anonymous": false,
					"inputs": [
						{
							"indexed": true,
							"internalType": "address",
							"name": "from",
							"type": "address"
						},
						{
							"indexed": true,
							"internalType": "address",
							"name": "to",
							"type": "address"
						},
						{
							"indexed": false,
							"internalType": "uint256",
							"name": "value",
							"type": "uint256"
						}
					],
					"name": "Transfer",
					"type": "event"
				},
				{
					"inputs": [],
					"name": "_totalSupply",
					"outputs": [
						{
							"internalType": "uint256",
							"name": "",
							"type": "uint256"
						}
					],
					"stateMutability": "view",
					"type": "function"
				},
				{
					"inputs": [
						{
							"internalType": "address",
							"name": "owner",
							"type": "address"
						},
						{
							"internalType": "address",
							"name": "spender",
							"type": "address"
						}
					],
					"name": "allowance",
					"outputs": [
						{
							"internalType": "uint256",
							"name": "",
							"type": "uint256"
						}
					],
					"stateMutability": "view",
					"type": "function"
				},
				{
					"inputs": [
						{
							"internalType": "address",
							"name": "spender",
							"type": "address"
						},
						{
							"internalType": "uint256",
							"name": "value",
							"type": "uint256"
						}
					],
					"name": "approve",
					"outputs": [
						{
							"internalType": "bool",
							"name": "",
							"type": "bool"
						}
					],
					"stateMutability": "nonpayable",
					"type": "function"
				},
				{
					"inputs": [
						{
							"internalType": "address",
							"name": "owner",
							"type": "address"
						}
					],
					"name": "balanceOf",
					"outputs": [
						{
							"internalType": "uint256",
							"name": "",
							"type": "uint256"
						}
					],
					"stateMutability": "view",
					"type": "function"
				},
				{
					"inputs": [],
					"name": "decimals",
					"outputs": [
						{
							"internalType": "uint8",
							"name": "",
							"type": "uint8"
						}
					],
					"stateMutability": "view",
					"type": "function"
				},
				{
					"inputs": [
						{
							"internalType": "address",
							"name": "spender",
							"type": "address"
						},
						{
							"internalType": "uint256",
							"name": "subtractedValue",
							"type": "uint256"
						}
					],
					"name": "decreaseAllowance",
					"outputs": [
						{
							"internalType": "bool",
							"name": "",
							"type": "bool"
						}
					],
					"stateMutability": "nonpayable",
					"type": "function"
				},
				{
					"inputs": [
						{
							"internalType": "address",
							"name": "spender",
							"type": "address"
						},
						{
							"internalType": "uint256",
							"name": "addedValue",
							"type": "uint256"
						}
					],
					"name": "increaseAllowance",
					"outputs": [
						{
							"internalType": "bool",
							"name": "",
							"type": "bool"
						}
					],
					"stateMutability": "nonpayable",
					"type": "function"
				},
				{
					"inputs": [],
					"name": "name",
					"outputs": [
						{
							"internalType": "string",
							"name": "",
							"type": "string"
						}
					],
					"stateMutability": "view",
					"type": "function"
				},
				{
					"inputs": [],
					"name": "symbol",
					"outputs": [
						{
							"internalType": "string",
							"name": "",
							"type": "string"
						}
					],
					"stateMutability": "view",
					"type": "function"
				},
				{
					"inputs": [],
					"name": "totalSupply",
					"outputs": [
						{
							"internalType": "uint256",
							"name": "",
							"type": "uint256"
						}
					],
					"stateMutability": "pure",
					"type": "function"
				},
				{
					"inputs": [
						{
							"internalType": "address",
							"name": "to",
							"type": "address"
						},
						{
							"internalType": "uint256",
							"name": "value",
							"type": "uint256"
						}
					],
					"name": "transfer",
					"outputs": [
						{
							"internalType": "bool",
							"name": "",
							"type": "bool"
						}
					],
					"stateMutability": "nonpayable",
					"type": "function"
				},
				{
					"inputs": [
						{
							"internalType": "address",
							"name": "from",
							"type": "address"
						},
						{
							"internalType": "address",
							"name": "to",
							"type": "address"
						},
						{
							"internalType": "uint256",
							"name": "value",
							"type": "uint256"
						}
					],
					"name": "transferFrom",
					"outputs": [
						{
							"internalType": "bool",
							"name": "",
							"type": "bool"
						}
					],
					"stateMutability": "nonpayable",
					"type": "function"
				}
			],
			"devdoc": {
				"kind": "dev",
				"methods": {},
				"version": 1
			},
			"evm": {
				"assembly": "    /* \"project/LuluToken.sol\":130:2802  contract LuluToken is IERC20 {... */\n  mstore(0x40, 0x80)\n    /* \"project/LuluToken.sol\":495:615  constructor () {... */\n  callvalue\n  dup1\n  iszero\n  tag_1\n  jumpi\n  0x00\n  dup1\n  revert\ntag_1:\n  pop\n    /* \"project/LuluToken.sol\":233:239  10**13 */\n  0x09184e72a000\n    /* \"project/LuluToken.sol\":516:525  _balances */\n  0x00\n    /* \"project/LuluToken.sol\":516:537  _balances[msg.sender] */\n  dup1\n    /* \"project/LuluToken.sol\":526:536  msg.sender */\n  caller\n    /* \"project/LuluToken.sol\":516:537  _balances[msg.sender] */\n  0xffffffffffffffffffffffffffffffffffffffff\n  and\n  0xffffffffffffffffffffffffffffffffffffffff\n  and\n  dup2\n  mstore\n  0x20\n  add\n  swap1\n  dup2\n  mstore\n  0x20\n  add\n  0x00\n  keccak256\n    /* \"project/LuluToken.sol\":516:552  _balances[msg.sender] = _totalSupply */\n  dup2\n  swap1\n  sstore\n  pop\n    /* \"project/LuluToken.sol\":584:594  msg.sender */\n  caller\n    /* \"project/LuluToken.sol\":563:610  Transfer(address(0), msg.sender , _totalSupply) */\n  0xffffffffffffffffffffffffffffffffffffffff\n  and\n    /* \"project/LuluToken.sol\":580:581  0 */\n  0x00\n    /* \"project/LuluToken.sol\":563:610  Transfer(address(0), msg.sender , _totalSupply) */\n  0xffffffffffffffffffffffffffffffffffffffff\n  and\n  0xddf252ad1be2c89b69c2b068fc378daa952ba7f163c4a11628f55a4df523b3ef\n    /* \"project/LuluToken.sol\":233:239  10**13 */\n  0x09184e72a000\n    /* \"project/LuluToken.sol\":563:610  Transfer(address(0), msg.sender , _totalSupply) */\n  mload(0x40)\n  tag_4\n  swap2\n  swap1\n  tag_5\n  jump\t// in\ntag_4:\n  mload(0x40)\n  dup1\n  swap2\n  sub\n  swap1\n  log3\n    /* \"project/LuluToken.sol\":130:2802  contract LuluToken is IERC20 {... */\n  jump(tag_6)\n    /* \"#utility.yul\":7:84   */\ntag_7:\n    /* \"#utility.yul\":44:51   */\n  0x00\n    /* \"#utility.yul\":73:78   */\n  dup2\n    /* \"#utility.yul\":62:78   */\n  swap1\n  pop\n    /* \"#utility.yul\":7:84   */\n  swap2\n  swap1\n  pop\n  jump\t// out\n    /* \"#utility.yul\":90:208   */\ntag_8:\n    /* \"#utility.yul\":177:201   */\n  tag_12\n    /* \"#utility.yul\":195:200   */\n  dup2\n    /* \"#utility.yul\":177:201   */\n  tag_7\n  jump\t// in\ntag_12:\n    /* \"#utility.yul\":172:175   */\n  dup3\n    /* \"#utility.yul\":165:202   */\n  mstore\n    /* \"#utility.yul\":90:208   */\n  pop\n  pop\n  jump\t// out\n    /* \"#utility.yul\":214:436   */\ntag_5:\n    /* \"#utility.yul\":307:311   */\n  0x00\n    /* \"#utility.yul\":345:347   */\n  0x20\n    /* \"#utility.yul\":334:343   */\n  dup3\n    /* \"#utility.yul\":330:348   */\n  add\n    /* \"#utility.yul\":322:348   */\n  swap1\n  pop\n    /* \"#utility.yul\":358:429   */\n  tag_14\n    /* \"#utility.yul\":426:427   */\n  0x00\n    /* \"#utility.yul\":415:424   */\n  dup4\n    /* \"#utility.yul\":411:428   */\n  add\n    /* \"#utility.yul\":402:408   */\n  dup5\n    /* \"#utility.yul\":358:429   */\n  tag_8\n  jump\t// in\ntag_14:\n    /* \"#utility.yul\":214:436   */\n  swap3\n  swap2\n  pop\n  pop\n  jump\t// out\n    /* \"project/LuluToken.sol\":130:2802  contract LuluToken is IERC20 {... */\ntag_6:\n  dataSize(sub_0)\n  dup1\n  dataOffset(sub_0)\n  0x00\n  codecopy\n  0x00\n  return\nstop\n\nsub_0: assembly {\n        /* \"project/LuluToken.sol\":130:2802  contract LuluToken is IERC20 {... */\n      mstore(0x40, 0x80)\n      callvalue\n      dup1\n      iszero\n      tag_1\n      jumpi\n      0x00\n      dup1\n      revert\n    tag_1:\n      pop\n      jumpi(tag_2, lt(calldatasize, 0x04))\n      shr(0xe0, calldataload(0x00))\n      dup1\n      0x3eaaf86b\n      gt\n      tag_15\n      jumpi\n      dup1\n      0x3eaaf86b\n      eq\n      tag_9\n      jumpi\n      dup1\n      0x70a08231\n      eq\n      tag_10\n      jumpi\n      dup1\n      0x95d89b41\n      eq\n      tag_11\n      jumpi\n      dup1\n      0xa457c2d7\n      eq\n      tag_12\n      jumpi\n      dup1\n      0xa9059cbb\n      eq\n      tag_13\n      jumpi\n      dup1\n      0xdd62ed3e\n      eq\n      tag_14\n      jumpi\n      jump(tag_2)\n    tag_15:\n      dup1\n      0x06fdde03\n      eq\n      tag_3\n      jumpi\n      dup1\n      0x095ea7b3\n      eq\n      tag_4\n      jumpi\n      dup1\n      0x18160ddd\n      eq\n      tag_5\n      jumpi\n      dup1\n      0x23b872dd\n      eq\n      tag_6\n      jumpi\n      dup1\n      0x313ce567\n      eq\n      tag_7\n      jumpi\n      dup1\n      0x39509351\n      eq\n      tag_8\n      jumpi\n    tag_2:\n      0x00\n      dup1\n      revert\n        /* \"project/LuluToken.sol\":243:285  string public constant name = 'Lulu Token' */\n    tag_3:\n      tag_16\n      tag_17\n      jump\t// in\n    tag_16:\n      mload(0x40)\n      tag_18\n      swap2\n      swap1\n      tag_19\n      jump\t// in\n    tag_18:\n      mload(0x40)\n      dup1\n      swap2\n      sub\n      swap1\n      return\n        /* \"project/LuluToken.sol\":1380:1608  function approve(address spender, uint256 value) public override returns (bool) {... */\n    tag_4:\n      tag_20\n      0x04\n      dup1\n      calldatasize\n      sub\n      dup2\n      add\n      swap1\n      tag_21\n      swap2\n      swap1\n      tag_22\n      jump\t// in\n    tag_21:\n      tag_23\n      jump\t// in\n    tag_20:\n      mload(0x40)\n      tag_24\n      swap2\n      swap1\n      tag_25\n      jump\t// in\n    tag_24:\n      mload(0x40)\n      dup1\n      swap2\n      sub\n      swap1\n      return\n        /* \"project/LuluToken.sol\":619:713  function totalSupply() external override pure returns (uint256) {... */\n    tag_5:\n      tag_26\n      tag_27\n      jump\t// in\n    tag_26:\n      mload(0x40)\n      tag_28\n      swap2\n      swap1\n      tag_29\n      jump\t// in\n    tag_28:\n      mload(0x40)\n      dup1\n      swap2\n      sub\n      swap1\n      return\n        /* \"project/LuluToken.sol\":1826:2166  function transferFrom( address from, address to, uint256 value) public override returns (bool){... */\n    tag_6:\n      tag_30\n      0x04\n      dup1\n      calldatasize\n      sub\n      dup2\n      add\n      swap1\n      tag_31\n      swap2\n      swap1\n      tag_32\n      jump\t// in\n    tag_31:\n      tag_33\n      jump\t// in\n    tag_30:\n      mload(0x40)\n      tag_34\n      swap2\n      swap1\n      tag_25\n      jump\t// in\n    tag_34:\n      mload(0x40)\n      dup1\n      swap2\n      sub\n      swap1\n      return\n        /* \"project/LuluToken.sol\":289:324  uint8 public constant decimals = 10 */\n    tag_7:\n      tag_35\n      tag_36\n      jump\t// in\n    tag_35:\n      mload(0x40)\n      tag_37\n      swap2\n      swap1\n      tag_38\n      jump\t// in\n    tag_37:\n      mload(0x40)\n      dup1\n      swap2\n      sub\n      swap1\n      return\n        /* \"project/LuluToken.sol\":2170:2479  function increaseAllowance( address spender, uint256 addedValue ) public returns (bool){... */\n    tag_8:\n      tag_39\n      0x04\n      dup1\n      calldatasize\n      sub\n      dup2\n      add\n      swap1\n      tag_40\n      swap2\n      swap1\n      tag_22\n      jump\t// in\n    tag_40:\n      tag_41\n      jump\t// in\n    tag_39:\n      mload(0x40)\n      tag_42\n      swap2\n      swap1\n      tag_25\n      jump\t// in\n    tag_42:\n      mload(0x40)\n      dup1\n      swap2\n      sub\n      swap1\n      return\n        /* \"project/LuluToken.sol\":194:239  uint256 public constant _totalSupply = 10**13 */\n    tag_9:\n      tag_43\n      tag_44\n      jump\t// in\n    tag_43:\n      mload(0x40)\n      tag_45\n      swap2\n      swap1\n      tag_29\n      jump\t// in\n    tag_45:\n      mload(0x40)\n      dup1\n      swap2\n      sub\n      swap1\n      return\n        /* \"project/LuluToken.sol\":717:824  function balanceOf(address owner) public override view returns (uint256) {... */\n    tag_10:\n      tag_46\n      0x04\n      dup1\n      calldatasize\n      sub\n      dup2\n      add\n      swap1\n      tag_47\n      swap2\n      swap1\n      tag_48\n      jump\t// in\n    tag_47:\n      tag_49\n      jump\t// in\n    tag_46:\n      mload(0x40)\n      tag_50\n      swap2\n      swap1\n      tag_29\n      jump\t// in\n    tag_50:\n      mload(0x40)\n      dup1\n      swap2\n      sub\n      swap1\n      return\n        /* \"project/LuluToken.sol\":328:366  string public constant symbol = 'LULU' */\n    tag_11:\n      tag_51\n      tag_52\n      jump\t// in\n    tag_51:\n      mload(0x40)\n      tag_53\n      swap2\n      swap1\n      tag_19\n      jump\t// in\n    tag_53:\n      mload(0x40)\n      dup1\n      swap2\n      sub\n      swap1\n      return\n        /* \"project/LuluToken.sol\":2483:2799  function decreaseAllowance(address spender,uint256 subtractedValue) public returns (bool){... */\n    tag_12:\n      tag_54\n      0x04\n      dup1\n      calldatasize\n      sub\n      dup2\n      add\n      swap1\n      tag_55\n      swap2\n      swap1\n      tag_22\n      jump\t// in\n    tag_55:\n      tag_56\n      jump\t// in\n    tag_54:\n      mload(0x40)\n      tag_57\n      swap2\n      swap1\n      tag_25\n      jump\t// in\n    tag_57:\n      mload(0x40)\n      dup1\n      swap2\n      sub\n      swap1\n      return\n        /* \"project/LuluToken.sol\":1051:1376  function transfer(address to, uint256 value) public override returns (bool) {... */\n    tag_13:\n      tag_58\n      0x04\n      dup1\n      calldatasize\n      sub\n      dup2\n      add\n      swap1\n      tag_59\n      swap2\n      swap1\n      tag_22\n      jump\t// in\n    tag_59:\n      tag_60\n      jump\t// in\n    tag_58:\n      mload(0x40)\n      tag_61\n      swap2\n      swap1\n      tag_25\n      jump\t// in\n    tag_61:\n      mload(0x40)\n      dup1\n      swap2\n      sub\n      swap1\n      return\n        /* \"project/LuluToken.sol\":918:1047  function allowance(address owner,address spender)public override view returns (uint256){... */\n    tag_14:\n      tag_62\n      0x04\n      dup1\n      calldatasize\n      sub\n      dup2\n      add\n      swap1\n      tag_63\n      swap2\n      swap1\n      tag_64\n      jump\t// in\n    tag_63:\n      tag_65\n      jump\t// in\n    tag_62:\n      mload(0x40)\n      tag_66\n      swap2\n      swap1\n      tag_29\n      jump\t// in\n    tag_66:\n      mload(0x40)\n      dup1\n      swap2\n      sub\n      swap1\n      return\n        /* \"project/LuluToken.sol\":243:285  string public constant name = 'Lulu Token' */\n    tag_17:\n      mload(0x40)\n      dup1\n      0x40\n      add\n      0x40\n      mstore\n      dup1\n      0x0a\n      dup2\n      mstore\n      0x20\n      add\n      0x4c756c7520546f6b656e00000000000000000000000000000000000000000000\n      dup2\n      mstore\n      pop\n      dup2\n      jump\t// out\n        /* \"project/LuluToken.sol\":1380:1608  function approve(address spender, uint256 value) public override returns (bool) {... */\n    tag_23:\n        /* \"project/LuluToken.sol\":1454:1458  bool */\n      0x00\n        /* \"project/LuluToken.sol\":1493:1494  0 */\n      dup1\n        /* \"project/LuluToken.sol\":1474:1495  spender != address(0) */\n      0xffffffffffffffffffffffffffffffffffffffff\n      and\n        /* \"project/LuluToken.sol\":1474:1481  spender */\n      dup4\n        /* \"project/LuluToken.sol\":1474:1495  spender != address(0) */\n      0xffffffffffffffffffffffffffffffffffffffff\n      and\n      sub\n        /* \"project/LuluToken.sol\":1466:1496  require(spender != address(0)) */\n      tag_68\n      jumpi\n      0x00\n      dup1\n      revert\n    tag_68:\n        /* \"project/LuluToken.sol\":1534:1539  value */\n      dup2\n        /* \"project/LuluToken.sol\":1502:1510  _allowed */\n      0x01\n        /* \"project/LuluToken.sol\":1502:1522  _allowed[msg.sender] */\n      0x00\n        /* \"project/LuluToken.sol\":1511:1521  msg.sender */\n      caller\n        /* \"project/LuluToken.sol\":1502:1522  _allowed[msg.sender] */\n      0xffffffffffffffffffffffffffffffffffffffff\n      and\n      0xffffffffffffffffffffffffffffffffffffffff\n      and\n      dup2\n      mstore\n      0x20\n      add\n      swap1\n      dup2\n      mstore\n      0x20\n      add\n      0x00\n      keccak256\n        /* \"project/LuluToken.sol\":1502:1531  _allowed[msg.sender][spender] */\n      0x00\n        /* \"project/LuluToken.sol\":1523:1530  spender */\n      dup6\n        /* \"project/LuluToken.sol\":1502:1531  _allowed[msg.sender][spender] */\n      0xffffffffffffffffffffffffffffffffffffffff\n      and\n      0xffffffffffffffffffffffffffffffffffffffff\n      and\n      dup2\n      mstore\n      0x20\n      add\n      swap1\n      dup2\n      mstore\n      0x20\n      add\n      0x00\n      keccak256\n        /* \"project/LuluToken.sol\":1502:1539  _allowed[msg.sender][spender] = value */\n      dup2\n      swap1\n      sstore\n      pop\n        /* \"project/LuluToken.sol\":1571:1578  spender */\n      dup3\n        /* \"project/LuluToken.sol\":1550:1586  Approval(msg.sender, spender, value) */\n      0xffffffffffffffffffffffffffffffffffffffff\n      and\n        /* \"project/LuluToken.sol\":1559:1569  msg.sender */\n      caller\n        /* \"project/LuluToken.sol\":1550:1586  Approval(msg.sender, spender, value) */\n      0xffffffffffffffffffffffffffffffffffffffff\n      and\n      0x8c5be1e5ebec7d5bd14f71427d1e84f3dd0314c0f7b2291e5b200ac8c7c3b925\n        /* \"project/LuluToken.sol\":1580:1585  value */\n      dup5\n        /* \"project/LuluToken.sol\":1550:1586  Approval(msg.sender, spender, value) */\n      mload(0x40)\n      tag_69\n      swap2\n      swap1\n      tag_29\n      jump\t// in\n    tag_69:\n      mload(0x40)\n      dup1\n      swap2\n      sub\n      swap1\n      log3\n        /* \"project/LuluToken.sol\":1599:1603  true */\n      0x01\n        /* \"project/LuluToken.sol\":1592:1603  return true */\n      swap1\n      pop\n        /* \"project/LuluToken.sol\":1380:1608  function approve(address spender, uint256 value) public override returns (bool) {... */\n      swap3\n      swap2\n      pop\n      pop\n      jump\t// out\n        /* \"project/LuluToken.sol\":619:713  function totalSupply() external override pure returns (uint256) {... */\n    tag_27:\n        /* \"project/LuluToken.sol\":674:681  uint256 */\n      0x00\n        /* \"project/LuluToken.sol\":233:239  10**13 */\n      0x09184e72a000\n        /* \"project/LuluToken.sol\":689:708  return _totalSupply */\n      swap1\n      pop\n        /* \"project/LuluToken.sol\":619:713  function totalSupply() external override pure returns (uint256) {... */\n      swap1\n      jump\t// out\n        /* \"project/LuluToken.sol\":1826:2166  function transferFrom( address from, address to, uint256 value) public override returns (bool){... */\n    tag_33:\n        /* \"project/LuluToken.sol\":1915:1919  bool */\n      0x00\n        /* \"project/LuluToken.sol\":1943:1952  _balances */\n      dup1\n        /* \"project/LuluToken.sol\":1943:1958  _balances[from] */\n      0x00\n        /* \"project/LuluToken.sol\":1953:1957  from */\n      dup6\n        /* \"project/LuluToken.sol\":1943:1958  _balances[from] */\n      0xffffffffffffffffffffffffffffffffffffffff\n      and\n      0xffffffffffffffffffffffffffffffffffffffff\n      and\n      dup2\n      mstore\n      0x20\n      add\n      swap1\n      dup2\n      mstore\n      0x20\n      add\n      0x00\n      keccak256\n      sload\n        /* \"project/LuluToken.sol\":1934:1939  value */\n      dup3\n        /* \"project/LuluToken.sol\":1934:1958  value <= _balances[from] */\n      gt\n      iszero\n        /* \"project/LuluToken.sol\":1926:1959  require(value <= _balances[from]) */\n      tag_72\n      jumpi\n      0x00\n      dup1\n      revert\n    tag_72:\n        /* \"project/LuluToken.sol\":1982:1990  _allowed */\n      0x01\n        /* \"project/LuluToken.sol\":1982:1996  _allowed[from] */\n      0x00\n        /* \"project/LuluToken.sol\":1991:1995  from */\n      dup6\n        /* \"project/LuluToken.sol\":1982:1996  _allowed[from] */\n      0xffffffffffffffffffffffffffffffffffffffff\n      and\n      0xffffffffffffffffffffffffffffffffffffffff\n      and\n      dup2\n      mstore\n      0x20\n      add\n      swap1\n      dup2\n      mstore\n      0x20\n      add\n      0x00\n      keccak256\n        /* \"project/LuluToken.sol\":1982:2008  _allowed[from][msg.sender] */\n      0x00\n        /* \"project/LuluToken.sol\":1997:2007  msg.sender */\n      caller\n        /* \"project/LuluToken.sol\":1982:2008  _allowed[from][msg.sender] */\n      0xffffffffffffffffffffffffffffffffffffffff\n      and\n      0xffffffffffffffffffffffffffffffffffffffff\n      and\n      dup2\n      mstore\n      0x20\n      add\n      swap1\n      dup2\n      mstore\n      0x20\n      add\n      0x00\n      keccak256\n      sload\n        /* \"project/LuluToken.sol\":1973:1978  value */\n      dup3\n        /* \"project/LuluToken.sol\":1973:2008  value <= _allowed[from][msg.sender] */\n      gt\n      iszero\n        /* \"project/LuluToken.sol\":1965:2009  require(value <= _allowed[from][msg.sender]) */\n      tag_73\n      jumpi\n      0x00\n      dup1\n      revert\n    tag_73:\n        /* \"project/LuluToken.sol\":2037:2038  0 */\n      0x00\n        /* \"project/LuluToken.sol\":2023:2039  to != address(0) */\n      0xffffffffffffffffffffffffffffffffffffffff\n      and\n        /* \"project/LuluToken.sol\":2023:2025  to */\n      dup4\n        /* \"project/LuluToken.sol\":2023:2039  to != address(0) */\n      0xffffffffffffffffffffffffffffffffffffffff\n      and\n      sub\n        /* \"project/LuluToken.sol\":2015:2040  require(to != address(0)) */\n      tag_74\n      jumpi\n      0x00\n      dup1\n      revert\n    tag_74:\n        /* \"project/LuluToken.sol\":2075:2112  _allowed[from][msg.sender].sub(value) */\n      tag_75\n        /* \"project/LuluToken.sol\":2106:2111  value */\n      dup3\n        /* \"project/LuluToken.sol\":2075:2083  _allowed */\n      0x01\n        /* \"project/LuluToken.sol\":2075:2089  _allowed[from] */\n      0x00\n        /* \"project/LuluToken.sol\":2084:2088  from */\n      dup8\n        /* \"project/LuluToken.sol\":2075:2089  _allowed[from] */\n      0xffffffffffffffffffffffffffffffffffffffff\n      and\n      0xffffffffffffffffffffffffffffffffffffffff\n      and\n      dup2\n      mstore\n      0x20\n      add\n      swap1\n      dup2\n      mstore\n      0x20\n      add\n      0x00\n      keccak256\n        /* \"project/LuluToken.sol\":2075:2101  _allowed[from][msg.sender] */\n      0x00\n        /* \"project/LuluToken.sol\":2090:2100  msg.sender */\n      caller\n        /* \"project/LuluToken.sol\":2075:2101  _allowed[from][msg.sender] */\n      0xffffffffffffffffffffffffffffffffffffffff\n      and\n      0xffffffffffffffffffffffffffffffffffffffff\n      and\n      dup2\n      mstore\n      0x20\n      add\n      swap1\n      dup2\n      mstore\n      0x20\n      add\n      0x00\n      keccak256\n      sload\n        /* \"project/LuluToken.sol\":2075:2105  _allowed[from][msg.sender].sub */\n      tag_76\n      swap1\n        /* \"project/LuluToken.sol\":2075:2112  _allowed[from][msg.sender].sub(value) */\n      swap2\n      swap1\n      0xffffffff\n      and\n      jump\t// in\n    tag_75:\n        /* \"project/LuluToken.sol\":2046:2054  _allowed */\n      0x01\n        /* \"project/LuluToken.sol\":2046:2060  _allowed[from] */\n      0x00\n        /* \"project/LuluToken.sol\":2055:2059  from */\n      dup7\n        /* \"project/LuluToken.sol\":2046:2060  _allowed[from] */\n      0xffffffffffffffffffffffffffffffffffffffff\n      and\n      0xffffffffffffffffffffffffffffffffffffffff\n      and\n      dup2\n      mstore\n      0x20\n      add\n      swap1\n      dup2\n      mstore\n      0x20\n      add\n      0x00\n      keccak256\n        /* \"project/LuluToken.sol\":2046:2072  _allowed[from][msg.sender] */\n      0x00\n        /* \"project/LuluToken.sol\":2061:2071  msg.sender */\n      caller\n        /* \"project/LuluToken.sol\":2046:2072  _allowed[from][msg.sender] */\n      0xffffffffffffffffffffffffffffffffffffffff\n      and\n      0xffffffffffffffffffffffffffffffffffffffff\n      and\n      dup2\n      mstore\n      0x20\n      add\n      swap1\n      dup2\n      mstore\n      0x20\n      add\n      0x00\n      keccak256\n        /* \"project/LuluToken.sol\":2046:2112  _allowed[from][msg.sender] = _allowed[from][msg.sender].sub(value) */\n      dup2\n      swap1\n      sstore\n      pop\n        /* \"project/LuluToken.sol\":2118:2144  _transfer(from, to, value) */\n      tag_77\n        /* \"project/LuluToken.sol\":2128:2132  from */\n      dup5\n        /* \"project/LuluToken.sol\":2134:2136  to */\n      dup5\n        /* \"project/LuluToken.sol\":2138:2143  value */\n      dup5\n        /* \"project/LuluToken.sol\":2118:2127  _transfer */\n      tag_78\n        /* \"project/LuluToken.sol\":2118:2144  _transfer(from, to, value) */\n      jump\t// in\n    tag_77:\n        /* \"project/LuluToken.sol\":2157:2161  true */\n      0x01\n        /* \"project/LuluToken.sol\":2150:2161  return true */\n      swap1\n      pop\n        /* \"project/LuluToken.sol\":1826:2166  function transferFrom( address from, address to, uint256 value) public override returns (bool){... */\n      swap4\n      swap3\n      pop\n      pop\n      pop\n      jump\t// out\n        /* \"project/LuluToken.sol\":289:324  uint8 public constant decimals = 10 */\n    tag_36:\n        /* \"project/LuluToken.sol\":322:324  10 */\n      0x0a\n        /* \"project/LuluToken.sol\":289:324  uint8 public constant decimals = 10 */\n      dup2\n      jump\t// out\n        /* \"project/LuluToken.sol\":2170:2479  function increaseAllowance( address spender, uint256 addedValue ) public returns (bool){... */\n    tag_41:\n        /* \"project/LuluToken.sol\":2252:2256  bool */\n      0x00\n        /* \"project/LuluToken.sol\":2290:2291  0 */\n      dup1\n        /* \"project/LuluToken.sol\":2271:2292  spender != address(0) */\n      0xffffffffffffffffffffffffffffffffffffffff\n      and\n        /* \"project/LuluToken.sol\":2271:2278  spender */\n      dup4\n        /* \"project/LuluToken.sol\":2271:2292  spender != address(0) */\n      0xffffffffffffffffffffffffffffffffffffffff\n      and\n      sub\n        /* \"project/LuluToken.sol\":2263:2293  require(spender != address(0)) */\n      tag_80\n      jumpi\n      0x00\n      dup1\n      revert\n    tag_80:\n        /* \"project/LuluToken.sol\":2340:2385  _allowed[msg.sender][spender].add(addedValue) */\n      tag_81\n        /* \"project/LuluToken.sol\":2374:2384  addedValue */\n      dup3\n        /* \"project/LuluToken.sol\":2340:2348  _allowed */\n      0x01\n        /* \"project/LuluToken.sol\":2340:2360  _allowed[msg.sender] */\n      0x00\n        /* \"project/LuluToken.sol\":2349:2359  msg.sender */\n      caller\n        /* \"project/LuluToken.sol\":2340:2360  _allowed[msg.sender] */\n      0xffffffffffffffffffffffffffffffffffffffff\n      and\n      0xffffffffffffffffffffffffffffffffffffffff\n      and\n      dup2\n      mstore\n      0x20\n      add\n      swap1\n      dup2\n      mstore\n      0x20\n      add\n      0x00\n      keccak256\n        /* \"project/LuluToken.sol\":2340:2369  _allowed[msg.sender][spender] */\n      0x00\n        /* \"project/LuluToken.sol\":2361:2368  spender */\n      dup7\n        /* \"project/LuluToken.sol\":2340:2369  _allowed[msg.sender][spender] */\n      0xffffffffffffffffffffffffffffffffffffffff\n      and\n      0xffffffffffffffffffffffffffffffffffffffff\n      and\n      dup2\n      mstore\n      0x20\n      add\n      swap1\n      dup2\n      mstore\n      0x20\n      add\n      0x00\n      keccak256\n      sload\n        /* \"project/LuluToken.sol\":2340:2373  _allowed[msg.sender][spender].add */\n      tag_82\n      swap1\n        /* \"project/LuluToken.sol\":2340:2385  _allowed[msg.sender][spender].add(addedValue) */\n      swap2\n      swap1\n      0xffffffff\n      and\n      jump\t// in\n    tag_81:\n        /* \"project/LuluToken.sol\":2300:2308  _allowed */\n      0x01\n        /* \"project/LuluToken.sol\":2300:2320  _allowed[msg.sender] */\n      0x00\n        /* \"project/LuluToken.sol\":2309:2319  msg.sender */\n      caller\n        /* \"project/LuluToken.sol\":2300:2320  _allowed[msg.sender] */\n      0xffffffffffffffffffffffffffffffffffffffff\n      and\n      0xffffffffffffffffffffffffffffffffffffffff\n      and\n      dup2\n      mstore\n      0x20\n      add\n      swap1\n      dup2\n      mstore\n      0x20\n      add\n      0x00\n      keccak256\n        /* \"project/LuluToken.sol\":2300:2329  _allowed[msg.sender][spender] */\n      0x00\n        /* \"project/LuluToken.sol\":2321:2328  spender */\n      dup6\n        /* \"project/LuluToken.sol\":2300:2329  _allowed[msg.sender][spender] */\n      0xffffffffffffffffffffffffffffffffffffffff\n      and\n      0xffffffffffffffffffffffffffffffffffffffff\n      and\n      dup2\n      mstore\n      0x20\n      add\n      swap1\n      dup2\n      mstore\n      0x20\n      add\n      0x00\n      keccak256\n        /* \"project/LuluToken.sol\":2300:2386  _allowed[msg.sender][spender] = (... */\n      dup2\n      swap1\n      sstore\n      pop\n        /* \"project/LuluToken.sol\":2418:2425  spender */\n      dup3\n        /* \"project/LuluToken.sol\":2397:2457  Approval(msg.sender, spender, _allowed[msg.sender][spender]) */\n      0xffffffffffffffffffffffffffffffffffffffff\n      and\n        /* \"project/LuluToken.sol\":2406:2416  msg.sender */\n      caller\n        /* \"project/LuluToken.sol\":2397:2457  Approval(msg.sender, spender, _allowed[msg.sender][spender]) */\n      0xffffffffffffffffffffffffffffffffffffffff\n      and\n      0x8c5be1e5ebec7d5bd14f71427d1e84f3dd0314c0f7b2291e5b200ac8c7c3b925\n        /* \"project/LuluToken.sol\":2427:2435  _allowed */\n      0x01\n        /* \"project/LuluToken.sol\":2427:2447  _allowed[msg.sender] */\n      0x00\n        /* \"project/LuluToken.sol\":2436:2446  msg.sender */\n      caller\n        /* \"project/LuluToken.sol\":2427:2447  _allowed[msg.sender] */\n      0xffffffffffffffffffffffffffffffffffffffff\n      and\n      0xffffffffffffffffffffffffffffffffffffffff\n      and\n      dup2\n      mstore\n      0x20\n      add\n      swap1\n      dup2\n      mstore\n      0x20\n      add\n      0x00\n      keccak256\n        /* \"project/LuluToken.sol\":2427:2456  _allowed[msg.sender][spender] */\n      0x00\n        /* \"project/LuluToken.sol\":2448:2455  spender */\n      dup8\n        /* \"project/LuluToken.sol\":2427:2456  _allowed[msg.sender][spender] */\n      0xffffffffffffffffffffffffffffffffffffffff\n      and\n      0xffffffffffffffffffffffffffffffffffffffff\n      and\n      dup2\n      mstore\n      0x20\n      add\n      swap1\n      dup2\n      mstore\n      0x20\n      add\n      0x00\n      keccak256\n      sload\n        /* \"project/LuluToken.sol\":2397:2457  Approval(msg.sender, spender, _allowed[msg.sender][spender]) */\n      mload(0x40)\n      tag_83\n      swap2\n      swap1\n      tag_29\n      jump\t// in\n    tag_83:\n      mload(0x40)\n      dup1\n      swap2\n      sub\n      swap1\n      log3\n        /* \"project/LuluToken.sol\":2470:2474  true */\n      0x01\n        /* \"project/LuluToken.sol\":2463:2474  return true */\n      swap1\n      pop\n        /* \"project/LuluToken.sol\":2170:2479  function increaseAllowance( address spender, uint256 addedValue ) public returns (bool){... */\n      swap3\n      swap2\n      pop\n      pop\n      jump\t// out\n        /* \"project/LuluToken.sol\":194:239  uint256 public constant _totalSupply = 10**13 */\n    tag_44:\n        /* \"project/LuluToken.sol\":233:239  10**13 */\n      0x09184e72a000\n        /* \"project/LuluToken.sol\":194:239  uint256 public constant _totalSupply = 10**13 */\n      dup2\n      jump\t// out\n        /* \"project/LuluToken.sol\":717:824  function balanceOf(address owner) public override view returns (uint256) {... */\n    tag_49:\n        /* \"project/LuluToken.sol\":781:788  uint256 */\n      0x00\n        /* \"project/LuluToken.sol\":803:812  _balances */\n      dup1\n        /* \"project/LuluToken.sol\":803:819  _balances[owner] */\n      0x00\n        /* \"project/LuluToken.sol\":813:818  owner */\n      dup4\n        /* \"project/LuluToken.sol\":803:819  _balances[owner] */\n      0xffffffffffffffffffffffffffffffffffffffff\n      and\n      0xffffffffffffffffffffffffffffffffffffffff\n      and\n      dup2\n      mstore\n      0x20\n      add\n      swap1\n      dup2\n      mstore\n      0x20\n      add\n      0x00\n      keccak256\n      sload\n        /* \"project/LuluToken.sol\":796:819  return _balances[owner] */\n      swap1\n      pop\n        /* \"project/LuluToken.sol\":717:824  function balanceOf(address owner) public override view returns (uint256) {... */\n      swap2\n      swap1\n      pop\n      jump\t// out\n        /* \"project/LuluToken.sol\":328:366  string public constant symbol = 'LULU' */\n    tag_52:\n      mload(0x40)\n      dup1\n      0x40\n      add\n      0x40\n      mstore\n      dup1\n      0x04\n      dup2\n      mstore\n      0x20\n      add\n      0x4c554c5500000000000000000000000000000000000000000000000000000000\n      dup2\n      mstore\n      pop\n      dup2\n      jump\t// out\n        /* \"project/LuluToken.sol\":2483:2799  function decreaseAllowance(address spender,uint256 subtractedValue) public returns (bool){... */\n    tag_56:\n        /* \"project/LuluToken.sol\":2567:2571  bool */\n      0x00\n        /* \"project/LuluToken.sol\":2605:2606  0 */\n      dup1\n        /* \"project/LuluToken.sol\":2586:2607  spender != address(0) */\n      0xffffffffffffffffffffffffffffffffffffffff\n      and\n        /* \"project/LuluToken.sol\":2586:2593  spender */\n      dup4\n        /* \"project/LuluToken.sol\":2586:2607  spender != address(0) */\n      0xffffffffffffffffffffffffffffffffffffffff\n      and\n      sub\n        /* \"project/LuluToken.sol\":2578:2608  require(spender != address(0)) */\n      tag_86\n      jumpi\n      0x00\n      dup1\n      revert\n    tag_86:\n        /* \"project/LuluToken.sol\":2655:2705  _allowed[msg.sender][spender].sub(subtractedValue) */\n      tag_87\n        /* \"project/LuluToken.sol\":2689:2704  subtractedValue */\n      dup3\n        /* \"project/LuluToken.sol\":2655:2663  _allowed */\n      0x01\n        /* \"project/LuluToken.sol\":2655:2675  _allowed[msg.sender] */\n      0x00\n        /* \"project/LuluToken.sol\":2664:2674  msg.sender */\n      caller\n        /* \"project/LuluToken.sol\":2655:2675  _allowed[msg.sender] */\n      0xffffffffffffffffffffffffffffffffffffffff\n      and\n      0xffffffffffffffffffffffffffffffffffffffff\n      and\n      dup2\n      mstore\n      0x20\n      add\n      swap1\n      dup2\n      mstore\n      0x20\n      add\n      0x00\n      keccak256\n        /* \"project/LuluToken.sol\":2655:2684  _allowed[msg.sender][spender] */\n      0x00\n        /* \"project/LuluToken.sol\":2676:2683  spender */\n      dup7\n        /* \"project/LuluToken.sol\":2655:2684  _allowed[msg.sender][spender] */\n      0xffffffffffffffffffffffffffffffffffffffff\n      and\n      0xffffffffffffffffffffffffffffffffffffffff\n      and\n      dup2\n      mstore\n      0x20\n      add\n      swap1\n      dup2\n      mstore\n      0x20\n      add\n      0x00\n      keccak256\n      sload\n        /* \"project/LuluToken.sol\":2655:2688  _allowed[msg.sender][spender].sub */\n      tag_76\n      swap1\n        /* \"project/LuluToken.sol\":2655:2705  _allowed[msg.sender][spender].sub(subtractedValue) */\n      swap2\n      swap1\n      0xffffffff\n      and\n      jump\t// in\n    tag_87:\n        /* \"project/LuluToken.sol\":2615:2623  _allowed */\n      0x01\n        /* \"project/LuluToken.sol\":2615:2635  _allowed[msg.sender] */\n      0x00\n        /* \"project/LuluToken.sol\":2624:2634  msg.sender */\n      caller\n        /* \"project/LuluToken.sol\":2615:2635  _allowed[msg.sender] */\n      0xffffffffffffffffffffffffffffffffffffffff\n      and\n      0xffffffffffffffffffffffffffffffffffffffff\n      and\n      dup2\n      mstore\n      0x20\n      add\n      swap1\n      dup2\n      mstore\n      0x20\n      add\n      0x00\n      keccak256\n        /* \"project/LuluToken.sol\":2615:2644  _allowed[msg.sender][spender] */\n      0x00\n        /* \"project/LuluToken.sol\":2636:2643  spender */\n      dup6\n        /* \"project/LuluToken.sol\":2615:2644  _allowed[msg.sender][spender] */\n      0xffffffffffffffffffffffffffffffffffffffff\n      and\n      0xffffffffffffffffffffffffffffffffffffffff\n      and\n      dup2\n      mstore\n      0x20\n      add\n      swap1\n      dup2\n      mstore\n      0x20\n      add\n      0x00\n      keccak256\n        /* \"project/LuluToken.sol\":2615:2706  _allowed[msg.sender][spender] = (... */\n      dup2\n      swap1\n      sstore\n      pop\n        /* \"project/LuluToken.sol\":2738:2745  spender */\n      dup3\n        /* \"project/LuluToken.sol\":2717:2777  Approval(msg.sender, spender, _allowed[msg.sender][spender]) */\n      0xffffffffffffffffffffffffffffffffffffffff\n      and\n        /* \"project/LuluToken.sol\":2726:2736  msg.sender */\n      caller\n        /* \"project/LuluToken.sol\":2717:2777  Approval(msg.sender, spender, _allowed[msg.sender][spender]) */\n      0xffffffffffffffffffffffffffffffffffffffff\n      and\n      0x8c5be1e5ebec7d5bd14f71427d1e84f3dd0314c0f7b2291e5b200ac8c7c3b925\n        /* \"project/LuluToken.sol\":2747:2755  _allowed */\n      0x01\n        /* \"project/LuluToken.sol\":2747:2767  _allowed[msg.sender] */\n      0x00\n        /* \"project/LuluToken.sol\":2756:2766  msg.sender */\n      caller\n        /* \"project/LuluToken.sol\":2747:2767  _allowed[msg.sender] */\n      0xffffffffffffffffffffffffffffffffffffffff\n      and\n      0xffffffffffffffffffffffffffffffffffffffff\n      and\n      dup2\n      mstore\n      0x20\n      add\n      swap1\n      dup2\n      mstore\n      0x20\n      add\n      0x00\n      keccak256\n        /* \"project/LuluToken.sol\":2747:2776  _allowed[msg.sender][spender] */\n      0x00\n        /* \"project/LuluToken.sol\":2768:2775  spender */\n      dup8\n        /* \"project/LuluToken.sol\":2747:2776  _allowed[msg.sender][spender] */\n      0xffffffffffffffffffffffffffffffffffffffff\n      and\n      0xffffffffffffffffffffffffffffffffffffffff\n      and\n      dup2\n      mstore\n      0x20\n      add\n      swap1\n      dup2\n      mstore\n      0x20\n      add\n      0x00\n      keccak256\n      sload\n        /* \"project/LuluToken.sol\":2717:2777  Approval(msg.sender, spender, _allowed[msg.sender][spender]) */\n      mload(0x40)\n      tag_88\n      swap2\n      swap1\n      tag_29\n      jump\t// in\n    tag_88:\n      mload(0x40)\n      dup1\n      swap2\n      sub\n      swap1\n      log3\n        /* \"project/LuluToken.sol\":2790:2794  true */\n      0x01\n        /* \"project/LuluToken.sol\":2783:2794  return true */\n      swap1\n      pop\n        /* \"project/LuluToken.sol\":2483:2799  function decreaseAllowance(address spender,uint256 subtractedValue) public returns (bool){... */\n      swap3\n      swap2\n      pop\n      pop\n      jump\t// out\n        /* \"project/LuluToken.sol\":1051:1376  function transfer(address to, uint256 value) public override returns (bool) {... */\n    tag_60:\n        /* \"project/LuluToken.sol\":1121:1125  bool */\n      0x00\n        /* \"project/LuluToken.sol\":1150:1159  _balances */\n      dup1\n        /* \"project/LuluToken.sol\":1150:1171  _balances[msg.sender] */\n      0x00\n        /* \"project/LuluToken.sol\":1160:1170  msg.sender */\n      caller\n        /* \"project/LuluToken.sol\":1150:1171  _balances[msg.sender] */\n      0xffffffffffffffffffffffffffffffffffffffff\n      and\n      0xffffffffffffffffffffffffffffffffffffffff\n      and\n      dup2\n      mstore\n      0x20\n      add\n      swap1\n      dup2\n      mstore\n      0x20\n      add\n      0x00\n      keccak256\n      sload\n        /* \"project/LuluToken.sol\":1141:1146  value */\n      dup3\n        /* \"project/LuluToken.sol\":1141:1171  value <= _balances[msg.sender] */\n      gt\n      iszero\n        /* \"project/LuluToken.sol\":1133:1172  require(value <= _balances[msg.sender]) */\n      tag_90\n      jumpi\n      0x00\n      dup1\n      revert\n    tag_90:\n        /* \"project/LuluToken.sol\":1200:1201  0 */\n      0x00\n        /* \"project/LuluToken.sol\":1186:1202  to != address(0) */\n      0xffffffffffffffffffffffffffffffffffffffff\n      and\n        /* \"project/LuluToken.sol\":1186:1188  to */\n      dup4\n        /* \"project/LuluToken.sol\":1186:1202  to != address(0) */\n      0xffffffffffffffffffffffffffffffffffffffff\n      and\n      sub\n        /* \"project/LuluToken.sol\":1178:1203  require(to != address(0)) */\n      tag_91\n      jumpi\n      0x00\n      dup1\n      revert\n    tag_91:\n        /* \"project/LuluToken.sol\":1234:1266  _balances[msg.sender].sub(value) */\n      tag_92\n        /* \"project/LuluToken.sol\":1260:1265  value */\n      dup3\n        /* \"project/LuluToken.sol\":1234:1243  _balances */\n      0x00\n        /* \"project/LuluToken.sol\":1234:1255  _balances[msg.sender] */\n      dup1\n        /* \"project/LuluToken.sol\":1244:1254  msg.sender */\n      caller\n        /* \"project/LuluToken.sol\":1234:1255  _balances[msg.sender] */\n      0xffffffffffffffffffffffffffffffffffffffff\n      and\n      0xffffffffffffffffffffffffffffffffffffffff\n      and\n      dup2\n      mstore\n      0x20\n      add\n      swap1\n      dup2\n      mstore\n      0x20\n      add\n      0x00\n      keccak256\n      sload\n        /* \"project/LuluToken.sol\":1234:1259  _balances[msg.sender].sub */\n      tag_76\n      swap1\n        /* \"project/LuluToken.sol\":1234:1266  _balances[msg.sender].sub(value) */\n      swap2\n      swap1\n      0xffffffff\n      and\n      jump\t// in\n    tag_92:\n        /* \"project/LuluToken.sol\":1210:1219  _balances */\n      0x00\n        /* \"project/LuluToken.sol\":1210:1231  _balances[msg.sender] */\n      dup1\n        /* \"project/LuluToken.sol\":1220:1230  msg.sender */\n      caller\n        /* \"project/LuluToken.sol\":1210:1231  _balances[msg.sender] */\n      0xffffffffffffffffffffffffffffffffffffffff\n      and\n      0xffffffffffffffffffffffffffffffffffffffff\n      and\n      dup2\n      mstore\n      0x20\n      add\n      swap1\n      dup2\n      mstore\n      0x20\n      add\n      0x00\n      keccak256\n        /* \"project/LuluToken.sol\":1210:1266  _balances[msg.sender] = _balances[msg.sender].sub(value) */\n      dup2\n      swap1\n      sstore\n      pop\n        /* \"project/LuluToken.sol\":1288:1312  _balances[to].add(value) */\n      tag_93\n        /* \"project/LuluToken.sol\":1306:1311  value */\n      dup3\n        /* \"project/LuluToken.sol\":1288:1297  _balances */\n      0x00\n        /* \"project/LuluToken.sol\":1288:1301  _balances[to] */\n      dup1\n        /* \"project/LuluToken.sol\":1298:1300  to */\n      dup7\n        /* \"project/LuluToken.sol\":1288:1301  _balances[to] */\n      0xffffffffffffffffffffffffffffffffffffffff\n      and\n      0xffffffffffffffffffffffffffffffffffffffff\n      and\n      dup2\n      mstore\n      0x20\n      add\n      swap1\n      dup2\n      mstore\n      0x20\n      add\n      0x00\n      keccak256\n      sload\n        /* \"project/LuluToken.sol\":1288:1305  _balances[to].add */\n      tag_82\n      swap1\n        /* \"project/LuluToken.sol\":1288:1312  _balances[to].add(value) */\n      swap2\n      swap1\n      0xffffffff\n      and\n      jump\t// in\n    tag_93:\n        /* \"project/LuluToken.sol\":1272:1281  _balances */\n      0x00\n        /* \"project/LuluToken.sol\":1272:1285  _balances[to] */\n      dup1\n        /* \"project/LuluToken.sol\":1282:1284  to */\n      dup6\n        /* \"project/LuluToken.sol\":1272:1285  _balances[to] */\n      0xffffffffffffffffffffffffffffffffffffffff\n      and\n      0xffffffffffffffffffffffffffffffffffffffff\n      and\n      dup2\n      mstore\n      0x20\n      add\n      swap1\n      dup2\n      mstore\n      0x20\n      add\n      0x00\n      keccak256\n        /* \"project/LuluToken.sol\":1272:1312  _balances[to] = _balances[to].add(value) */\n      dup2\n      swap1\n      sstore\n      pop\n        /* \"project/LuluToken.sol\":1344:1346  to */\n      dup3\n        /* \"project/LuluToken.sol\":1323:1354  Transfer(msg.sender, to, value) */\n      0xffffffffffffffffffffffffffffffffffffffff\n      and\n        /* \"project/LuluToken.sol\":1332:1342  msg.sender */\n      caller\n        /* \"project/LuluToken.sol\":1323:1354  Transfer(msg.sender, to, value) */\n      0xffffffffffffffffffffffffffffffffffffffff\n      and\n      0xddf252ad1be2c89b69c2b068fc378daa952ba7f163c4a11628f55a4df523b3ef\n        /* \"project/LuluToken.sol\":1348:1353  value */\n      dup5\n        /* \"project/LuluToken.sol\":1323:1354  Transfer(msg.sender, to, value) */\n      mload(0x40)\n      tag_94\n      swap2\n      swap1\n      tag_29\n      jump\t// in\n    tag_94:\n      mload(0x40)\n      dup1\n      swap2\n      sub\n      swap1\n      log3\n        /* \"project/LuluToken.sol\":1367:1371  true */\n      0x01\n        /* \"project/LuluToken.sol\":1360:1371  return true */\n      swap1\n      pop\n        /* \"project/LuluToken.sol\":1051:1376  function transfer(address to, uint256 value) public override returns (bool) {... */\n      swap3\n      swap2\n      pop\n      pop\n      jump\t// out\n        /* \"project/LuluToken.sol\":918:1047  function allowance(address owner,address spender)public override view returns (uint256){... */\n    tag_65:\n        /* \"project/LuluToken.sol\":997:1004  uint256 */\n      0x00\n        /* \"project/LuluToken.sol\":1018:1026  _allowed */\n      0x01\n        /* \"project/LuluToken.sol\":1018:1033  _allowed[owner] */\n      0x00\n        /* \"project/LuluToken.sol\":1027:1032  owner */\n      dup5\n        /* \"project/LuluToken.sol\":1018:1033  _allowed[owner] */\n      0xffffffffffffffffffffffffffffffffffffffff\n      and\n      0xffffffffffffffffffffffffffffffffffffffff\n      and\n      dup2\n      mstore\n      0x20\n      add\n      swap1\n      dup2\n      mstore\n      0x20\n      add\n      0x00\n      keccak256\n        /* \"project/LuluToken.sol\":1018:1042  _allowed[owner][spender] */\n      0x00\n        /* \"project/LuluToken.sol\":1034:1041  spender */\n      dup4\n        /* \"project/LuluToken.sol\":1018:1042  _allowed[owner][spender] */\n      0xffffffffffffffffffffffffffffffffffffffff\n      and\n      0xffffffffffffffffffffffffffffffffffffffff\n      and\n      dup2\n      mstore\n      0x20\n      add\n      swap1\n      dup2\n      mstore\n      0x20\n      add\n      0x00\n      keccak256\n      sload\n        /* \"project/LuluToken.sol\":1011:1042  return _allowed[owner][spender] */\n      swap1\n      pop\n        /* \"project/LuluToken.sol\":918:1047  function allowance(address owner,address spender)public override view returns (uint256){... */\n      swap3\n      swap2\n      pop\n      pop\n      jump\t// out\n        /* \"project/libraries/SafeMath.sol\":320:447  function sub(uint x, uint y) internal pure returns (uint z) {... */\n    tag_76:\n        /* \"project/libraries/SafeMath.sol\":372:378  uint z */\n      0x00\n        /* \"project/libraries/SafeMath.sol\":413:414  x */\n      dup3\n        /* \"project/libraries/SafeMath.sol\":407:408  y */\n      dup3\n        /* \"project/libraries/SafeMath.sol\":403:404  x */\n      dup5\n        /* \"project/libraries/SafeMath.sol\":403:408  x - y */\n      tag_97\n      swap2\n      swap1\n      tag_98\n      jump\t// in\n    tag_97:\n        /* \"project/libraries/SafeMath.sol\":399:408  z = x - y */\n      swap2\n      pop\n      dup2\n        /* \"project/libraries/SafeMath.sol\":398:414  (z = x - y) <= x */\n      gt\n      iszero\n        /* \"project/libraries/SafeMath.sol\":390:440  require((z = x - y) <= x, 'ds-math-sub-underflow') */\n      tag_99\n      jumpi\n      mload(0x40)\n      0x08c379a000000000000000000000000000000000000000000000000000000000\n      dup2\n      mstore\n      0x04\n      add\n      tag_100\n      swap1\n      tag_101\n      jump\t// in\n    tag_100:\n      mload(0x40)\n      dup1\n      swap2\n      sub\n      swap1\n      revert\n    tag_99:\n        /* \"project/libraries/SafeMath.sol\":320:447  function sub(uint x, uint y) internal pure returns (uint z) {... */\n      swap3\n      swap2\n      pop\n      pop\n      jump\t// out\n        /* \"project/LuluToken.sol\":1612:1822  function _transfer(address from, address to, uint value) private {... */\n    tag_78:\n        /* \"project/LuluToken.sol\":1703:1729  _balances[from].sub(value) */\n      tag_103\n        /* \"project/LuluToken.sol\":1723:1728  value */\n      dup2\n        /* \"project/LuluToken.sol\":1703:1712  _balances */\n      0x00\n        /* \"project/LuluToken.sol\":1703:1718  _balances[from] */\n      dup1\n        /* \"project/LuluToken.sol\":1713:1717  from */\n      dup7\n        /* \"project/LuluToken.sol\":1703:1718  _balances[from] */\n      0xffffffffffffffffffffffffffffffffffffffff\n      and\n      0xffffffffffffffffffffffffffffffffffffffff\n      and\n      dup2\n      mstore\n      0x20\n      add\n      swap1\n      dup2\n      mstore\n      0x20\n      add\n      0x00\n      keccak256\n      sload\n        /* \"project/LuluToken.sol\":1703:1722  _balances[from].sub */\n      tag_76\n      swap1\n        /* \"project/LuluToken.sol\":1703:1729  _balances[from].sub(value) */\n      swap2\n      swap1\n      0xffffffff\n      and\n      jump\t// in\n    tag_103:\n        /* \"project/LuluToken.sol\":1685:1694  _balances */\n      0x00\n        /* \"project/LuluToken.sol\":1685:1700  _balances[from] */\n      dup1\n        /* \"project/LuluToken.sol\":1695:1699  from */\n      dup6\n        /* \"project/LuluToken.sol\":1685:1700  _balances[from] */\n      0xffffffffffffffffffffffffffffffffffffffff\n      and\n      0xffffffffffffffffffffffffffffffffffffffff\n      and\n      dup2\n      mstore\n      0x20\n      add\n      swap1\n      dup2\n      mstore\n      0x20\n      add\n      0x00\n      keccak256\n        /* \"project/LuluToken.sol\":1685:1729  _balances[from] = _balances[from].sub(value) */\n      dup2\n      swap1\n      sstore\n      pop\n        /* \"project/LuluToken.sol\":1753:1777  _balances[to].add(value) */\n      tag_104\n        /* \"project/LuluToken.sol\":1771:1776  value */\n      dup2\n        /* \"project/LuluToken.sol\":1753:1762  _balances */\n      0x00\n        /* \"project/LuluToken.sol\":1753:1766  _balances[to] */\n      dup1\n        /* \"project/LuluToken.sol\":1763:1765  to */\n      dup6\n        /* \"project/LuluToken.sol\":1753:1766  _balances[to] */\n      0xffffffffffffffffffffffffffffffffffffffff\n      and\n      0xffffffffffffffffffffffffffffffffffffffff\n      and\n      dup2\n      mstore\n      0x20\n      add\n      swap1\n      dup2\n      mstore\n      0x20\n      add\n      0x00\n      keccak256\n      sload\n        /* \"project/LuluToken.sol\":1753:1770  _balances[to].add */\n      tag_82\n      swap1\n        /* \"project/LuluToken.sol\":1753:1777  _balances[to].add(value) */\n      swap2\n      swap1\n      0xffffffff\n      and\n      jump\t// in\n    tag_104:\n        /* \"project/LuluToken.sol\":1737:1746  _balances */\n      0x00\n        /* \"project/LuluToken.sol\":1737:1750  _balances[to] */\n      dup1\n        /* \"project/LuluToken.sol\":1747:1749  to */\n      dup5\n        /* \"project/LuluToken.sol\":1737:1750  _balances[to] */\n      0xffffffffffffffffffffffffffffffffffffffff\n      and\n      0xffffffffffffffffffffffffffffffffffffffff\n      and\n      dup2\n      mstore\n      0x20\n      add\n      swap1\n      dup2\n      mstore\n      0x20\n      add\n      0x00\n      keccak256\n        /* \"project/LuluToken.sol\":1737:1777  _balances[to] = _balances[to].add(value) */\n      dup2\n      swap1\n      sstore\n      pop\n        /* \"project/LuluToken.sol\":1805:1807  to */\n      dup2\n        /* \"project/LuluToken.sol\":1790:1815  Transfer(from, to, value) */\n      0xffffffffffffffffffffffffffffffffffffffff\n      and\n        /* \"project/LuluToken.sol\":1799:1803  from */\n      dup4\n        /* \"project/LuluToken.sol\":1790:1815  Transfer(from, to, value) */\n      0xffffffffffffffffffffffffffffffffffffffff\n      and\n      0xddf252ad1be2c89b69c2b068fc378daa952ba7f163c4a11628f55a4df523b3ef\n        /* \"project/LuluToken.sol\":1809:1814  value */\n      dup4\n        /* \"project/LuluToken.sol\":1790:1815  Transfer(from, to, value) */\n      mload(0x40)\n      tag_105\n      swap2\n      swap1\n      tag_29\n      jump\t// in\n    tag_105:\n      mload(0x40)\n      dup1\n      swap2\n      sub\n      swap1\n      log3\n        /* \"project/LuluToken.sol\":1612:1822  function _transfer(address from, address to, uint value) private {... */\n      pop\n      pop\n      pop\n      jump\t// out\n        /* \"project/libraries/SafeMath.sol\":192:314  function add(uint x, uint y) internal pure returns (uint z) {... */\n    tag_82:\n        /* \"project/libraries/SafeMath.sol\":244:250  uint z */\n      0x00\n        /* \"project/libraries/SafeMath.sol\":281:282  x */\n      dup3\n        /* \"project/libraries/SafeMath.sol\":275:276  y */\n      dup3\n        /* \"project/libraries/SafeMath.sol\":271:272  x */\n      dup5\n        /* \"project/libraries/SafeMath.sol\":271:276  x + y */\n      tag_107\n      swap2\n      swap1\n      tag_108\n      jump\t// in\n    tag_107:\n        /* \"project/libraries/SafeMath.sol\":267:276  z = x + y */\n      swap2\n      pop\n      dup2\n        /* \"project/libraries/SafeMath.sol\":266:282  (z = x + y) >= x */\n      lt\n      iszero\n        /* \"project/libraries/SafeMath.sol\":258:307  require((z = x + y) >= x, 'ds-math-add-overflow') */\n      tag_109\n      jumpi\n      mload(0x40)\n      0x08c379a000000000000000000000000000000000000000000000000000000000\n      dup2\n      mstore\n      0x04\n      add\n      tag_110\n      swap1\n      tag_111\n      jump\t// in\n    tag_110:\n      mload(0x40)\n      dup1\n      swap2\n      sub\n      swap1\n      revert\n    tag_109:\n        /* \"project/libraries/SafeMath.sol\":192:314  function add(uint x, uint y) internal pure returns (uint z) {... */\n      swap3\n      swap2\n      pop\n      pop\n      jump\t// out\n        /* \"#utility.yul\":7:106   */\n    tag_112:\n        /* \"#utility.yul\":59:65   */\n      0x00\n        /* \"#utility.yul\":93:98   */\n      dup2\n        /* \"#utility.yul\":87:99   */\n      mload\n        /* \"#utility.yul\":77:99   */\n      swap1\n      pop\n        /* \"#utility.yul\":7:106   */\n      swap2\n      swap1\n      pop\n      jump\t// out\n        /* \"#utility.yul\":112:281   */\n    tag_113:\n        /* \"#utility.yul\":196:207   */\n      0x00\n        /* \"#utility.yul\":230:236   */\n      dup3\n        /* \"#utility.yul\":225:228   */\n      dup3\n        /* \"#utility.yul\":218:237   */\n      mstore\n        /* \"#utility.yul\":270:274   */\n      0x20\n        /* \"#utility.yul\":265:268   */\n      dup3\n        /* \"#utility.yul\":261:275   */\n      add\n        /* \"#utility.yul\":246:275   */\n      swap1\n      pop\n        /* \"#utility.yul\":112:281   */\n      swap3\n      swap2\n      pop\n      pop\n      jump\t// out\n        /* \"#utility.yul\":287:426   */\n    tag_114:\n        /* \"#utility.yul\":376:382   */\n      dup3\n        /* \"#utility.yul\":371:374   */\n      dup2\n        /* \"#utility.yul\":366:369   */\n      dup4\n        /* \"#utility.yul\":360:383   */\n      mcopy\n        /* \"#utility.yul\":417:418   */\n      0x00\n        /* \"#utility.yul\":408:414   */\n      dup4\n        /* \"#utility.yul\":403:406   */\n      dup4\n        /* \"#utility.yul\":399:415   */\n      add\n        /* \"#utility.yul\":392:419   */\n      mstore\n        /* \"#utility.yul\":287:426   */\n      pop\n      pop\n      pop\n      jump\t// out\n        /* \"#utility.yul\":432:534   */\n    tag_115:\n        /* \"#utility.yul\":473:479   */\n      0x00\n        /* \"#utility.yul\":524:526   */\n      0x1f\n        /* \"#utility.yul\":520:527   */\n      not\n        /* \"#utility.yul\":515:517   */\n      0x1f\n        /* \"#utility.yul\":508:513   */\n      dup4\n        /* \"#utility.yul\":504:518   */\n      add\n        /* \"#utility.yul\":500:528   */\n      and\n        /* \"#utility.yul\":490:528   */\n      swap1\n      pop\n        /* \"#utility.yul\":432:534   */\n      swap2\n      swap1\n      pop\n      jump\t// out\n        /* \"#utility.yul\":540:917   */\n    tag_116:\n        /* \"#utility.yul\":628:631   */\n      0x00\n        /* \"#utility.yul\":656:695   */\n      tag_143\n        /* \"#utility.yul\":689:694   */\n      dup3\n        /* \"#utility.yul\":656:695   */\n      tag_112\n      jump\t// in\n    tag_143:\n        /* \"#utility.yul\":711:782   */\n      tag_144\n        /* \"#utility.yul\":775:781   */\n      dup2\n        /* \"#utility.yul\":770:773   */\n      dup6\n        /* \"#utility.yul\":711:782   */\n      tag_113\n      jump\t// in\n    tag_144:\n        /* \"#utility.yul\":704:782   */\n      swap4\n      pop\n        /* \"#utility.yul\":791:856   */\n      tag_145\n        /* \"#utility.yul\":849:855   */\n      dup2\n        /* \"#utility.yul\":844:847   */\n      dup6\n        /* \"#utility.yul\":837:841   */\n      0x20\n        /* \"#utility.yul\":830:835   */\n      dup7\n        /* \"#utility.yul\":826:842   */\n      add\n        /* \"#utility.yul\":791:856   */\n      tag_114\n      jump\t// in\n    tag_145:\n        /* \"#utility.yul\":881:910   */\n      tag_146\n        /* \"#utility.yul\":903:909   */\n      dup2\n        /* \"#utility.yul\":881:910   */\n      tag_115\n      jump\t// in\n    tag_146:\n        /* \"#utility.yul\":876:879   */\n      dup5\n        /* \"#utility.yul\":872:911   */\n      add\n        /* \"#utility.yul\":865:911   */\n      swap2\n      pop\n        /* \"#utility.yul\":632:917   */\n      pop\n        /* \"#utility.yul\":540:917   */\n      swap3\n      swap2\n      pop\n      pop\n      jump\t// out\n        /* \"#utility.yul\":923:1236   */\n    tag_19:\n        /* \"#utility.yul\":1036:1040   */\n      0x00\n        /* \"#utility.yul\":1074:1076   */\n      0x20\n        /* \"#utility.yul\":1063:1072   */\n      dup3\n        /* \"#utility.yul\":1059:1077   */\n      add\n        /* \"#utility.yul\":1051:1077   */\n      swap1\n      pop\n        /* \"#utility.yul\":1123:1132   */\n      dup2\n        /* \"#utility.yul\":1117:1121   */\n      dup2\n        /* \"#utility.yul\":1113:1133   */\n      sub\n        /* \"#utility.yul\":1109:1110   */\n      0x00\n        /* \"#utility.yul\":1098:1107   */\n      dup4\n        /* \"#utility.yul\":1094:1111   */\n      add\n        /* \"#utility.yul\":1087:1134   */\n      mstore\n        /* \"#utility.yul\":1151:1229   */\n      tag_148\n        /* \"#utility.yul\":1224:1228   */\n      dup2\n        /* \"#utility.yul\":1215:1221   */\n      dup5\n        /* \"#utility.yul\":1151:1229   */\n      tag_116\n      jump\t// in\n    tag_148:\n        /* \"#utility.yul\":1143:1229   */\n      swap1\n      pop\n        /* \"#utility.yul\":923:1236   */\n      swap3\n      swap2\n      pop\n      pop\n      jump\t// out\n        /* \"#utility.yul\":1323:1440   */\n    tag_118:\n        /* \"#utility.yul\":1432:1433   */\n      0x00\n        /* \"#utility.yul\":1429:1430   */\n      dup1\n        /* \"#utility.yul\":1422:1434   */\n      revert\n        /* \"#utility.yul\":1569:1695   */\n    tag_120:\n        /* \"#utility.yul\":1606:1613   */\n      0x00\n        /* \"#utility.yul\":1646:1688   */\n      0xffffffffffffffffffffffffffffffffffffffff\n        /* \"#utility.yul\":1639:1644   */\n      dup3\n        /* \"#utility.yul\":1635:1689   */\n      and\n        /* \"#utility.yul\":1624:1689   */\n      swap1\n      pop\n        /* \"#utility.yul\":1569:1695   */\n      swap2\n      swap1\n      pop\n      jump\t// out\n        /* \"#utility.yul\":1701:1797   */\n    tag_121:\n        /* \"#utility.yul\":1738:1745   */\n      0x00\n        /* \"#utility.yul\":1767:1791   */\n      tag_154\n        /* \"#utility.yul\":1785:1790   */\n      dup3\n        /* \"#utility.yul\":1767:1791   */\n      tag_120\n      jump\t// in\n    tag_154:\n        /* \"#utility.yul\":1756:1791   */\n      swap1\n      pop\n        /* \"#utility.yul\":1701:1797   */\n      swap2\n      swap1\n      pop\n      jump\t// out\n        /* \"#utility.yul\":1803:1925   */\n    tag_122:\n        /* \"#utility.yul\":1876:1900   */\n      tag_156\n        /* \"#utility.yul\":1894:1899   */\n      dup2\n        /* \"#utility.yul\":1876:1900   */\n      tag_121\n      jump\t// in\n    tag_156:\n        /* \"#utility.yul\":1869:1874   */\n      dup2\n        /* \"#utility.yul\":1866:1901   */\n      eq\n        /* \"#utility.yul\":1856:1919   */\n      tag_157\n      jumpi\n        /* \"#utility.yul\":1915:1916   */\n      0x00\n        /* \"#utility.yul\":1912:1913   */\n      dup1\n        /* \"#utility.yul\":1905:1917   */\n      revert\n        /* \"#utility.yul\":1856:1919   */\n    tag_157:\n        /* \"#utility.yul\":1803:1925   */\n      pop\n      jump\t// out\n        /* \"#utility.yul\":1931:2070   */\n    tag_123:\n        /* \"#utility.yul\":1977:1982   */\n      0x00\n        /* \"#utility.yul\":2015:2021   */\n      dup2\n        /* \"#utility.yul\":2002:2022   */\n      calldataload\n        /* \"#utility.yul\":1993:2022   */\n      swap1\n      pop\n        /* \"#utility.yul\":2031:2064   */\n      tag_159\n        /* \"#utility.yul\":2058:2063   */\n      dup2\n        /* \"#utility.yul\":2031:2064   */\n      tag_122\n      jump\t// in\n    tag_159:\n        /* \"#utility.yul\":1931:2070   */\n      swap3\n      swap2\n      pop\n      pop\n      jump\t// out\n        /* \"#utility.yul\":2076:2153   */\n    tag_124:\n        /* \"#utility.yul\":2113:2120   */\n      0x00\n        /* \"#utility.yul\":2142:2147   */\n      dup2\n        /* \"#utility.yul\":2131:2147   */\n      swap1\n      pop\n        /* \"#utility.yul\":2076:2153   */\n      swap2\n      swap1\n      pop\n      jump\t// out\n        /* \"#utility.yul\":2159:2281   */\n    tag_125:\n        /* \"#utility.yul\":2232:2256   */\n      tag_162\n        /* \"#utility.yul\":2250:2255   */\n      dup2\n        /* \"#utility.yul\":2232:2256   */\n      tag_124\n      jump\t// in\n    tag_162:\n        /* \"#utility.yul\":2225:2230   */\n      dup2\n        /* \"#utility.yul\":2222:2257   */\n      eq\n        /* \"#utility.yul\":2212:2275   */\n      tag_163\n      jumpi\n        /* \"#utility.yul\":2271:2272   */\n      0x00\n        /* \"#utility.yul\":2268:2269   */\n      dup1\n        /* \"#utility.yul\":2261:2273   */\n      revert\n        /* \"#utility.yul\":2212:2275   */\n    tag_163:\n        /* \"#utility.yul\":2159:2281   */\n      pop\n      jump\t// out\n        /* \"#utility.yul\":2287:2426   */\n    tag_126:\n        /* \"#utility.yul\":2333:2338   */\n      0x00\n        /* \"#utility.yul\":2371:2377   */\n      dup2\n        /* \"#utility.yul\":2358:2378   */\n      calldataload\n        /* \"#utility.yul\":2349:2378   */\n      swap1\n      pop\n        /* \"#utility.yul\":2387:2420   */\n      tag_165\n        /* \"#utility.yul\":2414:2419   */\n      dup2\n        /* \"#utility.yul\":2387:2420   */\n      tag_125\n      jump\t// in\n    tag_165:\n        /* \"#utility.yul\":2287:2426   */\n      swap3\n      swap2\n      pop\n      pop\n      jump\t// out\n        /* \"#utility.yul\":2432:2906   */\n    tag_22:\n        /* \"#utility.yul\":2500:2506   */\n      0x00\n        /* \"#utility.yul\":2508:2514   */\n      dup1\n        /* \"#utility.yul\":2557:2559   */\n      0x40\n        /* \"#utility.yul\":2545:2554   */\n      dup4\n        /* \"#utility.yul\":2536:2543   */\n      dup6\n        /* \"#utility.yul\":2532:2555   */\n      sub\n        /* \"#utility.yul\":2528:2560   */\n      slt\n        /* \"#utility.yul\":2525:2644   */\n      iszero\n      tag_167\n      jumpi\n        /* \"#utility.yul\":2563:2642   */\n      tag_168\n      tag_118\n      jump\t// in\n    tag_168:\n        /* \"#utility.yul\":2525:2644   */\n    tag_167:\n        /* \"#utility.yul\":2683:2684   */\n      0x00\n        /* \"#utility.yul\":2708:2761   */\n      tag_169\n        /* \"#utility.yul\":2753:2760   */\n      dup6\n        /* \"#utility.yul\":2744:2750   */\n      dup3\n        /* \"#utility.yul\":2733:2742   */\n      dup7\n        /* \"#utility.yul\":2729:2751   */\n      add\n        /* \"#utility.yul\":2708:2761   */\n      tag_123\n      jump\t// in\n    tag_169:\n        /* \"#utility.yul\":2698:2761   */\n      swap3\n      pop\n        /* \"#utility.yul\":2654:2771   */\n      pop\n        /* \"#utility.yul\":2810:2812   */\n      0x20\n        /* \"#utility.yul\":2836:2889   */\n      tag_170\n        /* \"#utility.yul\":2881:2888   */\n      dup6\n        /* \"#utility.yul\":2872:2878   */\n      dup3\n        /* \"#utility.yul\":2861:2870   */\n      dup7\n        /* \"#utility.yul\":2857:2879   */\n      add\n        /* \"#utility.yul\":2836:2889   */\n      tag_126\n      jump\t// in\n    tag_170:\n        /* \"#utility.yul\":2826:2889   */\n      swap2\n      pop\n        /* \"#utility.yul\":2781:2899   */\n      pop\n        /* \"#utility.yul\":2432:2906   */\n      swap3\n      pop\n      swap3\n      swap1\n      pop\n      jump\t// out\n        /* \"#utility.yul\":2912:3002   */\n    tag_127:\n        /* \"#utility.yul\":2946:2953   */\n      0x00\n        /* \"#utility.yul\":2989:2994   */\n      dup2\n        /* \"#utility.yul\":2982:2995   */\n      iszero\n        /* \"#utility.yul\":2975:2996   */\n      iszero\n        /* \"#utility.yul\":2964:2996   */\n      swap1\n      pop\n        /* \"#utility.yul\":2912:3002   */\n      swap2\n      swap1\n      pop\n      jump\t// out\n        /* \"#utility.yul\":3008:3117   */\n    tag_128:\n        /* \"#utility.yul\":3089:3110   */\n      tag_173\n        /* \"#utility.yul\":3104:3109   */\n      dup2\n        /* \"#utility.yul\":3089:3110   */\n      tag_127\n      jump\t// in\n    tag_173:\n        /* \"#utility.yul\":3084:3087   */\n      dup3\n        /* \"#utility.yul\":3077:3111   */\n      mstore\n        /* \"#utility.yul\":3008:3117   */\n      pop\n      pop\n      jump\t// out\n        /* \"#utility.yul\":3123:3333   */\n    tag_25:\n        /* \"#utility.yul\":3210:3214   */\n      0x00\n        /* \"#utility.yul\":3248:3250   */\n      0x20\n        /* \"#utility.yul\":3237:3246   */\n      dup3\n        /* \"#utility.yul\":3233:3251   */\n      add\n        /* \"#utility.yul\":3225:3251   */\n      swap1\n      pop\n        /* \"#utility.yul\":3261:3326   */\n      tag_175\n        /* \"#utility.yul\":3323:3324   */\n      0x00\n        /* \"#utility.yul\":3312:3321   */\n      dup4\n        /* \"#utility.yul\":3308:3325   */\n      add\n        /* \"#utility.yul\":3299:3305   */\n      dup5\n        /* \"#utility.yul\":3261:3326   */\n      tag_128\n      jump\t// in\n    tag_175:\n        /* \"#utility.yul\":3123:3333   */\n      swap3\n      swap2\n      pop\n      pop\n      jump\t// out\n        /* \"#utility.yul\":3339:3457   */\n    tag_129:\n        /* \"#utility.yul\":3426:3450   */\n      tag_177\n        /* \"#utility.yul\":3444:3449   */\n      dup2\n        /* \"#utility.yul\":3426:3450   */\n      tag_124\n      jump\t// in\n    tag_177:\n        /* \"#utility.yul\":3421:3424   */\n      dup3\n        /* \"#utility.yul\":3414:3451   */\n      mstore\n        /* \"#utility.yul\":3339:3457   */\n      pop\n      pop\n      jump\t// out\n        /* \"#utility.yul\":3463:3685   */\n    tag_29:\n        /* \"#utility.yul\":3556:3560   */\n      0x00\n        /* \"#utility.yul\":3594:3596   */\n      0x20\n        /* \"#utility.yul\":3583:3592   */\n      dup3\n        /* \"#utility.yul\":3579:3597   */\n      add\n        /* \"#utility.yul\":3571:3597   */\n      swap1\n      pop\n        /* \"#utility.yul\":3607:3678   */\n      tag_179\n        /* \"#utility.yul\":3675:3676   */\n      0x00\n        /* \"#utility.yul\":3664:3673   */\n      dup4\n        /* \"#utility.yul\":3660:3677   */\n      add\n        /* \"#utility.yul\":3651:3657   */\n      dup5\n        /* \"#utility.yul\":3607:3678   */\n      tag_129\n      jump\t// in\n    tag_179:\n        /* \"#utility.yul\":3463:3685   */\n      swap3\n      swap2\n      pop\n      pop\n      jump\t// out\n        /* \"#utility.yul\":3691:4310   */\n    tag_32:\n        /* \"#utility.yul\":3768:3774   */\n      0x00\n        /* \"#utility.yul\":3776:3782   */\n      dup1\n        /* \"#utility.yul\":3784:3790   */\n      0x00\n        /* \"#utility.yul\":3833:3835   */\n      0x60\n        /* \"#utility.yul\":3821:3830   */\n      dup5\n        /* \"#utility.yul\":3812:3819   */\n      dup7\n        /* \"#utility.yul\":3808:3831   */\n      sub\n        /* \"#utility.yul\":3804:3836   */\n      slt\n        /* \"#utility.yul\":3801:3920   */\n      iszero\n      tag_181\n      jumpi\n        /* \"#utility.yul\":3839:3918   */\n      tag_182\n      tag_118\n      jump\t// in\n    tag_182:\n        /* \"#utility.yul\":3801:3920   */\n    tag_181:\n        /* \"#utility.yul\":3959:3960   */\n      0x00\n        /* \"#utility.yul\":3984:4037   */\n      tag_183\n        /* \"#utility.yul\":4029:4036   */\n      dup7\n        /* \"#utility.yul\":4020:4026   */\n      dup3\n        /* \"#utility.yul\":4009:4018   */\n      dup8\n        /* \"#utility.yul\":4005:4027   */\n      add\n        /* \"#utility.yul\":3984:4037   */\n      tag_123\n      jump\t// in\n    tag_183:\n        /* \"#utility.yul\":3974:4037   */\n      swap4\n      pop\n        /* \"#utility.yul\":3930:4047   */\n      pop\n        /* \"#utility.yul\":4086:4088   */\n      0x20\n        /* \"#utility.yul\":4112:4165   */\n      tag_184\n        /* \"#utility.yul\":4157:4164   */\n      dup7\n        /* \"#utility.yul\":4148:4154   */\n      dup3\n        /* \"#utility.yul\":4137:4146   */\n      dup8\n        /* \"#utility.yul\":4133:4155   */\n      add\n        /* \"#utility.yul\":4112:4165   */\n      tag_123\n      jump\t// in\n    tag_184:\n        /* \"#utility.yul\":4102:4165   */\n      swap3\n      pop\n        /* \"#utility.yul\":4057:4175   */\n      pop\n        /* \"#utility.yul\":4214:4216   */\n      0x40\n        /* \"#utility.yul\":4240:4293   */\n      tag_185\n        /* \"#utility.yul\":4285:4292   */\n      dup7\n        /* \"#utility.yul\":4276:4282   */\n      dup3\n        /* \"#utility.yul\":4265:4274   */\n      dup8\n        /* \"#utility.yul\":4261:4283   */\n      add\n        /* \"#utility.yul\":4240:4293   */\n      tag_126\n      jump\t// in\n    tag_185:\n        /* \"#utility.yul\":4230:4293   */\n      swap2\n      pop\n        /* \"#utility.yul\":4185:4303   */\n      pop\n        /* \"#utility.yul\":3691:4310   */\n      swap3\n      pop\n      swap3\n      pop\n      swap3\n      jump\t// out\n        /* \"#utility.yul\":4316:4402   */\n    tag_130:\n        /* \"#utility.yul\":4351:4358   */\n      0x00\n        /* \"#utility.yul\":4391:4395   */\n      0xff\n        /* \"#utility.yul\":4384:4389   */\n      dup3\n        /* \"#utility.yul\":4380:4396   */\n      and\n        /* \"#utility.yul\":4369:4396   */\n      swap1\n      pop\n        /* \"#utility.yul\":4316:4402   */\n      swap2\n      swap1\n      pop\n      jump\t// out\n        /* \"#utility.yul\":4408:4520   */\n    tag_131:\n        /* \"#utility.yul\":4491:4513   */\n      tag_188\n        /* \"#utility.yul\":4507:4512   */\n      dup2\n        /* \"#utility.yul\":4491:4513   */\n      tag_130\n      jump\t// in\n    tag_188:\n        /* \"#utility.yul\":4486:4489   */\n      dup3\n        /* \"#utility.yul\":4479:4514   */\n      mstore\n        /* \"#utility.yul\":4408:4520   */\n      pop\n      pop\n      jump\t// out\n        /* \"#utility.yul\":4526:4740   */\n    tag_38:\n        /* \"#utility.yul\":4615:4619   */\n      0x00\n        /* \"#utility.yul\":4653:4655   */\n      0x20\n        /* \"#utility.yul\":4642:4651   */\n      dup3\n        /* \"#utility.yul\":4638:4656   */\n      add\n        /* \"#utility.yul\":4630:4656   */\n      swap1\n      pop\n        /* \"#utility.yul\":4666:4733   */\n      tag_190\n        /* \"#utility.yul\":4730:4731   */\n      0x00\n        /* \"#utility.yul\":4719:4728   */\n      dup4\n        /* \"#utility.yul\":4715:4732   */\n      add\n        /* \"#utility.yul\":4706:4712   */\n      dup5\n        /* \"#utility.yul\":4666:4733   */\n      tag_131\n      jump\t// in\n    tag_190:\n        /* \"#utility.yul\":4526:4740   */\n      swap3\n      swap2\n      pop\n      pop\n      jump\t// out\n        /* \"#utility.yul\":4746:5075   */\n    tag_48:\n        /* \"#utility.yul\":4805:4811   */\n      0x00\n        /* \"#utility.yul\":4854:4856   */\n      0x20\n        /* \"#utility.yul\":4842:4851   */\n      dup3\n        /* \"#utility.yul\":4833:4840   */\n      dup5\n        /* \"#utility.yul\":4829:4852   */\n      sub\n        /* \"#utility.yul\":4825:4857   */\n      slt\n        /* \"#utility.yul\":4822:4941   */\n      iszero\n      tag_192\n      jumpi\n        /* \"#utility.yul\":4860:4939   */\n      tag_193\n      tag_118\n      jump\t// in\n    tag_193:\n        /* \"#utility.yul\":4822:4941   */\n    tag_192:\n        /* \"#utility.yul\":4980:4981   */\n      0x00\n        /* \"#utility.yul\":5005:5058   */\n      tag_194\n        /* \"#utility.yul\":5050:5057   */\n      dup5\n        /* \"#utility.yul\":5041:5047   */\n      dup3\n        /* \"#utility.yul\":5030:5039   */\n      dup6\n        /* \"#utility.yul\":5026:5048   */\n      add\n        /* \"#utility.yul\":5005:5058   */\n      tag_123\n      jump\t// in\n    tag_194:\n        /* \"#utility.yul\":4995:5058   */\n      swap2\n      pop\n        /* \"#utility.yul\":4951:5068   */\n      pop\n        /* \"#utility.yul\":4746:5075   */\n      swap3\n      swap2\n      pop\n      pop\n      jump\t// out\n        /* \"#utility.yul\":5081:5555   */\n    tag_64:\n        /* \"#utility.yul\":5149:5155   */\n      0x00\n        /* \"#utility.yul\":5157:5163   */\n      dup1\n        /* \"#utility.yul\":5206:5208   */\n      0x40\n        /* \"#utility.yul\":5194:5203   */\n      dup4\n        /* \"#utility.yul\":5185:5192   */\n      dup6\n        /* \"#utility.yul\":5181:5204   */\n      sub\n        /* \"#utility.yul\":5177:5209   */\n      slt\n        /* \"#utility.yul\":5174:5293   */\n      iszero\n      tag_196\n      jumpi\n        /* \"#utility.yul\":5212:5291   */\n      tag_197\n      tag_118\n      jump\t// in\n    tag_197:\n        /* \"#utility.yul\":5174:5293   */\n    tag_196:\n        /* \"#utility.yul\":5332:5333   */\n      0x00\n        /* \"#utility.yul\":5357:5410   */\n      tag_198\n        /* \"#utility.yul\":5402:5409   */\n      dup6\n        /* \"#utility.yul\":5393:5399   */\n      dup3\n        /* \"#utility.yul\":5382:5391   */\n      dup7\n        /* \"#utility.yul\":5378:5400   */\n      add\n        /* \"#utility.yul\":5357:5410   */\n      tag_123\n      jump\t// in\n    tag_198:\n        /* \"#utility.yul\":5347:5410   */\n      swap3\n      pop\n        /* \"#utility.yul\":5303:5420   */\n      pop\n        /* \"#utility.yul\":5459:5461   */\n      0x20\n        /* \"#utility.yul\":5485:5538   */\n      tag_199\n        /* \"#utility.yul\":5530:5537   */\n      dup6\n        /* \"#utility.yul\":5521:5527   */\n      dup3\n        /* \"#utility.yul\":5510:5519   */\n      dup7\n        /* \"#utility.yul\":5506:5528   */\n      add\n        /* \"#utility.yul\":5485:5538   */\n      tag_123\n      jump\t// in\n    tag_199:\n        /* \"#utility.yul\":5475:5538   */\n      swap2\n      pop\n        /* \"#utility.yul\":5430:5548   */\n      pop\n        /* \"#utility.yul\":5081:5555   */\n      swap3\n      pop\n      swap3\n      swap1\n      pop\n      jump\t// out\n        /* \"#utility.yul\":5561:5741   */\n    tag_132:\n        /* \"#utility.yul\":5609:5686   */\n      0x4e487b7100000000000000000000000000000000000000000000000000000000\n        /* \"#utility.yul\":5606:5607   */\n      0x00\n        /* \"#utility.yul\":5599:5687   */\n      mstore\n        /* \"#utility.yul\":5706:5710   */\n      0x11\n        /* \"#utility.yul\":5703:5704   */\n      0x04\n        /* \"#utility.yul\":5696:5711   */\n      mstore\n        /* \"#utility.yul\":5730:5734   */\n      0x24\n        /* \"#utility.yul\":5727:5728   */\n      0x00\n        /* \"#utility.yul\":5720:5735   */\n      revert\n        /* \"#utility.yul\":5747:5941   */\n    tag_98:\n        /* \"#utility.yul\":5787:5791   */\n      0x00\n        /* \"#utility.yul\":5807:5827   */\n      tag_202\n        /* \"#utility.yul\":5825:5826   */\n      dup3\n        /* \"#utility.yul\":5807:5827   */\n      tag_124\n      jump\t// in\n    tag_202:\n        /* \"#utility.yul\":5802:5827   */\n      swap2\n      pop\n        /* \"#utility.yul\":5841:5861   */\n      tag_203\n        /* \"#utility.yul\":5859:5860   */\n      dup4\n        /* \"#utility.yul\":5841:5861   */\n      tag_124\n      jump\t// in\n    tag_203:\n        /* \"#utility.yul\":5836:5861   */\n      swap3\n      pop\n        /* \"#utility.yul\":5885:5886   */\n      dup3\n        /* \"#utility.yul\":5882:5883   */\n      dup3\n        /* \"#utility.yul\":5878:5887   */\n      sub\n        /* \"#utility.yul\":5870:5887   */\n      swap1\n      pop\n        /* \"#utility.yul\":5909:5910   */\n      dup2\n        /* \"#utility.yul\":5903:5907   */\n      dup2\n        /* \"#utility.yul\":5900:5911   */\n      gt\n        /* \"#utility.yul\":5897:5934   */\n      iszero\n      tag_204\n      jumpi\n        /* \"#utility.yul\":5914:5932   */\n      tag_205\n      tag_132\n      jump\t// in\n    tag_205:\n        /* \"#utility.yul\":5897:5934   */\n    tag_204:\n        /* \"#utility.yul\":5747:5941   */\n      swap3\n      swap2\n      pop\n      pop\n      jump\t// out\n        /* \"#utility.yul\":5947:6118   */\n    tag_133:\n        /* \"#utility.yul\":6087:6110   */\n      0x64732d6d6174682d7375622d756e646572666c6f770000000000000000000000\n        /* \"#utility.yul\":6083:6084   */\n      0x00\n        /* \"#utility.yul\":6075:6081   */\n      dup3\n        /* \"#utility.yul\":6071:6085   */\n      add\n        /* \"#utility.yul\":6064:6111   */\n      mstore\n        /* \"#utility.yul\":5947:6118   */\n      pop\n      jump\t// out\n        /* \"#utility.yul\":6124:6490   */\n    tag_134:\n        /* \"#utility.yul\":6266:6269   */\n      0x00\n        /* \"#utility.yul\":6287:6354   */\n      tag_208\n        /* \"#utility.yul\":6351:6353   */\n      0x15\n        /* \"#utility.yul\":6346:6349   */\n      dup4\n        /* \"#utility.yul\":6287:6354   */\n      tag_113\n      jump\t// in\n    tag_208:\n        /* \"#utility.yul\":6280:6354   */\n      swap2\n      pop\n        /* \"#utility.yul\":6363:6456   */\n      tag_209\n        /* \"#utility.yul\":6452:6455   */\n      dup3\n        /* \"#utility.yul\":6363:6456   */\n      tag_133\n      jump\t// in\n    tag_209:\n        /* \"#utility.yul\":6481:6483   */\n      0x20\n        /* \"#utility.yul\":6476:6479   */\n      dup3\n        /* \"#utility.yul\":6472:6484   */\n      add\n        /* \"#utility.yul\":6465:6484   */\n      swap1\n      pop\n        /* \"#utility.yul\":6124:6490   */\n      swap2\n      swap1\n      pop\n      jump\t// out\n        /* \"#utility.yul\":6496:6915   */\n    tag_101:\n        /* \"#utility.yul\":6662:6666   */\n      0x00\n        /* \"#utility.yul\":6700:6702   */\n      0x20\n        /* \"#utility.yul\":6689:6698   */\n      dup3\n        /* \"#utility.yul\":6685:6703   */\n      add\n        /* \"#utility.yul\":6677:6703   */\n      swap1\n      pop\n        /* \"#utility.yul\":6749:6758   */\n      dup2\n        /* \"#utility.yul\":6743:6747   */\n      dup2\n        /* \"#utility.yul\":6739:6759   */\n      sub\n        /* \"#utility.yul\":6735:6736   */\n      0x00\n        /* \"#utility.yul\":6724:6733   */\n      dup4\n        /* \"#utility.yul\":6720:6737   */\n      add\n        /* \"#utility.yul\":6713:6760   */\n      mstore\n        /* \"#utility.yul\":6777:6908   */\n      tag_211\n        /* \"#utility.yul\":6903:6907   */\n      dup2\n        /* \"#utility.yul\":6777:6908   */\n      tag_134\n      jump\t// in\n    tag_211:\n        /* \"#utility.yul\":6769:6908   */\n      swap1\n      pop\n        /* \"#utility.yul\":6496:6915   */\n      swap2\n      swap1\n      pop\n      jump\t// out\n        /* \"#utility.yul\":6921:7112   */\n    tag_108:\n        /* \"#utility.yul\":6961:6964   */\n      0x00\n        /* \"#utility.yul\":6980:7000   */\n      tag_213\n        /* \"#utility.yul\":6998:6999   */\n      dup3\n        /* \"#utility.yul\":6980:7000   */\n      tag_124\n      jump\t// in\n    tag_213:\n        /* \"#utility.yul\":6975:7000   */\n      swap2\n      pop\n        /* \"#utility.yul\":7014:7034   */\n      tag_214\n        /* \"#utility.yul\":7032:7033   */\n      dup4\n        /* \"#utility.yul\":7014:7034   */\n      tag_124\n      jump\t// in\n    tag_214:\n        /* \"#utility.yul\":7009:7034   */\n      swap3\n      pop\n        /* \"#utility.yul\":7057:7058   */\n      dup3\n        /* \"#utility.yul\":7054:7055   */\n      dup3\n        /* \"#utility.yul\":7050:7059   */\n      add\n        /* \"#utility.yul\":7043:7059   */\n      swap1\n      pop\n        /* \"#utility.yul\":7078:7081   */\n      dup1\n        /* \"#utility.yul\":7075:7076   */\n      dup3\n        /* \"#utility.yul\":7072:7082   */\n      gt\n        /* \"#utility.yul\":7069:7105   */\n      iszero\n      tag_215\n      jumpi\n        /* \"#utility.yul\":7085:7103   */\n      tag_216\n      tag_132\n      jump\t// in\n    tag_216:\n        /* \"#utility.yul\":7069:7105   */\n    tag_215:\n        /* \"#utility.yul\":6921:7112   */\n      swap3\n      swap2\n      pop\n      pop\n      jump\t// out\n        /* \"#utility.yul\":7118:7288   */\n    tag_135:\n        /* \"#utility.yul\":7258:7280   */\n      0x64732d6d6174682d6164642d6f766572666c6f77000000000000000000000000\n        /* \"#utility.yul\":7254:7255   */\n      0x00\n        /* \"#utility.yul\":7246:7252   */\n      dup3\n        /* \"#utility.yul\":7242:7256   */\n      add\n        /* \"#utility.yul\":7235:7281   */\n      mstore\n        /* \"#utility.yul\":7118:7288   */\n      pop\n      jump\t// out\n        /* \"#utility.yul\":7294:7660   */\n    tag_136:\n        /* \"#utility.yul\":7436:7439   */\n      0x00\n        /* \"#utility.yul\":7457:7524   */\n      tag_219\n        /* \"#utility.yul\":7521:7523   */\n      0x14\n        /* \"#utility.yul\":7516:7519   */\n      dup4\n        /* \"#utility.yul\":7457:7524   */\n      tag_113\n      jump\t// in\n    tag_219:\n        /* \"#utility.yul\":7450:7524   */\n      swap2\n      pop\n        /* \"#utility.yul\":7533:7626   */\n      tag_220\n        /* \"#utility.yul\":7622:7625   */\n      dup3\n        /* \"#utility.yul\":7533:7626   */\n      tag_135\n      jump\t// in\n    tag_220:\n        /* \"#utility.yul\":7651:7653   */\n      0x20\n        /* \"#utility.yul\":7646:7649   */\n      dup3\n        /* \"#utility.yul\":7642:7654   */\n      add\n        /* \"#utility.yul\":7635:7654   */\n      swap1\n      pop\n        /* \"#utility.yul\":7294:7660   */\n      swap2\n      swap1\n      pop\n      jump\t// out\n        /* \"#utility.yul\":7666:8085   */\n    tag_111:\n        /* \"#utility.yul\":7832:7836   */\n      0x00\n        /* \"#utility.yul\":7870:7872   */\n      0x20\n        /* \"#utility.yul\":7859:7868   */\n      dup3\n        /* \"#utility.yul\":7855:7873   */\n      add\n        /* \"#utility.yul\":7847:7873   */\n      swap1\n      pop\n        /* \"#utility.yul\":7919:7928   */\n      dup2\n        /* \"#utility.yul\":7913:7917   */\n      dup2\n        /* \"#utility.yul\":7909:7929   */\n      sub\n        /* \"#utility.yul\":7905:7906   */\n      0x00\n        /* \"#utility.yul\":7894:7903   */\n      dup4\n        /* \"#utility.yul\":7890:7907   */\n      add\n        /* \"#utility.yul\":7883:7930   */\n      mstore\n        /* \"#utility.yul\":7947:8078   */\n      tag_222\n        /* \"#utility.yul\":8073:8077   */\n      dup2\n        /* \"#utility.yul\":7947:8078   */\n      tag_136\n      jump\t// in\n    tag_222:\n        /* \"#utility.yul\":7939:8078   */\n      swap1\n      pop\n        /* \"#utility.yul\":7666:8085   */\n      swap2\n      swap1\n      pop\n      jump\t// out\n\n    auxdata: 0xa2646970667358221220a153d4b75c57c1b797302c2cc7e12b1c649e8ed125f760d7d90a47aa8ceadfbe64736f6c63430008190033\n}\n",
				"bytecode": {
					"linkReferences": {},
					"object": "608060405234801561000f575f80fd5b506509184e72a0005f803373ffffffffffffffffffffffffffffffffffffffff1673ffffffffffffffffffffffffffffffffffffffff1681526020019081526020015f20819055503373ffffffffffffffffffffffffffffffffffffffff165f73ffffffffffffffffffffffffffffffffffffffff167fddf252ad1be2c89b69c2b068fc378daa952ba7f163c4a11628f55a4df523b3ef6509184e72a0006040516100ba91906100df565b60405180910390a36100f8565b5f819050919050565b6100d9816100c7565b82525050565b5f6020820190506100f25f8301846100d0565b92915050565b611407806101055f395ff3fe608060405234801561000f575f80fd5b50600436106100b2575f3560e01c80633eaaf86b1161006f5780633eaaf86b146101a057806370a08231146101be57806395d89b41146101ee578063a457c2d71461020c578063a9059cbb1461023c578063dd62ed3e1461026c576100b2565b806306fdde03146100b6578063095ea7b3146100d457806318160ddd1461010457806323b872dd14610122578063313ce567146101525780633950935114610170575b5f80fd5b6100be61029c565b6040516100cb9190611037565b60405180910390f35b6100ee60048036038101906100e991906110e8565b6102d5565b6040516100fb9190611140565b60405180910390f35b61010c6103f9565b6040516101199190611168565b60405180910390f35b61013c60048036038101906101379190611181565b610406565b6040516101499190611140565b60405180910390f35b61015a610627565b60405161016791906111ec565b60405180910390f35b61018a600480360381019061018591906110e8565b61062c565b6040516101979190611140565b60405180910390f35b6101a8610852565b6040516101b59190611168565b60405180910390f35b6101d860048036038101906101d39190611205565b61085c565b6040516101e59190611168565b60405180910390f35b6101f66108a1565b6040516102039190611037565b60405180910390f35b610226600480360381019061022191906110e8565b6108da565b6040516102339190611140565b60405180910390f35b610256600480360381019061025191906110e8565b610b00565b6040516102639190611140565b60405180910390f35b61028660048036038101906102819190611230565b610d0d565b6040516102939190611168565b60405180910390f35b6040518060400160405280600a81526020017f4c756c7520546f6b656e0000000000000000000000000000000000000000000081525081565b5f8073ffffffffffffffffffffffffffffffffffffffff168373ffffffffffffffffffffffffffffffffffffffff160361030d575f80fd5b8160015f3373ffffffffffffffffffffffffffffffffffffffff1673ffffffffffffffffffffffffffffffffffffffff1681526020019081526020015f205f8573ffffffffffffffffffffffffffffffffffffffff1673ffffffffffffffffffffffffffffffffffffffff1681526020019081526020015f20819055508273ffffffffffffffffffffffffffffffffffffffff163373ffffffffffffffffffffffffffffffffffffffff167f8c5be1e5ebec7d5bd14f71427d1e84f3dd0314c0f7b2291e5b200ac8c7c3b925846040516103e79190611168565b60405180910390a36001905092915050565b5f6509184e72a000905090565b5f805f8573ffffffffffffffffffffffffffffffffffffffff1673ffffffffffffffffffffffffffffffffffffffff1681526020019081526020015f205482111561044f575f80fd5b60015f8573ffffffffffffffffffffffffffffffffffffffff1673ffffffffffffffffffffffffffffffffffffffff1681526020019081526020015f205f3373ffffffffffffffffffffffffffffffffffffffff1673ffffffffffffffffffffffffffffffffffffffff1681526020019081526020015f20548211156104d3575f80fd5b5f73ffffffffffffffffffffffffffffffffffffffff168373ffffffffffffffffffffffffffffffffffffffff160361050a575f80fd5b6105958260015f8773ffffffffffffffffffffffffffffffffffffffff1673ffffffffffffffffffffffffffffffffffffffff1681526020019081526020015f205f3373ffffffffffffffffffffffffffffffffffffffff1673ffffffffffffffffffffffffffffffffffffffff1681526020019081526020015f2054610d8f90919063ffffffff16565b60015f8673ffffffffffffffffffffffffffffffffffffffff1673ffffffffffffffffffffffffffffffffffffffff1681526020019081526020015f205f3373ffffffffffffffffffffffffffffffffffffffff1673ffffffffffffffffffffffffffffffffffffffff1681526020019081526020015f208190555061061c848484610de7565b600190509392505050565b600a81565b5f8073ffffffffffffffffffffffffffffffffffffffff168373ffffffffffffffffffffffffffffffffffffffff1603610664575f80fd5b6106ef8260015f3373ffffffffffffffffffffffffffffffffffffffff1673ffffffffffffffffffffffffffffffffffffffff1681526020019081526020015f205f8673ffffffffffffffffffffffffffffffffffffffff1673ffffffffffffffffffffffffffffffffffffffff1681526020019081526020015f2054610f6f90919063ffffffff16565b60015f3373ffffffffffffffffffffffffffffffffffffffff1673ffffffffffffffffffffffffffffffffffffffff1681526020019081526020015f205f8573ffffffffffffffffffffffffffffffffffffffff1673ffffffffffffffffffffffffffffffffffffffff1681526020019081526020015f20819055508273ffffffffffffffffffffffffffffffffffffffff163373ffffffffffffffffffffffffffffffffffffffff167f8c5be1e5ebec7d5bd14f71427d1e84f3dd0314c0f7b2291e5b200ac8c7c3b92560015f3373ffffffffffffffffffffffffffffffffffffffff1673ffffffffffffffffffffffffffffffffffffffff1681526020019081526020015f205f8773ffffffffffffffffffffffffffffffffffffffff1673ffffffffffffffffffffffffffffffffffffffff1681526020019081526020015f20546040516108409190611168565b60405180910390a36001905092915050565b6509184e72a00081565b5f805f8373ffffffffffffffffffffffffffffffffffffffff1673ffffffffffffffffffffffffffffffffffffffff1681526020019081526020015f20549050919050565b6040518060400160405280600481526020017f4c554c550000000000000000000000000000000000000000000000000000000081525081565b5f8073ffffffffffffffffffffffffffffffffffffffff168373ffffffffffffffffffffffffffffffffffffffff1603610912575f80fd5b61099d8260015f3373ffffffffffffffffffffffffffffffffffffffff1673ffffffffffffffffffffffffffffffffffffffff1681526020019081526020015f205f8673ffffffffffffffffffffffffffffffffffffffff1673ffffffffffffffffffffffffffffffffffffffff1681526020019081526020015f2054610d8f90919063ffffffff16565b60015f3373ffffffffffffffffffffffffffffffffffffffff1673ffffffffffffffffffffffffffffffffffffffff1681526020019081526020015f205f8573ffffffffffffffffffffffffffffffffffffffff1673ffffffffffffffffffffffffffffffffffffffff1681526020019081526020015f20819055508273ffffffffffffffffffffffffffffffffffffffff163373ffffffffffffffffffffffffffffffffffffffff167f8c5be1e5ebec7d5bd14f71427d1e84f3dd0314c0f7b2291e5b200ac8c7c3b92560015f3373ffffffffffffffffffffffffffffffffffffffff1673ffffffffffffffffffffffffffffffffffffffff1681526020019081526020015f205f8773ffffffffffffffffffffffffffffffffffffffff1673ffffffffffffffffffffffffffffffffffffffff1681526020019081526020015f2054604051610aee9190611168565b60405180910390a36001905092915050565b5f805f3373ffffffffffffffffffffffffffffffffffffffff1673ffffffffffffffffffffffffffffffffffffffff1681526020019081526020015f2054821115610b49575f80fd5b5f73ffffffffffffffffffffffffffffffffffffffff168373ffffffffffffffffffffffffffffffffffffffff1603610b80575f80fd5b610bcf825f803373ffffffffffffffffffffffffffffffffffffffff1673ffffffffffffffffffffffffffffffffffffffff1681526020019081526020015f2054610d8f90919063ffffffff16565b5f803373ffffffffffffffffffffffffffffffffffffffff1673ffffffffffffffffffffffffffffffffffffffff1681526020019081526020015f2081905550610c5e825f808673ffffffffffffffffffffffffffffffffffffffff1673ffffffffffffffffffffffffffffffffffffffff1681526020019081526020015f2054610f6f90919063ffffffff16565b5f808573ffffffffffffffffffffffffffffffffffffffff1673ffffffffffffffffffffffffffffffffffffffff1681526020019081526020015f20819055508273ffffffffffffffffffffffffffffffffffffffff163373ffffffffffffffffffffffffffffffffffffffff167fddf252ad1be2c89b69c2b068fc378daa952ba7f163c4a11628f55a4df523b3ef84604051610cfb9190611168565b60405180910390a36001905092915050565b5f60015f8473ffffffffffffffffffffffffffffffffffffffff1673ffffffffffffffffffffffffffffffffffffffff1681526020019081526020015f205f8373ffffffffffffffffffffffffffffffffffffffff1673ffffffffffffffffffffffffffffffffffffffff1681526020019081526020015f2054905092915050565b5f828284610d9d919061129b565b9150811115610de1576040517f08c379a0000000000000000000000000000000000000000000000000000000008152600401610dd890611318565b60405180910390fd5b92915050565b610e36815f808673ffffffffffffffffffffffffffffffffffffffff1673ffffffffffffffffffffffffffffffffffffffff1681526020019081526020015f2054610d8f90919063ffffffff16565b5f808573ffffffffffffffffffffffffffffffffffffffff1673ffffffffffffffffffffffffffffffffffffffff1681526020019081526020015f2081905550610ec5815f808573ffffffffffffffffffffffffffffffffffffffff1673ffffffffffffffffffffffffffffffffffffffff1681526020019081526020015f2054610f6f90919063ffffffff16565b5f808473ffffffffffffffffffffffffffffffffffffffff1673ffffffffffffffffffffffffffffffffffffffff1681526020019081526020015f20819055508173ffffffffffffffffffffffffffffffffffffffff168373ffffffffffffffffffffffffffffffffffffffff167fddf252ad1be2c89b69c2b068fc378daa952ba7f163c4a11628f55a4df523b3ef83604051610f629190611168565b60405180910390a3505050565b5f828284610f7d9190611336565b9150811015610fc1576040517f08c379a0000000000000000000000000000000000000000000000000000000008152600401610fb8906113b3565b60405180910390fd5b92915050565b5f81519050919050565b5f82825260208201905092915050565b8281835e5f83830152505050565b5f601f19601f8301169050919050565b5f61100982610fc7565b6110138185610fd1565b9350611023818560208601610fe1565b61102c81610fef565b840191505092915050565b5f6020820190508181035f83015261104f8184610fff565b905092915050565b5f80fd5b5f73ffffffffffffffffffffffffffffffffffffffff82169050919050565b5f6110848261105b565b9050919050565b6110948161107a565b811461109e575f80fd5b50565b5f813590506110af8161108b565b92915050565b5f819050919050565b6110c7816110b5565b81146110d1575f80fd5b50565b5f813590506110e2816110be565b92915050565b5f80604083850312156110fe576110fd611057565b5b5f61110b858286016110a1565b925050602061111c858286016110d4565b9150509250929050565b5f8115159050919050565b61113a81611126565b82525050565b5f6020820190506111535f830184611131565b92915050565b611162816110b5565b82525050565b5f60208201905061117b5f830184611159565b92915050565b5f805f6060848603121561119857611197611057565b5b5f6111a5868287016110a1565b93505060206111b6868287016110a1565b92505060406111c7868287016110d4565b9150509250925092565b5f60ff82169050919050565b6111e6816111d1565b82525050565b5f6020820190506111ff5f8301846111dd565b92915050565b5f6020828403121561121a57611219611057565b5b5f611227848285016110a1565b91505092915050565b5f806040838503121561124657611245611057565b5b5f611253858286016110a1565b9250506020611264858286016110a1565b9150509250929050565b7f4e487b71000000000000000000000000000000000000000000000000000000005f52601160045260245ffd5b5f6112a5826110b5565b91506112b0836110b5565b92508282039050818111156112c8576112c761126e565b5b92915050565b7f64732d6d6174682d7375622d756e646572666c6f7700000000000000000000005f82015250565b5f611302601583610fd1565b915061130d826112ce565b602082019050919050565b5f6020820190508181035f83015261132f816112f6565b9050919050565b5f611340826110b5565b915061134b836110b5565b92508282019050808211156113635761136261126e565b5b92915050565b7f64732d6d6174682d6164642d6f766572666c6f770000000000000000000000005f82015250565b5f61139d601483610fd1565b91506113a882611369565b602082019050919050565b5f6020820190508181035f8301526113ca81611391565b905091905056fea2646970667358221220a153d4b75c57c1b797302c2cc7e12b1c649e8ed125f760d7d90a47aa8ceadfbe64736f6c63430008190033",
					"opcodes": "PUSH1 0x80 PUSH1 0x40 MSTORE CALLVALUE DUP1 ISZERO PUSH2 0xF JUMPI PUSH0 DUP1 REVERT JUMPDEST POP PUSH6 0x9184E72A000 PUSH0 DUP1 CALLER PUSH20 0xFFFFFFFFFFFFFFFFFFFFFFFFFFFFFFFFFFFFFFFF AND PUSH20 0xFFFFFFFFFFFFFFFFFFFFFFFFFFFFFFFFFFFFFFFF AND DUP2 MSTORE PUSH1 0x20 ADD SWAP1 DUP2 MSTORE PUSH1 0x20 ADD PUSH0 KECCAK256 DUP2 SWAP1 SSTORE POP CALLER PUSH20 0xFFFFFFFFFFFFFFFFFFFFFFFFFFFFFFFFFFFFFFFF AND PUSH0 PUSH20 0xFFFFFFFFFFFFFFFFFFFFFFFFFFFFFFFFFFFFFFFF AND PUSH32 0xDDF252AD1BE2C89B69C2B068FC378DAA952BA7F163C4A11628F55A4DF523B3EF PUSH6 0x9184E72A000 PUSH1 0x40 MLOAD PUSH2 0xBA SWAP2 SWAP1 PUSH2 0xDF JUMP JUMPDEST PUSH1 0x40 MLOAD DUP1 SWAP2 SUB SWAP1 LOG3 PUSH2 0xF8 JUMP JUMPDEST PUSH0 DUP2 SWAP1 POP SWAP2 SWAP1 POP JUMP JUMPDEST PUSH2 0xD9 DUP2 PUSH2 0xC7 JUMP JUMPDEST DUP3 MSTORE POP POP JUMP JUMPDEST PUSH0 PUSH1 0x20 DUP3 ADD SWAP1 POP PUSH2 0xF2 PUSH0 DUP4 ADD DUP5 PUSH2 0xD0 JUMP JUMPDEST SWAP3 SWAP2 POP POP JUMP JUMPDEST PUSH2 0x1407 DUP1 PUSH2 0x105 PUSH0 CODECOPY PUSH0 RETURN INVALID PUSH1 0x80 PUSH1 0x40 MSTORE CALLVALUE DUP1 ISZERO PUSH2 0xF JUMPI PUSH0 DUP1 REVERT JUMPDEST POP PUSH1 0x4 CALLDATASIZE LT PUSH2 0xB2 JUMPI PUSH0 CALLDATALOAD PUSH1 0xE0 SHR DUP1 PUSH4 0x3EAAF86B GT PUSH2 0x6F JUMPI DUP1 PUSH4 0x3EAAF86B EQ PUSH2 0x1A0 JUMPI DUP1 PUSH4 0x70A08231 EQ PUSH2 0x1BE JUMPI DUP1 PUSH4 0x95D89B41 EQ PUSH2 0x1EE JUMPI DUP1 PUSH4 0xA457C2D7 EQ PUSH2 0x20C JUMPI DUP1 PUSH4 0xA9059CBB EQ PUSH2 0x23C JUMPI DUP1 PUSH4 0xDD62ED3E EQ PUSH2 0x26C JUMPI PUSH2 0xB2 JUMP JUMPDEST DUP1 PUSH4 0x6FDDE03 EQ PUSH2 0xB6 JUMPI DUP1 PUSH4 0x95EA7B3 EQ PUSH2 0xD4 JUMPI DUP1 PUSH4 0x18160DDD EQ PUSH2 0x104 JUMPI DUP1 PUSH4 0x23B872DD EQ PUSH2 0x122 JUMPI DUP1 PUSH4 0x313CE567 EQ PUSH2 0x152 JUMPI DUP1 PUSH4 0x39509351 EQ PUSH2 0x170 JUMPI JUMPDEST PUSH0 DUP1 REVERT JUMPDEST PUSH2 0xBE PUSH2 0x29C JUMP JUMPDEST PUSH1 0x40 MLOAD PUSH2 0xCB SWAP2 SWAP1 PUSH2 0x1037 JUMP JUMPDEST PUSH1 0x40 MLOAD DUP1 SWAP2 SUB SWAP1 RETURN JUMPDEST PUSH2 0xEE PUSH1 0x4 DUP1 CALLDATASIZE SUB DUP2 ADD SWAP1 PUSH2 0xE9 SWAP2 SWAP1 PUSH2 0x10E8 JUMP JUMPDEST PUSH2 0x2D5 JUMP JUMPDEST PUSH1 0x40 MLOAD PUSH2 0xFB SWAP2 SWAP1 PUSH2 0x1140 JUMP JUMPDEST PUSH1 0x40 MLOAD DUP1 SWAP2 SUB SWAP1 RETURN JUMPDEST PUSH2 0x10C PUSH2 0x3F9 JUMP JUMPDEST PUSH1 0x40 MLOAD PUSH2 0x119 SWAP2 SWAP1 PUSH2 0x1168 JUMP JUMPDEST PUSH1 0x40 MLOAD DUP1 SWAP2 SUB SWAP1 RETURN JUMPDEST PUSH2 0x13C PUSH1 0x4 DUP1 CALLDATASIZE SUB DUP2 ADD SWAP1 PUSH2 0x137 SWAP2 SWAP1 PUSH2 0x1181 JUMP JUMPDEST PUSH2 0x406 JUMP JUMPDEST PUSH1 0x40 MLOAD PUSH2 0x149 SWAP2 SWAP1 PUSH2 0x1140 JUMP JUMPDEST PUSH1 0x40 MLOAD DUP1 SWAP2 SUB SWAP1 RETURN JUMPDEST PUSH2 0x15A PUSH2 0x627 JUMP JUMPDEST PUSH1 0x40 MLOAD PUSH2 0x167 SWAP2 SWAP1 PUSH2 0x11EC JUMP JUMPDEST PUSH1 0x40 MLOAD DUP1 SWAP2 SUB SWAP1 RETURN JUMPDEST PUSH2 0x18A PUSH1 0x4 DUP1 CALLDATASIZE SUB DUP2 ADD SWAP1 PUSH2 0x185 SWAP2 SWAP1 PUSH2 0x10E8 JUMP JUMPDEST PUSH2 0x62C JUMP JUMPDEST PUSH1 0x40 MLOAD PUSH2 0x197 SWAP2 SWAP1 PUSH2 0x1140 JUMP JUMPDEST PUSH1 0x40 MLOAD DUP1 SWAP2 SUB SWAP1 RETURN JUMPDEST PUSH2 0x1A8 PUSH2 0x852 JUMP JUMPDEST PUSH1 0x40 MLOAD PUSH2 0x1B5 SWAP2 SWAP1 PUSH2 0x1168 JUMP JUMPDEST PUSH1 0x40 MLOAD DUP1 SWAP2 SUB SWAP1 RETURN JUMPDEST PUSH2 0x1D8 PUSH1 0x4 DUP1 CALLDATASIZE SUB DUP2 ADD SWAP1 PUSH2 0x1D3 SWAP2 SWAP1 PUSH2 0x1205 JUMP JUMPDEST PUSH2 0x85C JUMP JUMPDEST PUSH1 0x40 MLOAD PUSH2 0x1E5 SWAP2 SWAP1 PUSH2 0x1168 JUMP JUMPDEST PUSH1 0x40 MLOAD DUP1 SWAP2 SUB SWAP1 RETURN JUMPDEST PUSH2 0x1F6 PUSH2 0x8A1 JUMP JUMPDEST PUSH1 0x40 MLOAD PUSH2 0x203 SWAP2 SWAP1 PUSH2 0x1037 JUMP JUMPDEST PUSH1 0x40 MLOAD DUP1 SWAP2 SUB SWAP1 RETURN JUMPDEST PUSH2 0x226 PUSH1 0x4 DUP1 CALLDATASIZE SUB DUP2 ADD SWAP1 PUSH2 0x221 SWAP2 SWAP1 PUSH2 0x10E8 JUMP JUMPDEST PUSH2 0x8DA JUMP JUMPDEST PUSH1 0x40 MLOAD PUSH2 0x233 SWAP2 SWAP1 PUSH2 0x1140 JUMP JUMPDEST PUSH1 0x40 MLOAD DUP1 SWAP2 SUB SWAP1 RETURN JUMPDEST PUSH2 0x256 PUSH1 0x4 DUP1 CALLDATASIZE SUB DUP2 ADD SWAP1 PUSH2 0x251 SWAP2 SWAP1 PUSH2 0x10E8 JUMP JUMPDEST PUSH2 0xB00 JUMP JUMPDEST PUSH1 0x40 MLOAD PUSH2 0x263 SWAP2 SWAP1 PUSH2 0x1140 JUMP JUMPDEST PUSH1 0x40 MLOAD DUP1 SWAP2 SUB SWAP1 RETURN JUMPDEST PUSH2 0x286 PUSH1 0x4 DUP1 CALLDATASIZE SUB DUP2 ADD SWAP1 PUSH2 0x281 SWAP2 SWAP1 PUSH2 0x1230 JUMP JUMPDEST PUSH2 0xD0D JUMP JUMPDEST PUSH1 0x40 MLOAD PUSH2 0x293 SWAP2 SWAP1 PUSH2 0x1168 JUMP JUMPDEST PUSH1 0x40 MLOAD DUP1 SWAP2 SUB SWAP1 RETURN JUMPDEST PUSH1 0x40 MLOAD DUP1 PUSH1 0x40 ADD PUSH1 0x40 MSTORE DUP1 PUSH1 0xA DUP2 MSTORE PUSH1 0x20 ADD PUSH32 0x4C756C7520546F6B656E00000000000000000000000000000000000000000000 DUP2 MSTORE POP DUP2 JUMP JUMPDEST PUSH0 DUP1 PUSH20 0xFFFFFFFFFFFFFFFFFFFFFFFFFFFFFFFFFFFFFFFF AND DUP4 PUSH20 0xFFFFFFFFFFFFFFFFFFFFFFFFFFFFFFFFFFFFFFFF AND SUB PUSH2 0x30D JUMPI PUSH0 DUP1 REVERT JUMPDEST DUP2 PUSH1 0x1 PUSH0 CALLER PUSH20 0xFFFFFFFFFFFFFFFFFFFFFFFFFFFFFFFFFFFFFFFF AND PUSH20 0xFFFFFFFFFFFFFFFFFFFFFFFFFFFFFFFFFFFFFFFF AND DUP2 MSTORE PUSH1 0x20 ADD SWAP1 DUP2 MSTORE PUSH1 0x20 ADD PUSH0 KECCAK256 PUSH0 DUP6 PUSH20 0xFFFFFFFFFFFFFFFFFFFFFFFFFFFFFFFFFFFFFFFF AND PUSH20 0xFFFFFFFFFFFFFFFFFFFFFFFFFFFFFFFFFFFFFFFF AND DUP2 MSTORE PUSH1 0x20 ADD SWAP1 DUP2 MSTORE PUSH1 0x20 ADD PUSH0 KECCAK256 DUP2 SWAP1 SSTORE POP DUP3 PUSH20 0xFFFFFFFFFFFFFFFFFFFFFFFFFFFFFFFFFFFFFFFF AND CALLER PUSH20 0xFFFFFFFFFFFFFFFFFFFFFFFFFFFFFFFFFFFFFFFF AND PUSH32 0x8C5BE1E5EBEC7D5BD14F71427D1E84F3DD0314C0F7B2291E5B200AC8C7C3B925 DUP5 PUSH1 0x40 MLOAD PUSH2 0x3E7 SWAP2 SWAP1 PUSH2 0x1168 JUMP JUMPDEST PUSH1 0x40 MLOAD DUP1 SWAP2 SUB SWAP1 LOG3 PUSH1 0x1 SWAP1 POP SWAP3 SWAP2 POP POP JUMP JUMPDEST PUSH0 PUSH6 0x9184E72A000 SWAP1 POP SWAP1 JUMP JUMPDEST PUSH0 DUP1 PUSH0 DUP6 PUSH20 0xFFFFFFFFFFFFFFFFFFFFFFFFFFFFFFFFFFFFFFFF AND PUSH20 0xFFFFFFFFFFFFFFFFFFFFFFFFFFFFFFFFFFFFFFFF AND DUP2 MSTORE PUSH1 0x20 ADD SWAP1 DUP2 MSTORE PUSH1 0x20 ADD PUSH0 KECCAK256 SLOAD DUP3 GT ISZERO PUSH2 0x44F JUMPI PUSH0 DUP1 REVERT JUMPDEST PUSH1 0x1 PUSH0 DUP6 PUSH20 0xFFFFFFFFFFFFFFFFFFFFFFFFFFFFFFFFFFFFFFFF AND PUSH20 0xFFFFFFFFFFFFFFFFFFFFFFFFFFFFFFFFFFFFFFFF AND DUP2 MSTORE PUSH1 0x20 ADD SWAP1 DUP2 MSTORE PUSH1 0x20 ADD PUSH0 KECCAK256 PUSH0 CALLER PUSH20 0xFFFFFFFFFFFFFFFFFFFFFFFFFFFFFFFFFFFFFFFF AND PUSH20 0xFFFFFFFFFFFFFFFFFFFFFFFFFFFFFFFFFFFFFFFF AND DUP2 MSTORE PUSH1 0x20 ADD SWAP1 DUP2 MSTORE PUSH1 0x20 ADD PUSH0 KECCAK256 SLOAD DUP3 GT ISZERO PUSH2 0x4D3 JUMPI PUSH0 DUP1 REVERT JUMPDEST PUSH0 PUSH20 0xFFFFFFFFFFFFFFFFFFFFFFFFFFFFFFFFFFFFFFFF AND DUP4 PUSH20 0xFFFFFFFFFFFFFFFFFFFFFFFFFFFFFFFFFFFFFFFF AND SUB PUSH2 0x50A JUMPI PUSH0 DUP1 REVERT JUMPDEST PUSH2 0x595 DUP3 PUSH1 0x1 PUSH0 DUP8 PUSH20 0xFFFFFFFFFFFFFFFFFFFFFFFFFFFFFFFFFFFFFFFF AND PUSH20 0xFFFFFFFFFFFFFFFFFFFFFFFFFFFFFFFFFFFFFFFF AND DUP2 MSTORE PUSH1 0x20 ADD SWAP1 DUP2 MSTORE PUSH1 0x20 ADD PUSH0 KECCAK256 PUSH0 CALLER PUSH20 0xFFFFFFFFFFFFFFFFFFFFFFFFFFFFFFFFFFFFFFFF AND PUSH20 0xFFFFFFFFFFFFFFFFFFFFFFFFFFFFFFFFFFFFFFFF AND DUP2 MSTORE PUSH1 0x20 ADD SWAP1 DUP2 MSTORE PUSH1 0x20 ADD PUSH0 KECCAK256 SLOAD PUSH2 0xD8F SWAP1 SWAP2 SWAP1 PUSH4 0xFFFFFFFF AND JUMP JUMPDEST PUSH1 0x1 PUSH0 DUP7 PUSH20 0xFFFFFFFFFFFFFFFFFFFFFFFFFFFFFFFFFFFFFFFF AND PUSH20 0xFFFFFFFFFFFFFFFFFFFFFFFFFFFFFFFFFFFFFFFF AND DUP2 MSTORE PUSH1 0x20 ADD SWAP1 DUP2 MSTORE PUSH1 0x20 ADD PUSH0 KECCAK256 PUSH0 CALLER PUSH20 0xFFFFFFFFFFFFFFFFFFFFFFFFFFFFFFFFFFFFFFFF AND PUSH20 0xFFFFFFFFFFFFFFFFFFFFFFFFFFFFFFFFFFFFFFFF AND DUP2 MSTORE PUSH1 0x20 ADD SWAP1 DUP2 MSTORE PUSH1 0x20 ADD PUSH0 KECCAK256 DUP2 SWAP1 SSTORE POP PUSH2 0x61C DUP5 DUP5 DUP5 PUSH2 0xDE7 JUMP JUMPDEST PUSH1 0x1 SWAP1 POP SWAP4 SWAP3 POP POP POP JUMP JUMPDEST PUSH1 0xA DUP2 JUMP JUMPDEST PUSH0 DUP1 PUSH20 0xFFFFFFFFFFFFFFFFFFFFFFFFFFFFFFFFFFFFFFFF AND DUP4 PUSH20 0xFFFFFFFFFFFFFFFFFFFFFFFFFFFFFFFFFFFFFFFF AND SUB PUSH2 0x664 JUMPI PUSH0 DUP1 REVERT JUMPDEST PUSH2 0x6EF DUP3 PUSH1 0x1 PUSH0 CALLER PUSH20 0xFFFFFFFFFFFFFFFFFFFFFFFFFFFFFFFFFFFFFFFF AND PUSH20 0xFFFFFFFFFFFFFFFFFFFFFFFFFFFFFFFFFFFFFFFF AND DUP2 MSTORE PUSH1 0x20 ADD SWAP1 DUP2 MSTORE PUSH1 0x20 ADD PUSH0 KECCAK256 PUSH0 DUP7 PUSH20 0xFFFFFFFFFFFFFFFFFFFFFFFFFFFFFFFFFFFFFFFF AND PUSH20 0xFFFFFFFFFFFFFFFFFFFFFFFFFFFFFFFFFFFFFFFF AND DUP2 MSTORE PUSH1 0x20 ADD SWAP1 DUP2 MSTORE PUSH1 0x20 ADD PUSH0 KECCAK256 SLOAD PUSH2 0xF6F SWAP1 SWAP2 SWAP1 PUSH4 0xFFFFFFFF AND JUMP JUMPDEST PUSH1 0x1 PUSH0 CALLER PUSH20 0xFFFFFFFFFFFFFFFFFFFFFFFFFFFFFFFFFFFFFFFF AND PUSH20 0xFFFFFFFFFFFFFFFFFFFFFFFFFFFFFFFFFFFFFFFF AND DUP2 MSTORE PUSH1 0x20 ADD SWAP1 DUP2 MSTORE PUSH1 0x20 ADD PUSH0 KECCAK256 PUSH0 DUP6 PUSH20 0xFFFFFFFFFFFFFFFFFFFFFFFFFFFFFFFFFFFFFFFF AND PUSH20 0xFFFFFFFFFFFFFFFFFFFFFFFFFFFFFFFFFFFFFFFF AND DUP2 MSTORE PUSH1 0x20 ADD SWAP1 DUP2 MSTORE PUSH1 0x20 ADD PUSH0 KECCAK256 DUP2 SWAP1 SSTORE POP DUP3 PUSH20 0xFFFFFFFFFFFFFFFFFFFFFFFFFFFFFFFFFFFFFFFF AND CALLER PUSH20 0xFFFFFFFFFFFFFFFFFFFFFFFFFFFFFFFFFFFFFFFF AND PUSH32 0x8C5BE1E5EBEC7D5BD14F71427D1E84F3DD0314C0F7B2291E5B200AC8C7C3B925 PUSH1 0x1 PUSH0 CALLER PUSH20 0xFFFFFFFFFFFFFFFFFFFFFFFFFFFFFFFFFFFFFFFF AND PUSH20 0xFFFFFFFFFFFFFFFFFFFFFFFFFFFFFFFFFFFFFFFF AND DUP2 MSTORE PUSH1 0x20 ADD SWAP1 DUP2 MSTORE PUSH1 0x20 ADD PUSH0 KECCAK256 PUSH0 DUP8 PUSH20 0xFFFFFFFFFFFFFFFFFFFFFFFFFFFFFFFFFFFFFFFF AND PUSH20 0xFFFFFFFFFFFFFFFFFFFFFFFFFFFFFFFFFFFFFFFF AND DUP2 MSTORE PUSH1 0x20 ADD SWAP1 DUP2 MSTORE PUSH1 0x20 ADD PUSH0 KECCAK256 SLOAD PUSH1 0x40 MLOAD PUSH2 0x840 SWAP2 SWAP1 PUSH2 0x1168 JUMP JUMPDEST PUSH1 0x40 MLOAD DUP1 SWAP2 SUB SWAP1 LOG3 PUSH1 0x1 SWAP1 POP SWAP3 SWAP2 POP POP JUMP JUMPDEST PUSH6 0x9184E72A000 DUP2 JUMP JUMPDEST PUSH0 DUP1 PUSH0 DUP4 PUSH20 0xFFFFFFFFFFFFFFFFFFFFFFFFFFFFFFFFFFFFFFFF AND PUSH20 0xFFFFFFFFFFFFFFFFFFFFFFFFFFFFFFFFFFFFFFFF AND DUP2 MSTORE PUSH1 0x20 ADD SWAP1 DUP2 MSTORE PUSH1 0x20 ADD PUSH0 KECCAK256 SLOAD SWAP1 POP SWAP2 SWAP1 POP JUMP JUMPDEST PUSH1 0x40 MLOAD DUP1 PUSH1 0x40 ADD PUSH1 0x40 MSTORE DUP1 PUSH1 0x4 DUP2 MSTORE PUSH1 0x20 ADD PUSH32 0x4C554C5500000000000000000000000000000000000000000000000000000000 DUP2 MSTORE POP DUP2 JUMP JUMPDEST PUSH0 DUP1 PUSH20 0xFFFFFFFFFFFFFFFFFFFFFFFFFFFFFFFFFFFFFFFF AND DUP4 PUSH20 0xFFFFFFFFFFFFFFFFFFFFFFFFFFFFFFFFFFFFFFFF AND SUB PUSH2 0x912 JUMPI PUSH0 DUP1 REVERT JUMPDEST PUSH2 0x99D DUP3 PUSH1 0x1 PUSH0 CALLER PUSH20 0xFFFFFFFFFFFFFFFFFFFFFFFFFFFFFFFFFFFFFFFF AND PUSH20 0xFFFFFFFFFFFFFFFFFFFFFFFFFFFFFFFFFFFFFFFF AND DUP2 MSTORE PUSH1 0x20 ADD SWAP1 DUP2 MSTORE PUSH1 0x20 ADD PUSH0 KECCAK256 PUSH0 DUP7 PUSH20 0xFFFFFFFFFFFFFFFFFFFFFFFFFFFFFFFFFFFFFFFF AND PUSH20 0xFFFFFFFFFFFFFFFFFFFFFFFFFFFFFFFFFFFFFFFF AND DUP2 MSTORE PUSH1 0x20 ADD SWAP1 DUP2 MSTORE PUSH1 0x20 ADD PUSH0 KECCAK256 SLOAD PUSH2 0xD8F SWAP1 SWAP2 SWAP1 PUSH4 0xFFFFFFFF AND JUMP JUMPDEST PUSH1 0x1 PUSH0 CALLER PUSH20 0xFFFFFFFFFFFFFFFFFFFFFFFFFFFFFFFFFFFFFFFF AND PUSH20 0xFFFFFFFFFFFFFFFFFFFFFFFFFFFFFFFFFFFFFFFF AND DUP2 MSTORE PUSH1 0x20 ADD SWAP1 DUP2 MSTORE PUSH1 0x20 ADD PUSH0 KECCAK256 PUSH0 DUP6 PUSH20 0xFFFFFFFFFFFFFFFFFFFFFFFFFFFFFFFFFFFFFFFF AND PUSH20 0xFFFFFFFFFFFFFFFFFFFFFFFFFFFFFFFFFFFFFFFF AND DUP2 MSTORE PUSH1 0x20 ADD SWAP1 DUP2 MSTORE PUSH1 0x20 ADD PUSH0 KECCAK256 DUP2 SWAP1 SSTORE POP DUP3 PUSH20 0xFFFFFFFFFFFFFFFFFFFFFFFFFFFFFFFFFFFFFFFF AND CALLER PUSH20 0xFFFFFFFFFFFFFFFFFFFFFFFFFFFFFFFFFFFFFFFF AND PUSH32 0x8C5BE1E5EBEC7D5BD14F71427D1E84F3DD0314C0F7B2291E5B200AC8C7C3B925 PUSH1 0x1 PUSH0 CALLER PUSH20 0xFFFFFFFFFFFFFFFFFFFFFFFFFFFFFFFFFFFFFFFF AND PUSH20 0xFFFFFFFFFFFFFFFFFFFFFFFFFFFFFFFFFFFFFFFF AND DUP2 MSTORE PUSH1 0x20 ADD SWAP1 DUP2 MSTORE PUSH1 0x20 ADD PUSH0 KECCAK256 PUSH0 DUP8 PUSH20 0xFFFFFFFFFFFFFFFFFFFFFFFFFFFFFFFFFFFFFFFF AND PUSH20 0xFFFFFFFFFFFFFFFFFFFFFFFFFFFFFFFFFFFFFFFF AND DUP2 MSTORE PUSH1 0x20 ADD SWAP1 DUP2 MSTORE PUSH1 0x20 ADD PUSH0 KECCAK256 SLOAD PUSH1 0x40 MLOAD PUSH2 0xAEE SWAP2 SWAP1 PUSH2 0x1168 JUMP JUMPDEST PUSH1 0x40 MLOAD DUP1 SWAP2 SUB SWAP1 LOG3 PUSH1 0x1 SWAP1 POP SWAP3 SWAP2 POP POP JUMP JUMPDEST PUSH0 DUP1 PUSH0 CALLER PUSH20 0xFFFFFFFFFFFFFFFFFFFFFFFFFFFFFFFFFFFFFFFF AND PUSH20 0xFFFFFFFFFFFFFFFFFFFFFFFFFFFFFFFFFFFFFFFF AND DUP2 MSTORE PUSH1 0x20 ADD SWAP1 DUP2 MSTORE PUSH1 0x20 ADD PUSH0 KECCAK256 SLOAD DUP3 GT ISZERO PUSH2 0xB49 JUMPI PUSH0 DUP1 REVERT JUMPDEST PUSH0 PUSH20 0xFFFFFFFFFFFFFFFFFFFFFFFFFFFFFFFFFFFFFFFF AND DUP4 PUSH20 0xFFFFFFFFFFFFFFFFFFFFFFFFFFFFFFFFFFFFFFFF AND SUB PUSH2 0xB80 JUMPI PUSH0 DUP1 REVERT JUMPDEST PUSH2 0xBCF DUP3 PUSH0 DUP1 CALLER PUSH20 0xFFFFFFFFFFFFFFFFFFFFFFFFFFFFFFFFFFFFFFFF AND PUSH20 0xFFFFFFFFFFFFFFFFFFFFFFFFFFFFFFFFFFFFFFFF AND DUP2 MSTORE PUSH1 0x20 ADD SWAP1 DUP2 MSTORE PUSH1 0x20 ADD PUSH0 KECCAK256 SLOAD PUSH2 0xD8F SWAP1 SWAP2 SWAP1 PUSH4 0xFFFFFFFF AND JUMP JUMPDEST PUSH0 DUP1 CALLER PUSH20 0xFFFFFFFFFFFFFFFFFFFFFFFFFFFFFFFFFFFFFFFF AND PUSH20 0xFFFFFFFFFFFFFFFFFFFFFFFFFFFFFFFFFFFFFFFF AND DUP2 MSTORE PUSH1 0x20 ADD SWAP1 DUP2 MSTORE PUSH1 0x20 ADD PUSH0 KECCAK256 DUP2 SWAP1 SSTORE POP PUSH2 0xC5E DUP3 PUSH0 DUP1 DUP7 PUSH20 0xFFFFFFFFFFFFFFFFFFFFFFFFFFFFFFFFFFFFFFFF AND PUSH20 0xFFFFFFFFFFFFFFFFFFFFFFFFFFFFFFFFFFFFFFFF AND DUP2 MSTORE PUSH1 0x20 ADD SWAP1 DUP2 MSTORE PUSH1 0x20 ADD PUSH0 KECCAK256 SLOAD PUSH2 0xF6F SWAP1 SWAP2 SWAP1 PUSH4 0xFFFFFFFF AND JUMP JUMPDEST PUSH0 DUP1 DUP6 PUSH20 0xFFFFFFFFFFFFFFFFFFFFFFFFFFFFFFFFFFFFFFFF AND PUSH20 0xFFFFFFFFFFFFFFFFFFFFFFFFFFFFFFFFFFFFFFFF AND DUP2 MSTORE PUSH1 0x20 ADD SWAP1 DUP2 MSTORE PUSH1 0x20 ADD PUSH0 KECCAK256 DUP2 SWAP1 SSTORE POP DUP3 PUSH20 0xFFFFFFFFFFFFFFFFFFFFFFFFFFFFFFFFFFFFFFFF AND CALLER PUSH20 0xFFFFFFFFFFFFFFFFFFFFFFFFFFFFFFFFFFFFFFFF AND PUSH32 0xDDF252AD1BE2C89B69C2B068FC378DAA952BA7F163C4A11628F55A4DF523B3EF DUP5 PUSH1 0x40 MLOAD PUSH2 0xCFB SWAP2 SWAP1 PUSH2 0x1168 JUMP JUMPDEST PUSH1 0x40 MLOAD DUP1 SWAP2 SUB SWAP1 LOG3 PUSH1 0x1 SWAP1 POP SWAP3 SWAP2 POP POP JUMP JUMPDEST PUSH0 PUSH1 0x1 PUSH0 DUP5 PUSH20 0xFFFFFFFFFFFFFFFFFFFFFFFFFFFFFFFFFFFFFFFF AND PUSH20 0xFFFFFFFFFFFFFFFFFFFFFFFFFFFFFFFFFFFFFFFF AND DUP2 MSTORE PUSH1 0x20 ADD SWAP1 DUP2 MSTORE PUSH1 0x20 ADD PUSH0 KECCAK256 PUSH0 DUP4 PUSH20 0xFFFFFFFFFFFFFFFFFFFFFFFFFFFFFFFFFFFFFFFF AND PUSH20 0xFFFFFFFFFFFFFFFFFFFFFFFFFFFFFFFFFFFFFFFF AND DUP2 MSTORE PUSH1 0x20 ADD SWAP1 DUP2 MSTORE PUSH1 0x20 ADD PUSH0 KECCAK256 SLOAD SWAP1 POP SWAP3 SWAP2 POP POP JUMP JUMPDEST PUSH0 DUP3 DUP3 DUP5 PUSH2 0xD9D SWAP2 SWAP1 PUSH2 0x129B JUMP JUMPDEST SWAP2 POP DUP2 GT ISZERO PUSH2 0xDE1 JUMPI PUSH1 0x40 MLOAD PUSH32 0x8C379A000000000000000000000000000000000000000000000000000000000 DUP2 MSTORE PUSH1 0x4 ADD PUSH2 0xDD8 SWAP1 PUSH2 0x1318 JUMP JUMPDEST PUSH1 0x40 MLOAD DUP1 SWAP2 SUB SWAP1 REVERT JUMPDEST SWAP3 SWAP2 POP POP JUMP JUMPDEST PUSH2 0xE36 DUP2 PUSH0 DUP1 DUP7 PUSH20 0xFFFFFFFFFFFFFFFFFFFFFFFFFFFFFFFFFFFFFFFF AND PUSH20 0xFFFFFFFFFFFFFFFFFFFFFFFFFFFFFFFFFFFFFFFF AND DUP2 MSTORE PUSH1 0x20 ADD SWAP1 DUP2 MSTORE PUSH1 0x20 ADD PUSH0 KECCAK256 SLOAD PUSH2 0xD8F SWAP1 SWAP2 SWAP1 PUSH4 0xFFFFFFFF AND JUMP JUMPDEST PUSH0 DUP1 DUP6 PUSH20 0xFFFFFFFFFFFFFFFFFFFFFFFFFFFFFFFFFFFFFFFF AND PUSH20 0xFFFFFFFFFFFFFFFFFFFFFFFFFFFFFFFFFFFFFFFF AND DUP2 MSTORE PUSH1 0x20 ADD SWAP1 DUP2 MSTORE PUSH1 0x20 ADD PUSH0 KECCAK256 DUP2 SWAP1 SSTORE POP PUSH2 0xEC5 DUP2 PUSH0 DUP1 DUP6 PUSH20 0xFFFFFFFFFFFFFFFFFFFFFFFFFFFFFFFFFFFFFFFF AND PUSH20 0xFFFFFFFFFFFFFFFFFFFFFFFFFFFFFFFFFFFFFFFF AND DUP2 MSTORE PUSH1 0x20 ADD SWAP1 DUP2 MSTORE PUSH1 0x20 ADD PUSH0 KECCAK256 SLOAD PUSH2 0xF6F SWAP1 SWAP2 SWAP1 PUSH4 0xFFFFFFFF AND JUMP JUMPDEST PUSH0 DUP1 DUP5 PUSH20 0xFFFFFFFFFFFFFFFFFFFFFFFFFFFFFFFFFFFFFFFF AND PUSH20 0xFFFFFFFFFFFFFFFFFFFFFFFFFFFFFFFFFFFFFFFF AND DUP2 MSTORE PUSH1 0x20 ADD SWAP1 DUP2 MSTORE PUSH1 0x20 ADD PUSH0 KECCAK256 DUP2 SWAP1 SSTORE POP DUP2 PUSH20 0xFFFFFFFFFFFFFFFFFFFFFFFFFFFFFFFFFFFFFFFF AND DUP4 PUSH20 0xFFFFFFFFFFFFFFFFFFFFFFFFFFFFFFFFFFFFFFFF AND PUSH32 0xDDF252AD1BE2C89B69C2B068FC378DAA952BA7F163C4A11628F55A4DF523B3EF DUP4 PUSH1 0x40 MLOAD PUSH2 0xF62 SWAP2 SWAP1 PUSH2 0x1168 JUMP JUMPDEST PUSH1 0x40 MLOAD DUP1 SWAP2 SUB SWAP1 LOG3 POP POP POP JUMP JUMPDEST PUSH0 DUP3 DUP3 DUP5 PUSH2 0xF7D SWAP2 SWAP1 PUSH2 0x1336 JUMP JUMPDEST SWAP2 POP DUP2 LT ISZERO PUSH2 0xFC1 JUMPI PUSH1 0x40 MLOAD PUSH32 0x8C379A000000000000000000000000000000000000000000000000000000000 DUP2 MSTORE PUSH1 0x4 ADD PUSH2 0xFB8 SWAP1 PUSH2 0x13B3 JUMP JUMPDEST PUSH1 0x40 MLOAD DUP1 SWAP2 SUB SWAP1 REVERT JUMPDEST SWAP3 SWAP2 POP POP JUMP JUMPDEST PUSH0 DUP2 MLOAD SWAP1 POP SWAP2 SWAP1 POP JUMP JUMPDEST PUSH0 DUP3 DUP3 MSTORE PUSH1 0x20 DUP3 ADD SWAP1 POP SWAP3 SWAP2 POP POP JUMP JUMPDEST DUP3 DUP2 DUP4 MCOPY PUSH0 DUP4 DUP4 ADD MSTORE POP POP POP JUMP JUMPDEST PUSH0 PUSH1 0x1F NOT PUSH1 0x1F DUP4 ADD AND SWAP1 POP SWAP2 SWAP1 POP JUMP JUMPDEST PUSH0 PUSH2 0x1009 DUP3 PUSH2 0xFC7 JUMP JUMPDEST PUSH2 0x1013 DUP2 DUP6 PUSH2 0xFD1 JUMP JUMPDEST SWAP4 POP PUSH2 0x1023 DUP2 DUP6 PUSH1 0x20 DUP7 ADD PUSH2 0xFE1 JUMP JUMPDEST PUSH2 0x102C DUP2 PUSH2 0xFEF JUMP JUMPDEST DUP5 ADD SWAP2 POP POP SWAP3 SWAP2 POP POP JUMP JUMPDEST PUSH0 PUSH1 0x20 DUP3 ADD SWAP1 POP DUP2 DUP2 SUB PUSH0 DUP4 ADD MSTORE PUSH2 0x104F DUP2 DUP5 PUSH2 0xFFF JUMP JUMPDEST SWAP1 POP SWAP3 SWAP2 POP POP JUMP JUMPDEST PUSH0 DUP1 REVERT JUMPDEST PUSH0 PUSH20 0xFFFFFFFFFFFFFFFFFFFFFFFFFFFFFFFFFFFFFFFF DUP3 AND SWAP1 POP SWAP2 SWAP1 POP JUMP JUMPDEST PUSH0 PUSH2 0x1084 DUP3 PUSH2 0x105B JUMP JUMPDEST SWAP1 POP SWAP2 SWAP1 POP JUMP JUMPDEST PUSH2 0x1094 DUP2 PUSH2 0x107A JUMP JUMPDEST DUP2 EQ PUSH2 0x109E JUMPI PUSH0 DUP1 REVERT JUMPDEST POP JUMP JUMPDEST PUSH0 DUP2 CALLDATALOAD SWAP1 POP PUSH2 0x10AF DUP2 PUSH2 0x108B JUMP JUMPDEST SWAP3 SWAP2 POP POP JUMP JUMPDEST PUSH0 DUP2 SWAP1 POP SWAP2 SWAP1 POP JUMP JUMPDEST PUSH2 0x10C7 DUP2 PUSH2 0x10B5 JUMP JUMPDEST DUP2 EQ PUSH2 0x10D1 JUMPI PUSH0 DUP1 REVERT JUMPDEST POP JUMP JUMPDEST PUSH0 DUP2 CALLDATALOAD SWAP1 POP PUSH2 0x10E2 DUP2 PUSH2 0x10BE JUMP JUMPDEST SWAP3 SWAP2 POP POP JUMP JUMPDEST PUSH0 DUP1 PUSH1 0x40 DUP4 DUP6 SUB SLT ISZERO PUSH2 0x10FE JUMPI PUSH2 0x10FD PUSH2 0x1057 JUMP JUMPDEST JUMPDEST PUSH0 PUSH2 0x110B DUP6 DUP3 DUP7 ADD PUSH2 0x10A1 JUMP JUMPDEST SWAP3 POP POP PUSH1 0x20 PUSH2 0x111C DUP6 DUP3 DUP7 ADD PUSH2 0x10D4 JUMP JUMPDEST SWAP2 POP POP SWAP3 POP SWAP3 SWAP1 POP JUMP JUMPDEST PUSH0 DUP2 ISZERO ISZERO SWAP1 POP SWAP2 SWAP1 POP JUMP JUMPDEST PUSH2 0x113A DUP2 PUSH2 0x1126 JUMP JUMPDEST DUP3 MSTORE POP POP JUMP JUMPDEST PUSH0 PUSH1 0x20 DUP3 ADD SWAP1 POP PUSH2 0x1153 PUSH0 DUP4 ADD DUP5 PUSH2 0x1131 JUMP JUMPDEST SWAP3 SWAP2 POP POP JUMP JUMPDEST PUSH2 0x1162 DUP2 PUSH2 0x10B5 JUMP JUMPDEST DUP3 MSTORE POP POP JUMP JUMPDEST PUSH0 PUSH1 0x20 DUP3 ADD SWAP1 POP PUSH2 0x117B PUSH0 DUP4 ADD DUP5 PUSH2 0x1159 JUMP JUMPDEST SWAP3 SWAP2 POP POP JUMP JUMPDEST PUSH0 DUP1 PUSH0 PUSH1 0x60 DUP5 DUP7 SUB SLT ISZERO PUSH2 0x1198 JUMPI PUSH2 0x1197 PUSH2 0x1057 JUMP JUMPDEST JUMPDEST PUSH0 PUSH2 0x11A5 DUP7 DUP3 DUP8 ADD PUSH2 0x10A1 JUMP JUMPDEST SWAP4 POP POP PUSH1 0x20 PUSH2 0x11B6 DUP7 DUP3 DUP8 ADD PUSH2 0x10A1 JUMP JUMPDEST SWAP3 POP POP PUSH1 0x40 PUSH2 0x11C7 DUP7 DUP3 DUP8 ADD PUSH2 0x10D4 JUMP JUMPDEST SWAP2 POP POP SWAP3 POP SWAP3 POP SWAP3 JUMP JUMPDEST PUSH0 PUSH1 0xFF DUP3 AND SWAP1 POP SWAP2 SWAP1 POP JUMP JUMPDEST PUSH2 0x11E6 DUP2 PUSH2 0x11D1 JUMP JUMPDEST DUP3 MSTORE POP POP JUMP JUMPDEST PUSH0 PUSH1 0x20 DUP3 ADD SWAP1 POP PUSH2 0x11FF PUSH0 DUP4 ADD DUP5 PUSH2 0x11DD JUMP JUMPDEST SWAP3 SWAP2 POP POP JUMP JUMPDEST PUSH0 PUSH1 0x20 DUP3 DUP5 SUB SLT ISZERO PUSH2 0x121A JUMPI PUSH2 0x1219 PUSH2 0x1057 JUMP JUMPDEST JUMPDEST PUSH0 PUSH2 0x1227 DUP5 DUP3 DUP6 ADD PUSH2 0x10A1 JUMP JUMPDEST SWAP2 POP POP SWAP3 SWAP2 POP POP JUMP JUMPDEST PUSH0 DUP1 PUSH1 0x40 DUP4 DUP6 SUB SLT ISZERO PUSH2 0x1246 JUMPI PUSH2 0x1245 PUSH2 0x1057 JUMP JUMPDEST JUMPDEST PUSH0 PUSH2 0x1253 DUP6 DUP3 DUP7 ADD PUSH2 0x10A1 JUMP JUMPDEST SWAP3 POP POP PUSH1 0x20 PUSH2 0x1264 DUP6 DUP3 DUP7 ADD PUSH2 0x10A1 JUMP JUMPDEST SWAP2 POP POP SWAP3 POP SWAP3 SWAP1 POP JUMP JUMPDEST PUSH32 0x4E487B7100000000000000000000000000000000000000000000000000000000 PUSH0 MSTORE PUSH1 0x11 PUSH1 0x4 MSTORE PUSH1 0x24 PUSH0 REVERT JUMPDEST PUSH0 PUSH2 0x12A5 DUP3 PUSH2 0x10B5 JUMP JUMPDEST SWAP2 POP PUSH2 0x12B0 DUP4 PUSH2 0x10B5 JUMP JUMPDEST SWAP3 POP DUP3 DUP3 SUB SWAP1 POP DUP2 DUP2 GT ISZERO PUSH2 0x12C8 JUMPI PUSH2 0x12C7 PUSH2 0x126E JUMP JUMPDEST JUMPDEST SWAP3 SWAP2 POP POP JUMP JUMPDEST PUSH32 0x64732D6D6174682D7375622D756E646572666C6F770000000000000000000000 PUSH0 DUP3 ADD MSTORE POP JUMP JUMPDEST PUSH0 PUSH2 0x1302 PUSH1 0x15 DUP4 PUSH2 0xFD1 JUMP JUMPDEST SWAP2 POP PUSH2 0x130D DUP3 PUSH2 0x12CE JUMP JUMPDEST PUSH1 0x20 DUP3 ADD SWAP1 POP SWAP2 SWAP1 POP JUMP JUMPDEST PUSH0 PUSH1 0x20 DUP3 ADD SWAP1 POP DUP2 DUP2 SUB PUSH0 DUP4 ADD MSTORE PUSH2 0x132F DUP2 PUSH2 0x12F6 JUMP JUMPDEST SWAP1 POP SWAP2 SWAP1 POP JUMP JUMPDEST PUSH0 PUSH2 0x1340 DUP3 PUSH2 0x10B5 JUMP JUMPDEST SWAP2 POP PUSH2 0x134B DUP4 PUSH2 0x10B5 JUMP JUMPDEST SWAP3 POP DUP3 DUP3 ADD SWAP1 POP DUP1 DUP3 GT ISZERO PUSH2 0x1363 JUMPI PUSH2 0x1362 PUSH2 0x126E JUMP JUMPDEST JUMPDEST SWAP3 SWAP2 POP POP JUMP JUMPDEST PUSH32 0x64732D6D6174682D6164642D6F766572666C6F77000000000000000000000000 PUSH0 DUP3 ADD MSTORE POP JUMP JUMPDEST PUSH0 PUSH2 0x139D PUSH1 0x14 DUP4 PUSH2 0xFD1 JUMP JUMPDEST SWAP2 POP PUSH2 0x13A8 DUP3 PUSH2 0x1369 JUMP JUMPDEST PUSH1 0x20 DUP3 ADD SWAP1 POP SWAP2 SWAP1 POP JUMP JUMPDEST PUSH0 PUSH1 0x20 DUP3 ADD SWAP1 POP DUP2 DUP2 SUB PUSH0 DUP4 ADD MSTORE PUSH2 0x13CA DUP2 PUSH2 0x1391 JUMP JUMPDEST SWAP1 POP SWAP2 SWAP1 POP JUMP INVALID LOG2 PUSH5 0x6970667358 0x22 SLT KECCAK256 LOG1 MSTORE8 0xD4 0xB7 TLOAD JUMPI 0xC1 0xB7 SWAP8 ADDRESS 0x2C 0x2C 0xC7 0xE1 0x2B SHR PUSH5 0x9E8ED125F7 PUSH1 0xD7 0xD9 EXP SELFBALANCE 0xAA DUP13 0xEA 0xDF 0xBE PUSH5 0x736F6C6343 STOP ADDMOD NOT STOP CALLER "
				},
				"gasEstimates": {
					"creation": {
						"codeDepositCost": "1025400",
						"executionCost": "25226",
						"totalCost": "1050626"
					},
					"external": {
						"_totalSupply()": "325",
						"allowance(address,address)": "infinite",
						"approve(address,uint256)": "infinite",
						"balanceOf(address)": "2851",
						"decimals()": "420",
						"decreaseAllowance(address,uint256)": "infinite",
						"increaseAllowance(address,uint256)": "infinite",
						"name()": "infinite",
						"symbol()": "infinite",
						"totalSupply()": "377",
						"transfer(address,uint256)": "infinite",
						"transferFrom(address,address,uint256)": "infinite"
					},
					"internal": {
						"_transfer(address,address,uint256)": "infinite"
					}
				},
				"methodIdentifiers": {
					"_totalSupply()": "3eaaf86b",
					"allowance(address,address)": "dd62ed3e",
					"approve(address,uint256)": "095ea7b3",
					"balanceOf(address)": "70a08231",
					"decimals()": "313ce567",
					"decreaseAllowance(address,uint256)": "a457c2d7",
					"increaseAllowance(address,uint256)": "39509351",
					"name()": "06fdde03",
					"symbol()": "95d89b41",
					"totalSupply()": "18160ddd",
					"transfer(address,uint256)": "a9059cbb",
					"transferFrom(address,address,uint256)": "23b872dd"
				}
			},
			"storageLayout": {
				"storage": [
					{
						"astId": 26,
						"contract": "project/LuluToken.sol:LuluToken",
						"label": "_balances",
						"offset": 0,
						"slot": "0",
						"type": "t_mapping(t_address,t_uint256)"
					},
					{
						"astId": 32,
						"contract": "project/LuluToken.sol:LuluToken",
						"label": "_allowed",
						"offset": 0,
						"slot": "1",
						"type": "t_mapping(t_address,t_mapping(t_address,t_uint256))"
					}
				],
				"types": {
					"t_address": {
						"encoding": "inplace",
						"label": "address",
						"numberOfBytes": "20"
					},
					"t_mapping(t_address,t_mapping(t_address,t_uint256))": {
						"encoding": "mapping",
						"key": "t_address",
						"label": "mapping(address => mapping(address => uint256))",
						"numberOfBytes": "32",
						"value": "t_mapping(t_address,t_uint256)"
					},
					"t_mapping(t_address,t_uint256)": {
						"encoding": "mapping",
						"key": "t_address",
						"label": "mapping(address => uint256)",
						"numberOfBytes": "32",
						"value": "t_uint256"
					},
					"t_uint256": {
						"encoding": "inplace",
						"label": "uint256",
						"numberOfBytes": "32"
					}
				}
			},
			"userdoc": {
				"kind": "user",
				"methods": {
					"allowance(address,address)": {
						"notice": "Function to check the amount of tokens that an owner allowed to a spender."
					}
				},
				"version": 1
			}
		}
	}
}