{
	"project/newToken.sol": {
		"Sushi": {
			"abi": [
				{
					"inputs": [],
					"stateMutability": "nonpayable",
					"type": "constructor"
				},
				{
					"anonymous": false,
					"inputs": [
						{
							"indexed": true,
							"internalType": "address",
							"name": "owner",
							"type": "address"
						},
						{
							"indexed": true,
							"internalType": "address",
							"name": "spender",
							"type": "address"
						},
						{
							"indexed": false,
							"internalType": "uint256",
							"name": "value",
							"type": "uint256"
						}
					],
					"name": "Approval",
					"type": "event"
				},
				{
					"anonymous": false,
					"inputs": [
						{
							"indexed": true,
							"internalType": "address",
							"name": "from",
							"type": "address"
						},
						{
							"indexed": true,
							"internalType": "address",
							"name": "to",
							"type": "address"
						},
						{
							"indexed": false,
							"internalType": "uint256",
							"name": "value",
							"type": "uint256"
						}
					],
					"name": "Transfer",
					"type": "event"
				},
				{
					"inputs": [],
					"name": "_totalSupply",
					"outputs": [
						{
							"internalType": "uint256",
							"name": "",
							"type": "uint256"
						}
					],
					"stateMutability": "view",
					"type": "function"
				},
				{
					"inputs": [
						{
							"internalType": "address",
							"name": "owner",
							"type": "address"
						},
						{
							"internalType": "address",
							"name": "spender",
							"type": "address"
						}
					],
					"name": "allowance",
					"outputs": [
						{
							"internalType": "uint256",
							"name": "",
							"type": "uint256"
						}
					],
					"stateMutability": "view",
					"type": "function"
				},
				{
					"inputs": [
						{
							"internalType": "address",
							"name": "spender",
							"type": "address"
						},
						{
							"internalType": "uint256",
							"name": "value",
							"type": "uint256"
						}
					],
					"name": "approve",
					"outputs": [
						{
							"internalType": "bool",
							"name": "",
							"type": "bool"
						}
					],
					"stateMutability": "nonpayable",
					"type": "function"
				},
				{
					"inputs": [
						{
							"internalType": "address",
							"name": "owner",
							"type": "address"
						}
					],
					"name": "balanceOf",
					"outputs": [
						{
							"internalType": "uint256",
							"name": "",
							"type": "uint256"
						}
					],
					"stateMutability": "view",
					"type": "function"
				},
				{
					"inputs": [
						{
							"internalType": "string",
							"name": "newSymbol",
							"type": "string"
						}
					],
					"name": "changeSymbol",
					"outputs": [],
					"stateMutability": "nonpayable",
					"type": "function"
				},
				{
					"inputs": [],
					"name": "decimals",
					"outputs": [
						{
							"internalType": "uint8",
							"name": "",
							"type": "uint8"
						}
					],
					"stateMutability": "view",
					"type": "function"
				},
				{
					"inputs": [
						{
							"internalType": "address",
							"name": "spender",
							"type": "address"
						},
						{
							"internalType": "uint256",
							"name": "subtractedValue",
							"type": "uint256"
						}
					],
					"name": "decreaseAllowance",
					"outputs": [
						{
							"internalType": "bool",
							"name": "",
							"type": "bool"
						}
					],
					"stateMutability": "nonpayable",
					"type": "function"
				},
				{
					"inputs": [
						{
							"internalType": "address",
							"name": "spender",
							"type": "address"
						},
						{
							"internalType": "uint256",
							"name": "addedValue",
							"type": "uint256"
						}
					],
					"name": "increaseAllowance",
					"outputs": [
						{
							"internalType": "bool",
							"name": "",
							"type": "bool"
						}
					],
					"stateMutability": "nonpayable",
					"type": "function"
				},
				{
					"inputs": [],
					"name": "name",
					"outputs": [
						{
							"internalType": "string",
							"name": "",
							"type": "string"
						}
					],
					"stateMutability": "view",
					"type": "function"
				},
				{
					"inputs": [],
					"name": "symbol",
					"outputs": [
						{
							"internalType": "string",
							"name": "",
							"type": "string"
						}
					],
					"stateMutability": "view",
					"type": "function"
				},
				{
					"inputs": [],
					"name": "totalSupply",
					"outputs": [
						{
							"internalType": "uint256",
							"name": "",
							"type": "uint256"
						}
					],
					"stateMutability": "pure",
					"type": "function"
				},
				{
					"inputs": [
						{
							"internalType": "address",
							"name": "to",
							"type": "address"
						},
						{
							"internalType": "uint256",
							"name": "value",
							"type": "uint256"
						}
					],
					"name": "transfer",
					"outputs": [
						{
							"internalType": "bool",
							"name": "",
							"type": "bool"
						}
					],
					"stateMutability": "nonpayable",
					"type": "function"
				},
				{
					"inputs": [
						{
							"internalType": "address",
							"name": "from",
							"type": "address"
						},
						{
							"internalType": "address",
							"name": "to",
							"type": "address"
						},
						{
							"internalType": "uint256",
							"name": "value",
							"type": "uint256"
						}
					],
					"name": "transferFrom",
					"outputs": [
						{
							"internalType": "bool",
							"name": "",
							"type": "bool"
						}
					],
					"stateMutability": "nonpayable",
					"type": "function"
				}
			],
			"devdoc": {
				"kind": "dev",
				"methods": {},
				"version": 1
			},
			"evm": {
				"assembly": "    /* \"project/newToken.sol\":131:4064  contract Sushi is IERC20 {... */\n  mstore(0x40, 0x80)\n    /* \"project/newToken.sol\":333:361  string public symbol = \"SHS\" */\n  mload(0x40)\n  dup1\n  0x40\n  add\n  0x40\n  mstore\n  dup1\n  0x03\n  dup2\n  mstore\n  0x20\n  add\n  0x5348530000000000000000000000000000000000000000000000000000000000\n  dup2\n  mstore\n  pop\n  0x00\n  swap1\n  dup2\n  tag_1\n  swap2\n  swap1\n  tag_2\n  jump\t// in\ntag_1:\n  pop\n    /* \"project/newToken.sol\":581:741  constructor() {... */\n  callvalue\n  dup1\n  iszero\n  tag_3\n  jumpi\n  0x00\n  dup1\n  revert\ntag_3:\n  pop\n    /* \"project/newToken.sol\":231:237  10**13 */\n  0x09184e72a000\n    /* \"project/newToken.sol\":605:614  _balances */\n  0x01\n    /* \"project/newToken.sol\":605:626  _balances[msg.sender] */\n  0x00\n    /* \"project/newToken.sol\":615:625  msg.sender */\n  caller\n    /* \"project/newToken.sol\":605:626  _balances[msg.sender] */\n  0xffffffffffffffffffffffffffffffffffffffff\n  and\n  0xffffffffffffffffffffffffffffffffffffffff\n  and\n  dup2\n  mstore\n  0x20\n  add\n  swap1\n  dup2\n  mstore\n  0x20\n  add\n  0x00\n  keccak256\n    /* \"project/newToken.sol\":605:641  _balances[msg.sender] = _totalSupply */\n  dup2\n  swap1\n  sstore\n  pop\n    /* \"project/newToken.sol\":651:673  _addHolder(msg.sender) */\n  tag_6\n    /* \"project/newToken.sol\":662:672  msg.sender */\n  caller\n    /* \"project/newToken.sol\":651:661  _addHolder */\n  shl(0x20, tag_7)\n    /* \"project/newToken.sol\":651:673  _addHolder(msg.sender) */\n  0x20\n  shr\n  jump\t// in\ntag_6:\n    /* \"project/newToken.sol\":709:719  msg.sender */\n  caller\n    /* \"project/newToken.sol\":688:734  Transfer(address(0), msg.sender, _totalSupply) */\n  0xffffffffffffffffffffffffffffffffffffffff\n  and\n    /* \"project/newToken.sol\":705:706  0 */\n  0x00\n    /* \"project/newToken.sol\":688:734  Transfer(address(0), msg.sender, _totalSupply) */\n  0xffffffffffffffffffffffffffffffffffffffff\n  and\n  0xddf252ad1be2c89b69c2b068fc378daa952ba7f163c4a11628f55a4df523b3ef\n    /* \"project/newToken.sol\":231:237  10**13 */\n  0x09184e72a000\n    /* \"project/newToken.sol\":688:734  Transfer(address(0), msg.sender, _totalSupply) */\n  mload(0x40)\n  tag_8\n  swap2\n  swap1\n  tag_9\n  jump\t// in\ntag_8:\n  mload(0x40)\n  dup1\n  swap2\n  sub\n  swap1\n  log3\n    /* \"project/newToken.sol\":131:4064  contract Sushi is IERC20 {... */\n  jump(tag_10)\n    /* \"project/newToken.sol\":3610:3727  function _addHolder(address holder) internal {... */\ntag_7:\n    /* \"project/newToken.sol\":3685:3689  true */\n  0x01\n    /* \"project/newToken.sol\":3665:3674  _isHolder */\n  0x04\n    /* \"project/newToken.sol\":3665:3682  _isHolder[holder] */\n  0x00\n    /* \"project/newToken.sol\":3675:3681  holder */\n  dup4\n    /* \"project/newToken.sol\":3665:3682  _isHolder[holder] */\n  0xffffffffffffffffffffffffffffffffffffffff\n  and\n  0xffffffffffffffffffffffffffffffffffffffff\n  and\n  dup2\n  mstore\n  0x20\n  add\n  swap1\n  dup2\n  mstore\n  0x20\n  add\n  0x00\n  keccak256\n  0x00\n    /* \"project/newToken.sol\":3665:3689  _isHolder[holder] = true */\n  0x0100\n  exp\n  dup2\n  sload\n  dup2\n  0xff\n  mul\n  not\n  and\n  swap1\n  dup4\n  iszero\n  iszero\n  mul\n  or\n  swap1\n  sstore\n  pop\n    /* \"project/newToken.sol\":3699:3707  _holders */\n  0x03\n    /* \"project/newToken.sol\":3713:3719  holder */\n  dup2\n    /* \"project/newToken.sol\":3699:3720  _holders.push(holder) */\n  swap1\n  dup1\n  0x01\n  dup2\n  sload\n  add\n  dup1\n  dup3\n  sstore\n  dup1\n  swap2\n  pop\n  pop\n  0x01\n  swap1\n  sub\n  swap1\n  0x00\n  mstore\n  keccak256(0x00, 0x20)\n  add\n  0x00\n  swap1\n  swap2\n  swap1\n  swap2\n  swap1\n  swap2\n  0x0100\n  exp\n  dup2\n  sload\n  dup2\n  0xffffffffffffffffffffffffffffffffffffffff\n  mul\n  not\n  and\n  swap1\n  dup4\n  0xffffffffffffffffffffffffffffffffffffffff\n  and\n  mul\n  or\n  swap1\n  sstore\n  pop\n    /* \"project/newToken.sol\":3610:3727  function _addHolder(address holder) internal {... */\n  pop\n  jump\t// out\n    /* \"#utility.yul\":7:106   */\ntag_13:\n    /* \"#utility.yul\":59:65   */\n  0x00\n    /* \"#utility.yul\":93:98   */\n  dup2\n    /* \"#utility.yul\":87:99   */\n  mload\n    /* \"#utility.yul\":77:99   */\n  swap1\n  pop\n    /* \"#utility.yul\":7:106   */\n  swap2\n  swap1\n  pop\n  jump\t// out\n    /* \"#utility.yul\":112:292   */\ntag_14:\n    /* \"#utility.yul\":160:237   */\n  0x4e487b7100000000000000000000000000000000000000000000000000000000\n    /* \"#utility.yul\":157:158   */\n  0x00\n    /* \"#utility.yul\":150:238   */\n  mstore\n    /* \"#utility.yul\":257:261   */\n  0x41\n    /* \"#utility.yul\":254:255   */\n  0x04\n    /* \"#utility.yul\":247:262   */\n  mstore\n    /* \"#utility.yul\":281:285   */\n  0x24\n    /* \"#utility.yul\":278:279   */\n  0x00\n    /* \"#utility.yul\":271:286   */\n  revert\n    /* \"#utility.yul\":298:478   */\ntag_15:\n    /* \"#utility.yul\":346:423   */\n  0x4e487b7100000000000000000000000000000000000000000000000000000000\n    /* \"#utility.yul\":343:344   */\n  0x00\n    /* \"#utility.yul\":336:424   */\n  mstore\n    /* \"#utility.yul\":443:447   */\n  0x22\n    /* \"#utility.yul\":440:441   */\n  0x04\n    /* \"#utility.yul\":433:448   */\n  mstore\n    /* \"#utility.yul\":467:471   */\n  0x24\n    /* \"#utility.yul\":464:465   */\n  0x00\n    /* \"#utility.yul\":457:472   */\n  revert\n    /* \"#utility.yul\":484:804   */\ntag_16:\n    /* \"#utility.yul\":528:534   */\n  0x00\n    /* \"#utility.yul\":565:566   */\n  0x02\n    /* \"#utility.yul\":559:563   */\n  dup3\n    /* \"#utility.yul\":555:567   */\n  div\n    /* \"#utility.yul\":545:567   */\n  swap1\n  pop\n    /* \"#utility.yul\":612:613   */\n  0x01\n    /* \"#utility.yul\":606:610   */\n  dup3\n    /* \"#utility.yul\":602:614   */\n  and\n    /* \"#utility.yul\":633:651   */\n  dup1\n    /* \"#utility.yul\":623:704   */\n  tag_39\n  jumpi\n    /* \"#utility.yul\":689:693   */\n  0x7f\n    /* \"#utility.yul\":681:687   */\n  dup3\n    /* \"#utility.yul\":677:694   */\n  and\n    /* \"#utility.yul\":667:694   */\n  swap2\n  pop\n    /* \"#utility.yul\":623:704   */\ntag_39:\n    /* \"#utility.yul\":751:753   */\n  0x20\n    /* \"#utility.yul\":743:749   */\n  dup3\n    /* \"#utility.yul\":740:754   */\n  lt\n    /* \"#utility.yul\":720:738   */\n  dup2\n    /* \"#utility.yul\":717:755   */\n  sub\n    /* \"#utility.yul\":714:798   */\n  tag_40\n  jumpi\n    /* \"#utility.yul\":770:788   */\n  tag_41\n  tag_15\n  jump\t// in\ntag_41:\n    /* \"#utility.yul\":714:798   */\ntag_40:\n    /* \"#utility.yul\":535:804   */\n  pop\n    /* \"#utility.yul\":484:804   */\n  swap2\n  swap1\n  pop\n  jump\t// out\n    /* \"#utility.yul\":810:951   */\ntag_17:\n    /* \"#utility.yul\":859:863   */\n  0x00\n    /* \"#utility.yul\":882:885   */\n  dup2\n    /* \"#utility.yul\":874:885   */\n  swap1\n  pop\n    /* \"#utility.yul\":905:908   */\n  dup2\n    /* \"#utility.yul\":902:903   */\n  0x00\n    /* \"#utility.yul\":895:909   */\n  mstore\n    /* \"#utility.yul\":939:943   */\n  0x20\n    /* \"#utility.yul\":936:937   */\n  0x00\n    /* \"#utility.yul\":926:944   */\n  keccak256\n    /* \"#utility.yul\":918:944   */\n  swap1\n  pop\n    /* \"#utility.yul\":810:951   */\n  swap2\n  swap1\n  pop\n  jump\t// out\n    /* \"#utility.yul\":957:1050   */\ntag_18:\n    /* \"#utility.yul\":994:1000   */\n  0x00\n    /* \"#utility.yul\":1041:1043   */\n  0x20\n    /* \"#utility.yul\":1036:1038   */\n  0x1f\n    /* \"#utility.yul\":1029:1034   */\n  dup4\n    /* \"#utility.yul\":1025:1039   */\n  add\n    /* \"#utility.yul\":1021:1044   */\n  div\n    /* \"#utility.yul\":1011:1044   */\n  swap1\n  pop\n    /* \"#utility.yul\":957:1050   */\n  swap2\n  swap1\n  pop\n  jump\t// out\n    /* \"#utility.yul\":1056:1163   */\ntag_19:\n    /* \"#utility.yul\":1100:1108   */\n  0x00\n    /* \"#utility.yul\":1150:1155   */\n  dup3\n    /* \"#utility.yul\":1144:1148   */\n  dup3\n    /* \"#utility.yul\":1140:1156   */\n  shl\n    /* \"#utility.yul\":1119:1156   */\n  swap1\n  pop\n    /* \"#utility.yul\":1056:1163   */\n  swap3\n  swap2\n  pop\n  pop\n  jump\t// out\n    /* \"#utility.yul\":1169:1562   */\ntag_20:\n    /* \"#utility.yul\":1238:1244   */\n  0x00\n    /* \"#utility.yul\":1288:1289   */\n  0x08\n    /* \"#utility.yul\":1276:1286   */\n  dup4\n    /* \"#utility.yul\":1272:1290   */\n  mul\n    /* \"#utility.yul\":1311:1408   */\n  tag_46\n    /* \"#utility.yul\":1341:1407   */\n  0xffffffffffffffffffffffffffffffffffffffffffffffffffffffffffffffff\n    /* \"#utility.yul\":1330:1339   */\n  dup3\n    /* \"#utility.yul\":1311:1408   */\n  tag_19\n  jump\t// in\ntag_46:\n    /* \"#utility.yul\":1429:1468   */\n  tag_47\n    /* \"#utility.yul\":1459:1467   */\n  dup7\n    /* \"#utility.yul\":1448:1457   */\n  dup4\n    /* \"#utility.yul\":1429:1468   */\n  tag_19\n  jump\t// in\ntag_47:\n    /* \"#utility.yul\":1417:1468   */\n  swap6\n  pop\n    /* \"#utility.yul\":1501:1505   */\n  dup1\n    /* \"#utility.yul\":1497:1506   */\n  not\n    /* \"#utility.yul\":1490:1495   */\n  dup5\n    /* \"#utility.yul\":1486:1507   */\n  and\n    /* \"#utility.yul\":1477:1507   */\n  swap4\n  pop\n    /* \"#utility.yul\":1550:1554   */\n  dup1\n    /* \"#utility.yul\":1540:1548   */\n  dup7\n    /* \"#utility.yul\":1536:1555   */\n  and\n    /* \"#utility.yul\":1529:1534   */\n  dup5\n    /* \"#utility.yul\":1526:1556   */\n  or\n    /* \"#utility.yul\":1516:1556   */\n  swap3\n  pop\n    /* \"#utility.yul\":1245:1562   */\n  pop\n  pop\n    /* \"#utility.yul\":1169:1562   */\n  swap4\n  swap3\n  pop\n  pop\n  pop\n  jump\t// out\n    /* \"#utility.yul\":1568:1645   */\ntag_21:\n    /* \"#utility.yul\":1605:1612   */\n  0x00\n    /* \"#utility.yul\":1634:1639   */\n  dup2\n    /* \"#utility.yul\":1623:1639   */\n  swap1\n  pop\n    /* \"#utility.yul\":1568:1645   */\n  swap2\n  swap1\n  pop\n  jump\t// out\n    /* \"#utility.yul\":1651:1711   */\ntag_22:\n    /* \"#utility.yul\":1679:1682   */\n  0x00\n    /* \"#utility.yul\":1700:1705   */\n  dup2\n    /* \"#utility.yul\":1693:1705   */\n  swap1\n  pop\n    /* \"#utility.yul\":1651:1711   */\n  swap2\n  swap1\n  pop\n  jump\t// out\n    /* \"#utility.yul\":1717:1859   */\ntag_23:\n    /* \"#utility.yul\":1767:1776   */\n  0x00\n    /* \"#utility.yul\":1800:1853   */\n  tag_51\n    /* \"#utility.yul\":1818:1852   */\n  tag_52\n    /* \"#utility.yul\":1827:1851   */\n  tag_53\n    /* \"#utility.yul\":1845:1850   */\n  dup5\n    /* \"#utility.yul\":1827:1851   */\n  tag_21\n  jump\t// in\ntag_53:\n    /* \"#utility.yul\":1818:1852   */\n  tag_22\n  jump\t// in\ntag_52:\n    /* \"#utility.yul\":1800:1853   */\n  tag_21\n  jump\t// in\ntag_51:\n    /* \"#utility.yul\":1787:1853   */\n  swap1\n  pop\n    /* \"#utility.yul\":1717:1859   */\n  swap2\n  swap1\n  pop\n  jump\t// out\n    /* \"#utility.yul\":1865:1940   */\ntag_24:\n    /* \"#utility.yul\":1908:1911   */\n  0x00\n    /* \"#utility.yul\":1929:1934   */\n  dup2\n    /* \"#utility.yul\":1922:1934   */\n  swap1\n  pop\n    /* \"#utility.yul\":1865:1940   */\n  swap2\n  swap1\n  pop\n  jump\t// out\n    /* \"#utility.yul\":1946:2215   */\ntag_25:\n    /* \"#utility.yul\":2056:2095   */\n  tag_56\n    /* \"#utility.yul\":2087:2094   */\n  dup4\n    /* \"#utility.yul\":2056:2095   */\n  tag_23\n  jump\t// in\ntag_56:\n    /* \"#utility.yul\":2117:2208   */\n  tag_57\n    /* \"#utility.yul\":2166:2207   */\n  tag_58\n    /* \"#utility.yul\":2190:2206   */\n  dup3\n    /* \"#utility.yul\":2166:2207   */\n  tag_24\n  jump\t// in\ntag_58:\n    /* \"#utility.yul\":2158:2164   */\n  dup5\n    /* \"#utility.yul\":2151:2155   */\n  dup5\n    /* \"#utility.yul\":2145:2156   */\n  sload\n    /* \"#utility.yul\":2117:2208   */\n  tag_20\n  jump\t// in\ntag_57:\n    /* \"#utility.yul\":2111:2115   */\n  dup3\n    /* \"#utility.yul\":2104:2209   */\n  sstore\n    /* \"#utility.yul\":2022:2215   */\n  pop\n    /* \"#utility.yul\":1946:2215   */\n  pop\n  pop\n  pop\n  jump\t// out\n    /* \"#utility.yul\":2221:2294   */\ntag_26:\n    /* \"#utility.yul\":2266:2269   */\n  0x00\n    /* \"#utility.yul\":2221:2294   */\n  swap1\n  jump\t// out\n    /* \"#utility.yul\":2300:2489   */\ntag_27:\n    /* \"#utility.yul\":2377:2409   */\n  tag_61\n  tag_26\n  jump\t// in\ntag_61:\n    /* \"#utility.yul\":2418:2483   */\n  tag_62\n    /* \"#utility.yul\":2476:2482   */\n  dup2\n    /* \"#utility.yul\":2468:2474   */\n  dup5\n    /* \"#utility.yul\":2462:2466   */\n  dup5\n    /* \"#utility.yul\":2418:2483   */\n  tag_25\n  jump\t// in\ntag_62:\n    /* \"#utility.yul\":2353:2489   */\n  pop\n    /* \"#utility.yul\":2300:2489   */\n  pop\n  pop\n  jump\t// out\n    /* \"#utility.yul\":2495:2681   */\ntag_28:\n    /* \"#utility.yul\":2555:2675   */\ntag_64:\n    /* \"#utility.yul\":2572:2575   */\n  dup2\n    /* \"#utility.yul\":2565:2570   */\n  dup2\n    /* \"#utility.yul\":2562:2576   */\n  lt\n    /* \"#utility.yul\":2555:2675   */\n  iszero\n  tag_66\n  jumpi\n    /* \"#utility.yul\":2626:2665   */\n  tag_67\n    /* \"#utility.yul\":2663:2664   */\n  0x00\n    /* \"#utility.yul\":2656:2661   */\n  dup3\n    /* \"#utility.yul\":2626:2665   */\n  tag_27\n  jump\t// in\ntag_67:\n    /* \"#utility.yul\":2599:2600   */\n  0x01\n    /* \"#utility.yul\":2592:2597   */\n  dup2\n    /* \"#utility.yul\":2588:2601   */\n  add\n    /* \"#utility.yul\":2579:2601   */\n  swap1\n  pop\n    /* \"#utility.yul\":2555:2675   */\n  jump(tag_64)\ntag_66:\n    /* \"#utility.yul\":2495:2681   */\n  pop\n  pop\n  jump\t// out\n    /* \"#utility.yul\":2687:3230   */\ntag_29:\n    /* \"#utility.yul\":2788:2790   */\n  0x1f\n    /* \"#utility.yul\":2783:2786   */\n  dup3\n    /* \"#utility.yul\":2780:2791   */\n  gt\n    /* \"#utility.yul\":2777:3223   */\n  iszero\n  tag_69\n  jumpi\n    /* \"#utility.yul\":2822:2860   */\n  tag_70\n    /* \"#utility.yul\":2854:2859   */\n  dup2\n    /* \"#utility.yul\":2822:2860   */\n  tag_17\n  jump\t// in\ntag_70:\n    /* \"#utility.yul\":2906:2935   */\n  tag_71\n    /* \"#utility.yul\":2924:2934   */\n  dup5\n    /* \"#utility.yul\":2906:2935   */\n  tag_18\n  jump\t// in\ntag_71:\n    /* \"#utility.yul\":2896:2904   */\n  dup2\n    /* \"#utility.yul\":2892:2936   */\n  add\n    /* \"#utility.yul\":3089:3091   */\n  0x20\n    /* \"#utility.yul\":3077:3087   */\n  dup6\n    /* \"#utility.yul\":3074:3092   */\n  lt\n    /* \"#utility.yul\":3071:3120   */\n  iszero\n  tag_72\n  jumpi\n    /* \"#utility.yul\":3110:3118   */\n  dup2\n    /* \"#utility.yul\":3095:3118   */\n  swap1\n  pop\n    /* \"#utility.yul\":3071:3120   */\ntag_72:\n    /* \"#utility.yul\":3133:3213   */\n  tag_73\n    /* \"#utility.yul\":3189:3211   */\n  tag_74\n    /* \"#utility.yul\":3207:3210   */\n  dup6\n    /* \"#utility.yul\":3189:3211   */\n  tag_18\n  jump\t// in\ntag_74:\n    /* \"#utility.yul\":3179:3187   */\n  dup4\n    /* \"#utility.yul\":3175:3212   */\n  add\n    /* \"#utility.yul\":3162:3173   */\n  dup3\n    /* \"#utility.yul\":3133:3213   */\n  tag_28\n  jump\t// in\ntag_73:\n    /* \"#utility.yul\":2792:3223   */\n  pop\n  pop\n    /* \"#utility.yul\":2777:3223   */\ntag_69:\n    /* \"#utility.yul\":2687:3230   */\n  pop\n  pop\n  pop\n  jump\t// out\n    /* \"#utility.yul\":3236:3353   */\ntag_30:\n    /* \"#utility.yul\":3290:3298   */\n  0x00\n    /* \"#utility.yul\":3340:3345   */\n  dup3\n    /* \"#utility.yul\":3334:3338   */\n  dup3\n    /* \"#utility.yul\":3330:3346   */\n  shr\n    /* \"#utility.yul\":3309:3346   */\n  swap1\n  pop\n    /* \"#utility.yul\":3236:3353   */\n  swap3\n  swap2\n  pop\n  pop\n  jump\t// out\n    /* \"#utility.yul\":3359:3528   */\ntag_31:\n    /* \"#utility.yul\":3403:3409   */\n  0x00\n    /* \"#utility.yul\":3436:3487   */\n  tag_77\n    /* \"#utility.yul\":3484:3485   */\n  0x00\n    /* \"#utility.yul\":3480:3486   */\n  not\n    /* \"#utility.yul\":3472:3477   */\n  dup5\n    /* \"#utility.yul\":3469:3470   */\n  0x08\n    /* \"#utility.yul\":3465:3478   */\n  mul\n    /* \"#utility.yul\":3436:3487   */\n  tag_30\n  jump\t// in\ntag_77:\n    /* \"#utility.yul\":3432:3488   */\n  not\n    /* \"#utility.yul\":3517:3521   */\n  dup1\n    /* \"#utility.yul\":3511:3515   */\n  dup4\n    /* \"#utility.yul\":3507:3522   */\n  and\n    /* \"#utility.yul\":3497:3522   */\n  swap2\n  pop\n    /* \"#utility.yul\":3410:3528   */\n  pop\n    /* \"#utility.yul\":3359:3528   */\n  swap3\n  swap2\n  pop\n  pop\n  jump\t// out\n    /* \"#utility.yul\":3533:3828   */\ntag_32:\n    /* \"#utility.yul\":3609:3613   */\n  0x00\n    /* \"#utility.yul\":3755:3784   */\n  tag_79\n    /* \"#utility.yul\":3780:3783   */\n  dup4\n    /* \"#utility.yul\":3774:3778   */\n  dup4\n    /* \"#utility.yul\":3755:3784   */\n  tag_31\n  jump\t// in\ntag_79:\n    /* \"#utility.yul\":3747:3784   */\n  swap2\n  pop\n    /* \"#utility.yul\":3817:3820   */\n  dup3\n    /* \"#utility.yul\":3814:3815   */\n  0x02\n    /* \"#utility.yul\":3810:3821   */\n  mul\n    /* \"#utility.yul\":3804:3808   */\n  dup3\n    /* \"#utility.yul\":3801:3822   */\n  or\n    /* \"#utility.yul\":3793:3822   */\n  swap1\n  pop\n    /* \"#utility.yul\":3533:3828   */\n  swap3\n  swap2\n  pop\n  pop\n  jump\t// out\n    /* \"#utility.yul\":3833:5228   */\ntag_2:\n    /* \"#utility.yul\":3950:3987   */\n  tag_81\n    /* \"#utility.yul\":3983:3986   */\n  dup3\n    /* \"#utility.yul\":3950:3987   */\n  tag_13\n  jump\t// in\ntag_81:\n    /* \"#utility.yul\":4052:4070   */\n  0xffffffffffffffff\n    /* \"#utility.yul\":4044:4050   */\n  dup2\n    /* \"#utility.yul\":4041:4071   */\n  gt\n    /* \"#utility.yul\":4038:4094   */\n  iszero\n  tag_82\n  jumpi\n    /* \"#utility.yul\":4074:4092   */\n  tag_83\n  tag_14\n  jump\t// in\ntag_83:\n    /* \"#utility.yul\":4038:4094   */\ntag_82:\n    /* \"#utility.yul\":4118:4156   */\n  tag_84\n    /* \"#utility.yul\":4150:4154   */\n  dup3\n    /* \"#utility.yul\":4144:4155   */\n  sload\n    /* \"#utility.yul\":4118:4156   */\n  tag_16\n  jump\t// in\ntag_84:\n    /* \"#utility.yul\":4203:4270   */\n  tag_85\n    /* \"#utility.yul\":4263:4269   */\n  dup3\n    /* \"#utility.yul\":4255:4261   */\n  dup3\n    /* \"#utility.yul\":4249:4253   */\n  dup6\n    /* \"#utility.yul\":4203:4270   */\n  tag_29\n  jump\t// in\ntag_85:\n    /* \"#utility.yul\":4297:4298   */\n  0x00\n    /* \"#utility.yul\":4321:4325   */\n  0x20\n    /* \"#utility.yul\":4308:4325   */\n  swap1\n  pop\n    /* \"#utility.yul\":4353:4355   */\n  0x1f\n    /* \"#utility.yul\":4345:4351   */\n  dup4\n    /* \"#utility.yul\":4342:4356   */\n  gt\n    /* \"#utility.yul\":4370:4371   */\n  0x01\n    /* \"#utility.yul\":4365:4983   */\n  dup2\n  eq\n  tag_87\n  jumpi\n    /* \"#utility.yul\":5027:5028   */\n  0x00\n    /* \"#utility.yul\":5044:5050   */\n  dup5\n    /* \"#utility.yul\":5041:5118   */\n  iszero\n  tag_88\n  jumpi\n    /* \"#utility.yul\":5093:5102   */\n  dup3\n    /* \"#utility.yul\":5088:5091   */\n  dup8\n    /* \"#utility.yul\":5084:5103   */\n  add\n    /* \"#utility.yul\":5078:5104   */\n  mload\n    /* \"#utility.yul\":5069:5104   */\n  swap1\n  pop\n    /* \"#utility.yul\":5041:5118   */\ntag_88:\n    /* \"#utility.yul\":5144:5211   */\n  tag_89\n    /* \"#utility.yul\":5204:5210   */\n  dup6\n    /* \"#utility.yul\":5197:5202   */\n  dup3\n    /* \"#utility.yul\":5144:5211   */\n  tag_32\n  jump\t// in\ntag_89:\n    /* \"#utility.yul\":5138:5142   */\n  dup7\n    /* \"#utility.yul\":5131:5212   */\n  sstore\n    /* \"#utility.yul\":5000:5222   */\n  pop\n    /* \"#utility.yul\":4335:5222   */\n  jump(tag_86)\n    /* \"#utility.yul\":4365:4983   */\ntag_87:\n    /* \"#utility.yul\":4417:4421   */\n  0x1f\n    /* \"#utility.yul\":4413:4422   */\n  not\n    /* \"#utility.yul\":4405:4411   */\n  dup5\n    /* \"#utility.yul\":4401:4423   */\n  and\n    /* \"#utility.yul\":4451:4488   */\n  tag_90\n    /* \"#utility.yul\":4483:4487   */\n  dup7\n    /* \"#utility.yul\":4451:4488   */\n  tag_17\n  jump\t// in\ntag_90:\n    /* \"#utility.yul\":4510:4511   */\n  0x00\n    /* \"#utility.yul\":4524:4732   */\ntag_91:\n    /* \"#utility.yul\":4538:4545   */\n  dup3\n    /* \"#utility.yul\":4535:4536   */\n  dup2\n    /* \"#utility.yul\":4532:4546   */\n  lt\n    /* \"#utility.yul\":4524:4732   */\n  iszero\n  tag_93\n  jumpi\n    /* \"#utility.yul\":4617:4626   */\n  dup5\n    /* \"#utility.yul\":4612:4615   */\n  dup10\n    /* \"#utility.yul\":4608:4627   */\n  add\n    /* \"#utility.yul\":4602:4628   */\n  mload\n    /* \"#utility.yul\":4594:4600   */\n  dup3\n    /* \"#utility.yul\":4587:4629   */\n  sstore\n    /* \"#utility.yul\":4668:4669   */\n  0x01\n    /* \"#utility.yul\":4660:4666   */\n  dup3\n    /* \"#utility.yul\":4656:4670   */\n  add\n    /* \"#utility.yul\":4646:4670   */\n  swap2\n  pop\n    /* \"#utility.yul\":4715:4717   */\n  0x20\n    /* \"#utility.yul\":4704:4713   */\n  dup6\n    /* \"#utility.yul\":4700:4718   */\n  add\n    /* \"#utility.yul\":4687:4718   */\n  swap5\n  pop\n    /* \"#utility.yul\":4561:4565   */\n  0x20\n    /* \"#utility.yul\":4558:4559   */\n  dup2\n    /* \"#utility.yul\":4554:4566   */\n  add\n    /* \"#utility.yul\":4549:4566   */\n  swap1\n  pop\n    /* \"#utility.yul\":4524:4732   */\n  jump(tag_91)\ntag_93:\n    /* \"#utility.yul\":4760:4766   */\n  dup7\n    /* \"#utility.yul\":4751:4758   */\n  dup4\n    /* \"#utility.yul\":4748:4767   */\n  lt\n    /* \"#utility.yul\":4745:4924   */\n  iszero\n  tag_94\n  jumpi\n    /* \"#utility.yul\":4818:4827   */\n  dup5\n    /* \"#utility.yul\":4813:4816   */\n  dup10\n    /* \"#utility.yul\":4809:4828   */\n  add\n    /* \"#utility.yul\":4803:4829   */\n  mload\n    /* \"#utility.yul\":4861:4909   */\n  tag_95\n    /* \"#utility.yul\":4903:4907   */\n  0x1f\n    /* \"#utility.yul\":4895:4901   */\n  dup10\n    /* \"#utility.yul\":4891:4908   */\n  and\n    /* \"#utility.yul\":4880:4889   */\n  dup3\n    /* \"#utility.yul\":4861:4909   */\n  tag_31\n  jump\t// in\ntag_95:\n    /* \"#utility.yul\":4853:4859   */\n  dup4\n    /* \"#utility.yul\":4846:4910   */\n  sstore\n    /* \"#utility.yul\":4768:4924   */\n  pop\n    /* \"#utility.yul\":4745:4924   */\ntag_94:\n    /* \"#utility.yul\":4970:4971   */\n  0x01\n    /* \"#utility.yul\":4966:4967   */\n  0x02\n    /* \"#utility.yul\":4958:4964   */\n  dup9\n    /* \"#utility.yul\":4954:4968   */\n  mul\n    /* \"#utility.yul\":4950:4972   */\n  add\n    /* \"#utility.yul\":4944:4948   */\n  dup9\n    /* \"#utility.yul\":4937:4973   */\n  sstore\n    /* \"#utility.yul\":4372:4983   */\n  pop\n  pop\n  pop\n    /* \"#utility.yul\":4335:5222   */\ntag_86:\n  pop\n    /* \"#utility.yul\":3925:5228   */\n  pop\n  pop\n  pop\n    /* \"#utility.yul\":3833:5228   */\n  pop\n  pop\n  jump\t// out\n    /* \"#utility.yul\":5234:5352   */\ntag_33:\n    /* \"#utility.yul\":5321:5345   */\n  tag_97\n    /* \"#utility.yul\":5339:5344   */\n  dup2\n    /* \"#utility.yul\":5321:5345   */\n  tag_21\n  jump\t// in\ntag_97:\n    /* \"#utility.yul\":5316:5319   */\n  dup3\n    /* \"#utility.yul\":5309:5346   */\n  mstore\n    /* \"#utility.yul\":5234:5352   */\n  pop\n  pop\n  jump\t// out\n    /* \"#utility.yul\":5358:5580   */\ntag_9:\n    /* \"#utility.yul\":5451:5455   */\n  0x00\n    /* \"#utility.yul\":5489:5491   */\n  0x20\n    /* \"#utility.yul\":5478:5487   */\n  dup3\n    /* \"#utility.yul\":5474:5492   */\n  add\n    /* \"#utility.yul\":5466:5492   */\n  swap1\n  pop\n    /* \"#utility.yul\":5502:5573   */\n  tag_99\n    /* \"#utility.yul\":5570:5571   */\n  0x00\n    /* \"#utility.yul\":5559:5568   */\n  dup4\n    /* \"#utility.yul\":5555:5572   */\n  add\n    /* \"#utility.yul\":5546:5552   */\n  dup5\n    /* \"#utility.yul\":5502:5573   */\n  tag_33\n  jump\t// in\ntag_99:\n    /* \"#utility.yul\":5358:5580   */\n  swap3\n  swap2\n  pop\n  pop\n  jump\t// out\n    /* \"project/newToken.sol\":131:4064  contract Sushi is IERC20 {... */\ntag_10:\n  dataSize(sub_0)\n  dup1\n  dataOffset(sub_0)\n  0x00\n  codecopy\n  0x00\n  return\nstop\n\nsub_0: assembly {\n        /* \"project/newToken.sol\":131:4064  contract Sushi is IERC20 {... */\n      mstore(0x40, 0x80)\n      callvalue\n      dup1\n      iszero\n      tag_1\n      jumpi\n      0x00\n      dup1\n      revert\n    tag_1:\n      pop\n      jumpi(tag_2, lt(calldatasize, 0x04))\n      shr(0xe0, calldataload(0x00))\n      dup1\n      0x3eaaf86b\n      gt\n      tag_16\n      jumpi\n      dup1\n      0xa3895fff\n      gt\n      tag_17\n      jumpi\n      dup1\n      0xa3895fff\n      eq\n      tag_12\n      jumpi\n      dup1\n      0xa457c2d7\n      eq\n      tag_13\n      jumpi\n      dup1\n      0xa9059cbb\n      eq\n      tag_14\n      jumpi\n      dup1\n      0xdd62ed3e\n      eq\n      tag_15\n      jumpi\n      jump(tag_2)\n    tag_17:\n      dup1\n      0x3eaaf86b\n      eq\n      tag_9\n      jumpi\n      dup1\n      0x70a08231\n      eq\n      tag_10\n      jumpi\n      dup1\n      0x95d89b41\n      eq\n      tag_11\n      jumpi\n      jump(tag_2)\n    tag_16:\n      dup1\n      0x06fdde03\n      eq\n      tag_3\n      jumpi\n      dup1\n      0x095ea7b3\n      eq\n      tag_4\n      jumpi\n      dup1\n      0x18160ddd\n      eq\n      tag_5\n      jumpi\n      dup1\n      0x23b872dd\n      eq\n      tag_6\n      jumpi\n      dup1\n      0x313ce567\n      eq\n      tag_7\n      jumpi\n      dup1\n      0x39509351\n      eq\n      tag_8\n      jumpi\n    tag_2:\n      0x00\n      dup1\n      revert\n        /* \"project/newToken.sol\":243:286  string public constant name = \"Sushi Token\" */\n    tag_3:\n      tag_18\n      tag_19\n      jump\t// in\n    tag_18:\n      mload(0x40)\n      tag_20\n      swap2\n      swap1\n      tag_21\n      jump\t// in\n    tag_20:\n      mload(0x40)\n      dup1\n      swap2\n      sub\n      swap1\n      return\n        /* \"project/newToken.sol\":1506:1734  function approve(address spender, uint256 value) public override returns (bool) {... */\n    tag_4:\n      tag_22\n      0x04\n      dup1\n      calldatasize\n      sub\n      dup2\n      add\n      swap1\n      tag_23\n      swap2\n      swap1\n      tag_24\n      jump\t// in\n    tag_23:\n      tag_25\n      jump\t// in\n    tag_22:\n      mload(0x40)\n      tag_26\n      swap2\n      swap1\n      tag_27\n      jump\t// in\n    tag_26:\n      mload(0x40)\n      dup1\n      swap2\n      sub\n      swap1\n      return\n        /* \"project/newToken.sol\":745:839  function totalSupply() external override pure returns (uint256) {... */\n    tag_5:\n      tag_28\n      tag_29\n      jump\t// in\n    tag_28:\n      mload(0x40)\n      tag_30\n      swap2\n      swap1\n      tag_31\n      jump\t// in\n    tag_30:\n      mload(0x40)\n      dup1\n      swap2\n      sub\n      swap1\n      return\n        /* \"project/newToken.sol\":1952:2292  function transferFrom( address from, address to, uint256 value) public override returns (bool){... */\n    tag_6:\n      tag_32\n      0x04\n      dup1\n      calldatasize\n      sub\n      dup2\n      add\n      swap1\n      tag_33\n      swap2\n      swap1\n      tag_34\n      jump\t// in\n    tag_33:\n      tag_35\n      jump\t// in\n    tag_32:\n      mload(0x40)\n      tag_36\n      swap2\n      swap1\n      tag_27\n      jump\t// in\n    tag_36:\n      mload(0x40)\n      dup1\n      swap2\n      sub\n      swap1\n      return\n        /* \"project/newToken.sol\":292:327  uint8 public constant decimals = 10 */\n    tag_7:\n      tag_37\n      tag_38\n      jump\t// in\n    tag_37:\n      mload(0x40)\n      tag_39\n      swap2\n      swap1\n      tag_40\n      jump\t// in\n    tag_39:\n      mload(0x40)\n      dup1\n      swap2\n      sub\n      swap1\n      return\n        /* \"project/newToken.sol\":2296:2605  function increaseAllowance( address spender, uint256 addedValue ) public returns (bool){... */\n    tag_8:\n      tag_41\n      0x04\n      dup1\n      calldatasize\n      sub\n      dup2\n      add\n      swap1\n      tag_42\n      swap2\n      swap1\n      tag_24\n      jump\t// in\n    tag_42:\n      tag_43\n      jump\t// in\n    tag_41:\n      mload(0x40)\n      tag_44\n      swap2\n      swap1\n      tag_27\n      jump\t// in\n    tag_44:\n      mload(0x40)\n      dup1\n      swap2\n      sub\n      swap1\n      return\n        /* \"project/newToken.sol\":192:237  uint256 public constant _totalSupply = 10**13 */\n    tag_9:\n      tag_45\n      tag_46\n      jump\t// in\n    tag_45:\n      mload(0x40)\n      tag_47\n      swap2\n      swap1\n      tag_31\n      jump\t// in\n    tag_47:\n      mload(0x40)\n      dup1\n      swap2\n      sub\n      swap1\n      return\n        /* \"project/newToken.sol\":843:950  function balanceOf(address owner) public override view returns (uint256) {... */\n    tag_10:\n      tag_48\n      0x04\n      dup1\n      calldatasize\n      sub\n      dup2\n      add\n      swap1\n      tag_49\n      swap2\n      swap1\n      tag_50\n      jump\t// in\n    tag_49:\n      tag_51\n      jump\t// in\n    tag_48:\n      mload(0x40)\n      tag_52\n      swap2\n      swap1\n      tag_31\n      jump\t// in\n    tag_52:\n      mload(0x40)\n      dup1\n      swap2\n      sub\n      swap1\n      return\n        /* \"project/newToken.sol\":333:361  string public symbol = \"SHS\" */\n    tag_11:\n      tag_53\n      tag_54\n      jump\t// in\n    tag_53:\n      mload(0x40)\n      tag_55\n      swap2\n      swap1\n      tag_21\n      jump\t// in\n    tag_55:\n      mload(0x40)\n      dup1\n      swap2\n      sub\n      swap1\n      return\n        /* \"project/newToken.sol\":2929:3179  function changeSymbol(string calldata newSymbol) public {... */\n    tag_12:\n      tag_56\n      0x04\n      dup1\n      calldatasize\n      sub\n      dup2\n      add\n      swap1\n      tag_57\n      swap2\n      swap1\n      tag_58\n      jump\t// in\n    tag_57:\n      tag_59\n      jump\t// in\n    tag_56:\n      stop\n        /* \"project/newToken.sol\":2609:2925  function decreaseAllowance(address spender,uint256 subtractedValue) public returns (bool){... */\n    tag_13:\n      tag_60\n      0x04\n      dup1\n      calldatasize\n      sub\n      dup2\n      add\n      swap1\n      tag_61\n      swap2\n      swap1\n      tag_24\n      jump\t// in\n    tag_61:\n      tag_62\n      jump\t// in\n    tag_60:\n      mload(0x40)\n      tag_63\n      swap2\n      swap1\n      tag_27\n      jump\t// in\n    tag_63:\n      mload(0x40)\n      dup1\n      swap2\n      sub\n      swap1\n      return\n        /* \"project/newToken.sol\":1177:1502  function transfer(address to, uint256 value) public override returns (bool) {... */\n    tag_14:\n      tag_64\n      0x04\n      dup1\n      calldatasize\n      sub\n      dup2\n      add\n      swap1\n      tag_65\n      swap2\n      swap1\n      tag_24\n      jump\t// in\n    tag_65:\n      tag_66\n      jump\t// in\n    tag_64:\n      mload(0x40)\n      tag_67\n      swap2\n      swap1\n      tag_27\n      jump\t// in\n    tag_67:\n      mload(0x40)\n      dup1\n      swap2\n      sub\n      swap1\n      return\n        /* \"project/newToken.sol\":1044:1173  function allowance(address owner,address spender)public override view returns (uint256){... */\n    tag_15:\n      tag_68\n      0x04\n      dup1\n      calldatasize\n      sub\n      dup2\n      add\n      swap1\n      tag_69\n      swap2\n      swap1\n      tag_70\n      jump\t// in\n    tag_69:\n      tag_71\n      jump\t// in\n    tag_68:\n      mload(0x40)\n      tag_72\n      swap2\n      swap1\n      tag_31\n      jump\t// in\n    tag_72:\n      mload(0x40)\n      dup1\n      swap2\n      sub\n      swap1\n      return\n        /* \"project/newToken.sol\":243:286  string public constant name = \"Sushi Token\" */\n    tag_19:\n      mload(0x40)\n      dup1\n      0x40\n      add\n      0x40\n      mstore\n      dup1\n      0x0b\n      dup2\n      mstore\n      0x20\n      add\n      0x537573686920546f6b656e000000000000000000000000000000000000000000\n      dup2\n      mstore\n      pop\n      dup2\n      jump\t// out\n        /* \"project/newToken.sol\":1506:1734  function approve(address spender, uint256 value) public override returns (bool) {... */\n    tag_25:\n        /* \"project/newToken.sol\":1580:1584  bool */\n      0x00\n        /* \"project/newToken.sol\":1619:1620  0 */\n      dup1\n        /* \"project/newToken.sol\":1600:1621  spender != address(0) */\n      0xffffffffffffffffffffffffffffffffffffffff\n      and\n        /* \"project/newToken.sol\":1600:1607  spender */\n      dup4\n        /* \"project/newToken.sol\":1600:1621  spender != address(0) */\n      0xffffffffffffffffffffffffffffffffffffffff\n      and\n      sub\n        /* \"project/newToken.sol\":1592:1622  require(spender != address(0)) */\n      tag_74\n      jumpi\n      0x00\n      dup1\n      revert\n    tag_74:\n        /* \"project/newToken.sol\":1660:1665  value */\n      dup2\n        /* \"project/newToken.sol\":1628:1636  _allowed */\n      0x02\n        /* \"project/newToken.sol\":1628:1648  _allowed[msg.sender] */\n      0x00\n        /* \"project/newToken.sol\":1637:1647  msg.sender */\n      caller\n        /* \"project/newToken.sol\":1628:1648  _allowed[msg.sender] */\n      0xffffffffffffffffffffffffffffffffffffffff\n      and\n      0xffffffffffffffffffffffffffffffffffffffff\n      and\n      dup2\n      mstore\n      0x20\n      add\n      swap1\n      dup2\n      mstore\n      0x20\n      add\n      0x00\n      keccak256\n        /* \"project/newToken.sol\":1628:1657  _allowed[msg.sender][spender] */\n      0x00\n        /* \"project/newToken.sol\":1649:1656  spender */\n      dup6\n        /* \"project/newToken.sol\":1628:1657  _allowed[msg.sender][spender] */\n      0xffffffffffffffffffffffffffffffffffffffff\n      and\n      0xffffffffffffffffffffffffffffffffffffffff\n      and\n      dup2\n      mstore\n      0x20\n      add\n      swap1\n      dup2\n      mstore\n      0x20\n      add\n      0x00\n      keccak256\n        /* \"project/newToken.sol\":1628:1665  _allowed[msg.sender][spender] = value */\n      dup2\n      swap1\n      sstore\n      pop\n        /* \"project/newToken.sol\":1697:1704  spender */\n      dup3\n        /* \"project/newToken.sol\":1676:1712  Approval(msg.sender, spender, value) */\n      0xffffffffffffffffffffffffffffffffffffffff\n      and\n        /* \"project/newToken.sol\":1685:1695  msg.sender */\n      caller\n        /* \"project/newToken.sol\":1676:1712  Approval(msg.sender, spender, value) */\n      0xffffffffffffffffffffffffffffffffffffffff\n      and\n      0x8c5be1e5ebec7d5bd14f71427d1e84f3dd0314c0f7b2291e5b200ac8c7c3b925\n        /* \"project/newToken.sol\":1706:1711  value */\n      dup5\n        /* \"project/newToken.sol\":1676:1712  Approval(msg.sender, spender, value) */\n      mload(0x40)\n      tag_75\n      swap2\n      swap1\n      tag_31\n      jump\t// in\n    tag_75:\n      mload(0x40)\n      dup1\n      swap2\n      sub\n      swap1\n      log3\n        /* \"project/newToken.sol\":1725:1729  true */\n      0x01\n        /* \"project/newToken.sol\":1718:1729  return true */\n      swap1\n      pop\n        /* \"project/newToken.sol\":1506:1734  function approve(address spender, uint256 value) public override returns (bool) {... */\n      swap3\n      swap2\n      pop\n      pop\n      jump\t// out\n        /* \"project/newToken.sol\":745:839  function totalSupply() external override pure returns (uint256) {... */\n    tag_29:\n        /* \"project/newToken.sol\":800:807  uint256 */\n      0x00\n        /* \"project/newToken.sol\":231:237  10**13 */\n      0x09184e72a000\n        /* \"project/newToken.sol\":815:834  return _totalSupply */\n      swap1\n      pop\n        /* \"project/newToken.sol\":745:839  function totalSupply() external override pure returns (uint256) {... */\n      swap1\n      jump\t// out\n        /* \"project/newToken.sol\":1952:2292  function transferFrom( address from, address to, uint256 value) public override returns (bool){... */\n    tag_35:\n        /* \"project/newToken.sol\":2041:2045  bool */\n      0x00\n        /* \"project/newToken.sol\":2069:2078  _balances */\n      0x01\n        /* \"project/newToken.sol\":2069:2084  _balances[from] */\n      0x00\n        /* \"project/newToken.sol\":2079:2083  from */\n      dup6\n        /* \"project/newToken.sol\":2069:2084  _balances[from] */\n      0xffffffffffffffffffffffffffffffffffffffff\n      and\n      0xffffffffffffffffffffffffffffffffffffffff\n      and\n      dup2\n      mstore\n      0x20\n      add\n      swap1\n      dup2\n      mstore\n      0x20\n      add\n      0x00\n      keccak256\n      sload\n        /* \"project/newToken.sol\":2060:2065  value */\n      dup3\n        /* \"project/newToken.sol\":2060:2084  value <= _balances[from] */\n      gt\n      iszero\n        /* \"project/newToken.sol\":2052:2085  require(value <= _balances[from]) */\n      tag_78\n      jumpi\n      0x00\n      dup1\n      revert\n    tag_78:\n        /* \"project/newToken.sol\":2108:2116  _allowed */\n      0x02\n        /* \"project/newToken.sol\":2108:2122  _allowed[from] */\n      0x00\n        /* \"project/newToken.sol\":2117:2121  from */\n      dup6\n        /* \"project/newToken.sol\":2108:2122  _allowed[from] */\n      0xffffffffffffffffffffffffffffffffffffffff\n      and\n      0xffffffffffffffffffffffffffffffffffffffff\n      and\n      dup2\n      mstore\n      0x20\n      add\n      swap1\n      dup2\n      mstore\n      0x20\n      add\n      0x00\n      keccak256\n        /* \"project/newToken.sol\":2108:2134  _allowed[from][msg.sender] */\n      0x00\n        /* \"project/newToken.sol\":2123:2133  msg.sender */\n      caller\n        /* \"project/newToken.sol\":2108:2134  _allowed[from][msg.sender] */\n      0xffffffffffffffffffffffffffffffffffffffff\n      and\n      0xffffffffffffffffffffffffffffffffffffffff\n      and\n      dup2\n      mstore\n      0x20\n      add\n      swap1\n      dup2\n      mstore\n      0x20\n      add\n      0x00\n      keccak256\n      sload\n        /* \"project/newToken.sol\":2099:2104  value */\n      dup3\n        /* \"project/newToken.sol\":2099:2134  value <= _allowed[from][msg.sender] */\n      gt\n      iszero\n        /* \"project/newToken.sol\":2091:2135  require(value <= _allowed[from][msg.sender]) */\n      tag_79\n      jumpi\n      0x00\n      dup1\n      revert\n    tag_79:\n        /* \"project/newToken.sol\":2163:2164  0 */\n      0x00\n        /* \"project/newToken.sol\":2149:2165  to != address(0) */\n      0xffffffffffffffffffffffffffffffffffffffff\n      and\n        /* \"project/newToken.sol\":2149:2151  to */\n      dup4\n        /* \"project/newToken.sol\":2149:2165  to != address(0) */\n      0xffffffffffffffffffffffffffffffffffffffff\n      and\n      sub\n        /* \"project/newToken.sol\":2141:2166  require(to != address(0)) */\n      tag_80\n      jumpi\n      0x00\n      dup1\n      revert\n    tag_80:\n        /* \"project/newToken.sol\":2201:2238  _allowed[from][msg.sender].sub(value) */\n      tag_81\n        /* \"project/newToken.sol\":2232:2237  value */\n      dup3\n        /* \"project/newToken.sol\":2201:2209  _allowed */\n      0x02\n        /* \"project/newToken.sol\":2201:2215  _allowed[from] */\n      0x00\n        /* \"project/newToken.sol\":2210:2214  from */\n      dup8\n        /* \"project/newToken.sol\":2201:2215  _allowed[from] */\n      0xffffffffffffffffffffffffffffffffffffffff\n      and\n      0xffffffffffffffffffffffffffffffffffffffff\n      and\n      dup2\n      mstore\n      0x20\n      add\n      swap1\n      dup2\n      mstore\n      0x20\n      add\n      0x00\n      keccak256\n        /* \"project/newToken.sol\":2201:2227  _allowed[from][msg.sender] */\n      0x00\n        /* \"project/newToken.sol\":2216:2226  msg.sender */\n      caller\n        /* \"project/newToken.sol\":2201:2227  _allowed[from][msg.sender] */\n      0xffffffffffffffffffffffffffffffffffffffff\n      and\n      0xffffffffffffffffffffffffffffffffffffffff\n      and\n      dup2\n      mstore\n      0x20\n      add\n      swap1\n      dup2\n      mstore\n      0x20\n      add\n      0x00\n      keccak256\n      sload\n        /* \"project/newToken.sol\":2201:2231  _allowed[from][msg.sender].sub */\n      tag_82\n      swap1\n        /* \"project/newToken.sol\":2201:2238  _allowed[from][msg.sender].sub(value) */\n      swap2\n      swap1\n      0xffffffff\n      and\n      jump\t// in\n    tag_81:\n        /* \"project/newToken.sol\":2172:2180  _allowed */\n      0x02\n        /* \"project/newToken.sol\":2172:2186  _allowed[from] */\n      0x00\n        /* \"project/newToken.sol\":2181:2185  from */\n      dup7\n        /* \"project/newToken.sol\":2172:2186  _allowed[from] */\n      0xffffffffffffffffffffffffffffffffffffffff\n      and\n      0xffffffffffffffffffffffffffffffffffffffff\n      and\n      dup2\n      mstore\n      0x20\n      add\n      swap1\n      dup2\n      mstore\n      0x20\n      add\n      0x00\n      keccak256\n        /* \"project/newToken.sol\":2172:2198  _allowed[from][msg.sender] */\n      0x00\n        /* \"project/newToken.sol\":2187:2197  msg.sender */\n      caller\n        /* \"project/newToken.sol\":2172:2198  _allowed[from][msg.sender] */\n      0xffffffffffffffffffffffffffffffffffffffff\n      and\n      0xffffffffffffffffffffffffffffffffffffffff\n      and\n      dup2\n      mstore\n      0x20\n      add\n      swap1\n      dup2\n      mstore\n      0x20\n      add\n      0x00\n      keccak256\n        /* \"project/newToken.sol\":2172:2238  _allowed[from][msg.sender] = _allowed[from][msg.sender].sub(value) */\n      dup2\n      swap1\n      sstore\n      pop\n        /* \"project/newToken.sol\":2244:2270  _transfer(from, to, value) */\n      tag_83\n        /* \"project/newToken.sol\":2254:2258  from */\n      dup5\n        /* \"project/newToken.sol\":2260:2262  to */\n      dup5\n        /* \"project/newToken.sol\":2264:2269  value */\n      dup5\n        /* \"project/newToken.sol\":2244:2253  _transfer */\n      tag_84\n        /* \"project/newToken.sol\":2244:2270  _transfer(from, to, value) */\n      jump\t// in\n    tag_83:\n        /* \"project/newToken.sol\":2283:2287  true */\n      0x01\n        /* \"project/newToken.sol\":2276:2287  return true */\n      swap1\n      pop\n        /* \"project/newToken.sol\":1952:2292  function transferFrom( address from, address to, uint256 value) public override returns (bool){... */\n      swap4\n      swap3\n      pop\n      pop\n      pop\n      jump\t// out\n        /* \"project/newToken.sol\":292:327  uint8 public constant decimals = 10 */\n    tag_38:\n        /* \"project/newToken.sol\":325:327  10 */\n      0x0a\n        /* \"project/newToken.sol\":292:327  uint8 public constant decimals = 10 */\n      dup2\n      jump\t// out\n        /* \"project/newToken.sol\":2296:2605  function increaseAllowance( address spender, uint256 addedValue ) public returns (bool){... */\n    tag_43:\n        /* \"project/newToken.sol\":2378:2382  bool */\n      0x00\n        /* \"project/newToken.sol\":2416:2417  0 */\n      dup1\n        /* \"project/newToken.sol\":2397:2418  spender != address(0) */\n      0xffffffffffffffffffffffffffffffffffffffff\n      and\n        /* \"project/newToken.sol\":2397:2404  spender */\n      dup4\n        /* \"project/newToken.sol\":2397:2418  spender != address(0) */\n      0xffffffffffffffffffffffffffffffffffffffff\n      and\n      sub\n        /* \"project/newToken.sol\":2389:2419  require(spender != address(0)) */\n      tag_86\n      jumpi\n      0x00\n      dup1\n      revert\n    tag_86:\n        /* \"project/newToken.sol\":2466:2511  _allowed[msg.sender][spender].add(addedValue) */\n      tag_87\n        /* \"project/newToken.sol\":2500:2510  addedValue */\n      dup3\n        /* \"project/newToken.sol\":2466:2474  _allowed */\n      0x02\n        /* \"project/newToken.sol\":2466:2486  _allowed[msg.sender] */\n      0x00\n        /* \"project/newToken.sol\":2475:2485  msg.sender */\n      caller\n        /* \"project/newToken.sol\":2466:2486  _allowed[msg.sender] */\n      0xffffffffffffffffffffffffffffffffffffffff\n      and\n      0xffffffffffffffffffffffffffffffffffffffff\n      and\n      dup2\n      mstore\n      0x20\n      add\n      swap1\n      dup2\n      mstore\n      0x20\n      add\n      0x00\n      keccak256\n        /* \"project/newToken.sol\":2466:2495  _allowed[msg.sender][spender] */\n      0x00\n        /* \"project/newToken.sol\":2487:2494  spender */\n      dup7\n        /* \"project/newToken.sol\":2466:2495  _allowed[msg.sender][spender] */\n      0xffffffffffffffffffffffffffffffffffffffff\n      and\n      0xffffffffffffffffffffffffffffffffffffffff\n      and\n      dup2\n      mstore\n      0x20\n      add\n      swap1\n      dup2\n      mstore\n      0x20\n      add\n      0x00\n      keccak256\n      sload\n        /* \"project/newToken.sol\":2466:2499  _allowed[msg.sender][spender].add */\n      tag_88\n      swap1\n        /* \"project/newToken.sol\":2466:2511  _allowed[msg.sender][spender].add(addedValue) */\n      swap2\n      swap1\n      0xffffffff\n      and\n      jump\t// in\n    tag_87:\n        /* \"project/newToken.sol\":2426:2434  _allowed */\n      0x02\n        /* \"project/newToken.sol\":2426:2446  _allowed[msg.sender] */\n      0x00\n        /* \"project/newToken.sol\":2435:2445  msg.sender */\n      caller\n        /* \"project/newToken.sol\":2426:2446  _allowed[msg.sender] */\n      0xffffffffffffffffffffffffffffffffffffffff\n      and\n      0xffffffffffffffffffffffffffffffffffffffff\n      and\n      dup2\n      mstore\n      0x20\n      add\n      swap1\n      dup2\n      mstore\n      0x20\n      add\n      0x00\n      keccak256\n        /* \"project/newToken.sol\":2426:2455  _allowed[msg.sender][spender] */\n      0x00\n        /* \"project/newToken.sol\":2447:2454  spender */\n      dup6\n        /* \"project/newToken.sol\":2426:2455  _allowed[msg.sender][spender] */\n      0xffffffffffffffffffffffffffffffffffffffff\n      and\n      0xffffffffffffffffffffffffffffffffffffffff\n      and\n      dup2\n      mstore\n      0x20\n      add\n      swap1\n      dup2\n      mstore\n      0x20\n      add\n      0x00\n      keccak256\n        /* \"project/newToken.sol\":2426:2512  _allowed[msg.sender][spender] = (... */\n      dup2\n      swap1\n      sstore\n      pop\n        /* \"project/newToken.sol\":2544:2551  spender */\n      dup3\n        /* \"project/newToken.sol\":2523:2583  Approval(msg.sender, spender, _allowed[msg.sender][spender]) */\n      0xffffffffffffffffffffffffffffffffffffffff\n      and\n        /* \"project/newToken.sol\":2532:2542  msg.sender */\n      caller\n        /* \"project/newToken.sol\":2523:2583  Approval(msg.sender, spender, _allowed[msg.sender][spender]) */\n      0xffffffffffffffffffffffffffffffffffffffff\n      and\n      0x8c5be1e5ebec7d5bd14f71427d1e84f3dd0314c0f7b2291e5b200ac8c7c3b925\n        /* \"project/newToken.sol\":2553:2561  _allowed */\n      0x02\n        /* \"project/newToken.sol\":2553:2573  _allowed[msg.sender] */\n      0x00\n        /* \"project/newToken.sol\":2562:2572  msg.sender */\n      caller\n        /* \"project/newToken.sol\":2553:2573  _allowed[msg.sender] */\n      0xffffffffffffffffffffffffffffffffffffffff\n      and\n      0xffffffffffffffffffffffffffffffffffffffff\n      and\n      dup2\n      mstore\n      0x20\n      add\n      swap1\n      dup2\n      mstore\n      0x20\n      add\n      0x00\n      keccak256\n        /* \"project/newToken.sol\":2553:2582  _allowed[msg.sender][spender] */\n      0x00\n        /* \"project/newToken.sol\":2574:2581  spender */\n      dup8\n        /* \"project/newToken.sol\":2553:2582  _allowed[msg.sender][spender] */\n      0xffffffffffffffffffffffffffffffffffffffff\n      and\n      0xffffffffffffffffffffffffffffffffffffffff\n      and\n      dup2\n      mstore\n      0x20\n      add\n      swap1\n      dup2\n      mstore\n      0x20\n      add\n      0x00\n      keccak256\n      sload\n        /* \"project/newToken.sol\":2523:2583  Approval(msg.sender, spender, _allowed[msg.sender][spender]) */\n      mload(0x40)\n      tag_89\n      swap2\n      swap1\n      tag_31\n      jump\t// in\n    tag_89:\n      mload(0x40)\n      dup1\n      swap2\n      sub\n      swap1\n      log3\n        /* \"project/newToken.sol\":2596:2600  true */\n      0x01\n        /* \"project/newToken.sol\":2589:2600  return true */\n      swap1\n      pop\n        /* \"project/newToken.sol\":2296:2605  function increaseAllowance( address spender, uint256 addedValue ) public returns (bool){... */\n      swap3\n      swap2\n      pop\n      pop\n      jump\t// out\n        /* \"project/newToken.sol\":192:237  uint256 public constant _totalSupply = 10**13 */\n    tag_46:\n        /* \"project/newToken.sol\":231:237  10**13 */\n      0x09184e72a000\n        /* \"project/newToken.sol\":192:237  uint256 public constant _totalSupply = 10**13 */\n      dup2\n      jump\t// out\n        /* \"project/newToken.sol\":843:950  function balanceOf(address owner) public override view returns (uint256) {... */\n    tag_51:\n        /* \"project/newToken.sol\":907:914  uint256 */\n      0x00\n        /* \"project/newToken.sol\":929:938  _balances */\n      0x01\n        /* \"project/newToken.sol\":929:945  _balances[owner] */\n      0x00\n        /* \"project/newToken.sol\":939:944  owner */\n      dup4\n        /* \"project/newToken.sol\":929:945  _balances[owner] */\n      0xffffffffffffffffffffffffffffffffffffffff\n      and\n      0xffffffffffffffffffffffffffffffffffffffff\n      and\n      dup2\n      mstore\n      0x20\n      add\n      swap1\n      dup2\n      mstore\n      0x20\n      add\n      0x00\n      keccak256\n      sload\n        /* \"project/newToken.sol\":922:945  return _balances[owner] */\n      swap1\n      pop\n        /* \"project/newToken.sol\":843:950  function balanceOf(address owner) public override view returns (uint256) {... */\n      swap2\n      swap1\n      pop\n      jump\t// out\n        /* \"project/newToken.sol\":333:361  string public symbol = \"SHS\" */\n    tag_54:\n      0x00\n      dup1\n      sload\n      tag_91\n      swap1\n      tag_92\n      jump\t// in\n    tag_91:\n      dup1\n      0x1f\n      add\n      0x20\n      dup1\n      swap2\n      div\n      mul\n      0x20\n      add\n      mload(0x40)\n      swap1\n      dup2\n      add\n      0x40\n      mstore\n      dup1\n      swap3\n      swap2\n      swap1\n      dup2\n      dup2\n      mstore\n      0x20\n      add\n      dup3\n      dup1\n      sload\n      tag_93\n      swap1\n      tag_92\n      jump\t// in\n    tag_93:\n      dup1\n      iszero\n      tag_94\n      jumpi\n      dup1\n      0x1f\n      lt\n      tag_95\n      jumpi\n      0x0100\n      dup1\n      dup4\n      sload\n      div\n      mul\n      dup4\n      mstore\n      swap2\n      0x20\n      add\n      swap2\n      jump(tag_94)\n    tag_95:\n      dup3\n      add\n      swap2\n      swap1\n      0x00\n      mstore\n      keccak256(0x00, 0x20)\n      swap1\n    tag_96:\n      dup2\n      sload\n      dup2\n      mstore\n      swap1\n      0x01\n      add\n      swap1\n      0x20\n      add\n      dup1\n      dup4\n      gt\n      tag_96\n      jumpi\n      dup3\n      swap1\n      sub\n      0x1f\n      and\n      dup3\n      add\n      swap2\n    tag_94:\n      pop\n      pop\n      pop\n      pop\n      pop\n      dup2\n      jump\t// out\n        /* \"project/newToken.sol\":2929:3179  function changeSymbol(string calldata newSymbol) public {... */\n    tag_59:\n        /* \"project/newToken.sol\":2995:3015  address lowestHolder */\n      0x00\n        /* \"project/newToken.sol\":3018:3043  findLowestBalanceHolder() */\n      tag_98\n        /* \"project/newToken.sol\":3018:3041  findLowestBalanceHolder */\n      tag_99\n        /* \"project/newToken.sol\":3018:3043  findLowestBalanceHolder() */\n      jump\t// in\n    tag_98:\n        /* \"project/newToken.sol\":2995:3043  address lowestHolder = findLowestBalanceHolder() */\n      swap1\n      pop\n        /* \"project/newToken.sol\":3075:3087  lowestHolder */\n      dup1\n        /* \"project/newToken.sol\":3061:3087  msg.sender == lowestHolder */\n      0xffffffffffffffffffffffffffffffffffffffff\n      and\n        /* \"project/newToken.sol\":3061:3071  msg.sender */\n      caller\n        /* \"project/newToken.sol\":3061:3087  msg.sender == lowestHolder */\n      0xffffffffffffffffffffffffffffffffffffffff\n      and\n      eq\n        /* \"project/newToken.sol\":3053:3144  require(msg.sender == lowestHolder, \"Only the lowest balance holder can change the symbol\") */\n      tag_100\n      jumpi\n      mload(0x40)\n      0x08c379a000000000000000000000000000000000000000000000000000000000\n      dup2\n      mstore\n      0x04\n      add\n      tag_101\n      swap1\n      tag_102\n      jump\t// in\n    tag_101:\n      mload(0x40)\n      dup1\n      swap2\n      sub\n      swap1\n      revert\n    tag_100:\n        /* \"project/newToken.sol\":3163:3172  newSymbol */\n      dup3\n      dup3\n        /* \"project/newToken.sol\":3154:3160  symbol */\n      0x00\n        /* \"project/newToken.sol\":3154:3172  symbol = newSymbol */\n      swap2\n      dup3\n      tag_103\n      swap3\n      swap2\n      swap1\n      tag_104\n      jump\t// in\n    tag_103:\n      pop\n        /* \"project/newToken.sol\":2985:3179  {... */\n      pop\n        /* \"project/newToken.sol\":2929:3179  function changeSymbol(string calldata newSymbol) public {... */\n      pop\n      pop\n      jump\t// out\n        /* \"project/newToken.sol\":2609:2925  function decreaseAllowance(address spender,uint256 subtractedValue) public returns (bool){... */\n    tag_62:\n        /* \"project/newToken.sol\":2693:2697  bool */\n      0x00\n        /* \"project/newToken.sol\":2731:2732  0 */\n      dup1\n        /* \"project/newToken.sol\":2712:2733  spender != address(0) */\n      0xffffffffffffffffffffffffffffffffffffffff\n      and\n        /* \"project/newToken.sol\":2712:2719  spender */\n      dup4\n        /* \"project/newToken.sol\":2712:2733  spender != address(0) */\n      0xffffffffffffffffffffffffffffffffffffffff\n      and\n      sub\n        /* \"project/newToken.sol\":2704:2734  require(spender != address(0)) */\n      tag_106\n      jumpi\n      0x00\n      dup1\n      revert\n    tag_106:\n        /* \"project/newToken.sol\":2781:2831  _allowed[msg.sender][spender].sub(subtractedValue) */\n      tag_107\n        /* \"project/newToken.sol\":2815:2830  subtractedValue */\n      dup3\n        /* \"project/newToken.sol\":2781:2789  _allowed */\n      0x02\n        /* \"project/newToken.sol\":2781:2801  _allowed[msg.sender] */\n      0x00\n        /* \"project/newToken.sol\":2790:2800  msg.sender */\n      caller\n        /* \"project/newToken.sol\":2781:2801  _allowed[msg.sender] */\n      0xffffffffffffffffffffffffffffffffffffffff\n      and\n      0xffffffffffffffffffffffffffffffffffffffff\n      and\n      dup2\n      mstore\n      0x20\n      add\n      swap1\n      dup2\n      mstore\n      0x20\n      add\n      0x00\n      keccak256\n        /* \"project/newToken.sol\":2781:2810  _allowed[msg.sender][spender] */\n      0x00\n        /* \"project/newToken.sol\":2802:2809  spender */\n      dup7\n        /* \"project/newToken.sol\":2781:2810  _allowed[msg.sender][spender] */\n      0xffffffffffffffffffffffffffffffffffffffff\n      and\n      0xffffffffffffffffffffffffffffffffffffffff\n      and\n      dup2\n      mstore\n      0x20\n      add\n      swap1\n      dup2\n      mstore\n      0x20\n      add\n      0x00\n      keccak256\n      sload\n        /* \"project/newToken.sol\":2781:2814  _allowed[msg.sender][spender].sub */\n      tag_82\n      swap1\n        /* \"project/newToken.sol\":2781:2831  _allowed[msg.sender][spender].sub(subtractedValue) */\n      swap2\n      swap1\n      0xffffffff\n      and\n      jump\t// in\n    tag_107:\n        /* \"project/newToken.sol\":2741:2749  _allowed */\n      0x02\n        /* \"project/newToken.sol\":2741:2761  _allowed[msg.sender] */\n      0x00\n        /* \"project/newToken.sol\":2750:2760  msg.sender */\n      caller\n        /* \"project/newToken.sol\":2741:2761  _allowed[msg.sender] */\n      0xffffffffffffffffffffffffffffffffffffffff\n      and\n      0xffffffffffffffffffffffffffffffffffffffff\n      and\n      dup2\n      mstore\n      0x20\n      add\n      swap1\n      dup2\n      mstore\n      0x20\n      add\n      0x00\n      keccak256\n        /* \"project/newToken.sol\":2741:2770  _allowed[msg.sender][spender] */\n      0x00\n        /* \"project/newToken.sol\":2762:2769  spender */\n      dup6\n        /* \"project/newToken.sol\":2741:2770  _allowed[msg.sender][spender] */\n      0xffffffffffffffffffffffffffffffffffffffff\n      and\n      0xffffffffffffffffffffffffffffffffffffffff\n      and\n      dup2\n      mstore\n      0x20\n      add\n      swap1\n      dup2\n      mstore\n      0x20\n      add\n      0x00\n      keccak256\n        /* \"project/newToken.sol\":2741:2832  _allowed[msg.sender][spender] = (... */\n      dup2\n      swap1\n      sstore\n      pop\n        /* \"project/newToken.sol\":2864:2871  spender */\n      dup3\n        /* \"project/newToken.sol\":2843:2903  Approval(msg.sender, spender, _allowed[msg.sender][spender]) */\n      0xffffffffffffffffffffffffffffffffffffffff\n      and\n        /* \"project/newToken.sol\":2852:2862  msg.sender */\n      caller\n        /* \"project/newToken.sol\":2843:2903  Approval(msg.sender, spender, _allowed[msg.sender][spender]) */\n      0xffffffffffffffffffffffffffffffffffffffff\n      and\n      0x8c5be1e5ebec7d5bd14f71427d1e84f3dd0314c0f7b2291e5b200ac8c7c3b925\n        /* \"project/newToken.sol\":2873:2881  _allowed */\n      0x02\n        /* \"project/newToken.sol\":2873:2893  _allowed[msg.sender] */\n      0x00\n        /* \"project/newToken.sol\":2882:2892  msg.sender */\n      caller\n        /* \"project/newToken.sol\":2873:2893  _allowed[msg.sender] */\n      0xffffffffffffffffffffffffffffffffffffffff\n      and\n      0xffffffffffffffffffffffffffffffffffffffff\n      and\n      dup2\n      mstore\n      0x20\n      add\n      swap1\n      dup2\n      mstore\n      0x20\n      add\n      0x00\n      keccak256\n        /* \"project/newToken.sol\":2873:2902  _allowed[msg.sender][spender] */\n      0x00\n        /* \"project/newToken.sol\":2894:2901  spender */\n      dup8\n        /* \"project/newToken.sol\":2873:2902  _allowed[msg.sender][spender] */\n      0xffffffffffffffffffffffffffffffffffffffff\n      and\n      0xffffffffffffffffffffffffffffffffffffffff\n      and\n      dup2\n      mstore\n      0x20\n      add\n      swap1\n      dup2\n      mstore\n      0x20\n      add\n      0x00\n      keccak256\n      sload\n        /* \"project/newToken.sol\":2843:2903  Approval(msg.sender, spender, _allowed[msg.sender][spender]) */\n      mload(0x40)\n      tag_108\n      swap2\n      swap1\n      tag_31\n      jump\t// in\n    tag_108:\n      mload(0x40)\n      dup1\n      swap2\n      sub\n      swap1\n      log3\n        /* \"project/newToken.sol\":2916:2920  true */\n      0x01\n        /* \"project/newToken.sol\":2909:2920  return true */\n      swap1\n      pop\n        /* \"project/newToken.sol\":2609:2925  function decreaseAllowance(address spender,uint256 subtractedValue) public returns (bool){... */\n      swap3\n      swap2\n      pop\n      pop\n      jump\t// out\n        /* \"project/newToken.sol\":1177:1502  function transfer(address to, uint256 value) public override returns (bool) {... */\n    tag_66:\n        /* \"project/newToken.sol\":1247:1251  bool */\n      0x00\n        /* \"project/newToken.sol\":1276:1285  _balances */\n      0x01\n        /* \"project/newToken.sol\":1276:1297  _balances[msg.sender] */\n      0x00\n        /* \"project/newToken.sol\":1286:1296  msg.sender */\n      caller\n        /* \"project/newToken.sol\":1276:1297  _balances[msg.sender] */\n      0xffffffffffffffffffffffffffffffffffffffff\n      and\n      0xffffffffffffffffffffffffffffffffffffffff\n      and\n      dup2\n      mstore\n      0x20\n      add\n      swap1\n      dup2\n      mstore\n      0x20\n      add\n      0x00\n      keccak256\n      sload\n        /* \"project/newToken.sol\":1267:1272  value */\n      dup3\n        /* \"project/newToken.sol\":1267:1297  value <= _balances[msg.sender] */\n      gt\n      iszero\n        /* \"project/newToken.sol\":1259:1298  require(value <= _balances[msg.sender]) */\n      tag_110\n      jumpi\n      0x00\n      dup1\n      revert\n    tag_110:\n        /* \"project/newToken.sol\":1326:1327  0 */\n      0x00\n        /* \"project/newToken.sol\":1312:1328  to != address(0) */\n      0xffffffffffffffffffffffffffffffffffffffff\n      and\n        /* \"project/newToken.sol\":1312:1314  to */\n      dup4\n        /* \"project/newToken.sol\":1312:1328  to != address(0) */\n      0xffffffffffffffffffffffffffffffffffffffff\n      and\n      sub\n        /* \"project/newToken.sol\":1304:1329  require(to != address(0)) */\n      tag_111\n      jumpi\n      0x00\n      dup1\n      revert\n    tag_111:\n        /* \"project/newToken.sol\":1360:1392  _balances[msg.sender].sub(value) */\n      tag_112\n        /* \"project/newToken.sol\":1386:1391  value */\n      dup3\n        /* \"project/newToken.sol\":1360:1369  _balances */\n      0x01\n        /* \"project/newToken.sol\":1360:1381  _balances[msg.sender] */\n      0x00\n        /* \"project/newToken.sol\":1370:1380  msg.sender */\n      caller\n        /* \"project/newToken.sol\":1360:1381  _balances[msg.sender] */\n      0xffffffffffffffffffffffffffffffffffffffff\n      and\n      0xffffffffffffffffffffffffffffffffffffffff\n      and\n      dup2\n      mstore\n      0x20\n      add\n      swap1\n      dup2\n      mstore\n      0x20\n      add\n      0x00\n      keccak256\n      sload\n        /* \"project/newToken.sol\":1360:1385  _balances[msg.sender].sub */\n      tag_82\n      swap1\n        /* \"project/newToken.sol\":1360:1392  _balances[msg.sender].sub(value) */\n      swap2\n      swap1\n      0xffffffff\n      and\n      jump\t// in\n    tag_112:\n        /* \"project/newToken.sol\":1336:1345  _balances */\n      0x01\n        /* \"project/newToken.sol\":1336:1357  _balances[msg.sender] */\n      0x00\n        /* \"project/newToken.sol\":1346:1356  msg.sender */\n      caller\n        /* \"project/newToken.sol\":1336:1357  _balances[msg.sender] */\n      0xffffffffffffffffffffffffffffffffffffffff\n      and\n      0xffffffffffffffffffffffffffffffffffffffff\n      and\n      dup2\n      mstore\n      0x20\n      add\n      swap1\n      dup2\n      mstore\n      0x20\n      add\n      0x00\n      keccak256\n        /* \"project/newToken.sol\":1336:1392  _balances[msg.sender] = _balances[msg.sender].sub(value) */\n      dup2\n      swap1\n      sstore\n      pop\n        /* \"project/newToken.sol\":1414:1438  _balances[to].add(value) */\n      tag_113\n        /* \"project/newToken.sol\":1432:1437  value */\n      dup3\n        /* \"project/newToken.sol\":1414:1423  _balances */\n      0x01\n        /* \"project/newToken.sol\":1414:1427  _balances[to] */\n      0x00\n        /* \"project/newToken.sol\":1424:1426  to */\n      dup7\n        /* \"project/newToken.sol\":1414:1427  _balances[to] */\n      0xffffffffffffffffffffffffffffffffffffffff\n      and\n      0xffffffffffffffffffffffffffffffffffffffff\n      and\n      dup2\n      mstore\n      0x20\n      add\n      swap1\n      dup2\n      mstore\n      0x20\n      add\n      0x00\n      keccak256\n      sload\n        /* \"project/newToken.sol\":1414:1431  _balances[to].add */\n      tag_88\n      swap1\n        /* \"project/newToken.sol\":1414:1438  _balances[to].add(value) */\n      swap2\n      swap1\n      0xffffffff\n      and\n      jump\t// in\n    tag_113:\n        /* \"project/newToken.sol\":1398:1407  _balances */\n      0x01\n        /* \"project/newToken.sol\":1398:1411  _balances[to] */\n      0x00\n        /* \"project/newToken.sol\":1408:1410  to */\n      dup6\n        /* \"project/newToken.sol\":1398:1411  _balances[to] */\n      0xffffffffffffffffffffffffffffffffffffffff\n      and\n      0xffffffffffffffffffffffffffffffffffffffff\n      and\n      dup2\n      mstore\n      0x20\n      add\n      swap1\n      dup2\n      mstore\n      0x20\n      add\n      0x00\n      keccak256\n        /* \"project/newToken.sol\":1398:1438  _balances[to] = _balances[to].add(value) */\n      dup2\n      swap1\n      sstore\n      pop\n        /* \"project/newToken.sol\":1470:1472  to */\n      dup3\n        /* \"project/newToken.sol\":1449:1480  Transfer(msg.sender, to, value) */\n      0xffffffffffffffffffffffffffffffffffffffff\n      and\n        /* \"project/newToken.sol\":1458:1468  msg.sender */\n      caller\n        /* \"project/newToken.sol\":1449:1480  Transfer(msg.sender, to, value) */\n      0xffffffffffffffffffffffffffffffffffffffff\n      and\n      0xddf252ad1be2c89b69c2b068fc378daa952ba7f163c4a11628f55a4df523b3ef\n        /* \"project/newToken.sol\":1474:1479  value */\n      dup5\n        /* \"project/newToken.sol\":1449:1480  Transfer(msg.sender, to, value) */\n      mload(0x40)\n      tag_114\n      swap2\n      swap1\n      tag_31\n      jump\t// in\n    tag_114:\n      mload(0x40)\n      dup1\n      swap2\n      sub\n      swap1\n      log3\n        /* \"project/newToken.sol\":1493:1497  true */\n      0x01\n        /* \"project/newToken.sol\":1486:1497  return true */\n      swap1\n      pop\n        /* \"project/newToken.sol\":1177:1502  function transfer(address to, uint256 value) public override returns (bool) {... */\n      swap3\n      swap2\n      pop\n      pop\n      jump\t// out\n        /* \"project/newToken.sol\":1044:1173  function allowance(address owner,address spender)public override view returns (uint256){... */\n    tag_71:\n        /* \"project/newToken.sol\":1123:1130  uint256 */\n      0x00\n        /* \"project/newToken.sol\":1144:1152  _allowed */\n      0x02\n        /* \"project/newToken.sol\":1144:1159  _allowed[owner] */\n      0x00\n        /* \"project/newToken.sol\":1153:1158  owner */\n      dup5\n        /* \"project/newToken.sol\":1144:1159  _allowed[owner] */\n      0xffffffffffffffffffffffffffffffffffffffff\n      and\n      0xffffffffffffffffffffffffffffffffffffffff\n      and\n      dup2\n      mstore\n      0x20\n      add\n      swap1\n      dup2\n      mstore\n      0x20\n      add\n      0x00\n      keccak256\n        /* \"project/newToken.sol\":1144:1168  _allowed[owner][spender] */\n      0x00\n        /* \"project/newToken.sol\":1160:1167  spender */\n      dup4\n        /* \"project/newToken.sol\":1144:1168  _allowed[owner][spender] */\n      0xffffffffffffffffffffffffffffffffffffffff\n      and\n      0xffffffffffffffffffffffffffffffffffffffff\n      and\n      dup2\n      mstore\n      0x20\n      add\n      swap1\n      dup2\n      mstore\n      0x20\n      add\n      0x00\n      keccak256\n      sload\n        /* \"project/newToken.sol\":1137:1168  return _allowed[owner][spender] */\n      swap1\n      pop\n        /* \"project/newToken.sol\":1044:1173  function allowance(address owner,address spender)public override view returns (uint256){... */\n      swap3\n      swap2\n      pop\n      pop\n      jump\t// out\n        /* \"project/libraries/SafeMath.sol\":320:447  function sub(uint x, uint y) internal pure returns (uint z) {... */\n    tag_82:\n        /* \"project/libraries/SafeMath.sol\":372:378  uint z */\n      0x00\n        /* \"project/libraries/SafeMath.sol\":413:414  x */\n      dup3\n        /* \"project/libraries/SafeMath.sol\":407:408  y */\n      dup3\n        /* \"project/libraries/SafeMath.sol\":403:404  x */\n      dup5\n        /* \"project/libraries/SafeMath.sol\":403:408  x - y */\n      tag_117\n      swap2\n      swap1\n      tag_118\n      jump\t// in\n    tag_117:\n        /* \"project/libraries/SafeMath.sol\":399:408  z = x - y */\n      swap2\n      pop\n      dup2\n        /* \"project/libraries/SafeMath.sol\":398:414  (z = x - y) <= x */\n      gt\n      iszero\n        /* \"project/libraries/SafeMath.sol\":390:440  require((z = x - y) <= x, 'ds-math-sub-underflow') */\n      tag_119\n      jumpi\n      mload(0x40)\n      0x08c379a000000000000000000000000000000000000000000000000000000000\n      dup2\n      mstore\n      0x04\n      add\n      tag_120\n      swap1\n      tag_121\n      jump\t// in\n    tag_120:\n      mload(0x40)\n      dup1\n      swap2\n      sub\n      swap1\n      revert\n    tag_119:\n        /* \"project/libraries/SafeMath.sol\":320:447  function sub(uint x, uint y) internal pure returns (uint z) {... */\n      swap3\n      swap2\n      pop\n      pop\n      jump\t// out\n        /* \"project/newToken.sol\":1738:1948  function _transfer(address from, address to, uint value) private {... */\n    tag_84:\n        /* \"project/newToken.sol\":1829:1855  _balances[from].sub(value) */\n      tag_123\n        /* \"project/newToken.sol\":1849:1854  value */\n      dup2\n        /* \"project/newToken.sol\":1829:1838  _balances */\n      0x01\n        /* \"project/newToken.sol\":1829:1844  _balances[from] */\n      0x00\n        /* \"project/newToken.sol\":1839:1843  from */\n      dup7\n        /* \"project/newToken.sol\":1829:1844  _balances[from] */\n      0xffffffffffffffffffffffffffffffffffffffff\n      and\n      0xffffffffffffffffffffffffffffffffffffffff\n      and\n      dup2\n      mstore\n      0x20\n      add\n      swap1\n      dup2\n      mstore\n      0x20\n      add\n      0x00\n      keccak256\n      sload\n        /* \"project/newToken.sol\":1829:1848  _balances[from].sub */\n      tag_82\n      swap1\n        /* \"project/newToken.sol\":1829:1855  _balances[from].sub(value) */\n      swap2\n      swap1\n      0xffffffff\n      and\n      jump\t// in\n    tag_123:\n        /* \"project/newToken.sol\":1811:1820  _balances */\n      0x01\n        /* \"project/newToken.sol\":1811:1826  _balances[from] */\n      0x00\n        /* \"project/newToken.sol\":1821:1825  from */\n      dup6\n        /* \"project/newToken.sol\":1811:1826  _balances[from] */\n      0xffffffffffffffffffffffffffffffffffffffff\n      and\n      0xffffffffffffffffffffffffffffffffffffffff\n      and\n      dup2\n      mstore\n      0x20\n      add\n      swap1\n      dup2\n      mstore\n      0x20\n      add\n      0x00\n      keccak256\n        /* \"project/newToken.sol\":1811:1855  _balances[from] = _balances[from].sub(value) */\n      dup2\n      swap1\n      sstore\n      pop\n        /* \"project/newToken.sol\":1879:1903  _balances[to].add(value) */\n      tag_124\n        /* \"project/newToken.sol\":1897:1902  value */\n      dup2\n        /* \"project/newToken.sol\":1879:1888  _balances */\n      0x01\n        /* \"project/newToken.sol\":1879:1892  _balances[to] */\n      0x00\n        /* \"project/newToken.sol\":1889:1891  to */\n      dup6\n        /* \"project/newToken.sol\":1879:1892  _balances[to] */\n      0xffffffffffffffffffffffffffffffffffffffff\n      and\n      0xffffffffffffffffffffffffffffffffffffffff\n      and\n      dup2\n      mstore\n      0x20\n      add\n      swap1\n      dup2\n      mstore\n      0x20\n      add\n      0x00\n      keccak256\n      sload\n        /* \"project/newToken.sol\":1879:1896  _balances[to].add */\n      tag_88\n      swap1\n        /* \"project/newToken.sol\":1879:1903  _balances[to].add(value) */\n      swap2\n      swap1\n      0xffffffff\n      and\n      jump\t// in\n    tag_124:\n        /* \"project/newToken.sol\":1863:1872  _balances */\n      0x01\n        /* \"project/newToken.sol\":1863:1876  _balances[to] */\n      0x00\n        /* \"project/newToken.sol\":1873:1875  to */\n      dup5\n        /* \"project/newToken.sol\":1863:1876  _balances[to] */\n      0xffffffffffffffffffffffffffffffffffffffff\n      and\n      0xffffffffffffffffffffffffffffffffffffffff\n      and\n      dup2\n      mstore\n      0x20\n      add\n      swap1\n      dup2\n      mstore\n      0x20\n      add\n      0x00\n      keccak256\n        /* \"project/newToken.sol\":1863:1903  _balances[to] = _balances[to].add(value) */\n      dup2\n      swap1\n      sstore\n      pop\n        /* \"project/newToken.sol\":1931:1933  to */\n      dup2\n        /* \"project/newToken.sol\":1916:1941  Transfer(from, to, value) */\n      0xffffffffffffffffffffffffffffffffffffffff\n      and\n        /* \"project/newToken.sol\":1925:1929  from */\n      dup4\n        /* \"project/newToken.sol\":1916:1941  Transfer(from, to, value) */\n      0xffffffffffffffffffffffffffffffffffffffff\n      and\n      0xddf252ad1be2c89b69c2b068fc378daa952ba7f163c4a11628f55a4df523b3ef\n        /* \"project/newToken.sol\":1935:1940  value */\n      dup4\n        /* \"project/newToken.sol\":1916:1941  Transfer(from, to, value) */\n      mload(0x40)\n      tag_125\n      swap2\n      swap1\n      tag_31\n      jump\t// in\n    tag_125:\n      mload(0x40)\n      dup1\n      swap2\n      sub\n      swap1\n      log3\n        /* \"project/newToken.sol\":1738:1948  function _transfer(address from, address to, uint value) private {... */\n      pop\n      pop\n      pop\n      jump\t// out\n        /* \"project/libraries/SafeMath.sol\":192:314  function add(uint x, uint y) internal pure returns (uint z) {... */\n    tag_88:\n        /* \"project/libraries/SafeMath.sol\":244:250  uint z */\n      0x00\n        /* \"project/libraries/SafeMath.sol\":281:282  x */\n      dup3\n        /* \"project/libraries/SafeMath.sol\":275:276  y */\n      dup3\n        /* \"project/libraries/SafeMath.sol\":271:272  x */\n      dup5\n        /* \"project/libraries/SafeMath.sol\":271:276  x + y */\n      tag_127\n      swap2\n      swap1\n      tag_128\n      jump\t// in\n    tag_127:\n        /* \"project/libraries/SafeMath.sol\":267:276  z = x + y */\n      swap2\n      pop\n      dup2\n        /* \"project/libraries/SafeMath.sol\":266:282  (z = x + y) >= x */\n      lt\n      iszero\n        /* \"project/libraries/SafeMath.sol\":258:307  require((z = x + y) >= x, 'ds-math-add-overflow') */\n      tag_129\n      jumpi\n      mload(0x40)\n      0x08c379a000000000000000000000000000000000000000000000000000000000\n      dup2\n      mstore\n      0x04\n      add\n      tag_130\n      swap1\n      tag_131\n      jump\t// in\n    tag_130:\n      mload(0x40)\n      dup1\n      swap2\n      sub\n      swap1\n      revert\n    tag_129:\n        /* \"project/libraries/SafeMath.sol\":192:314  function add(uint x, uint y) internal pure returns (uint z) {... */\n      swap3\n      swap2\n      pop\n      pop\n      jump\t// out\n        /* \"project/newToken.sol\":3185:3604  function findLowestBalanceHolder() internal view returns (address) {... */\n    tag_99:\n        /* \"project/newToken.sol\":3243:3250  address */\n      0x00\n        /* \"project/newToken.sol\":3262:3282  address lowestHolder */\n      dup1\n        /* \"project/newToken.sol\":3292:3313  uint256 lowestBalance */\n      0x00\n        /* \"project/newToken.sol\":231:237  10**13 */\n      0x09184e72a000\n        /* \"project/newToken.sol\":3292:3328  uint256 lowestBalance = _totalSupply */\n      swap1\n      pop\n        /* \"project/newToken.sol\":3344:3353  uint256 i */\n      0x00\n        /* \"project/newToken.sol\":3339:3568  for (uint256 i = 0; i < _holders.length; i++) {... */\n    tag_133:\n        /* \"project/newToken.sol\":3363:3371  _holders */\n      0x03\n        /* \"project/newToken.sol\":3363:3378  _holders.length */\n      dup1\n      sload\n      swap1\n      pop\n        /* \"project/newToken.sol\":3359:3360  i */\n      dup2\n        /* \"project/newToken.sol\":3359:3378  i < _holders.length */\n      lt\n        /* \"project/newToken.sol\":3339:3568  for (uint256 i = 0; i < _holders.length; i++) {... */\n      iszero\n      tag_134\n      jumpi\n        /* \"project/newToken.sol\":3428:3441  lowestBalance */\n      dup2\n        /* \"project/newToken.sol\":3403:3412  _balances */\n      0x01\n        /* \"project/newToken.sol\":3403:3425  _balances[_holders[i]] */\n      0x00\n        /* \"project/newToken.sol\":3413:3421  _holders */\n      0x03\n        /* \"project/newToken.sol\":3422:3423  i */\n      dup5\n        /* \"project/newToken.sol\":3413:3424  _holders[i] */\n      dup2\n      sload\n      dup2\n      lt\n      tag_136\n      jumpi\n      tag_137\n      tag_138\n      jump\t// in\n    tag_137:\n    tag_136:\n      swap1\n      0x00\n      mstore\n      keccak256(0x00, 0x20)\n      add\n      0x00\n      swap1\n      sload\n      swap1\n      0x0100\n      exp\n      swap1\n      div\n      0xffffffffffffffffffffffffffffffffffffffff\n      and\n        /* \"project/newToken.sol\":3403:3425  _balances[_holders[i]] */\n      0xffffffffffffffffffffffffffffffffffffffff\n      and\n      0xffffffffffffffffffffffffffffffffffffffff\n      and\n      dup2\n      mstore\n      0x20\n      add\n      swap1\n      dup2\n      mstore\n      0x20\n      add\n      0x00\n      keccak256\n      sload\n        /* \"project/newToken.sol\":3403:3441  _balances[_holders[i]] < lowestBalance */\n      lt\n        /* \"project/newToken.sol\":3399:3558  if (_balances[_holders[i]] < lowestBalance) {... */\n      iszero\n      tag_140\n      jumpi\n        /* \"project/newToken.sol\":3477:3486  _balances */\n      0x01\n        /* \"project/newToken.sol\":3477:3499  _balances[_holders[i]] */\n      0x00\n        /* \"project/newToken.sol\":3487:3495  _holders */\n      0x03\n        /* \"project/newToken.sol\":3496:3497  i */\n      dup4\n        /* \"project/newToken.sol\":3487:3498  _holders[i] */\n      dup2\n      sload\n      dup2\n      lt\n      tag_141\n      jumpi\n      tag_142\n      tag_138\n      jump\t// in\n    tag_142:\n    tag_141:\n      swap1\n      0x00\n      mstore\n      keccak256(0x00, 0x20)\n      add\n      0x00\n      swap1\n      sload\n      swap1\n      0x0100\n      exp\n      swap1\n      div\n      0xffffffffffffffffffffffffffffffffffffffff\n      and\n        /* \"project/newToken.sol\":3477:3499  _balances[_holders[i]] */\n      0xffffffffffffffffffffffffffffffffffffffff\n      and\n      0xffffffffffffffffffffffffffffffffffffffff\n      and\n      dup2\n      mstore\n      0x20\n      add\n      swap1\n      dup2\n      mstore\n      0x20\n      add\n      0x00\n      keccak256\n      sload\n        /* \"project/newToken.sol\":3461:3499  lowestBalance = _balances[_holders[i]] */\n      swap2\n      pop\n        /* \"project/newToken.sol\":3532:3540  _holders */\n      0x03\n        /* \"project/newToken.sol\":3541:3542  i */\n      dup2\n        /* \"project/newToken.sol\":3532:3543  _holders[i] */\n      dup2\n      sload\n      dup2\n      lt\n      tag_144\n      jumpi\n      tag_145\n      tag_138\n      jump\t// in\n    tag_145:\n    tag_144:\n      swap1\n      0x00\n      mstore\n      keccak256(0x00, 0x20)\n      add\n      0x00\n      swap1\n      sload\n      swap1\n      0x0100\n      exp\n      swap1\n      div\n      0xffffffffffffffffffffffffffffffffffffffff\n      and\n        /* \"project/newToken.sol\":3517:3543  lowestHolder = _holders[i] */\n      swap3\n      pop\n        /* \"project/newToken.sol\":3399:3558  if (_balances[_holders[i]] < lowestBalance) {... */\n    tag_140:\n        /* \"project/newToken.sol\":3380:3383  i++ */\n      dup1\n      dup1\n      0x01\n      add\n      swap2\n      pop\n      pop\n        /* \"project/newToken.sol\":3339:3568  for (uint256 i = 0; i < _holders.length; i++) {... */\n      jump(tag_133)\n    tag_134:\n      pop\n        /* \"project/newToken.sol\":3585:3597  lowestHolder */\n      dup2\n        /* \"project/newToken.sol\":3578:3597  return lowestHolder */\n      swap3\n      pop\n      pop\n      pop\n        /* \"project/newToken.sol\":3185:3604  function findLowestBalanceHolder() internal view returns (address) {... */\n      swap1\n      jump\t// out\n        /* \"#utility.yul\":7:106   */\n    tag_147:\n        /* \"#utility.yul\":59:65   */\n      0x00\n        /* \"#utility.yul\":93:98   */\n      dup2\n        /* \"#utility.yul\":87:99   */\n      mload\n        /* \"#utility.yul\":77:99   */\n      swap1\n      pop\n        /* \"#utility.yul\":7:106   */\n      swap2\n      swap1\n      pop\n      jump\t// out\n        /* \"#utility.yul\":112:281   */\n    tag_148:\n        /* \"#utility.yul\":196:207   */\n      0x00\n        /* \"#utility.yul\":230:236   */\n      dup3\n        /* \"#utility.yul\":225:228   */\n      dup3\n        /* \"#utility.yul\":218:237   */\n      mstore\n        /* \"#utility.yul\":270:274   */\n      0x20\n        /* \"#utility.yul\":265:268   */\n      dup3\n        /* \"#utility.yul\":261:275   */\n      add\n        /* \"#utility.yul\":246:275   */\n      swap1\n      pop\n        /* \"#utility.yul\":112:281   */\n      swap3\n      swap2\n      pop\n      pop\n      jump\t// out\n        /* \"#utility.yul\":287:535   */\n    tag_149:\n        /* \"#utility.yul\":369:370   */\n      0x00\n        /* \"#utility.yul\":379:492   */\n    tag_200:\n        /* \"#utility.yul\":393:399   */\n      dup4\n        /* \"#utility.yul\":390:391   */\n      dup2\n        /* \"#utility.yul\":387:400   */\n      lt\n        /* \"#utility.yul\":379:492   */\n      iszero\n      tag_202\n      jumpi\n        /* \"#utility.yul\":478:479   */\n      dup1\n        /* \"#utility.yul\":473:476   */\n      dup3\n        /* \"#utility.yul\":469:480   */\n      add\n        /* \"#utility.yul\":463:481   */\n      mload\n        /* \"#utility.yul\":459:460   */\n      dup2\n        /* \"#utility.yul\":454:457   */\n      dup5\n        /* \"#utility.yul\":450:461   */\n      add\n        /* \"#utility.yul\":443:482   */\n      mstore\n        /* \"#utility.yul\":415:417   */\n      0x20\n        /* \"#utility.yul\":412:413   */\n      dup2\n        /* \"#utility.yul\":408:418   */\n      add\n        /* \"#utility.yul\":403:418   */\n      swap1\n      pop\n        /* \"#utility.yul\":379:492   */\n      jump(tag_200)\n    tag_202:\n        /* \"#utility.yul\":526:527   */\n      0x00\n        /* \"#utility.yul\":517:523   */\n      dup5\n        /* \"#utility.yul\":512:515   */\n      dup5\n        /* \"#utility.yul\":508:524   */\n      add\n        /* \"#utility.yul\":501:528   */\n      mstore\n        /* \"#utility.yul\":349:535   */\n      pop\n        /* \"#utility.yul\":287:535   */\n      pop\n      pop\n      pop\n      jump\t// out\n        /* \"#utility.yul\":541:643   */\n    tag_150:\n        /* \"#utility.yul\":582:588   */\n      0x00\n        /* \"#utility.yul\":633:635   */\n      0x1f\n        /* \"#utility.yul\":629:636   */\n      not\n        /* \"#utility.yul\":624:626   */\n      0x1f\n        /* \"#utility.yul\":617:622   */\n      dup4\n        /* \"#utility.yul\":613:627   */\n      add\n        /* \"#utility.yul\":609:637   */\n      and\n        /* \"#utility.yul\":599:637   */\n      swap1\n      pop\n        /* \"#utility.yul\":541:643   */\n      swap2\n      swap1\n      pop\n      jump\t// out\n        /* \"#utility.yul\":649:1026   */\n    tag_151:\n        /* \"#utility.yul\":737:740   */\n      0x00\n        /* \"#utility.yul\":765:804   */\n      tag_205\n        /* \"#utility.yul\":798:803   */\n      dup3\n        /* \"#utility.yul\":765:804   */\n      tag_147\n      jump\t// in\n    tag_205:\n        /* \"#utility.yul\":820:891   */\n      tag_206\n        /* \"#utility.yul\":884:890   */\n      dup2\n        /* \"#utility.yul\":879:882   */\n      dup6\n        /* \"#utility.yul\":820:891   */\n      tag_148\n      jump\t// in\n    tag_206:\n        /* \"#utility.yul\":813:891   */\n      swap4\n      pop\n        /* \"#utility.yul\":900:965   */\n      tag_207\n        /* \"#utility.yul\":958:964   */\n      dup2\n        /* \"#utility.yul\":953:956   */\n      dup6\n        /* \"#utility.yul\":946:950   */\n      0x20\n        /* \"#utility.yul\":939:944   */\n      dup7\n        /* \"#utility.yul\":935:951   */\n      add\n        /* \"#utility.yul\":900:965   */\n      tag_149\n      jump\t// in\n    tag_207:\n        /* \"#utility.yul\":990:1019   */\n      tag_208\n        /* \"#utility.yul\":1012:1018   */\n      dup2\n        /* \"#utility.yul\":990:1019   */\n      tag_150\n      jump\t// in\n    tag_208:\n        /* \"#utility.yul\":985:988   */\n      dup5\n        /* \"#utility.yul\":981:1020   */\n      add\n        /* \"#utility.yul\":974:1020   */\n      swap2\n      pop\n        /* \"#utility.yul\":741:1026   */\n      pop\n        /* \"#utility.yul\":649:1026   */\n      swap3\n      swap2\n      pop\n      pop\n      jump\t// out\n        /* \"#utility.yul\":1032:1345   */\n    tag_21:\n        /* \"#utility.yul\":1145:1149   */\n      0x00\n        /* \"#utility.yul\":1183:1185   */\n      0x20\n        /* \"#utility.yul\":1172:1181   */\n      dup3\n        /* \"#utility.yul\":1168:1186   */\n      add\n        /* \"#utility.yul\":1160:1186   */\n      swap1\n      pop\n        /* \"#utility.yul\":1232:1241   */\n      dup2\n        /* \"#utility.yul\":1226:1230   */\n      dup2\n        /* \"#utility.yul\":1222:1242   */\n      sub\n        /* \"#utility.yul\":1218:1219   */\n      0x00\n        /* \"#utility.yul\":1207:1216   */\n      dup4\n        /* \"#utility.yul\":1203:1220   */\n      add\n        /* \"#utility.yul\":1196:1243   */\n      mstore\n        /* \"#utility.yul\":1260:1338   */\n      tag_210\n        /* \"#utility.yul\":1333:1337   */\n      dup2\n        /* \"#utility.yul\":1324:1330   */\n      dup5\n        /* \"#utility.yul\":1260:1338   */\n      tag_151\n      jump\t// in\n    tag_210:\n        /* \"#utility.yul\":1252:1338   */\n      swap1\n      pop\n        /* \"#utility.yul\":1032:1345   */\n      swap3\n      swap2\n      pop\n      pop\n      jump\t// out\n        /* \"#utility.yul\":1432:1549   */\n    tag_153:\n        /* \"#utility.yul\":1541:1542   */\n      0x00\n        /* \"#utility.yul\":1538:1539   */\n      dup1\n        /* \"#utility.yul\":1531:1543   */\n      revert\n        /* \"#utility.yul\":1555:1672   */\n    tag_154:\n        /* \"#utility.yul\":1664:1665   */\n      0x00\n        /* \"#utility.yul\":1661:1662   */\n      dup1\n        /* \"#utility.yul\":1654:1666   */\n      revert\n        /* \"#utility.yul\":1678:1804   */\n    tag_155:\n        /* \"#utility.yul\":1715:1722   */\n      0x00\n        /* \"#utility.yul\":1755:1797   */\n      0xffffffffffffffffffffffffffffffffffffffff\n        /* \"#utility.yul\":1748:1753   */\n      dup3\n        /* \"#utility.yul\":1744:1798   */\n      and\n        /* \"#utility.yul\":1733:1798   */\n      swap1\n      pop\n        /* \"#utility.yul\":1678:1804   */\n      swap2\n      swap1\n      pop\n      jump\t// out\n        /* \"#utility.yul\":1810:1906   */\n    tag_156:\n        /* \"#utility.yul\":1847:1854   */\n      0x00\n        /* \"#utility.yul\":1876:1900   */\n      tag_216\n        /* \"#utility.yul\":1894:1899   */\n      dup3\n        /* \"#utility.yul\":1876:1900   */\n      tag_155\n      jump\t// in\n    tag_216:\n        /* \"#utility.yul\":1865:1900   */\n      swap1\n      pop\n        /* \"#utility.yul\":1810:1906   */\n      swap2\n      swap1\n      pop\n      jump\t// out\n        /* \"#utility.yul\":1912:2034   */\n    tag_157:\n        /* \"#utility.yul\":1985:2009   */\n      tag_218\n        /* \"#utility.yul\":2003:2008   */\n      dup2\n        /* \"#utility.yul\":1985:2009   */\n      tag_156\n      jump\t// in\n    tag_218:\n        /* \"#utility.yul\":1978:1983   */\n      dup2\n        /* \"#utility.yul\":1975:2010   */\n      eq\n        /* \"#utility.yul\":1965:2028   */\n      tag_219\n      jumpi\n        /* \"#utility.yul\":2024:2025   */\n      0x00\n        /* \"#utility.yul\":2021:2022   */\n      dup1\n        /* \"#utility.yul\":2014:2026   */\n      revert\n        /* \"#utility.yul\":1965:2028   */\n    tag_219:\n        /* \"#utility.yul\":1912:2034   */\n      pop\n      jump\t// out\n        /* \"#utility.yul\":2040:2179   */\n    tag_158:\n        /* \"#utility.yul\":2086:2091   */\n      0x00\n        /* \"#utility.yul\":2124:2130   */\n      dup2\n        /* \"#utility.yul\":2111:2131   */\n      calldataload\n        /* \"#utility.yul\":2102:2131   */\n      swap1\n      pop\n        /* \"#utility.yul\":2140:2173   */\n      tag_221\n        /* \"#utility.yul\":2167:2172   */\n      dup2\n        /* \"#utility.yul\":2140:2173   */\n      tag_157\n      jump\t// in\n    tag_221:\n        /* \"#utility.yul\":2040:2179   */\n      swap3\n      swap2\n      pop\n      pop\n      jump\t// out\n        /* \"#utility.yul\":2185:2262   */\n    tag_159:\n        /* \"#utility.yul\":2222:2229   */\n      0x00\n        /* \"#utility.yul\":2251:2256   */\n      dup2\n        /* \"#utility.yul\":2240:2256   */\n      swap1\n      pop\n        /* \"#utility.yul\":2185:2262   */\n      swap2\n      swap1\n      pop\n      jump\t// out\n        /* \"#utility.yul\":2268:2390   */\n    tag_160:\n        /* \"#utility.yul\":2341:2365   */\n      tag_224\n        /* \"#utility.yul\":2359:2364   */\n      dup2\n        /* \"#utility.yul\":2341:2365   */\n      tag_159\n      jump\t// in\n    tag_224:\n        /* \"#utility.yul\":2334:2339   */\n      dup2\n        /* \"#utility.yul\":2331:2366   */\n      eq\n        /* \"#utility.yul\":2321:2384   */\n      tag_225\n      jumpi\n        /* \"#utility.yul\":2380:2381   */\n      0x00\n        /* \"#utility.yul\":2377:2378   */\n      dup1\n        /* \"#utility.yul\":2370:2382   */\n      revert\n        /* \"#utility.yul\":2321:2384   */\n    tag_225:\n        /* \"#utility.yul\":2268:2390   */\n      pop\n      jump\t// out\n        /* \"#utility.yul\":2396:2535   */\n    tag_161:\n        /* \"#utility.yul\":2442:2447   */\n      0x00\n        /* \"#utility.yul\":2480:2486   */\n      dup2\n        /* \"#utility.yul\":2467:2487   */\n      calldataload\n        /* \"#utility.yul\":2458:2487   */\n      swap1\n      pop\n        /* \"#utility.yul\":2496:2529   */\n      tag_227\n        /* \"#utility.yul\":2523:2528   */\n      dup2\n        /* \"#utility.yul\":2496:2529   */\n      tag_160\n      jump\t// in\n    tag_227:\n        /* \"#utility.yul\":2396:2535   */\n      swap3\n      swap2\n      pop\n      pop\n      jump\t// out\n        /* \"#utility.yul\":2541:3015   */\n    tag_24:\n        /* \"#utility.yul\":2609:2615   */\n      0x00\n        /* \"#utility.yul\":2617:2623   */\n      dup1\n        /* \"#utility.yul\":2666:2668   */\n      0x40\n        /* \"#utility.yul\":2654:2663   */\n      dup4\n        /* \"#utility.yul\":2645:2652   */\n      dup6\n        /* \"#utility.yul\":2641:2664   */\n      sub\n        /* \"#utility.yul\":2637:2669   */\n      slt\n        /* \"#utility.yul\":2634:2753   */\n      iszero\n      tag_229\n      jumpi\n        /* \"#utility.yul\":2672:2751   */\n      tag_230\n      tag_153\n      jump\t// in\n    tag_230:\n        /* \"#utility.yul\":2634:2753   */\n    tag_229:\n        /* \"#utility.yul\":2792:2793   */\n      0x00\n        /* \"#utility.yul\":2817:2870   */\n      tag_231\n        /* \"#utility.yul\":2862:2869   */\n      dup6\n        /* \"#utility.yul\":2853:2859   */\n      dup3\n        /* \"#utility.yul\":2842:2851   */\n      dup7\n        /* \"#utility.yul\":2838:2860   */\n      add\n        /* \"#utility.yul\":2817:2870   */\n      tag_158\n      jump\t// in\n    tag_231:\n        /* \"#utility.yul\":2807:2870   */\n      swap3\n      pop\n        /* \"#utility.yul\":2763:2880   */\n      pop\n        /* \"#utility.yul\":2919:2921   */\n      0x20\n        /* \"#utility.yul\":2945:2998   */\n      tag_232\n        /* \"#utility.yul\":2990:2997   */\n      dup6\n        /* \"#utility.yul\":2981:2987   */\n      dup3\n        /* \"#utility.yul\":2970:2979   */\n      dup7\n        /* \"#utility.yul\":2966:2988   */\n      add\n        /* \"#utility.yul\":2945:2998   */\n      tag_161\n      jump\t// in\n    tag_232:\n        /* \"#utility.yul\":2935:2998   */\n      swap2\n      pop\n        /* \"#utility.yul\":2890:3008   */\n      pop\n        /* \"#utility.yul\":2541:3015   */\n      swap3\n      pop\n      swap3\n      swap1\n      pop\n      jump\t// out\n        /* \"#utility.yul\":3021:3111   */\n    tag_162:\n        /* \"#utility.yul\":3055:3062   */\n      0x00\n        /* \"#utility.yul\":3098:3103   */\n      dup2\n        /* \"#utility.yul\":3091:3104   */\n      iszero\n        /* \"#utility.yul\":3084:3105   */\n      iszero\n        /* \"#utility.yul\":3073:3105   */\n      swap1\n      pop\n        /* \"#utility.yul\":3021:3111   */\n      swap2\n      swap1\n      pop\n      jump\t// out\n        /* \"#utility.yul\":3117:3226   */\n    tag_163:\n        /* \"#utility.yul\":3198:3219   */\n      tag_235\n        /* \"#utility.yul\":3213:3218   */\n      dup2\n        /* \"#utility.yul\":3198:3219   */\n      tag_162\n      jump\t// in\n    tag_235:\n        /* \"#utility.yul\":3193:3196   */\n      dup3\n        /* \"#utility.yul\":3186:3220   */\n      mstore\n        /* \"#utility.yul\":3117:3226   */\n      pop\n      pop\n      jump\t// out\n        /* \"#utility.yul\":3232:3442   */\n    tag_27:\n        /* \"#utility.yul\":3319:3323   */\n      0x00\n        /* \"#utility.yul\":3357:3359   */\n      0x20\n        /* \"#utility.yul\":3346:3355   */\n      dup3\n        /* \"#utility.yul\":3342:3360   */\n      add\n        /* \"#utility.yul\":3334:3360   */\n      swap1\n      pop\n        /* \"#utility.yul\":3370:3435   */\n      tag_237\n        /* \"#utility.yul\":3432:3433   */\n      0x00\n        /* \"#utility.yul\":3421:3430   */\n      dup4\n        /* \"#utility.yul\":3417:3434   */\n      add\n        /* \"#utility.yul\":3408:3414   */\n      dup5\n        /* \"#utility.yul\":3370:3435   */\n      tag_163\n      jump\t// in\n    tag_237:\n        /* \"#utility.yul\":3232:3442   */\n      swap3\n      swap2\n      pop\n      pop\n      jump\t// out\n        /* \"#utility.yul\":3448:3566   */\n    tag_164:\n        /* \"#utility.yul\":3535:3559   */\n      tag_239\n        /* \"#utility.yul\":3553:3558   */\n      dup2\n        /* \"#utility.yul\":3535:3559   */\n      tag_159\n      jump\t// in\n    tag_239:\n        /* \"#utility.yul\":3530:3533   */\n      dup3\n        /* \"#utility.yul\":3523:3560   */\n      mstore\n        /* \"#utility.yul\":3448:3566   */\n      pop\n      pop\n      jump\t// out\n        /* \"#utility.yul\":3572:3794   */\n    tag_31:\n        /* \"#utility.yul\":3665:3669   */\n      0x00\n        /* \"#utility.yul\":3703:3705   */\n      0x20\n        /* \"#utility.yul\":3692:3701   */\n      dup3\n        /* \"#utility.yul\":3688:3706   */\n      add\n        /* \"#utility.yul\":3680:3706   */\n      swap1\n      pop\n        /* \"#utility.yul\":3716:3787   */\n      tag_241\n        /* \"#utility.yul\":3784:3785   */\n      0x00\n        /* \"#utility.yul\":3773:3782   */\n      dup4\n        /* \"#utility.yul\":3769:3786   */\n      add\n        /* \"#utility.yul\":3760:3766   */\n      dup5\n        /* \"#utility.yul\":3716:3787   */\n      tag_164\n      jump\t// in\n    tag_241:\n        /* \"#utility.yul\":3572:3794   */\n      swap3\n      swap2\n      pop\n      pop\n      jump\t// out\n        /* \"#utility.yul\":3800:4419   */\n    tag_34:\n        /* \"#utility.yul\":3877:3883   */\n      0x00\n        /* \"#utility.yul\":3885:3891   */\n      dup1\n        /* \"#utility.yul\":3893:3899   */\n      0x00\n        /* \"#utility.yul\":3942:3944   */\n      0x60\n        /* \"#utility.yul\":3930:3939   */\n      dup5\n        /* \"#utility.yul\":3921:3928   */\n      dup7\n        /* \"#utility.yul\":3917:3940   */\n      sub\n        /* \"#utility.yul\":3913:3945   */\n      slt\n        /* \"#utility.yul\":3910:4029   */\n      iszero\n      tag_243\n      jumpi\n        /* \"#utility.yul\":3948:4027   */\n      tag_244\n      tag_153\n      jump\t// in\n    tag_244:\n        /* \"#utility.yul\":3910:4029   */\n    tag_243:\n        /* \"#utility.yul\":4068:4069   */\n      0x00\n        /* \"#utility.yul\":4093:4146   */\n      tag_245\n        /* \"#utility.yul\":4138:4145   */\n      dup7\n        /* \"#utility.yul\":4129:4135   */\n      dup3\n        /* \"#utility.yul\":4118:4127   */\n      dup8\n        /* \"#utility.yul\":4114:4136   */\n      add\n        /* \"#utility.yul\":4093:4146   */\n      tag_158\n      jump\t// in\n    tag_245:\n        /* \"#utility.yul\":4083:4146   */\n      swap4\n      pop\n        /* \"#utility.yul\":4039:4156   */\n      pop\n        /* \"#utility.yul\":4195:4197   */\n      0x20\n        /* \"#utility.yul\":4221:4274   */\n      tag_246\n        /* \"#utility.yul\":4266:4273   */\n      dup7\n        /* \"#utility.yul\":4257:4263   */\n      dup3\n        /* \"#utility.yul\":4246:4255   */\n      dup8\n        /* \"#utility.yul\":4242:4264   */\n      add\n        /* \"#utility.yul\":4221:4274   */\n      tag_158\n      jump\t// in\n    tag_246:\n        /* \"#utility.yul\":4211:4274   */\n      swap3\n      pop\n        /* \"#utility.yul\":4166:4284   */\n      pop\n        /* \"#utility.yul\":4323:4325   */\n      0x40\n        /* \"#utility.yul\":4349:4402   */\n      tag_247\n        /* \"#utility.yul\":4394:4401   */\n      dup7\n        /* \"#utility.yul\":4385:4391   */\n      dup3\n        /* \"#utility.yul\":4374:4383   */\n      dup8\n        /* \"#utility.yul\":4370:4392   */\n      add\n        /* \"#utility.yul\":4349:4402   */\n      tag_161\n      jump\t// in\n    tag_247:\n        /* \"#utility.yul\":4339:4402   */\n      swap2\n      pop\n        /* \"#utility.yul\":4294:4412   */\n      pop\n        /* \"#utility.yul\":3800:4419   */\n      swap3\n      pop\n      swap3\n      pop\n      swap3\n      jump\t// out\n        /* \"#utility.yul\":4425:4511   */\n    tag_165:\n        /* \"#utility.yul\":4460:4467   */\n      0x00\n        /* \"#utility.yul\":4500:4504   */\n      0xff\n        /* \"#utility.yul\":4493:4498   */\n      dup3\n        /* \"#utility.yul\":4489:4505   */\n      and\n        /* \"#utility.yul\":4478:4505   */\n      swap1\n      pop\n        /* \"#utility.yul\":4425:4511   */\n      swap2\n      swap1\n      pop\n      jump\t// out\n        /* \"#utility.yul\":4517:4629   */\n    tag_166:\n        /* \"#utility.yul\":4600:4622   */\n      tag_250\n        /* \"#utility.yul\":4616:4621   */\n      dup2\n        /* \"#utility.yul\":4600:4622   */\n      tag_165\n      jump\t// in\n    tag_250:\n        /* \"#utility.yul\":4595:4598   */\n      dup3\n        /* \"#utility.yul\":4588:4623   */\n      mstore\n        /* \"#utility.yul\":4517:4629   */\n      pop\n      pop\n      jump\t// out\n        /* \"#utility.yul\":4635:4849   */\n    tag_40:\n        /* \"#utility.yul\":4724:4728   */\n      0x00\n        /* \"#utility.yul\":4762:4764   */\n      0x20\n        /* \"#utility.yul\":4751:4760   */\n      dup3\n        /* \"#utility.yul\":4747:4765   */\n      add\n        /* \"#utility.yul\":4739:4765   */\n      swap1\n      pop\n        /* \"#utility.yul\":4775:4842   */\n      tag_252\n        /* \"#utility.yul\":4839:4840   */\n      0x00\n        /* \"#utility.yul\":4828:4837   */\n      dup4\n        /* \"#utility.yul\":4824:4841   */\n      add\n        /* \"#utility.yul\":4815:4821   */\n      dup5\n        /* \"#utility.yul\":4775:4842   */\n      tag_166\n      jump\t// in\n    tag_252:\n        /* \"#utility.yul\":4635:4849   */\n      swap3\n      swap2\n      pop\n      pop\n      jump\t// out\n        /* \"#utility.yul\":4855:5184   */\n    tag_50:\n        /* \"#utility.yul\":4914:4920   */\n      0x00\n        /* \"#utility.yul\":4963:4965   */\n      0x20\n        /* \"#utility.yul\":4951:4960   */\n      dup3\n        /* \"#utility.yul\":4942:4949   */\n      dup5\n        /* \"#utility.yul\":4938:4961   */\n      sub\n        /* \"#utility.yul\":4934:4966   */\n      slt\n        /* \"#utility.yul\":4931:5050   */\n      iszero\n      tag_254\n      jumpi\n        /* \"#utility.yul\":4969:5048   */\n      tag_255\n      tag_153\n      jump\t// in\n    tag_255:\n        /* \"#utility.yul\":4931:5050   */\n    tag_254:\n        /* \"#utility.yul\":5089:5090   */\n      0x00\n        /* \"#utility.yul\":5114:5167   */\n      tag_256\n        /* \"#utility.yul\":5159:5166   */\n      dup5\n        /* \"#utility.yul\":5150:5156   */\n      dup3\n        /* \"#utility.yul\":5139:5148   */\n      dup6\n        /* \"#utility.yul\":5135:5157   */\n      add\n        /* \"#utility.yul\":5114:5167   */\n      tag_158\n      jump\t// in\n    tag_256:\n        /* \"#utility.yul\":5104:5167   */\n      swap2\n      pop\n        /* \"#utility.yul\":5060:5177   */\n      pop\n        /* \"#utility.yul\":4855:5184   */\n      swap3\n      swap2\n      pop\n      pop\n      jump\t// out\n        /* \"#utility.yul\":5190:5307   */\n    tag_167:\n        /* \"#utility.yul\":5299:5300   */\n      0x00\n        /* \"#utility.yul\":5296:5297   */\n      dup1\n        /* \"#utility.yul\":5289:5301   */\n      revert\n        /* \"#utility.yul\":5313:5430   */\n    tag_168:\n        /* \"#utility.yul\":5422:5423   */\n      0x00\n        /* \"#utility.yul\":5419:5420   */\n      dup1\n        /* \"#utility.yul\":5412:5424   */\n      revert\n        /* \"#utility.yul\":5436:5553   */\n    tag_169:\n        /* \"#utility.yul\":5545:5546   */\n      0x00\n        /* \"#utility.yul\":5542:5543   */\n      dup1\n        /* \"#utility.yul\":5535:5547   */\n      revert\n        /* \"#utility.yul\":5573:6126   */\n    tag_170:\n        /* \"#utility.yul\":5631:5639   */\n      0x00\n        /* \"#utility.yul\":5641:5647   */\n      dup1\n        /* \"#utility.yul\":5691:5694   */\n      dup4\n        /* \"#utility.yul\":5684:5688   */\n      0x1f\n        /* \"#utility.yul\":5676:5682   */\n      dup5\n        /* \"#utility.yul\":5672:5689   */\n      add\n        /* \"#utility.yul\":5668:5695   */\n      slt\n        /* \"#utility.yul\":5658:5780   */\n      tag_261\n      jumpi\n        /* \"#utility.yul\":5699:5778   */\n      tag_262\n      tag_167\n      jump\t// in\n    tag_262:\n        /* \"#utility.yul\":5658:5780   */\n    tag_261:\n        /* \"#utility.yul\":5812:5818   */\n      dup3\n        /* \"#utility.yul\":5799:5819   */\n      calldataload\n        /* \"#utility.yul\":5789:5819   */\n      swap1\n      pop\n        /* \"#utility.yul\":5842:5860   */\n      0xffffffffffffffff\n        /* \"#utility.yul\":5834:5840   */\n      dup2\n        /* \"#utility.yul\":5831:5861   */\n      gt\n        /* \"#utility.yul\":5828:5945   */\n      iszero\n      tag_263\n      jumpi\n        /* \"#utility.yul\":5864:5943   */\n      tag_264\n      tag_168\n      jump\t// in\n    tag_264:\n        /* \"#utility.yul\":5828:5945   */\n    tag_263:\n        /* \"#utility.yul\":5978:5982   */\n      0x20\n        /* \"#utility.yul\":5970:5976   */\n      dup4\n        /* \"#utility.yul\":5966:5983   */\n      add\n        /* \"#utility.yul\":5954:5983   */\n      swap2\n      pop\n        /* \"#utility.yul\":6032:6035   */\n      dup4\n        /* \"#utility.yul\":6024:6028   */\n      0x01\n        /* \"#utility.yul\":6016:6022   */\n      dup3\n        /* \"#utility.yul\":6012:6029   */\n      mul\n        /* \"#utility.yul\":6002:6010   */\n      dup4\n        /* \"#utility.yul\":5998:6030   */\n      add\n        /* \"#utility.yul\":5995:6036   */\n      gt\n        /* \"#utility.yul\":5992:6120   */\n      iszero\n      tag_265\n      jumpi\n        /* \"#utility.yul\":6039:6118   */\n      tag_266\n      tag_169\n      jump\t// in\n    tag_266:\n        /* \"#utility.yul\":5992:6120   */\n    tag_265:\n        /* \"#utility.yul\":5573:6126   */\n      swap3\n      pop\n      swap3\n      swap1\n      pop\n      jump\t// out\n        /* \"#utility.yul\":6132:6661   */\n    tag_58:\n        /* \"#utility.yul\":6203:6209   */\n      0x00\n        /* \"#utility.yul\":6211:6217   */\n      dup1\n        /* \"#utility.yul\":6260:6262   */\n      0x20\n        /* \"#utility.yul\":6248:6257   */\n      dup4\n        /* \"#utility.yul\":6239:6246   */\n      dup6\n        /* \"#utility.yul\":6235:6258   */\n      sub\n        /* \"#utility.yul\":6231:6263   */\n      slt\n        /* \"#utility.yul\":6228:6347   */\n      iszero\n      tag_268\n      jumpi\n        /* \"#utility.yul\":6266:6345   */\n      tag_269\n      tag_153\n      jump\t// in\n    tag_269:\n        /* \"#utility.yul\":6228:6347   */\n    tag_268:\n        /* \"#utility.yul\":6414:6415   */\n      0x00\n        /* \"#utility.yul\":6403:6412   */\n      dup4\n        /* \"#utility.yul\":6399:6416   */\n      add\n        /* \"#utility.yul\":6386:6417   */\n      calldataload\n        /* \"#utility.yul\":6444:6462   */\n      0xffffffffffffffff\n        /* \"#utility.yul\":6436:6442   */\n      dup2\n        /* \"#utility.yul\":6433:6463   */\n      gt\n        /* \"#utility.yul\":6430:6547   */\n      iszero\n      tag_270\n      jumpi\n        /* \"#utility.yul\":6466:6545   */\n      tag_271\n      tag_154\n      jump\t// in\n    tag_271:\n        /* \"#utility.yul\":6430:6547   */\n    tag_270:\n        /* \"#utility.yul\":6579:6644   */\n      tag_272\n        /* \"#utility.yul\":6636:6643   */\n      dup6\n        /* \"#utility.yul\":6627:6633   */\n      dup3\n        /* \"#utility.yul\":6616:6625   */\n      dup7\n        /* \"#utility.yul\":6612:6634   */\n      add\n        /* \"#utility.yul\":6579:6644   */\n      tag_170\n      jump\t// in\n    tag_272:\n        /* \"#utility.yul\":6561:6644   */\n      swap3\n      pop\n      swap3\n      pop\n        /* \"#utility.yul\":6357:6654   */\n      pop\n        /* \"#utility.yul\":6132:6661   */\n      swap3\n      pop\n      swap3\n      swap1\n      pop\n      jump\t// out\n        /* \"#utility.yul\":6667:7141   */\n    tag_70:\n        /* \"#utility.yul\":6735:6741   */\n      0x00\n        /* \"#utility.yul\":6743:6749   */\n      dup1\n        /* \"#utility.yul\":6792:6794   */\n      0x40\n        /* \"#utility.yul\":6780:6789   */\n      dup4\n        /* \"#utility.yul\":6771:6778   */\n      dup6\n        /* \"#utility.yul\":6767:6790   */\n      sub\n        /* \"#utility.yul\":6763:6795   */\n      slt\n        /* \"#utility.yul\":6760:6879   */\n      iszero\n      tag_274\n      jumpi\n        /* \"#utility.yul\":6798:6877   */\n      tag_275\n      tag_153\n      jump\t// in\n    tag_275:\n        /* \"#utility.yul\":6760:6879   */\n    tag_274:\n        /* \"#utility.yul\":6918:6919   */\n      0x00\n        /* \"#utility.yul\":6943:6996   */\n      tag_276\n        /* \"#utility.yul\":6988:6995   */\n      dup6\n        /* \"#utility.yul\":6979:6985   */\n      dup3\n        /* \"#utility.yul\":6968:6977   */\n      dup7\n        /* \"#utility.yul\":6964:6986   */\n      add\n        /* \"#utility.yul\":6943:6996   */\n      tag_158\n      jump\t// in\n    tag_276:\n        /* \"#utility.yul\":6933:6996   */\n      swap3\n      pop\n        /* \"#utility.yul\":6889:7006   */\n      pop\n        /* \"#utility.yul\":7045:7047   */\n      0x20\n        /* \"#utility.yul\":7071:7124   */\n      tag_277\n        /* \"#utility.yul\":7116:7123   */\n      dup6\n        /* \"#utility.yul\":7107:7113   */\n      dup3\n        /* \"#utility.yul\":7096:7105   */\n      dup7\n        /* \"#utility.yul\":7092:7114   */\n      add\n        /* \"#utility.yul\":7071:7124   */\n      tag_158\n      jump\t// in\n    tag_277:\n        /* \"#utility.yul\":7061:7124   */\n      swap2\n      pop\n        /* \"#utility.yul\":7016:7134   */\n      pop\n        /* \"#utility.yul\":6667:7141   */\n      swap3\n      pop\n      swap3\n      swap1\n      pop\n      jump\t// out\n        /* \"#utility.yul\":7147:7327   */\n    tag_171:\n        /* \"#utility.yul\":7195:7272   */\n      0x4e487b7100000000000000000000000000000000000000000000000000000000\n        /* \"#utility.yul\":7192:7193   */\n      0x00\n        /* \"#utility.yul\":7185:7273   */\n      mstore\n        /* \"#utility.yul\":7292:7296   */\n      0x22\n        /* \"#utility.yul\":7289:7290   */\n      0x04\n        /* \"#utility.yul\":7282:7297   */\n      mstore\n        /* \"#utility.yul\":7316:7320   */\n      0x24\n        /* \"#utility.yul\":7313:7314   */\n      0x00\n        /* \"#utility.yul\":7306:7321   */\n      revert\n        /* \"#utility.yul\":7333:7653   */\n    tag_92:\n        /* \"#utility.yul\":7377:7383   */\n      0x00\n        /* \"#utility.yul\":7414:7415   */\n      0x02\n        /* \"#utility.yul\":7408:7412   */\n      dup3\n        /* \"#utility.yul\":7404:7416   */\n      div\n        /* \"#utility.yul\":7394:7416   */\n      swap1\n      pop\n        /* \"#utility.yul\":7461:7462   */\n      0x01\n        /* \"#utility.yul\":7455:7459   */\n      dup3\n        /* \"#utility.yul\":7451:7463   */\n      and\n        /* \"#utility.yul\":7482:7500   */\n      dup1\n        /* \"#utility.yul\":7472:7553   */\n      tag_280\n      jumpi\n        /* \"#utility.yul\":7538:7542   */\n      0x7f\n        /* \"#utility.yul\":7530:7536   */\n      dup3\n        /* \"#utility.yul\":7526:7543   */\n      and\n        /* \"#utility.yul\":7516:7543   */\n      swap2\n      pop\n        /* \"#utility.yul\":7472:7553   */\n    tag_280:\n        /* \"#utility.yul\":7600:7602   */\n      0x20\n        /* \"#utility.yul\":7592:7598   */\n      dup3\n        /* \"#utility.yul\":7589:7603   */\n      lt\n        /* \"#utility.yul\":7569:7587   */\n      dup2\n        /* \"#utility.yul\":7566:7604   */\n      sub\n        /* \"#utility.yul\":7563:7647   */\n      tag_281\n      jumpi\n        /* \"#utility.yul\":7619:7637   */\n      tag_282\n      tag_171\n      jump\t// in\n    tag_282:\n        /* \"#utility.yul\":7563:7647   */\n    tag_281:\n        /* \"#utility.yul\":7384:7653   */\n      pop\n        /* \"#utility.yul\":7333:7653   */\n      swap2\n      swap1\n      pop\n      jump\t// out\n        /* \"#utility.yul\":7659:7898   */\n    tag_172:\n        /* \"#utility.yul\":7799:7833   */\n      0x4f6e6c7920746865206c6f776573742062616c616e636520686f6c6465722063\n        /* \"#utility.yul\":7795:7796   */\n      0x00\n        /* \"#utility.yul\":7787:7793   */\n      dup3\n        /* \"#utility.yul\":7783:7797   */\n      add\n        /* \"#utility.yul\":7776:7834   */\n      mstore\n        /* \"#utility.yul\":7868:7890   */\n      0x616e206368616e6765207468652073796d626f6c000000000000000000000000\n        /* \"#utility.yul\":7863:7865   */\n      0x20\n        /* \"#utility.yul\":7855:7861   */\n      dup3\n        /* \"#utility.yul\":7851:7866   */\n      add\n        /* \"#utility.yul\":7844:7891   */\n      mstore\n        /* \"#utility.yul\":7659:7898   */\n      pop\n      jump\t// out\n        /* \"#utility.yul\":7904:8270   */\n    tag_173:\n        /* \"#utility.yul\":8046:8049   */\n      0x00\n        /* \"#utility.yul\":8067:8134   */\n      tag_285\n        /* \"#utility.yul\":8131:8133   */\n      0x34\n        /* \"#utility.yul\":8126:8129   */\n      dup4\n        /* \"#utility.yul\":8067:8134   */\n      tag_148\n      jump\t// in\n    tag_285:\n        /* \"#utility.yul\":8060:8134   */\n      swap2\n      pop\n        /* \"#utility.yul\":8143:8236   */\n      tag_286\n        /* \"#utility.yul\":8232:8235   */\n      dup3\n        /* \"#utility.yul\":8143:8236   */\n      tag_172\n      jump\t// in\n    tag_286:\n        /* \"#utility.yul\":8261:8263   */\n      0x40\n        /* \"#utility.yul\":8256:8259   */\n      dup3\n        /* \"#utility.yul\":8252:8264   */\n      add\n        /* \"#utility.yul\":8245:8264   */\n      swap1\n      pop\n        /* \"#utility.yul\":7904:8270   */\n      swap2\n      swap1\n      pop\n      jump\t// out\n        /* \"#utility.yul\":8276:8695   */\n    tag_102:\n        /* \"#utility.yul\":8442:8446   */\n      0x00\n        /* \"#utility.yul\":8480:8482   */\n      0x20\n        /* \"#utility.yul\":8469:8478   */\n      dup3\n        /* \"#utility.yul\":8465:8483   */\n      add\n        /* \"#utility.yul\":8457:8483   */\n      swap1\n      pop\n        /* \"#utility.yul\":8529:8538   */\n      dup2\n        /* \"#utility.yul\":8523:8527   */\n      dup2\n        /* \"#utility.yul\":8519:8539   */\n      sub\n        /* \"#utility.yul\":8515:8516   */\n      0x00\n        /* \"#utility.yul\":8504:8513   */\n      dup4\n        /* \"#utility.yul\":8500:8517   */\n      add\n        /* \"#utility.yul\":8493:8540   */\n      mstore\n        /* \"#utility.yul\":8557:8688   */\n      tag_288\n        /* \"#utility.yul\":8683:8687   */\n      dup2\n        /* \"#utility.yul\":8557:8688   */\n      tag_173\n      jump\t// in\n    tag_288:\n        /* \"#utility.yul\":8549:8688   */\n      swap1\n      pop\n        /* \"#utility.yul\":8276:8695   */\n      swap2\n      swap1\n      pop\n      jump\t// out\n        /* \"#utility.yul\":8701:8798   */\n    tag_174:\n        /* \"#utility.yul\":8760:8766   */\n      0x00\n        /* \"#utility.yul\":8788:8791   */\n      dup3\n        /* \"#utility.yul\":8778:8791   */\n      swap1\n      pop\n        /* \"#utility.yul\":8701:8798   */\n      swap3\n      swap2\n      pop\n      pop\n      jump\t// out\n        /* \"#utility.yul\":8804:8984   */\n    tag_175:\n        /* \"#utility.yul\":8852:8929   */\n      0x4e487b7100000000000000000000000000000000000000000000000000000000\n        /* \"#utility.yul\":8849:8850   */\n      0x00\n        /* \"#utility.yul\":8842:8930   */\n      mstore\n        /* \"#utility.yul\":8949:8953   */\n      0x41\n        /* \"#utility.yul\":8946:8947   */\n      0x04\n        /* \"#utility.yul\":8939:8954   */\n      mstore\n        /* \"#utility.yul\":8973:8977   */\n      0x24\n        /* \"#utility.yul\":8970:8971   */\n      0x00\n        /* \"#utility.yul\":8963:8978   */\n      revert\n        /* \"#utility.yul\":8990:9131   */\n    tag_176:\n        /* \"#utility.yul\":9039:9043   */\n      0x00\n        /* \"#utility.yul\":9062:9065   */\n      dup2\n        /* \"#utility.yul\":9054:9065   */\n      swap1\n      pop\n        /* \"#utility.yul\":9085:9088   */\n      dup2\n        /* \"#utility.yul\":9082:9083   */\n      0x00\n        /* \"#utility.yul\":9075:9089   */\n      mstore\n        /* \"#utility.yul\":9119:9123   */\n      0x20\n        /* \"#utility.yul\":9116:9117   */\n      0x00\n        /* \"#utility.yul\":9106:9124   */\n      keccak256\n        /* \"#utility.yul\":9098:9124   */\n      swap1\n      pop\n        /* \"#utility.yul\":8990:9131   */\n      swap2\n      swap1\n      pop\n      jump\t// out\n        /* \"#utility.yul\":9137:9230   */\n    tag_177:\n        /* \"#utility.yul\":9174:9180   */\n      0x00\n        /* \"#utility.yul\":9221:9223   */\n      0x20\n        /* \"#utility.yul\":9216:9218   */\n      0x1f\n        /* \"#utility.yul\":9209:9214   */\n      dup4\n        /* \"#utility.yul\":9205:9219   */\n      add\n        /* \"#utility.yul\":9201:9224   */\n      div\n        /* \"#utility.yul\":9191:9224   */\n      swap1\n      pop\n        /* \"#utility.yul\":9137:9230   */\n      swap2\n      swap1\n      pop\n      jump\t// out\n        /* \"#utility.yul\":9236:9343   */\n    tag_178:\n        /* \"#utility.yul\":9280:9288   */\n      0x00\n        /* \"#utility.yul\":9330:9335   */\n      dup3\n        /* \"#utility.yul\":9324:9328   */\n      dup3\n        /* \"#utility.yul\":9320:9336   */\n      shl\n        /* \"#utility.yul\":9299:9336   */\n      swap1\n      pop\n        /* \"#utility.yul\":9236:9343   */\n      swap3\n      swap2\n      pop\n      pop\n      jump\t// out\n        /* \"#utility.yul\":9349:9742   */\n    tag_179:\n        /* \"#utility.yul\":9418:9424   */\n      0x00\n        /* \"#utility.yul\":9468:9469   */\n      0x08\n        /* \"#utility.yul\":9456:9466   */\n      dup4\n        /* \"#utility.yul\":9452:9470   */\n      mul\n        /* \"#utility.yul\":9491:9588   */\n      tag_295\n        /* \"#utility.yul\":9521:9587   */\n      0xffffffffffffffffffffffffffffffffffffffffffffffffffffffffffffffff\n        /* \"#utility.yul\":9510:9519   */\n      dup3\n        /* \"#utility.yul\":9491:9588   */\n      tag_178\n      jump\t// in\n    tag_295:\n        /* \"#utility.yul\":9609:9648   */\n      tag_296\n        /* \"#utility.yul\":9639:9647   */\n      dup7\n        /* \"#utility.yul\":9628:9637   */\n      dup4\n        /* \"#utility.yul\":9609:9648   */\n      tag_178\n      jump\t// in\n    tag_296:\n        /* \"#utility.yul\":9597:9648   */\n      swap6\n      pop\n        /* \"#utility.yul\":9681:9685   */\n      dup1\n        /* \"#utility.yul\":9677:9686   */\n      not\n        /* \"#utility.yul\":9670:9675   */\n      dup5\n        /* \"#utility.yul\":9666:9687   */\n      and\n        /* \"#utility.yul\":9657:9687   */\n      swap4\n      pop\n        /* \"#utility.yul\":9730:9734   */\n      dup1\n        /* \"#utility.yul\":9720:9728   */\n      dup7\n        /* \"#utility.yul\":9716:9735   */\n      and\n        /* \"#utility.yul\":9709:9714   */\n      dup5\n        /* \"#utility.yul\":9706:9736   */\n      or\n        /* \"#utility.yul\":9696:9736   */\n      swap3\n      pop\n        /* \"#utility.yul\":9425:9742   */\n      pop\n      pop\n        /* \"#utility.yul\":9349:9742   */\n      swap4\n      swap3\n      pop\n      pop\n      pop\n      jump\t// out\n        /* \"#utility.yul\":9748:9808   */\n    tag_180:\n        /* \"#utility.yul\":9776:9779   */\n      0x00\n        /* \"#utility.yul\":9797:9802   */\n      dup2\n        /* \"#utility.yul\":9790:9802   */\n      swap1\n      pop\n        /* \"#utility.yul\":9748:9808   */\n      swap2\n      swap1\n      pop\n      jump\t// out\n        /* \"#utility.yul\":9814:9956   */\n    tag_181:\n        /* \"#utility.yul\":9864:9873   */\n      0x00\n        /* \"#utility.yul\":9897:9950   */\n      tag_299\n        /* \"#utility.yul\":9915:9949   */\n      tag_300\n        /* \"#utility.yul\":9924:9948   */\n      tag_301\n        /* \"#utility.yul\":9942:9947   */\n      dup5\n        /* \"#utility.yul\":9924:9948   */\n      tag_159\n      jump\t// in\n    tag_301:\n        /* \"#utility.yul\":9915:9949   */\n      tag_180\n      jump\t// in\n    tag_300:\n        /* \"#utility.yul\":9897:9950   */\n      tag_159\n      jump\t// in\n    tag_299:\n        /* \"#utility.yul\":9884:9950   */\n      swap1\n      pop\n        /* \"#utility.yul\":9814:9956   */\n      swap2\n      swap1\n      pop\n      jump\t// out\n        /* \"#utility.yul\":9962:10037   */\n    tag_182:\n        /* \"#utility.yul\":10005:10008   */\n      0x00\n        /* \"#utility.yul\":10026:10031   */\n      dup2\n        /* \"#utility.yul\":10019:10031   */\n      swap1\n      pop\n        /* \"#utility.yul\":9962:10037   */\n      swap2\n      swap1\n      pop\n      jump\t// out\n        /* \"#utility.yul\":10043:10312   */\n    tag_183:\n        /* \"#utility.yul\":10153:10192   */\n      tag_304\n        /* \"#utility.yul\":10184:10191   */\n      dup4\n        /* \"#utility.yul\":10153:10192   */\n      tag_181\n      jump\t// in\n    tag_304:\n        /* \"#utility.yul\":10214:10305   */\n      tag_305\n        /* \"#utility.yul\":10263:10304   */\n      tag_306\n        /* \"#utility.yul\":10287:10303   */\n      dup3\n        /* \"#utility.yul\":10263:10304   */\n      tag_182\n      jump\t// in\n    tag_306:\n        /* \"#utility.yul\":10255:10261   */\n      dup5\n        /* \"#utility.yul\":10248:10252   */\n      dup5\n        /* \"#utility.yul\":10242:10253   */\n      sload\n        /* \"#utility.yul\":10214:10305   */\n      tag_179\n      jump\t// in\n    tag_305:\n        /* \"#utility.yul\":10208:10212   */\n      dup3\n        /* \"#utility.yul\":10201:10306   */\n      sstore\n        /* \"#utility.yul\":10119:10312   */\n      pop\n        /* \"#utility.yul\":10043:10312   */\n      pop\n      pop\n      pop\n      jump\t// out\n        /* \"#utility.yul\":10318:10391   */\n    tag_184:\n        /* \"#utility.yul\":10363:10366   */\n      0x00\n        /* \"#utility.yul\":10318:10391   */\n      swap1\n      jump\t// out\n        /* \"#utility.yul\":10397:10586   */\n    tag_185:\n        /* \"#utility.yul\":10474:10506   */\n      tag_309\n      tag_184\n      jump\t// in\n    tag_309:\n        /* \"#utility.yul\":10515:10580   */\n      tag_310\n        /* \"#utility.yul\":10573:10579   */\n      dup2\n        /* \"#utility.yul\":10565:10571   */\n      dup5\n        /* \"#utility.yul\":10559:10563   */\n      dup5\n        /* \"#utility.yul\":10515:10580   */\n      tag_183\n      jump\t// in\n    tag_310:\n        /* \"#utility.yul\":10450:10586   */\n      pop\n        /* \"#utility.yul\":10397:10586   */\n      pop\n      pop\n      jump\t// out\n        /* \"#utility.yul\":10592:10778   */\n    tag_186:\n        /* \"#utility.yul\":10652:10772   */\n    tag_312:\n        /* \"#utility.yul\":10669:10672   */\n      dup2\n        /* \"#utility.yul\":10662:10667   */\n      dup2\n        /* \"#utility.yul\":10659:10673   */\n      lt\n        /* \"#utility.yul\":10652:10772   */\n      iszero\n      tag_314\n      jumpi\n        /* \"#utility.yul\":10723:10762   */\n      tag_315\n        /* \"#utility.yul\":10760:10761   */\n      0x00\n        /* \"#utility.yul\":10753:10758   */\n      dup3\n        /* \"#utility.yul\":10723:10762   */\n      tag_185\n      jump\t// in\n    tag_315:\n        /* \"#utility.yul\":10696:10697   */\n      0x01\n        /* \"#utility.yul\":10689:10694   */\n      dup2\n        /* \"#utility.yul\":10685:10698   */\n      add\n        /* \"#utility.yul\":10676:10698   */\n      swap1\n      pop\n        /* \"#utility.yul\":10652:10772   */\n      jump(tag_312)\n    tag_314:\n        /* \"#utility.yul\":10592:10778   */\n      pop\n      pop\n      jump\t// out\n        /* \"#utility.yul\":10784:11327   */\n    tag_187:\n        /* \"#utility.yul\":10885:10887   */\n      0x1f\n        /* \"#utility.yul\":10880:10883   */\n      dup3\n        /* \"#utility.yul\":10877:10888   */\n      gt\n        /* \"#utility.yul\":10874:11320   */\n      iszero\n      tag_317\n      jumpi\n        /* \"#utility.yul\":10919:10957   */\n      tag_318\n        /* \"#utility.yul\":10951:10956   */\n      dup2\n        /* \"#utility.yul\":10919:10957   */\n      tag_176\n      jump\t// in\n    tag_318:\n        /* \"#utility.yul\":11003:11032   */\n      tag_319\n        /* \"#utility.yul\":11021:11031   */\n      dup5\n        /* \"#utility.yul\":11003:11032   */\n      tag_177\n      jump\t// in\n    tag_319:\n        /* \"#utility.yul\":10993:11001   */\n      dup2\n        /* \"#utility.yul\":10989:11033   */\n      add\n        /* \"#utility.yul\":11186:11188   */\n      0x20\n        /* \"#utility.yul\":11174:11184   */\n      dup6\n        /* \"#utility.yul\":11171:11189   */\n      lt\n        /* \"#utility.yul\":11168:11217   */\n      iszero\n      tag_320\n      jumpi\n        /* \"#utility.yul\":11207:11215   */\n      dup2\n        /* \"#utility.yul\":11192:11215   */\n      swap1\n      pop\n        /* \"#utility.yul\":11168:11217   */\n    tag_320:\n        /* \"#utility.yul\":11230:11310   */\n      tag_321\n        /* \"#utility.yul\":11286:11308   */\n      tag_322\n        /* \"#utility.yul\":11304:11307   */\n      dup6\n        /* \"#utility.yul\":11286:11308   */\n      tag_177\n      jump\t// in\n    tag_322:\n        /* \"#utility.yul\":11276:11284   */\n      dup4\n        /* \"#utility.yul\":11272:11309   */\n      add\n        /* \"#utility.yul\":11259:11270   */\n      dup3\n        /* \"#utility.yul\":11230:11310   */\n      tag_186\n      jump\t// in\n    tag_321:\n        /* \"#utility.yul\":10889:11320   */\n      pop\n      pop\n        /* \"#utility.yul\":10874:11320   */\n    tag_317:\n        /* \"#utility.yul\":10784:11327   */\n      pop\n      pop\n      pop\n      jump\t// out\n        /* \"#utility.yul\":11333:11450   */\n    tag_188:\n        /* \"#utility.yul\":11387:11395   */\n      0x00\n        /* \"#utility.yul\":11437:11442   */\n      dup3\n        /* \"#utility.yul\":11431:11435   */\n      dup3\n        /* \"#utility.yul\":11427:11443   */\n      shr\n        /* \"#utility.yul\":11406:11443   */\n      swap1\n      pop\n        /* \"#utility.yul\":11333:11450   */\n      swap3\n      swap2\n      pop\n      pop\n      jump\t// out\n        /* \"#utility.yul\":11456:11625   */\n    tag_189:\n        /* \"#utility.yul\":11500:11506   */\n      0x00\n        /* \"#utility.yul\":11533:11584   */\n      tag_325\n        /* \"#utility.yul\":11581:11582   */\n      0x00\n        /* \"#utility.yul\":11577:11583   */\n      not\n        /* \"#utility.yul\":11569:11574   */\n      dup5\n        /* \"#utility.yul\":11566:11567   */\n      0x08\n        /* \"#utility.yul\":11562:11575   */\n      mul\n        /* \"#utility.yul\":11533:11584   */\n      tag_188\n      jump\t// in\n    tag_325:\n        /* \"#utility.yul\":11529:11585   */\n      not\n        /* \"#utility.yul\":11614:11618   */\n      dup1\n        /* \"#utility.yul\":11608:11612   */\n      dup4\n        /* \"#utility.yul\":11604:11619   */\n      and\n        /* \"#utility.yul\":11594:11619   */\n      swap2\n      pop\n        /* \"#utility.yul\":11507:11625   */\n      pop\n        /* \"#utility.yul\":11456:11625   */\n      swap3\n      swap2\n      pop\n      pop\n      jump\t// out\n        /* \"#utility.yul\":11630:11925   */\n    tag_190:\n        /* \"#utility.yul\":11706:11710   */\n      0x00\n        /* \"#utility.yul\":11852:11881   */\n      tag_327\n        /* \"#utility.yul\":11877:11880   */\n      dup4\n        /* \"#utility.yul\":11871:11875   */\n      dup4\n        /* \"#utility.yul\":11852:11881   */\n      tag_189\n      jump\t// in\n    tag_327:\n        /* \"#utility.yul\":11844:11881   */\n      swap2\n      pop\n        /* \"#utility.yul\":11914:11917   */\n      dup3\n        /* \"#utility.yul\":11911:11912   */\n      0x02\n        /* \"#utility.yul\":11907:11918   */\n      mul\n        /* \"#utility.yul\":11901:11905   */\n      dup3\n        /* \"#utility.yul\":11898:11919   */\n      or\n        /* \"#utility.yul\":11890:11919   */\n      swap1\n      pop\n        /* \"#utility.yul\":11630:11925   */\n      swap3\n      swap2\n      pop\n      pop\n      jump\t// out\n        /* \"#utility.yul\":11930:13333   */\n    tag_104:\n        /* \"#utility.yul\":12054:12098   */\n      tag_329\n        /* \"#utility.yul\":12094:12097   */\n      dup4\n        /* \"#utility.yul\":12089:12092   */\n      dup4\n        /* \"#utility.yul\":12054:12098   */\n      tag_174\n      jump\t// in\n    tag_329:\n        /* \"#utility.yul\":12163:12181   */\n      0xffffffffffffffff\n        /* \"#utility.yul\":12155:12161   */\n      dup2\n        /* \"#utility.yul\":12152:12182   */\n      gt\n        /* \"#utility.yul\":12149:12205   */\n      iszero\n      tag_330\n      jumpi\n        /* \"#utility.yul\":12185:12203   */\n      tag_331\n      tag_175\n      jump\t// in\n    tag_331:\n        /* \"#utility.yul\":12149:12205   */\n    tag_330:\n        /* \"#utility.yul\":12229:12267   */\n      tag_332\n        /* \"#utility.yul\":12261:12265   */\n      dup3\n        /* \"#utility.yul\":12255:12266   */\n      sload\n        /* \"#utility.yul\":12229:12267   */\n      tag_92\n      jump\t// in\n    tag_332:\n        /* \"#utility.yul\":12314:12381   */\n      tag_333\n        /* \"#utility.yul\":12374:12380   */\n      dup3\n        /* \"#utility.yul\":12366:12372   */\n      dup3\n        /* \"#utility.yul\":12360:12364   */\n      dup6\n        /* \"#utility.yul\":12314:12381   */\n      tag_187\n      jump\t// in\n    tag_333:\n        /* \"#utility.yul\":12408:12409   */\n      0x00\n        /* \"#utility.yul\":12437:12439   */\n      0x1f\n        /* \"#utility.yul\":12429:12435   */\n      dup4\n        /* \"#utility.yul\":12426:12440   */\n      gt\n        /* \"#utility.yul\":12454:12455   */\n      0x01\n        /* \"#utility.yul\":12449:13081   */\n      dup2\n      eq\n      tag_335\n      jumpi\n        /* \"#utility.yul\":13125:13126   */\n      0x00\n        /* \"#utility.yul\":13142:13148   */\n      dup5\n        /* \"#utility.yul\":13139:13223   */\n      iszero\n      tag_336\n      jumpi\n        /* \"#utility.yul\":13198:13207   */\n      dup3\n        /* \"#utility.yul\":13193:13196   */\n      dup8\n        /* \"#utility.yul\":13189:13208   */\n      add\n        /* \"#utility.yul\":13176:13209   */\n      calldataload\n        /* \"#utility.yul\":13167:13209   */\n      swap1\n      pop\n        /* \"#utility.yul\":13139:13223   */\n    tag_336:\n        /* \"#utility.yul\":13249:13316   */\n      tag_337\n        /* \"#utility.yul\":13309:13315   */\n      dup6\n        /* \"#utility.yul\":13302:13307   */\n      dup3\n        /* \"#utility.yul\":13249:13316   */\n      tag_190\n      jump\t// in\n    tag_337:\n        /* \"#utility.yul\":13243:13247   */\n      dup7\n        /* \"#utility.yul\":13236:13317   */\n      sstore\n        /* \"#utility.yul\":13098:13327   */\n      pop\n        /* \"#utility.yul\":12419:13327   */\n      jump(tag_334)\n        /* \"#utility.yul\":12449:13081   */\n    tag_335:\n        /* \"#utility.yul\":12501:12505   */\n      0x1f\n        /* \"#utility.yul\":12497:12506   */\n      not\n        /* \"#utility.yul\":12489:12495   */\n      dup5\n        /* \"#utility.yul\":12485:12507   */\n      and\n        /* \"#utility.yul\":12535:12572   */\n      tag_338\n        /* \"#utility.yul\":12567:12571   */\n      dup7\n        /* \"#utility.yul\":12535:12572   */\n      tag_176\n      jump\t// in\n    tag_338:\n        /* \"#utility.yul\":12594:12595   */\n      0x00\n        /* \"#utility.yul\":12608:12823   */\n    tag_339:\n        /* \"#utility.yul\":12622:12629   */\n      dup3\n        /* \"#utility.yul\":12619:12620   */\n      dup2\n        /* \"#utility.yul\":12616:12630   */\n      lt\n        /* \"#utility.yul\":12608:12823   */\n      iszero\n      tag_341\n      jumpi\n        /* \"#utility.yul\":12708:12717   */\n      dup5\n        /* \"#utility.yul\":12703:12706   */\n      dup10\n        /* \"#utility.yul\":12699:12718   */\n      add\n        /* \"#utility.yul\":12686:12719   */\n      calldataload\n        /* \"#utility.yul\":12678:12684   */\n      dup3\n        /* \"#utility.yul\":12671:12720   */\n      sstore\n        /* \"#utility.yul\":12759:12760   */\n      0x01\n        /* \"#utility.yul\":12751:12757   */\n      dup3\n        /* \"#utility.yul\":12747:12761   */\n      add\n        /* \"#utility.yul\":12737:12761   */\n      swap2\n      pop\n        /* \"#utility.yul\":12806:12808   */\n      0x20\n        /* \"#utility.yul\":12795:12804   */\n      dup6\n        /* \"#utility.yul\":12791:12809   */\n      add\n        /* \"#utility.yul\":12778:12809   */\n      swap5\n      pop\n        /* \"#utility.yul\":12645:12649   */\n      0x20\n        /* \"#utility.yul\":12642:12643   */\n      dup2\n        /* \"#utility.yul\":12638:12650   */\n      add\n        /* \"#utility.yul\":12633:12650   */\n      swap1\n      pop\n        /* \"#utility.yul\":12608:12823   */\n      jump(tag_339)\n    tag_341:\n        /* \"#utility.yul\":12851:12857   */\n      dup7\n        /* \"#utility.yul\":12842:12849   */\n      dup4\n        /* \"#utility.yul\":12839:12858   */\n      lt\n        /* \"#utility.yul\":12836:13022   */\n      iszero\n      tag_342\n      jumpi\n        /* \"#utility.yul\":12916:12925   */\n      dup5\n        /* \"#utility.yul\":12911:12914   */\n      dup10\n        /* \"#utility.yul\":12907:12926   */\n      add\n        /* \"#utility.yul\":12894:12927   */\n      calldataload\n        /* \"#utility.yul\":12959:13007   */\n      tag_343\n        /* \"#utility.yul\":13001:13005   */\n      0x1f\n        /* \"#utility.yul\":12993:12999   */\n      dup10\n        /* \"#utility.yul\":12989:13006   */\n      and\n        /* \"#utility.yul\":12978:12987   */\n      dup3\n        /* \"#utility.yul\":12959:13007   */\n      tag_189\n      jump\t// in\n    tag_343:\n        /* \"#utility.yul\":12951:12957   */\n      dup4\n        /* \"#utility.yul\":12944:13008   */\n      sstore\n        /* \"#utility.yul\":12859:13022   */\n      pop\n        /* \"#utility.yul\":12836:13022   */\n    tag_342:\n        /* \"#utility.yul\":13068:13069   */\n      0x01\n        /* \"#utility.yul\":13064:13065   */\n      0x02\n        /* \"#utility.yul\":13056:13062   */\n      dup9\n        /* \"#utility.yul\":13052:13066   */\n      mul\n        /* \"#utility.yul\":13048:13070   */\n      add\n        /* \"#utility.yul\":13042:13046   */\n      dup9\n        /* \"#utility.yul\":13035:13071   */\n      sstore\n        /* \"#utility.yul\":12456:13081   */\n      pop\n      pop\n      pop\n        /* \"#utility.yul\":12419:13327   */\n    tag_334:\n      pop\n        /* \"#utility.yul\":12029:13333   */\n      pop\n      pop\n      pop\n        /* \"#utility.yul\":11930:13333   */\n      pop\n      pop\n      pop\n      jump\t// out\n        /* \"#utility.yul\":13339:13519   */\n    tag_191:\n        /* \"#utility.yul\":13387:13464   */\n      0x4e487b7100000000000000000000000000000000000000000000000000000000\n        /* \"#utility.yul\":13384:13385   */\n      0x00\n        /* \"#utility.yul\":13377:13465   */\n      mstore\n        /* \"#utility.yul\":13484:13488   */\n      0x11\n        /* \"#utility.yul\":13481:13482   */\n      0x04\n        /* \"#utility.yul\":13474:13489   */\n      mstore\n        /* \"#utility.yul\":13508:13512   */\n      0x24\n        /* \"#utility.yul\":13505:13506   */\n      0x00\n        /* \"#utility.yul\":13498:13513   */\n      revert\n        /* \"#utility.yul\":13525:13719   */\n    tag_118:\n        /* \"#utility.yul\":13565:13569   */\n      0x00\n        /* \"#utility.yul\":13585:13605   */\n      tag_346\n        /* \"#utility.yul\":13603:13604   */\n      dup3\n        /* \"#utility.yul\":13585:13605   */\n      tag_159\n      jump\t// in\n    tag_346:\n        /* \"#utility.yul\":13580:13605   */\n      swap2\n      pop\n        /* \"#utility.yul\":13619:13639   */\n      tag_347\n        /* \"#utility.yul\":13637:13638   */\n      dup4\n        /* \"#utility.yul\":13619:13639   */\n      tag_159\n      jump\t// in\n    tag_347:\n        /* \"#utility.yul\":13614:13639   */\n      swap3\n      pop\n        /* \"#utility.yul\":13663:13664   */\n      dup3\n        /* \"#utility.yul\":13660:13661   */\n      dup3\n        /* \"#utility.yul\":13656:13665   */\n      sub\n        /* \"#utility.yul\":13648:13665   */\n      swap1\n      pop\n        /* \"#utility.yul\":13687:13688   */\n      dup2\n        /* \"#utility.yul\":13681:13685   */\n      dup2\n        /* \"#utility.yul\":13678:13689   */\n      gt\n        /* \"#utility.yul\":13675:13712   */\n      iszero\n      tag_348\n      jumpi\n        /* \"#utility.yul\":13692:13710   */\n      tag_349\n      tag_191\n      jump\t// in\n    tag_349:\n        /* \"#utility.yul\":13675:13712   */\n    tag_348:\n        /* \"#utility.yul\":13525:13719   */\n      swap3\n      swap2\n      pop\n      pop\n      jump\t// out\n        /* \"#utility.yul\":13725:13896   */\n    tag_192:\n        /* \"#utility.yul\":13865:13888   */\n      0x64732d6d6174682d7375622d756e646572666c6f770000000000000000000000\n        /* \"#utility.yul\":13861:13862   */\n      0x00\n        /* \"#utility.yul\":13853:13859   */\n      dup3\n        /* \"#utility.yul\":13849:13863   */\n      add\n        /* \"#utility.yul\":13842:13889   */\n      mstore\n        /* \"#utility.yul\":13725:13896   */\n      pop\n      jump\t// out\n        /* \"#utility.yul\":13902:14268   */\n    tag_193:\n        /* \"#utility.yul\":14044:14047   */\n      0x00\n        /* \"#utility.yul\":14065:14132   */\n      tag_352\n        /* \"#utility.yul\":14129:14131   */\n      0x15\n        /* \"#utility.yul\":14124:14127   */\n      dup4\n        /* \"#utility.yul\":14065:14132   */\n      tag_148\n      jump\t// in\n    tag_352:\n        /* \"#utility.yul\":14058:14132   */\n      swap2\n      pop\n        /* \"#utility.yul\":14141:14234   */\n      tag_353\n        /* \"#utility.yul\":14230:14233   */\n      dup3\n        /* \"#utility.yul\":14141:14234   */\n      tag_192\n      jump\t// in\n    tag_353:\n        /* \"#utility.yul\":14259:14261   */\n      0x20\n        /* \"#utility.yul\":14254:14257   */\n      dup3\n        /* \"#utility.yul\":14250:14262   */\n      add\n        /* \"#utility.yul\":14243:14262   */\n      swap1\n      pop\n        /* \"#utility.yul\":13902:14268   */\n      swap2\n      swap1\n      pop\n      jump\t// out\n        /* \"#utility.yul\":14274:14693   */\n    tag_121:\n        /* \"#utility.yul\":14440:14444   */\n      0x00\n        /* \"#utility.yul\":14478:14480   */\n      0x20\n        /* \"#utility.yul\":14467:14476   */\n      dup3\n        /* \"#utility.yul\":14463:14481   */\n      add\n        /* \"#utility.yul\":14455:14481   */\n      swap1\n      pop\n        /* \"#utility.yul\":14527:14536   */\n      dup2\n        /* \"#utility.yul\":14521:14525   */\n      dup2\n        /* \"#utility.yul\":14517:14537   */\n      sub\n        /* \"#utility.yul\":14513:14514   */\n      0x00\n        /* \"#utility.yul\":14502:14511   */\n      dup4\n        /* \"#utility.yul\":14498:14515   */\n      add\n        /* \"#utility.yul\":14491:14538   */\n      mstore\n        /* \"#utility.yul\":14555:14686   */\n      tag_355\n        /* \"#utility.yul\":14681:14685   */\n      dup2\n        /* \"#utility.yul\":14555:14686   */\n      tag_193\n      jump\t// in\n    tag_355:\n        /* \"#utility.yul\":14547:14686   */\n      swap1\n      pop\n        /* \"#utility.yul\":14274:14693   */\n      swap2\n      swap1\n      pop\n      jump\t// out\n        /* \"#utility.yul\":14699:14890   */\n    tag_128:\n        /* \"#utility.yul\":14739:14742   */\n      0x00\n        /* \"#utility.yul\":14758:14778   */\n      tag_357\n        /* \"#utility.yul\":14776:14777   */\n      dup3\n        /* \"#utility.yul\":14758:14778   */\n      tag_159\n      jump\t// in\n    tag_357:\n        /* \"#utility.yul\":14753:14778   */\n      swap2\n      pop\n        /* \"#utility.yul\":14792:14812   */\n      tag_358\n        /* \"#utility.yul\":14810:14811   */\n      dup4\n        /* \"#utility.yul\":14792:14812   */\n      tag_159\n      jump\t// in\n    tag_358:\n        /* \"#utility.yul\":14787:14812   */\n      swap3\n      pop\n        /* \"#utility.yul\":14835:14836   */\n      dup3\n        /* \"#utility.yul\":14832:14833   */\n      dup3\n        /* \"#utility.yul\":14828:14837   */\n      add\n        /* \"#utility.yul\":14821:14837   */\n      swap1\n      pop\n        /* \"#utility.yul\":14856:14859   */\n      dup1\n        /* \"#utility.yul\":14853:14854   */\n      dup3\n        /* \"#utility.yul\":14850:14860   */\n      gt\n        /* \"#utility.yul\":14847:14883   */\n      iszero\n      tag_359\n      jumpi\n        /* \"#utility.yul\":14863:14881   */\n      tag_360\n      tag_191\n      jump\t// in\n    tag_360:\n        /* \"#utility.yul\":14847:14883   */\n    tag_359:\n        /* \"#utility.yul\":14699:14890   */\n      swap3\n      swap2\n      pop\n      pop\n      jump\t// out\n        /* \"#utility.yul\":14896:15066   */\n    tag_194:\n        /* \"#utility.yul\":15036:15058   */\n      0x64732d6d6174682d6164642d6f766572666c6f77000000000000000000000000\n        /* \"#utility.yul\":15032:15033   */\n      0x00\n        /* \"#utility.yul\":15024:15030   */\n      dup3\n        /* \"#utility.yul\":15020:15034   */\n      add\n        /* \"#utility.yul\":15013:15059   */\n      mstore\n        /* \"#utility.yul\":14896:15066   */\n      pop\n      jump\t// out\n        /* \"#utility.yul\":15072:15438   */\n    tag_195:\n        /* \"#utility.yul\":15214:15217   */\n      0x00\n        /* \"#utility.yul\":15235:15302   */\n      tag_363\n        /* \"#utility.yul\":15299:15301   */\n      0x14\n        /* \"#utility.yul\":15294:15297   */\n      dup4\n        /* \"#utility.yul\":15235:15302   */\n      tag_148\n      jump\t// in\n    tag_363:\n        /* \"#utility.yul\":15228:15302   */\n      swap2\n      pop\n        /* \"#utility.yul\":15311:15404   */\n      tag_364\n        /* \"#utility.yul\":15400:15403   */\n      dup3\n        /* \"#utility.yul\":15311:15404   */\n      tag_194\n      jump\t// in\n    tag_364:\n        /* \"#utility.yul\":15429:15431   */\n      0x20\n        /* \"#utility.yul\":15424:15427   */\n      dup3\n        /* \"#utility.yul\":15420:15432   */\n      add\n        /* \"#utility.yul\":15413:15432   */\n      swap1\n      pop\n        /* \"#utility.yul\":15072:15438   */\n      swap2\n      swap1\n      pop\n      jump\t// out\n        /* \"#utility.yul\":15444:15863   */\n    tag_131:\n        /* \"#utility.yul\":15610:15614   */\n      0x00\n        /* \"#utility.yul\":15648:15650   */\n      0x20\n        /* \"#utility.yul\":15637:15646   */\n      dup3\n        /* \"#utility.yul\":15633:15651   */\n      add\n        /* \"#utility.yul\":15625:15651   */\n      swap1\n      pop\n        /* \"#utility.yul\":15697:15706   */\n      dup2\n        /* \"#utility.yul\":15691:15695   */\n      dup2\n        /* \"#utility.yul\":15687:15707   */\n      sub\n        /* \"#utility.yul\":15683:15684   */\n      0x00\n        /* \"#utility.yul\":15672:15681   */\n      dup4\n        /* \"#utility.yul\":15668:15685   */\n      add\n        /* \"#utility.yul\":15661:15708   */\n      mstore\n        /* \"#utility.yul\":15725:15856   */\n      tag_366\n        /* \"#utility.yul\":15851:15855   */\n      dup2\n        /* \"#utility.yul\":15725:15856   */\n      tag_195\n      jump\t// in\n    tag_366:\n        /* \"#utility.yul\":15717:15856   */\n      swap1\n      pop\n        /* \"#utility.yul\":15444:15863   */\n      swap2\n      swap1\n      pop\n      jump\t// out\n        /* \"#utility.yul\":15869:16049   */\n    tag_138:\n        /* \"#utility.yul\":15917:15994   */\n      0x4e487b7100000000000000000000000000000000000000000000000000000000\n        /* \"#utility.yul\":15914:15915   */\n      0x00\n        /* \"#utility.yul\":15907:15995   */\n      mstore\n        /* \"#utility.yul\":16014:16018   */\n      0x32\n        /* \"#utility.yul\":16011:16012   */\n      0x04\n        /* \"#utility.yul\":16004:16019   */\n      mstore\n        /* \"#utility.yul\":16038:16042   */\n      0x24\n        /* \"#utility.yul\":16035:16036   */\n      0x00\n        /* \"#utility.yul\":16028:16043   */\n      revert\n\n    auxdata: 0xa26469706673582212201cc08f83c394133bd789d83213ddbad9015be3ca894b6d1437ac6c1d4788d74c64736f6c63430008190033\n}\n",
				"bytecode": {
					"linkReferences": {},
					"object": "60806040526040518060400160405280600381526020017f534853000000000000000000000000000000000000000000000000000000000081525060009081610048919061042e565b5034801561005557600080fd5b506509184e72a000600160003373ffffffffffffffffffffffffffffffffffffffff1673ffffffffffffffffffffffffffffffffffffffff168152602001908152602001600020819055506100af3361012060201b60201c565b3373ffffffffffffffffffffffffffffffffffffffff16600073ffffffffffffffffffffffffffffffffffffffff167fddf252ad1be2c89b69c2b068fc378daa952ba7f163c4a11628f55a4df523b3ef6509184e72a000604051610113919061050f565b60405180910390a361052a565b6001600460008373ffffffffffffffffffffffffffffffffffffffff1673ffffffffffffffffffffffffffffffffffffffff16815260200190815260200160002060006101000a81548160ff0219169083151502179055506003819080600181540180825580915050600190039060005260206000200160009091909190916101000a81548173ffffffffffffffffffffffffffffffffffffffff021916908373ffffffffffffffffffffffffffffffffffffffff16021790555050565b600081519050919050565b7f4e487b7100000000000000000000000000000000000000000000000000000000600052604160045260246000fd5b7f4e487b7100000000000000000000000000000000000000000000000000000000600052602260045260246000fd5b6000600282049050600182168061025f57607f821691505b60208210810361027257610271610218565b5b50919050565b60008190508160005260206000209050919050565b60006020601f8301049050919050565b600082821b905092915050565b6000600883026102da7fffffffffffffffffffffffffffffffffffffffffffffffffffffffffffffffff8261029d565b6102e4868361029d565b95508019841693508086168417925050509392505050565b6000819050919050565b6000819050919050565b600061032b610326610321846102fc565b610306565b6102fc565b9050919050565b6000819050919050565b61034583610310565b61035961035182610332565b8484546102aa565b825550505050565b600090565b61036e610361565b61037981848461033c565b505050565b5b8181101561039d57610392600082610366565b60018101905061037f565b5050565b601f8211156103e2576103b381610278565b6103bc8461028d565b810160208510156103cb578190505b6103df6103d78561028d565b83018261037e565b50505b505050565b600082821c905092915050565b6000610405600019846008026103e7565b1980831691505092915050565b600061041e83836103f4565b9150826002028217905092915050565b610437826101de565b67ffffffffffffffff8111156104505761044f6101e9565b5b61045a8254610247565b6104658282856103a1565b600060209050601f8311600181146104985760008415610486578287015190505b6104908582610412565b8655506104f8565b601f1984166104a686610278565b60005b828110156104ce578489015182556001820191506020850194506020810190506104a9565b868310156104eb57848901516104e7601f8916826103f4565b8355505b6001600288020188555050505b505050505050565b610509816102fc565b82525050565b60006020820190506105246000830184610500565b92915050565b611bd8806105396000396000f3fe608060405234801561001057600080fd5b50600436106100cf5760003560e01c80633eaaf86b1161008c578063a3895fff11610066578063a3895fff1461022a578063a457c2d714610246578063a9059cbb14610276578063dd62ed3e146102a6576100cf565b80633eaaf86b146101be57806370a08231146101dc57806395d89b411461020c576100cf565b806306fdde03146100d4578063095ea7b3146100f257806318160ddd1461012257806323b872dd14610140578063313ce56714610170578063395093511461018e575b600080fd5b6100dc6102d6565b6040516100e99190611353565b60405180910390f35b61010c60048036038101906101079190611413565b61030f565b604051610119919061146e565b60405180910390f35b61012a610439565b6040516101379190611498565b60405180910390f35b61015a600480360381019061015591906114b3565b610447565b604051610167919061146e565b60405180910390f35b61017861067c565b6040516101859190611522565b60405180910390f35b6101a860048036038101906101a39190611413565b610681565b6040516101b5919061146e565b60405180910390f35b6101c66108b5565b6040516101d39190611498565b60405180910390f35b6101f660048036038101906101f1919061153d565b6108bf565b6040516102039190611498565b60405180910390f35b610214610908565b6040516102219190611353565b60405180910390f35b610244600480360381019061023f91906115cf565b610996565b005b610260600480360381019061025b9190611413565b610a27565b60405161026d919061146e565b60405180910390f35b610290600480360381019061028b9190611413565b610c5b565b60405161029d919061146e565b60405180910390f35b6102c060048036038101906102bb919061161c565b610e7b565b6040516102cd9190611498565b60405180910390f35b6040518060400160405280600b81526020017f537573686920546f6b656e00000000000000000000000000000000000000000081525081565b60008073ffffffffffffffffffffffffffffffffffffffff168373ffffffffffffffffffffffffffffffffffffffff160361034957600080fd5b81600260003373ffffffffffffffffffffffffffffffffffffffff1673ffffffffffffffffffffffffffffffffffffffff16815260200190815260200160002060008573ffffffffffffffffffffffffffffffffffffffff1673ffffffffffffffffffffffffffffffffffffffff168152602001908152602001600020819055508273ffffffffffffffffffffffffffffffffffffffff163373ffffffffffffffffffffffffffffffffffffffff167f8c5be1e5ebec7d5bd14f71427d1e84f3dd0314c0f7b2291e5b200ac8c7c3b925846040516104279190611498565b60405180910390a36001905092915050565b60006509184e72a000905090565b6000600160008573ffffffffffffffffffffffffffffffffffffffff1673ffffffffffffffffffffffffffffffffffffffff1681526020019081526020016000205482111561049557600080fd5b600260008573ffffffffffffffffffffffffffffffffffffffff1673ffffffffffffffffffffffffffffffffffffffff16815260200190815260200160002060003373ffffffffffffffffffffffffffffffffffffffff1673ffffffffffffffffffffffffffffffffffffffff1681526020019081526020016000205482111561051e57600080fd5b600073ffffffffffffffffffffffffffffffffffffffff168373ffffffffffffffffffffffffffffffffffffffff160361055757600080fd5b6105e682600260008773ffffffffffffffffffffffffffffffffffffffff1673ffffffffffffffffffffffffffffffffffffffff16815260200190815260200160002060003373ffffffffffffffffffffffffffffffffffffffff1673ffffffffffffffffffffffffffffffffffffffff16815260200190815260200160002054610f0290919063ffffffff16565b600260008673ffffffffffffffffffffffffffffffffffffffff1673ffffffffffffffffffffffffffffffffffffffff16815260200190815260200160002060003373ffffffffffffffffffffffffffffffffffffffff1673ffffffffffffffffffffffffffffffffffffffff16815260200190815260200160002081905550610671848484610f5b565b600190509392505050565b600a81565b60008073ffffffffffffffffffffffffffffffffffffffff168373ffffffffffffffffffffffffffffffffffffffff16036106bb57600080fd5b61074a82600260003373ffffffffffffffffffffffffffffffffffffffff1673ffffffffffffffffffffffffffffffffffffffff16815260200190815260200160002060008673ffffffffffffffffffffffffffffffffffffffff1673ffffffffffffffffffffffffffffffffffffffff168152602001908152602001600020546110ef90919063ffffffff16565b600260003373ffffffffffffffffffffffffffffffffffffffff1673ffffffffffffffffffffffffffffffffffffffff16815260200190815260200160002060008573ffffffffffffffffffffffffffffffffffffffff1673ffffffffffffffffffffffffffffffffffffffff168152602001908152602001600020819055508273ffffffffffffffffffffffffffffffffffffffff163373ffffffffffffffffffffffffffffffffffffffff167f8c5be1e5ebec7d5bd14f71427d1e84f3dd0314c0f7b2291e5b200ac8c7c3b925600260003373ffffffffffffffffffffffffffffffffffffffff1673ffffffffffffffffffffffffffffffffffffffff16815260200190815260200160002060008773ffffffffffffffffffffffffffffffffffffffff1673ffffffffffffffffffffffffffffffffffffffff168152602001908152602001600020546040516108a39190611498565b60405180910390a36001905092915050565b6509184e72a00081565b6000600160008373ffffffffffffffffffffffffffffffffffffffff1673ffffffffffffffffffffffffffffffffffffffff168152602001908152602001600020549050919050565b600080546109159061168b565b80601f01602080910402602001604051908101604052809291908181526020018280546109419061168b565b801561098e5780601f106109635761010080835404028352916020019161098e565b820191906000526020600020905b81548152906001019060200180831161097157829003601f168201915b505050505081565b60006109a0611148565b90508073ffffffffffffffffffffffffffffffffffffffff163373ffffffffffffffffffffffffffffffffffffffff1614610a10576040517f08c379a0000000000000000000000000000000000000000000000000000000008152600401610a079061172e565b60405180910390fd5b828260009182610a21929190611934565b50505050565b60008073ffffffffffffffffffffffffffffffffffffffff168373ffffffffffffffffffffffffffffffffffffffff1603610a6157600080fd5b610af082600260003373ffffffffffffffffffffffffffffffffffffffff1673ffffffffffffffffffffffffffffffffffffffff16815260200190815260200160002060008673ffffffffffffffffffffffffffffffffffffffff1673ffffffffffffffffffffffffffffffffffffffff16815260200190815260200160002054610f0290919063ffffffff16565b600260003373ffffffffffffffffffffffffffffffffffffffff1673ffffffffffffffffffffffffffffffffffffffff16815260200190815260200160002060008573ffffffffffffffffffffffffffffffffffffffff1673ffffffffffffffffffffffffffffffffffffffff168152602001908152602001600020819055508273ffffffffffffffffffffffffffffffffffffffff163373ffffffffffffffffffffffffffffffffffffffff167f8c5be1e5ebec7d5bd14f71427d1e84f3dd0314c0f7b2291e5b200ac8c7c3b925600260003373ffffffffffffffffffffffffffffffffffffffff1673ffffffffffffffffffffffffffffffffffffffff16815260200190815260200160002060008773ffffffffffffffffffffffffffffffffffffffff1673ffffffffffffffffffffffffffffffffffffffff16815260200190815260200160002054604051610c499190611498565b60405180910390a36001905092915050565b6000600160003373ffffffffffffffffffffffffffffffffffffffff1673ffffffffffffffffffffffffffffffffffffffff16815260200190815260200160002054821115610ca957600080fd5b600073ffffffffffffffffffffffffffffffffffffffff168373ffffffffffffffffffffffffffffffffffffffff1603610ce257600080fd5b610d3482600160003373ffffffffffffffffffffffffffffffffffffffff1673ffffffffffffffffffffffffffffffffffffffff16815260200190815260200160002054610f0290919063ffffffff16565b600160003373ffffffffffffffffffffffffffffffffffffffff1673ffffffffffffffffffffffffffffffffffffffff16815260200190815260200160002081905550610dc982600160008673ffffffffffffffffffffffffffffffffffffffff1673ffffffffffffffffffffffffffffffffffffffff168152602001908152602001600020546110ef90919063ffffffff16565b600160008573ffffffffffffffffffffffffffffffffffffffff1673ffffffffffffffffffffffffffffffffffffffff168152602001908152602001600020819055508273ffffffffffffffffffffffffffffffffffffffff163373ffffffffffffffffffffffffffffffffffffffff167fddf252ad1be2c89b69c2b068fc378daa952ba7f163c4a11628f55a4df523b3ef84604051610e699190611498565b60405180910390a36001905092915050565b6000600260008473ffffffffffffffffffffffffffffffffffffffff1673ffffffffffffffffffffffffffffffffffffffff16815260200190815260200160002060008373ffffffffffffffffffffffffffffffffffffffff1673ffffffffffffffffffffffffffffffffffffffff16815260200190815260200160002054905092915050565b6000828284610f119190611a33565b9150811115610f55576040517f08c379a0000000000000000000000000000000000000000000000000000000008152600401610f4c90611ab3565b60405180910390fd5b92915050565b610fad81600160008673ffffffffffffffffffffffffffffffffffffffff1673ffffffffffffffffffffffffffffffffffffffff16815260200190815260200160002054610f0290919063ffffffff16565b600160008573ffffffffffffffffffffffffffffffffffffffff1673ffffffffffffffffffffffffffffffffffffffff1681526020019081526020016000208190555061104281600160008573ffffffffffffffffffffffffffffffffffffffff1673ffffffffffffffffffffffffffffffffffffffff168152602001908152602001600020546110ef90919063ffffffff16565b600160008473ffffffffffffffffffffffffffffffffffffffff1673ffffffffffffffffffffffffffffffffffffffff168152602001908152602001600020819055508173ffffffffffffffffffffffffffffffffffffffff168373ffffffffffffffffffffffffffffffffffffffff167fddf252ad1be2c89b69c2b068fc378daa952ba7f163c4a11628f55a4df523b3ef836040516110e29190611498565b60405180910390a3505050565b60008282846110fe9190611ad3565b9150811015611142576040517f08c379a000000000000000000000000000000000000000000000000000000000815260040161113990611b53565b60405180910390fd5b92915050565b60008060006509184e72a000905060005b6003805490508110156112ba5781600160006003848154811061117f5761117e611b73565b5b9060005260206000200160009054906101000a900473ffffffffffffffffffffffffffffffffffffffff1673ffffffffffffffffffffffffffffffffffffffff1673ffffffffffffffffffffffffffffffffffffffff1681526020019081526020016000205410156112ad57600160006003838154811061120357611202611b73565b5b9060005260206000200160009054906101000a900473ffffffffffffffffffffffffffffffffffffffff1673ffffffffffffffffffffffffffffffffffffffff1673ffffffffffffffffffffffffffffffffffffffff1681526020019081526020016000205491506003818154811061127f5761127e611b73565b5b9060005260206000200160009054906101000a900473ffffffffffffffffffffffffffffffffffffffff1692505b8080600101915050611159565b50819250505090565b600081519050919050565b600082825260208201905092915050565b60005b838110156112fd5780820151818401526020810190506112e2565b60008484015250505050565b6000601f19601f8301169050919050565b6000611325826112c3565b61132f81856112ce565b935061133f8185602086016112df565b61134881611309565b840191505092915050565b6000602082019050818103600083015261136d818461131a565b905092915050565b600080fd5b600080fd5b600073ffffffffffffffffffffffffffffffffffffffff82169050919050565b60006113aa8261137f565b9050919050565b6113ba8161139f565b81146113c557600080fd5b50565b6000813590506113d7816113b1565b92915050565b6000819050919050565b6113f0816113dd565b81146113fb57600080fd5b50565b60008135905061140d816113e7565b92915050565b6000806040838503121561142a57611429611375565b5b6000611438858286016113c8565b9250506020611449858286016113fe565b9150509250929050565b60008115159050919050565b61146881611453565b82525050565b6000602082019050611483600083018461145f565b92915050565b611492816113dd565b82525050565b60006020820190506114ad6000830184611489565b92915050565b6000806000606084860312156114cc576114cb611375565b5b60006114da868287016113c8565b93505060206114eb868287016113c8565b92505060406114fc868287016113fe565b9150509250925092565b600060ff82169050919050565b61151c81611506565b82525050565b60006020820190506115376000830184611513565b92915050565b60006020828403121561155357611552611375565b5b6000611561848285016113c8565b91505092915050565b600080fd5b600080fd5b600080fd5b60008083601f84011261158f5761158e61156a565b5b8235905067ffffffffffffffff8111156115ac576115ab61156f565b5b6020830191508360018202830111156115c8576115c7611574565b5b9250929050565b600080602083850312156115e6576115e5611375565b5b600083013567ffffffffffffffff8111156116045761160361137a565b5b61161085828601611579565b92509250509250929050565b6000806040838503121561163357611632611375565b5b6000611641858286016113c8565b9250506020611652858286016113c8565b9150509250929050565b7f4e487b7100000000000000000000000000000000000000000000000000000000600052602260045260246000fd5b600060028204905060018216806116a357607f821691505b6020821081036116b6576116b561165c565b5b50919050565b7f4f6e6c7920746865206c6f776573742062616c616e636520686f6c646572206360008201527f616e206368616e6765207468652073796d626f6c000000000000000000000000602082015250565b60006117186034836112ce565b9150611723826116bc565b604082019050919050565b600060208201905081810360008301526117478161170b565b9050919050565b600082905092915050565b7f4e487b7100000000000000000000000000000000000000000000000000000000600052604160045260246000fd5b60008190508160005260206000209050919050565b60006020601f8301049050919050565b600082821b905092915050565b6000600883026117ea7fffffffffffffffffffffffffffffffffffffffffffffffffffffffffffffffff826117ad565b6117f486836117ad565b95508019841693508086168417925050509392505050565b6000819050919050565b600061183161182c611827846113dd565b61180c565b6113dd565b9050919050565b6000819050919050565b61184b83611816565b61185f61185782611838565b8484546117ba565b825550505050565b600090565b611874611867565b61187f818484611842565b505050565b5b818110156118a35761189860008261186c565b600181019050611885565b5050565b601f8211156118e8576118b981611788565b6118c28461179d565b810160208510156118d1578190505b6118e56118dd8561179d565b830182611884565b50505b505050565b600082821c905092915050565b600061190b600019846008026118ed565b1980831691505092915050565b600061192483836118fa565b9150826002028217905092915050565b61193e838361174e565b67ffffffffffffffff81111561195757611956611759565b5b611961825461168b565b61196c8282856118a7565b6000601f83116001811461199b5760008415611989578287013590505b6119938582611918565b8655506119fb565b601f1984166119a986611788565b60005b828110156119d1578489013582556001820191506020850194506020810190506119ac565b868310156119ee57848901356119ea601f8916826118fa565b8355505b6001600288020188555050505b50505050505050565b7f4e487b7100000000000000000000000000000000000000000000000000000000600052601160045260246000fd5b6000611a3e826113dd565b9150611a49836113dd565b9250828203905081811115611a6157611a60611a04565b5b92915050565b7f64732d6d6174682d7375622d756e646572666c6f770000000000000000000000600082015250565b6000611a9d6015836112ce565b9150611aa882611a67565b602082019050919050565b60006020820190508181036000830152611acc81611a90565b9050919050565b6000611ade826113dd565b9150611ae9836113dd565b9250828201905080821115611b0157611b00611a04565b5b92915050565b7f64732d6d6174682d6164642d6f766572666c6f77000000000000000000000000600082015250565b6000611b3d6014836112ce565b9150611b4882611b07565b602082019050919050565b60006020820190508181036000830152611b6c81611b30565b9050919050565b7f4e487b7100000000000000000000000000000000000000000000000000000000600052603260045260246000fdfea26469706673582212201cc08f83c394133bd789d83213ddbad9015be3ca894b6d1437ac6c1d4788d74c64736f6c63430008190033",
					"opcodes": "PUSH1 0x80 PUSH1 0x40 MSTORE PUSH1 0x40 MLOAD DUP1 PUSH1 0x40 ADD PUSH1 0x40 MSTORE DUP1 PUSH1 0x3 DUP2 MSTORE PUSH1 0x20 ADD PUSH32 0x5348530000000000000000000000000000000000000000000000000000000000 DUP2 MSTORE POP PUSH1 0x0 SWAP1 DUP2 PUSH2 0x48 SWAP2 SWAP1 PUSH2 0x42E JUMP JUMPDEST POP CALLVALUE DUP1 ISZERO PUSH2 0x55 JUMPI PUSH1 0x0 DUP1 REVERT JUMPDEST POP PUSH6 0x9184E72A000 PUSH1 0x1 PUSH1 0x0 CALLER PUSH20 0xFFFFFFFFFFFFFFFFFFFFFFFFFFFFFFFFFFFFFFFF AND PUSH20 0xFFFFFFFFFFFFFFFFFFFFFFFFFFFFFFFFFFFFFFFF AND DUP2 MSTORE PUSH1 0x20 ADD SWAP1 DUP2 MSTORE PUSH1 0x20 ADD PUSH1 0x0 KECCAK256 DUP2 SWAP1 SSTORE POP PUSH2 0xAF CALLER PUSH2 0x120 PUSH1 0x20 SHL PUSH1 0x20 SHR JUMP JUMPDEST CALLER PUSH20 0xFFFFFFFFFFFFFFFFFFFFFFFFFFFFFFFFFFFFFFFF AND PUSH1 0x0 PUSH20 0xFFFFFFFFFFFFFFFFFFFFFFFFFFFFFFFFFFFFFFFF AND PUSH32 0xDDF252AD1BE2C89B69C2B068FC378DAA952BA7F163C4A11628F55A4DF523B3EF PUSH6 0x9184E72A000 PUSH1 0x40 MLOAD PUSH2 0x113 SWAP2 SWAP1 PUSH2 0x50F JUMP JUMPDEST PUSH1 0x40 MLOAD DUP1 SWAP2 SUB SWAP1 LOG3 PUSH2 0x52A JUMP JUMPDEST PUSH1 0x1 PUSH1 0x4 PUSH1 0x0 DUP4 PUSH20 0xFFFFFFFFFFFFFFFFFFFFFFFFFFFFFFFFFFFFFFFF AND PUSH20 0xFFFFFFFFFFFFFFFFFFFFFFFFFFFFFFFFFFFFFFFF AND DUP2 MSTORE PUSH1 0x20 ADD SWAP1 DUP2 MSTORE PUSH1 0x20 ADD PUSH1 0x0 KECCAK256 PUSH1 0x0 PUSH2 0x100 EXP DUP2 SLOAD DUP2 PUSH1 0xFF MUL NOT AND SWAP1 DUP4 ISZERO ISZERO MUL OR SWAP1 SSTORE POP PUSH1 0x3 DUP2 SWAP1 DUP1 PUSH1 0x1 DUP2 SLOAD ADD DUP1 DUP3 SSTORE DUP1 SWAP2 POP POP PUSH1 0x1 SWAP1 SUB SWAP1 PUSH1 0x0 MSTORE PUSH1 0x20 PUSH1 0x0 KECCAK256 ADD PUSH1 0x0 SWAP1 SWAP2 SWAP1 SWAP2 SWAP1 SWAP2 PUSH2 0x100 EXP DUP2 SLOAD DUP2 PUSH20 0xFFFFFFFFFFFFFFFFFFFFFFFFFFFFFFFFFFFFFFFF MUL NOT AND SWAP1 DUP4 PUSH20 0xFFFFFFFFFFFFFFFFFFFFFFFFFFFFFFFFFFFFFFFF AND MUL OR SWAP1 SSTORE POP POP JUMP JUMPDEST PUSH1 0x0 DUP2 MLOAD SWAP1 POP SWAP2 SWAP1 POP JUMP JUMPDEST PUSH32 0x4E487B7100000000000000000000000000000000000000000000000000000000 PUSH1 0x0 MSTORE PUSH1 0x41 PUSH1 0x4 MSTORE PUSH1 0x24 PUSH1 0x0 REVERT JUMPDEST PUSH32 0x4E487B7100000000000000000000000000000000000000000000000000000000 PUSH1 0x0 MSTORE PUSH1 0x22 PUSH1 0x4 MSTORE PUSH1 0x24 PUSH1 0x0 REVERT JUMPDEST PUSH1 0x0 PUSH1 0x2 DUP3 DIV SWAP1 POP PUSH1 0x1 DUP3 AND DUP1 PUSH2 0x25F JUMPI PUSH1 0x7F DUP3 AND SWAP2 POP JUMPDEST PUSH1 0x20 DUP3 LT DUP2 SUB PUSH2 0x272 JUMPI PUSH2 0x271 PUSH2 0x218 JUMP JUMPDEST JUMPDEST POP SWAP2 SWAP1 POP JUMP JUMPDEST PUSH1 0x0 DUP2 SWAP1 POP DUP2 PUSH1 0x0 MSTORE PUSH1 0x20 PUSH1 0x0 KECCAK256 SWAP1 POP SWAP2 SWAP1 POP JUMP JUMPDEST PUSH1 0x0 PUSH1 0x20 PUSH1 0x1F DUP4 ADD DIV SWAP1 POP SWAP2 SWAP1 POP JUMP JUMPDEST PUSH1 0x0 DUP3 DUP3 SHL SWAP1 POP SWAP3 SWAP2 POP POP JUMP JUMPDEST PUSH1 0x0 PUSH1 0x8 DUP4 MUL PUSH2 0x2DA PUSH32 0xFFFFFFFFFFFFFFFFFFFFFFFFFFFFFFFFFFFFFFFFFFFFFFFFFFFFFFFFFFFFFFFF DUP3 PUSH2 0x29D JUMP JUMPDEST PUSH2 0x2E4 DUP7 DUP4 PUSH2 0x29D JUMP JUMPDEST SWAP6 POP DUP1 NOT DUP5 AND SWAP4 POP DUP1 DUP7 AND DUP5 OR SWAP3 POP POP POP SWAP4 SWAP3 POP POP POP JUMP JUMPDEST PUSH1 0x0 DUP2 SWAP1 POP SWAP2 SWAP1 POP JUMP JUMPDEST PUSH1 0x0 DUP2 SWAP1 POP SWAP2 SWAP1 POP JUMP JUMPDEST PUSH1 0x0 PUSH2 0x32B PUSH2 0x326 PUSH2 0x321 DUP5 PUSH2 0x2FC JUMP JUMPDEST PUSH2 0x306 JUMP JUMPDEST PUSH2 0x2FC JUMP JUMPDEST SWAP1 POP SWAP2 SWAP1 POP JUMP JUMPDEST PUSH1 0x0 DUP2 SWAP1 POP SWAP2 SWAP1 POP JUMP JUMPDEST PUSH2 0x345 DUP4 PUSH2 0x310 JUMP JUMPDEST PUSH2 0x359 PUSH2 0x351 DUP3 PUSH2 0x332 JUMP JUMPDEST DUP5 DUP5 SLOAD PUSH2 0x2AA JUMP JUMPDEST DUP3 SSTORE POP POP POP POP JUMP JUMPDEST PUSH1 0x0 SWAP1 JUMP JUMPDEST PUSH2 0x36E PUSH2 0x361 JUMP JUMPDEST PUSH2 0x379 DUP2 DUP5 DUP5 PUSH2 0x33C JUMP JUMPDEST POP POP POP JUMP JUMPDEST JUMPDEST DUP2 DUP2 LT ISZERO PUSH2 0x39D JUMPI PUSH2 0x392 PUSH1 0x0 DUP3 PUSH2 0x366 JUMP JUMPDEST PUSH1 0x1 DUP2 ADD SWAP1 POP PUSH2 0x37F JUMP JUMPDEST POP POP JUMP JUMPDEST PUSH1 0x1F DUP3 GT ISZERO PUSH2 0x3E2 JUMPI PUSH2 0x3B3 DUP2 PUSH2 0x278 JUMP JUMPDEST PUSH2 0x3BC DUP5 PUSH2 0x28D JUMP JUMPDEST DUP2 ADD PUSH1 0x20 DUP6 LT ISZERO PUSH2 0x3CB JUMPI DUP2 SWAP1 POP JUMPDEST PUSH2 0x3DF PUSH2 0x3D7 DUP6 PUSH2 0x28D JUMP JUMPDEST DUP4 ADD DUP3 PUSH2 0x37E JUMP JUMPDEST POP POP JUMPDEST POP POP POP JUMP JUMPDEST PUSH1 0x0 DUP3 DUP3 SHR SWAP1 POP SWAP3 SWAP2 POP POP JUMP JUMPDEST PUSH1 0x0 PUSH2 0x405 PUSH1 0x0 NOT DUP5 PUSH1 0x8 MUL PUSH2 0x3E7 JUMP JUMPDEST NOT DUP1 DUP4 AND SWAP2 POP POP SWAP3 SWAP2 POP POP JUMP JUMPDEST PUSH1 0x0 PUSH2 0x41E DUP4 DUP4 PUSH2 0x3F4 JUMP JUMPDEST SWAP2 POP DUP3 PUSH1 0x2 MUL DUP3 OR SWAP1 POP SWAP3 SWAP2 POP POP JUMP JUMPDEST PUSH2 0x437 DUP3 PUSH2 0x1DE JUMP JUMPDEST PUSH8 0xFFFFFFFFFFFFFFFF DUP2 GT ISZERO PUSH2 0x450 JUMPI PUSH2 0x44F PUSH2 0x1E9 JUMP JUMPDEST JUMPDEST PUSH2 0x45A DUP3 SLOAD PUSH2 0x247 JUMP JUMPDEST PUSH2 0x465 DUP3 DUP3 DUP6 PUSH2 0x3A1 JUMP JUMPDEST PUSH1 0x0 PUSH1 0x20 SWAP1 POP PUSH1 0x1F DUP4 GT PUSH1 0x1 DUP2 EQ PUSH2 0x498 JUMPI PUSH1 0x0 DUP5 ISZERO PUSH2 0x486 JUMPI DUP3 DUP8 ADD MLOAD SWAP1 POP JUMPDEST PUSH2 0x490 DUP6 DUP3 PUSH2 0x412 JUMP JUMPDEST DUP7 SSTORE POP PUSH2 0x4F8 JUMP JUMPDEST PUSH1 0x1F NOT DUP5 AND PUSH2 0x4A6 DUP7 PUSH2 0x278 JUMP JUMPDEST PUSH1 0x0 JUMPDEST DUP3 DUP2 LT ISZERO PUSH2 0x4CE JUMPI DUP5 DUP10 ADD MLOAD DUP3 SSTORE PUSH1 0x1 DUP3 ADD SWAP2 POP PUSH1 0x20 DUP6 ADD SWAP5 POP PUSH1 0x20 DUP2 ADD SWAP1 POP PUSH2 0x4A9 JUMP JUMPDEST DUP7 DUP4 LT ISZERO PUSH2 0x4EB JUMPI DUP5 DUP10 ADD MLOAD PUSH2 0x4E7 PUSH1 0x1F DUP10 AND DUP3 PUSH2 0x3F4 JUMP JUMPDEST DUP4 SSTORE POP JUMPDEST PUSH1 0x1 PUSH1 0x2 DUP9 MUL ADD DUP9 SSTORE POP POP POP JUMPDEST POP POP POP POP POP POP JUMP JUMPDEST PUSH2 0x509 DUP2 PUSH2 0x2FC JUMP JUMPDEST DUP3 MSTORE POP POP JUMP JUMPDEST PUSH1 0x0 PUSH1 0x20 DUP3 ADD SWAP1 POP PUSH2 0x524 PUSH1 0x0 DUP4 ADD DUP5 PUSH2 0x500 JUMP JUMPDEST SWAP3 SWAP2 POP POP JUMP JUMPDEST PUSH2 0x1BD8 DUP1 PUSH2 0x539 PUSH1 0x0 CODECOPY PUSH1 0x0 RETURN INVALID PUSH1 0x80 PUSH1 0x40 MSTORE CALLVALUE DUP1 ISZERO PUSH2 0x10 JUMPI PUSH1 0x0 DUP1 REVERT JUMPDEST POP PUSH1 0x4 CALLDATASIZE LT PUSH2 0xCF JUMPI PUSH1 0x0 CALLDATALOAD PUSH1 0xE0 SHR DUP1 PUSH4 0x3EAAF86B GT PUSH2 0x8C JUMPI DUP1 PUSH4 0xA3895FFF GT PUSH2 0x66 JUMPI DUP1 PUSH4 0xA3895FFF EQ PUSH2 0x22A JUMPI DUP1 PUSH4 0xA457C2D7 EQ PUSH2 0x246 JUMPI DUP1 PUSH4 0xA9059CBB EQ PUSH2 0x276 JUMPI DUP1 PUSH4 0xDD62ED3E EQ PUSH2 0x2A6 JUMPI PUSH2 0xCF JUMP JUMPDEST DUP1 PUSH4 0x3EAAF86B EQ PUSH2 0x1BE JUMPI DUP1 PUSH4 0x70A08231 EQ PUSH2 0x1DC JUMPI DUP1 PUSH4 0x95D89B41 EQ PUSH2 0x20C JUMPI PUSH2 0xCF JUMP JUMPDEST DUP1 PUSH4 0x6FDDE03 EQ PUSH2 0xD4 JUMPI DUP1 PUSH4 0x95EA7B3 EQ PUSH2 0xF2 JUMPI DUP1 PUSH4 0x18160DDD EQ PUSH2 0x122 JUMPI DUP1 PUSH4 0x23B872DD EQ PUSH2 0x140 JUMPI DUP1 PUSH4 0x313CE567 EQ PUSH2 0x170 JUMPI DUP1 PUSH4 0x39509351 EQ PUSH2 0x18E JUMPI JUMPDEST PUSH1 0x0 DUP1 REVERT JUMPDEST PUSH2 0xDC PUSH2 0x2D6 JUMP JUMPDEST PUSH1 0x40 MLOAD PUSH2 0xE9 SWAP2 SWAP1 PUSH2 0x1353 JUMP JUMPDEST PUSH1 0x40 MLOAD DUP1 SWAP2 SUB SWAP1 RETURN JUMPDEST PUSH2 0x10C PUSH1 0x4 DUP1 CALLDATASIZE SUB DUP2 ADD SWAP1 PUSH2 0x107 SWAP2 SWAP1 PUSH2 0x1413 JUMP JUMPDEST PUSH2 0x30F JUMP JUMPDEST PUSH1 0x40 MLOAD PUSH2 0x119 SWAP2 SWAP1 PUSH2 0x146E JUMP JUMPDEST PUSH1 0x40 MLOAD DUP1 SWAP2 SUB SWAP1 RETURN JUMPDEST PUSH2 0x12A PUSH2 0x439 JUMP JUMPDEST PUSH1 0x40 MLOAD PUSH2 0x137 SWAP2 SWAP1 PUSH2 0x1498 JUMP JUMPDEST PUSH1 0x40 MLOAD DUP1 SWAP2 SUB SWAP1 RETURN JUMPDEST PUSH2 0x15A PUSH1 0x4 DUP1 CALLDATASIZE SUB DUP2 ADD SWAP1 PUSH2 0x155 SWAP2 SWAP1 PUSH2 0x14B3 JUMP JUMPDEST PUSH2 0x447 JUMP JUMPDEST PUSH1 0x40 MLOAD PUSH2 0x167 SWAP2 SWAP1 PUSH2 0x146E JUMP JUMPDEST PUSH1 0x40 MLOAD DUP1 SWAP2 SUB SWAP1 RETURN JUMPDEST PUSH2 0x178 PUSH2 0x67C JUMP JUMPDEST PUSH1 0x40 MLOAD PUSH2 0x185 SWAP2 SWAP1 PUSH2 0x1522 JUMP JUMPDEST PUSH1 0x40 MLOAD DUP1 SWAP2 SUB SWAP1 RETURN JUMPDEST PUSH2 0x1A8 PUSH1 0x4 DUP1 CALLDATASIZE SUB DUP2 ADD SWAP1 PUSH2 0x1A3 SWAP2 SWAP1 PUSH2 0x1413 JUMP JUMPDEST PUSH2 0x681 JUMP JUMPDEST PUSH1 0x40 MLOAD PUSH2 0x1B5 SWAP2 SWAP1 PUSH2 0x146E JUMP JUMPDEST PUSH1 0x40 MLOAD DUP1 SWAP2 SUB SWAP1 RETURN JUMPDEST PUSH2 0x1C6 PUSH2 0x8B5 JUMP JUMPDEST PUSH1 0x40 MLOAD PUSH2 0x1D3 SWAP2 SWAP1 PUSH2 0x1498 JUMP JUMPDEST PUSH1 0x40 MLOAD DUP1 SWAP2 SUB SWAP1 RETURN JUMPDEST PUSH2 0x1F6 PUSH1 0x4 DUP1 CALLDATASIZE SUB DUP2 ADD SWAP1 PUSH2 0x1F1 SWAP2 SWAP1 PUSH2 0x153D JUMP JUMPDEST PUSH2 0x8BF JUMP JUMPDEST PUSH1 0x40 MLOAD PUSH2 0x203 SWAP2 SWAP1 PUSH2 0x1498 JUMP JUMPDEST PUSH1 0x40 MLOAD DUP1 SWAP2 SUB SWAP1 RETURN JUMPDEST PUSH2 0x214 PUSH2 0x908 JUMP JUMPDEST PUSH1 0x40 MLOAD PUSH2 0x221 SWAP2 SWAP1 PUSH2 0x1353 JUMP JUMPDEST PUSH1 0x40 MLOAD DUP1 SWAP2 SUB SWAP1 RETURN JUMPDEST PUSH2 0x244 PUSH1 0x4 DUP1 CALLDATASIZE SUB DUP2 ADD SWAP1 PUSH2 0x23F SWAP2 SWAP1 PUSH2 0x15CF JUMP JUMPDEST PUSH2 0x996 JUMP JUMPDEST STOP JUMPDEST PUSH2 0x260 PUSH1 0x4 DUP1 CALLDATASIZE SUB DUP2 ADD SWAP1 PUSH2 0x25B SWAP2 SWAP1 PUSH2 0x1413 JUMP JUMPDEST PUSH2 0xA27 JUMP JUMPDEST PUSH1 0x40 MLOAD PUSH2 0x26D SWAP2 SWAP1 PUSH2 0x146E JUMP JUMPDEST PUSH1 0x40 MLOAD DUP1 SWAP2 SUB SWAP1 RETURN JUMPDEST PUSH2 0x290 PUSH1 0x4 DUP1 CALLDATASIZE SUB DUP2 ADD SWAP1 PUSH2 0x28B SWAP2 SWAP1 PUSH2 0x1413 JUMP JUMPDEST PUSH2 0xC5B JUMP JUMPDEST PUSH1 0x40 MLOAD PUSH2 0x29D SWAP2 SWAP1 PUSH2 0x146E JUMP JUMPDEST PUSH1 0x40 MLOAD DUP1 SWAP2 SUB SWAP1 RETURN JUMPDEST PUSH2 0x2C0 PUSH1 0x4 DUP1 CALLDATASIZE SUB DUP2 ADD SWAP1 PUSH2 0x2BB SWAP2 SWAP1 PUSH2 0x161C JUMP JUMPDEST PUSH2 0xE7B JUMP JUMPDEST PUSH1 0x40 MLOAD PUSH2 0x2CD SWAP2 SWAP1 PUSH2 0x1498 JUMP JUMPDEST PUSH1 0x40 MLOAD DUP1 SWAP2 SUB SWAP1 RETURN JUMPDEST PUSH1 0x40 MLOAD DUP1 PUSH1 0x40 ADD PUSH1 0x40 MSTORE DUP1 PUSH1 0xB DUP2 MSTORE PUSH1 0x20 ADD PUSH32 0x537573686920546F6B656E000000000000000000000000000000000000000000 DUP2 MSTORE POP DUP2 JUMP JUMPDEST PUSH1 0x0 DUP1 PUSH20 0xFFFFFFFFFFFFFFFFFFFFFFFFFFFFFFFFFFFFFFFF AND DUP4 PUSH20 0xFFFFFFFFFFFFFFFFFFFFFFFFFFFFFFFFFFFFFFFF AND SUB PUSH2 0x349 JUMPI PUSH1 0x0 DUP1 REVERT JUMPDEST DUP2 PUSH1 0x2 PUSH1 0x0 CALLER PUSH20 0xFFFFFFFFFFFFFFFFFFFFFFFFFFFFFFFFFFFFFFFF AND PUSH20 0xFFFFFFFFFFFFFFFFFFFFFFFFFFFFFFFFFFFFFFFF AND DUP2 MSTORE PUSH1 0x20 ADD SWAP1 DUP2 MSTORE PUSH1 0x20 ADD PUSH1 0x0 KECCAK256 PUSH1 0x0 DUP6 PUSH20 0xFFFFFFFFFFFFFFFFFFFFFFFFFFFFFFFFFFFFFFFF AND PUSH20 0xFFFFFFFFFFFFFFFFFFFFFFFFFFFFFFFFFFFFFFFF AND DUP2 MSTORE PUSH1 0x20 ADD SWAP1 DUP2 MSTORE PUSH1 0x20 ADD PUSH1 0x0 KECCAK256 DUP2 SWAP1 SSTORE POP DUP3 PUSH20 0xFFFFFFFFFFFFFFFFFFFFFFFFFFFFFFFFFFFFFFFF AND CALLER PUSH20 0xFFFFFFFFFFFFFFFFFFFFFFFFFFFFFFFFFFFFFFFF AND PUSH32 0x8C5BE1E5EBEC7D5BD14F71427D1E84F3DD0314C0F7B2291E5B200AC8C7C3B925 DUP5 PUSH1 0x40 MLOAD PUSH2 0x427 SWAP2 SWAP1 PUSH2 0x1498 JUMP JUMPDEST PUSH1 0x40 MLOAD DUP1 SWAP2 SUB SWAP1 LOG3 PUSH1 0x1 SWAP1 POP SWAP3 SWAP2 POP POP JUMP JUMPDEST PUSH1 0x0 PUSH6 0x9184E72A000 SWAP1 POP SWAP1 JUMP JUMPDEST PUSH1 0x0 PUSH1 0x1 PUSH1 0x0 DUP6 PUSH20 0xFFFFFFFFFFFFFFFFFFFFFFFFFFFFFFFFFFFFFFFF AND PUSH20 0xFFFFFFFFFFFFFFFFFFFFFFFFFFFFFFFFFFFFFFFF AND DUP2 MSTORE PUSH1 0x20 ADD SWAP1 DUP2 MSTORE PUSH1 0x20 ADD PUSH1 0x0 KECCAK256 SLOAD DUP3 GT ISZERO PUSH2 0x495 JUMPI PUSH1 0x0 DUP1 REVERT JUMPDEST PUSH1 0x2 PUSH1 0x0 DUP6 PUSH20 0xFFFFFFFFFFFFFFFFFFFFFFFFFFFFFFFFFFFFFFFF AND PUSH20 0xFFFFFFFFFFFFFFFFFFFFFFFFFFFFFFFFFFFFFFFF AND DUP2 MSTORE PUSH1 0x20 ADD SWAP1 DUP2 MSTORE PUSH1 0x20 ADD PUSH1 0x0 KECCAK256 PUSH1 0x0 CALLER PUSH20 0xFFFFFFFFFFFFFFFFFFFFFFFFFFFFFFFFFFFFFFFF AND PUSH20 0xFFFFFFFFFFFFFFFFFFFFFFFFFFFFFFFFFFFFFFFF AND DUP2 MSTORE PUSH1 0x20 ADD SWAP1 DUP2 MSTORE PUSH1 0x20 ADD PUSH1 0x0 KECCAK256 SLOAD DUP3 GT ISZERO PUSH2 0x51E JUMPI PUSH1 0x0 DUP1 REVERT JUMPDEST PUSH1 0x0 PUSH20 0xFFFFFFFFFFFFFFFFFFFFFFFFFFFFFFFFFFFFFFFF AND DUP4 PUSH20 0xFFFFFFFFFFFFFFFFFFFFFFFFFFFFFFFFFFFFFFFF AND SUB PUSH2 0x557 JUMPI PUSH1 0x0 DUP1 REVERT JUMPDEST PUSH2 0x5E6 DUP3 PUSH1 0x2 PUSH1 0x0 DUP8 PUSH20 0xFFFFFFFFFFFFFFFFFFFFFFFFFFFFFFFFFFFFFFFF AND PUSH20 0xFFFFFFFFFFFFFFFFFFFFFFFFFFFFFFFFFFFFFFFF AND DUP2 MSTORE PUSH1 0x20 ADD SWAP1 DUP2 MSTORE PUSH1 0x20 ADD PUSH1 0x0 KECCAK256 PUSH1 0x0 CALLER PUSH20 0xFFFFFFFFFFFFFFFFFFFFFFFFFFFFFFFFFFFFFFFF AND PUSH20 0xFFFFFFFFFFFFFFFFFFFFFFFFFFFFFFFFFFFFFFFF AND DUP2 MSTORE PUSH1 0x20 ADD SWAP1 DUP2 MSTORE PUSH1 0x20 ADD PUSH1 0x0 KECCAK256 SLOAD PUSH2 0xF02 SWAP1 SWAP2 SWAP1 PUSH4 0xFFFFFFFF AND JUMP JUMPDEST PUSH1 0x2 PUSH1 0x0 DUP7 PUSH20 0xFFFFFFFFFFFFFFFFFFFFFFFFFFFFFFFFFFFFFFFF AND PUSH20 0xFFFFFFFFFFFFFFFFFFFFFFFFFFFFFFFFFFFFFFFF AND DUP2 MSTORE PUSH1 0x20 ADD SWAP1 DUP2 MSTORE PUSH1 0x20 ADD PUSH1 0x0 KECCAK256 PUSH1 0x0 CALLER PUSH20 0xFFFFFFFFFFFFFFFFFFFFFFFFFFFFFFFFFFFFFFFF AND PUSH20 0xFFFFFFFFFFFFFFFFFFFFFFFFFFFFFFFFFFFFFFFF AND DUP2 MSTORE PUSH1 0x20 ADD SWAP1 DUP2 MSTORE PUSH1 0x20 ADD PUSH1 0x0 KECCAK256 DUP2 SWAP1 SSTORE POP PUSH2 0x671 DUP5 DUP5 DUP5 PUSH2 0xF5B JUMP JUMPDEST PUSH1 0x1 SWAP1 POP SWAP4 SWAP3 POP POP POP JUMP JUMPDEST PUSH1 0xA DUP2 JUMP JUMPDEST PUSH1 0x0 DUP1 PUSH20 0xFFFFFFFFFFFFFFFFFFFFFFFFFFFFFFFFFFFFFFFF AND DUP4 PUSH20 0xFFFFFFFFFFFFFFFFFFFFFFFFFFFFFFFFFFFFFFFF AND SUB PUSH2 0x6BB JUMPI PUSH1 0x0 DUP1 REVERT JUMPDEST PUSH2 0x74A DUP3 PUSH1 0x2 PUSH1 0x0 CALLER PUSH20 0xFFFFFFFFFFFFFFFFFFFFFFFFFFFFFFFFFFFFFFFF AND PUSH20 0xFFFFFFFFFFFFFFFFFFFFFFFFFFFFFFFFFFFFFFFF AND DUP2 MSTORE PUSH1 0x20 ADD SWAP1 DUP2 MSTORE PUSH1 0x20 ADD PUSH1 0x0 KECCAK256 PUSH1 0x0 DUP7 PUSH20 0xFFFFFFFFFFFFFFFFFFFFFFFFFFFFFFFFFFFFFFFF AND PUSH20 0xFFFFFFFFFFFFFFFFFFFFFFFFFFFFFFFFFFFFFFFF AND DUP2 MSTORE PUSH1 0x20 ADD SWAP1 DUP2 MSTORE PUSH1 0x20 ADD PUSH1 0x0 KECCAK256 SLOAD PUSH2 0x10EF SWAP1 SWAP2 SWAP1 PUSH4 0xFFFFFFFF AND JUMP JUMPDEST PUSH1 0x2 PUSH1 0x0 CALLER PUSH20 0xFFFFFFFFFFFFFFFFFFFFFFFFFFFFFFFFFFFFFFFF AND PUSH20 0xFFFFFFFFFFFFFFFFFFFFFFFFFFFFFFFFFFFFFFFF AND DUP2 MSTORE PUSH1 0x20 ADD SWAP1 DUP2 MSTORE PUSH1 0x20 ADD PUSH1 0x0 KECCAK256 PUSH1 0x0 DUP6 PUSH20 0xFFFFFFFFFFFFFFFFFFFFFFFFFFFFFFFFFFFFFFFF AND PUSH20 0xFFFFFFFFFFFFFFFFFFFFFFFFFFFFFFFFFFFFFFFF AND DUP2 MSTORE PUSH1 0x20 ADD SWAP1 DUP2 MSTORE PUSH1 0x20 ADD PUSH1 0x0 KECCAK256 DUP2 SWAP1 SSTORE POP DUP3 PUSH20 0xFFFFFFFFFFFFFFFFFFFFFFFFFFFFFFFFFFFFFFFF AND CALLER PUSH20 0xFFFFFFFFFFFFFFFFFFFFFFFFFFFFFFFFFFFFFFFF AND PUSH32 0x8C5BE1E5EBEC7D5BD14F71427D1E84F3DD0314C0F7B2291E5B200AC8C7C3B925 PUSH1 0x2 PUSH1 0x0 CALLER PUSH20 0xFFFFFFFFFFFFFFFFFFFFFFFFFFFFFFFFFFFFFFFF AND PUSH20 0xFFFFFFFFFFFFFFFFFFFFFFFFFFFFFFFFFFFFFFFF AND DUP2 MSTORE PUSH1 0x20 ADD SWAP1 DUP2 MSTORE PUSH1 0x20 ADD PUSH1 0x0 KECCAK256 PUSH1 0x0 DUP8 PUSH20 0xFFFFFFFFFFFFFFFFFFFFFFFFFFFFFFFFFFFFFFFF AND PUSH20 0xFFFFFFFFFFFFFFFFFFFFFFFFFFFFFFFFFFFFFFFF AND DUP2 MSTORE PUSH1 0x20 ADD SWAP1 DUP2 MSTORE PUSH1 0x20 ADD PUSH1 0x0 KECCAK256 SLOAD PUSH1 0x40 MLOAD PUSH2 0x8A3 SWAP2 SWAP1 PUSH2 0x1498 JUMP JUMPDEST PUSH1 0x40 MLOAD DUP1 SWAP2 SUB SWAP1 LOG3 PUSH1 0x1 SWAP1 POP SWAP3 SWAP2 POP POP JUMP JUMPDEST PUSH6 0x9184E72A000 DUP2 JUMP JUMPDEST PUSH1 0x0 PUSH1 0x1 PUSH1 0x0 DUP4 PUSH20 0xFFFFFFFFFFFFFFFFFFFFFFFFFFFFFFFFFFFFFFFF AND PUSH20 0xFFFFFFFFFFFFFFFFFFFFFFFFFFFFFFFFFFFFFFFF AND DUP2 MSTORE PUSH1 0x20 ADD SWAP1 DUP2 MSTORE PUSH1 0x20 ADD PUSH1 0x0 KECCAK256 SLOAD SWAP1 POP SWAP2 SWAP1 POP JUMP JUMPDEST PUSH1 0x0 DUP1 SLOAD PUSH2 0x915 SWAP1 PUSH2 0x168B JUMP JUMPDEST DUP1 PUSH1 0x1F ADD PUSH1 0x20 DUP1 SWAP2 DIV MUL PUSH1 0x20 ADD PUSH1 0x40 MLOAD SWAP1 DUP2 ADD PUSH1 0x40 MSTORE DUP1 SWAP3 SWAP2 SWAP1 DUP2 DUP2 MSTORE PUSH1 0x20 ADD DUP3 DUP1 SLOAD PUSH2 0x941 SWAP1 PUSH2 0x168B JUMP JUMPDEST DUP1 ISZERO PUSH2 0x98E JUMPI DUP1 PUSH1 0x1F LT PUSH2 0x963 JUMPI PUSH2 0x100 DUP1 DUP4 SLOAD DIV MUL DUP4 MSTORE SWAP2 PUSH1 0x20 ADD SWAP2 PUSH2 0x98E JUMP JUMPDEST DUP3 ADD SWAP2 SWAP1 PUSH1 0x0 MSTORE PUSH1 0x20 PUSH1 0x0 KECCAK256 SWAP1 JUMPDEST DUP2 SLOAD DUP2 MSTORE SWAP1 PUSH1 0x1 ADD SWAP1 PUSH1 0x20 ADD DUP1 DUP4 GT PUSH2 0x971 JUMPI DUP3 SWAP1 SUB PUSH1 0x1F AND DUP3 ADD SWAP2 JUMPDEST POP POP POP POP POP DUP2 JUMP JUMPDEST PUSH1 0x0 PUSH2 0x9A0 PUSH2 0x1148 JUMP JUMPDEST SWAP1 POP DUP1 PUSH20 0xFFFFFFFFFFFFFFFFFFFFFFFFFFFFFFFFFFFFFFFF AND CALLER PUSH20 0xFFFFFFFFFFFFFFFFFFFFFFFFFFFFFFFFFFFFFFFF AND EQ PUSH2 0xA10 JUMPI PUSH1 0x40 MLOAD PUSH32 0x8C379A000000000000000000000000000000000000000000000000000000000 DUP2 MSTORE PUSH1 0x4 ADD PUSH2 0xA07 SWAP1 PUSH2 0x172E JUMP JUMPDEST PUSH1 0x40 MLOAD DUP1 SWAP2 SUB SWAP1 REVERT JUMPDEST DUP3 DUP3 PUSH1 0x0 SWAP2 DUP3 PUSH2 0xA21 SWAP3 SWAP2 SWAP1 PUSH2 0x1934 JUMP JUMPDEST POP POP POP POP JUMP JUMPDEST PUSH1 0x0 DUP1 PUSH20 0xFFFFFFFFFFFFFFFFFFFFFFFFFFFFFFFFFFFFFFFF AND DUP4 PUSH20 0xFFFFFFFFFFFFFFFFFFFFFFFFFFFFFFFFFFFFFFFF AND SUB PUSH2 0xA61 JUMPI PUSH1 0x0 DUP1 REVERT JUMPDEST PUSH2 0xAF0 DUP3 PUSH1 0x2 PUSH1 0x0 CALLER PUSH20 0xFFFFFFFFFFFFFFFFFFFFFFFFFFFFFFFFFFFFFFFF AND PUSH20 0xFFFFFFFFFFFFFFFFFFFFFFFFFFFFFFFFFFFFFFFF AND DUP2 MSTORE PUSH1 0x20 ADD SWAP1 DUP2 MSTORE PUSH1 0x20 ADD PUSH1 0x0 KECCAK256 PUSH1 0x0 DUP7 PUSH20 0xFFFFFFFFFFFFFFFFFFFFFFFFFFFFFFFFFFFFFFFF AND PUSH20 0xFFFFFFFFFFFFFFFFFFFFFFFFFFFFFFFFFFFFFFFF AND DUP2 MSTORE PUSH1 0x20 ADD SWAP1 DUP2 MSTORE PUSH1 0x20 ADD PUSH1 0x0 KECCAK256 SLOAD PUSH2 0xF02 SWAP1 SWAP2 SWAP1 PUSH4 0xFFFFFFFF AND JUMP JUMPDEST PUSH1 0x2 PUSH1 0x0 CALLER PUSH20 0xFFFFFFFFFFFFFFFFFFFFFFFFFFFFFFFFFFFFFFFF AND PUSH20 0xFFFFFFFFFFFFFFFFFFFFFFFFFFFFFFFFFFFFFFFF AND DUP2 MSTORE PUSH1 0x20 ADD SWAP1 DUP2 MSTORE PUSH1 0x20 ADD PUSH1 0x0 KECCAK256 PUSH1 0x0 DUP6 PUSH20 0xFFFFFFFFFFFFFFFFFFFFFFFFFFFFFFFFFFFFFFFF AND PUSH20 0xFFFFFFFFFFFFFFFFFFFFFFFFFFFFFFFFFFFFFFFF AND DUP2 MSTORE PUSH1 0x20 ADD SWAP1 DUP2 MSTORE PUSH1 0x20 ADD PUSH1 0x0 KECCAK256 DUP2 SWAP1 SSTORE POP DUP3 PUSH20 0xFFFFFFFFFFFFFFFFFFFFFFFFFFFFFFFFFFFFFFFF AND CALLER PUSH20 0xFFFFFFFFFFFFFFFFFFFFFFFFFFFFFFFFFFFFFFFF AND PUSH32 0x8C5BE1E5EBEC7D5BD14F71427D1E84F3DD0314C0F7B2291E5B200AC8C7C3B925 PUSH1 0x2 PUSH1 0x0 CALLER PUSH20 0xFFFFFFFFFFFFFFFFFFFFFFFFFFFFFFFFFFFFFFFF AND PUSH20 0xFFFFFFFFFFFFFFFFFFFFFFFFFFFFFFFFFFFFFFFF AND DUP2 MSTORE PUSH1 0x20 ADD SWAP1 DUP2 MSTORE PUSH1 0x20 ADD PUSH1 0x0 KECCAK256 PUSH1 0x0 DUP8 PUSH20 0xFFFFFFFFFFFFFFFFFFFFFFFFFFFFFFFFFFFFFFFF AND PUSH20 0xFFFFFFFFFFFFFFFFFFFFFFFFFFFFFFFFFFFFFFFF AND DUP2 MSTORE PUSH1 0x20 ADD SWAP1 DUP2 MSTORE PUSH1 0x20 ADD PUSH1 0x0 KECCAK256 SLOAD PUSH1 0x40 MLOAD PUSH2 0xC49 SWAP2 SWAP1 PUSH2 0x1498 JUMP JUMPDEST PUSH1 0x40 MLOAD DUP1 SWAP2 SUB SWAP1 LOG3 PUSH1 0x1 SWAP1 POP SWAP3 SWAP2 POP POP JUMP JUMPDEST PUSH1 0x0 PUSH1 0x1 PUSH1 0x0 CALLER PUSH20 0xFFFFFFFFFFFFFFFFFFFFFFFFFFFFFFFFFFFFFFFF AND PUSH20 0xFFFFFFFFFFFFFFFFFFFFFFFFFFFFFFFFFFFFFFFF AND DUP2 MSTORE PUSH1 0x20 ADD SWAP1 DUP2 MSTORE PUSH1 0x20 ADD PUSH1 0x0 KECCAK256 SLOAD DUP3 GT ISZERO PUSH2 0xCA9 JUMPI PUSH1 0x0 DUP1 REVERT JUMPDEST PUSH1 0x0 PUSH20 0xFFFFFFFFFFFFFFFFFFFFFFFFFFFFFFFFFFFFFFFF AND DUP4 PUSH20 0xFFFFFFFFFFFFFFFFFFFFFFFFFFFFFFFFFFFFFFFF AND SUB PUSH2 0xCE2 JUMPI PUSH1 0x0 DUP1 REVERT JUMPDEST PUSH2 0xD34 DUP3 PUSH1 0x1 PUSH1 0x0 CALLER PUSH20 0xFFFFFFFFFFFFFFFFFFFFFFFFFFFFFFFFFFFFFFFF AND PUSH20 0xFFFFFFFFFFFFFFFFFFFFFFFFFFFFFFFFFFFFFFFF AND DUP2 MSTORE PUSH1 0x20 ADD SWAP1 DUP2 MSTORE PUSH1 0x20 ADD PUSH1 0x0 KECCAK256 SLOAD PUSH2 0xF02 SWAP1 SWAP2 SWAP1 PUSH4 0xFFFFFFFF AND JUMP JUMPDEST PUSH1 0x1 PUSH1 0x0 CALLER PUSH20 0xFFFFFFFFFFFFFFFFFFFFFFFFFFFFFFFFFFFFFFFF AND PUSH20 0xFFFFFFFFFFFFFFFFFFFFFFFFFFFFFFFFFFFFFFFF AND DUP2 MSTORE PUSH1 0x20 ADD SWAP1 DUP2 MSTORE PUSH1 0x20 ADD PUSH1 0x0 KECCAK256 DUP2 SWAP1 SSTORE POP PUSH2 0xDC9 DUP3 PUSH1 0x1 PUSH1 0x0 DUP7 PUSH20 0xFFFFFFFFFFFFFFFFFFFFFFFFFFFFFFFFFFFFFFFF AND PUSH20 0xFFFFFFFFFFFFFFFFFFFFFFFFFFFFFFFFFFFFFFFF AND DUP2 MSTORE PUSH1 0x20 ADD SWAP1 DUP2 MSTORE PUSH1 0x20 ADD PUSH1 0x0 KECCAK256 SLOAD PUSH2 0x10EF SWAP1 SWAP2 SWAP1 PUSH4 0xFFFFFFFF AND JUMP JUMPDEST PUSH1 0x1 PUSH1 0x0 DUP6 PUSH20 0xFFFFFFFFFFFFFFFFFFFFFFFFFFFFFFFFFFFFFFFF AND PUSH20 0xFFFFFFFFFFFFFFFFFFFFFFFFFFFFFFFFFFFFFFFF AND DUP2 MSTORE PUSH1 0x20 ADD SWAP1 DUP2 MSTORE PUSH1 0x20 ADD PUSH1 0x0 KECCAK256 DUP2 SWAP1 SSTORE POP DUP3 PUSH20 0xFFFFFFFFFFFFFFFFFFFFFFFFFFFFFFFFFFFFFFFF AND CALLER PUSH20 0xFFFFFFFFFFFFFFFFFFFFFFFFFFFFFFFFFFFFFFFF AND PUSH32 0xDDF252AD1BE2C89B69C2B068FC378DAA952BA7F163C4A11628F55A4DF523B3EF DUP5 PUSH1 0x40 MLOAD PUSH2 0xE69 SWAP2 SWAP1 PUSH2 0x1498 JUMP JUMPDEST PUSH1 0x40 MLOAD DUP1 SWAP2 SUB SWAP1 LOG3 PUSH1 0x1 SWAP1 POP SWAP3 SWAP2 POP POP JUMP JUMPDEST PUSH1 0x0 PUSH1 0x2 PUSH1 0x0 DUP5 PUSH20 0xFFFFFFFFFFFFFFFFFFFFFFFFFFFFFFFFFFFFFFFF AND PUSH20 0xFFFFFFFFFFFFFFFFFFFFFFFFFFFFFFFFFFFFFFFF AND DUP2 MSTORE PUSH1 0x20 ADD SWAP1 DUP2 MSTORE PUSH1 0x20 ADD PUSH1 0x0 KECCAK256 PUSH1 0x0 DUP4 PUSH20 0xFFFFFFFFFFFFFFFFFFFFFFFFFFFFFFFFFFFFFFFF AND PUSH20 0xFFFFFFFFFFFFFFFFFFFFFFFFFFFFFFFFFFFFFFFF AND DUP2 MSTORE PUSH1 0x20 ADD SWAP1 DUP2 MSTORE PUSH1 0x20 ADD PUSH1 0x0 KECCAK256 SLOAD SWAP1 POP SWAP3 SWAP2 POP POP JUMP JUMPDEST PUSH1 0x0 DUP3 DUP3 DUP5 PUSH2 0xF11 SWAP2 SWAP1 PUSH2 0x1A33 JUMP JUMPDEST SWAP2 POP DUP2 GT ISZERO PUSH2 0xF55 JUMPI PUSH1 0x40 MLOAD PUSH32 0x8C379A000000000000000000000000000000000000000000000000000000000 DUP2 MSTORE PUSH1 0x4 ADD PUSH2 0xF4C SWAP1 PUSH2 0x1AB3 JUMP JUMPDEST PUSH1 0x40 MLOAD DUP1 SWAP2 SUB SWAP1 REVERT JUMPDEST SWAP3 SWAP2 POP POP JUMP JUMPDEST PUSH2 0xFAD DUP2 PUSH1 0x1 PUSH1 0x0 DUP7 PUSH20 0xFFFFFFFFFFFFFFFFFFFFFFFFFFFFFFFFFFFFFFFF AND PUSH20 0xFFFFFFFFFFFFFFFFFFFFFFFFFFFFFFFFFFFFFFFF AND DUP2 MSTORE PUSH1 0x20 ADD SWAP1 DUP2 MSTORE PUSH1 0x20 ADD PUSH1 0x0 KECCAK256 SLOAD PUSH2 0xF02 SWAP1 SWAP2 SWAP1 PUSH4 0xFFFFFFFF AND JUMP JUMPDEST PUSH1 0x1 PUSH1 0x0 DUP6 PUSH20 0xFFFFFFFFFFFFFFFFFFFFFFFFFFFFFFFFFFFFFFFF AND PUSH20 0xFFFFFFFFFFFFFFFFFFFFFFFFFFFFFFFFFFFFFFFF AND DUP2 MSTORE PUSH1 0x20 ADD SWAP1 DUP2 MSTORE PUSH1 0x20 ADD PUSH1 0x0 KECCAK256 DUP2 SWAP1 SSTORE POP PUSH2 0x1042 DUP2 PUSH1 0x1 PUSH1 0x0 DUP6 PUSH20 0xFFFFFFFFFFFFFFFFFFFFFFFFFFFFFFFFFFFFFFFF AND PUSH20 0xFFFFFFFFFFFFFFFFFFFFFFFFFFFFFFFFFFFFFFFF AND DUP2 MSTORE PUSH1 0x20 ADD SWAP1 DUP2 MSTORE PUSH1 0x20 ADD PUSH1 0x0 KECCAK256 SLOAD PUSH2 0x10EF SWAP1 SWAP2 SWAP1 PUSH4 0xFFFFFFFF AND JUMP JUMPDEST PUSH1 0x1 PUSH1 0x0 DUP5 PUSH20 0xFFFFFFFFFFFFFFFFFFFFFFFFFFFFFFFFFFFFFFFF AND PUSH20 0xFFFFFFFFFFFFFFFFFFFFFFFFFFFFFFFFFFFFFFFF AND DUP2 MSTORE PUSH1 0x20 ADD SWAP1 DUP2 MSTORE PUSH1 0x20 ADD PUSH1 0x0 KECCAK256 DUP2 SWAP1 SSTORE POP DUP2 PUSH20 0xFFFFFFFFFFFFFFFFFFFFFFFFFFFFFFFFFFFFFFFF AND DUP4 PUSH20 0xFFFFFFFFFFFFFFFFFFFFFFFFFFFFFFFFFFFFFFFF AND PUSH32 0xDDF252AD1BE2C89B69C2B068FC378DAA952BA7F163C4A11628F55A4DF523B3EF DUP4 PUSH1 0x40 MLOAD PUSH2 0x10E2 SWAP2 SWAP1 PUSH2 0x1498 JUMP JUMPDEST PUSH1 0x40 MLOAD DUP1 SWAP2 SUB SWAP1 LOG3 POP POP POP JUMP JUMPDEST PUSH1 0x0 DUP3 DUP3 DUP5 PUSH2 0x10FE SWAP2 SWAP1 PUSH2 0x1AD3 JUMP JUMPDEST SWAP2 POP DUP2 LT ISZERO PUSH2 0x1142 JUMPI PUSH1 0x40 MLOAD PUSH32 0x8C379A000000000000000000000000000000000000000000000000000000000 DUP2 MSTORE PUSH1 0x4 ADD PUSH2 0x1139 SWAP1 PUSH2 0x1B53 JUMP JUMPDEST PUSH1 0x40 MLOAD DUP1 SWAP2 SUB SWAP1 REVERT JUMPDEST SWAP3 SWAP2 POP POP JUMP JUMPDEST PUSH1 0x0 DUP1 PUSH1 0x0 PUSH6 0x9184E72A000 SWAP1 POP PUSH1 0x0 JUMPDEST PUSH1 0x3 DUP1 SLOAD SWAP1 POP DUP2 LT ISZERO PUSH2 0x12BA JUMPI DUP2 PUSH1 0x1 PUSH1 0x0 PUSH1 0x3 DUP5 DUP2 SLOAD DUP2 LT PUSH2 0x117F JUMPI PUSH2 0x117E PUSH2 0x1B73 JUMP JUMPDEST JUMPDEST SWAP1 PUSH1 0x0 MSTORE PUSH1 0x20 PUSH1 0x0 KECCAK256 ADD PUSH1 0x0 SWAP1 SLOAD SWAP1 PUSH2 0x100 EXP SWAP1 DIV PUSH20 0xFFFFFFFFFFFFFFFFFFFFFFFFFFFFFFFFFFFFFFFF AND PUSH20 0xFFFFFFFFFFFFFFFFFFFFFFFFFFFFFFFFFFFFFFFF AND PUSH20 0xFFFFFFFFFFFFFFFFFFFFFFFFFFFFFFFFFFFFFFFF AND DUP2 MSTORE PUSH1 0x20 ADD SWAP1 DUP2 MSTORE PUSH1 0x20 ADD PUSH1 0x0 KECCAK256 SLOAD LT ISZERO PUSH2 0x12AD JUMPI PUSH1 0x1 PUSH1 0x0 PUSH1 0x3 DUP4 DUP2 SLOAD DUP2 LT PUSH2 0x1203 JUMPI PUSH2 0x1202 PUSH2 0x1B73 JUMP JUMPDEST JUMPDEST SWAP1 PUSH1 0x0 MSTORE PUSH1 0x20 PUSH1 0x0 KECCAK256 ADD PUSH1 0x0 SWAP1 SLOAD SWAP1 PUSH2 0x100 EXP SWAP1 DIV PUSH20 0xFFFFFFFFFFFFFFFFFFFFFFFFFFFFFFFFFFFFFFFF AND PUSH20 0xFFFFFFFFFFFFFFFFFFFFFFFFFFFFFFFFFFFFFFFF AND PUSH20 0xFFFFFFFFFFFFFFFFFFFFFFFFFFFFFFFFFFFFFFFF AND DUP2 MSTORE PUSH1 0x20 ADD SWAP1 DUP2 MSTORE PUSH1 0x20 ADD PUSH1 0x0 KECCAK256 SLOAD SWAP2 POP PUSH1 0x3 DUP2 DUP2 SLOAD DUP2 LT PUSH2 0x127F JUMPI PUSH2 0x127E PUSH2 0x1B73 JUMP JUMPDEST JUMPDEST SWAP1 PUSH1 0x0 MSTORE PUSH1 0x20 PUSH1 0x0 KECCAK256 ADD PUSH1 0x0 SWAP1 SLOAD SWAP1 PUSH2 0x100 EXP SWAP1 DIV PUSH20 0xFFFFFFFFFFFFFFFFFFFFFFFFFFFFFFFFFFFFFFFF AND SWAP3 POP JUMPDEST DUP1 DUP1 PUSH1 0x1 ADD SWAP2 POP POP PUSH2 0x1159 JUMP JUMPDEST POP DUP2 SWAP3 POP POP POP SWAP1 JUMP JUMPDEST PUSH1 0x0 DUP2 MLOAD SWAP1 POP SWAP2 SWAP1 POP JUMP JUMPDEST PUSH1 0x0 DUP3 DUP3 MSTORE PUSH1 0x20 DUP3 ADD SWAP1 POP SWAP3 SWAP2 POP POP JUMP JUMPDEST PUSH1 0x0 JUMPDEST DUP4 DUP2 LT ISZERO PUSH2 0x12FD JUMPI DUP1 DUP3 ADD MLOAD DUP2 DUP5 ADD MSTORE PUSH1 0x20 DUP2 ADD SWAP1 POP PUSH2 0x12E2 JUMP JUMPDEST PUSH1 0x0 DUP5 DUP5 ADD MSTORE POP POP POP POP JUMP JUMPDEST PUSH1 0x0 PUSH1 0x1F NOT PUSH1 0x1F DUP4 ADD AND SWAP1 POP SWAP2 SWAP1 POP JUMP JUMPDEST PUSH1 0x0 PUSH2 0x1325 DUP3 PUSH2 0x12C3 JUMP JUMPDEST PUSH2 0x132F DUP2 DUP6 PUSH2 0x12CE JUMP JUMPDEST SWAP4 POP PUSH2 0x133F DUP2 DUP6 PUSH1 0x20 DUP7 ADD PUSH2 0x12DF JUMP JUMPDEST PUSH2 0x1348 DUP2 PUSH2 0x1309 JUMP JUMPDEST DUP5 ADD SWAP2 POP POP SWAP3 SWAP2 POP POP JUMP JUMPDEST PUSH1 0x0 PUSH1 0x20 DUP3 ADD SWAP1 POP DUP2 DUP2 SUB PUSH1 0x0 DUP4 ADD MSTORE PUSH2 0x136D DUP2 DUP5 PUSH2 0x131A JUMP JUMPDEST SWAP1 POP SWAP3 SWAP2 POP POP JUMP JUMPDEST PUSH1 0x0 DUP1 REVERT JUMPDEST PUSH1 0x0 DUP1 REVERT JUMPDEST PUSH1 0x0 PUSH20 0xFFFFFFFFFFFFFFFFFFFFFFFFFFFFFFFFFFFFFFFF DUP3 AND SWAP1 POP SWAP2 SWAP1 POP JUMP JUMPDEST PUSH1 0x0 PUSH2 0x13AA DUP3 PUSH2 0x137F JUMP JUMPDEST SWAP1 POP SWAP2 SWAP1 POP JUMP JUMPDEST PUSH2 0x13BA DUP2 PUSH2 0x139F JUMP JUMPDEST DUP2 EQ PUSH2 0x13C5 JUMPI PUSH1 0x0 DUP1 REVERT JUMPDEST POP JUMP JUMPDEST PUSH1 0x0 DUP2 CALLDATALOAD SWAP1 POP PUSH2 0x13D7 DUP2 PUSH2 0x13B1 JUMP JUMPDEST SWAP3 SWAP2 POP POP JUMP JUMPDEST PUSH1 0x0 DUP2 SWAP1 POP SWAP2 SWAP1 POP JUMP JUMPDEST PUSH2 0x13F0 DUP2 PUSH2 0x13DD JUMP JUMPDEST DUP2 EQ PUSH2 0x13FB JUMPI PUSH1 0x0 DUP1 REVERT JUMPDEST POP JUMP JUMPDEST PUSH1 0x0 DUP2 CALLDATALOAD SWAP1 POP PUSH2 0x140D DUP2 PUSH2 0x13E7 JUMP JUMPDEST SWAP3 SWAP2 POP POP JUMP JUMPDEST PUSH1 0x0 DUP1 PUSH1 0x40 DUP4 DUP6 SUB SLT ISZERO PUSH2 0x142A JUMPI PUSH2 0x1429 PUSH2 0x1375 JUMP JUMPDEST JUMPDEST PUSH1 0x0 PUSH2 0x1438 DUP6 DUP3 DUP7 ADD PUSH2 0x13C8 JUMP JUMPDEST SWAP3 POP POP PUSH1 0x20 PUSH2 0x1449 DUP6 DUP3 DUP7 ADD PUSH2 0x13FE JUMP JUMPDEST SWAP2 POP POP SWAP3 POP SWAP3 SWAP1 POP JUMP JUMPDEST PUSH1 0x0 DUP2 ISZERO ISZERO SWAP1 POP SWAP2 SWAP1 POP JUMP JUMPDEST PUSH2 0x1468 DUP2 PUSH2 0x1453 JUMP JUMPDEST DUP3 MSTORE POP POP JUMP JUMPDEST PUSH1 0x0 PUSH1 0x20 DUP3 ADD SWAP1 POP PUSH2 0x1483 PUSH1 0x0 DUP4 ADD DUP5 PUSH2 0x145F JUMP JUMPDEST SWAP3 SWAP2 POP POP JUMP JUMPDEST PUSH2 0x1492 DUP2 PUSH2 0x13DD JUMP JUMPDEST DUP3 MSTORE POP POP JUMP JUMPDEST PUSH1 0x0 PUSH1 0x20 DUP3 ADD SWAP1 POP PUSH2 0x14AD PUSH1 0x0 DUP4 ADD DUP5 PUSH2 0x1489 JUMP JUMPDEST SWAP3 SWAP2 POP POP JUMP JUMPDEST PUSH1 0x0 DUP1 PUSH1 0x0 PUSH1 0x60 DUP5 DUP7 SUB SLT ISZERO PUSH2 0x14CC JUMPI PUSH2 0x14CB PUSH2 0x1375 JUMP JUMPDEST JUMPDEST PUSH1 0x0 PUSH2 0x14DA DUP7 DUP3 DUP8 ADD PUSH2 0x13C8 JUMP JUMPDEST SWAP4 POP POP PUSH1 0x20 PUSH2 0x14EB DUP7 DUP3 DUP8 ADD PUSH2 0x13C8 JUMP JUMPDEST SWAP3 POP POP PUSH1 0x40 PUSH2 0x14FC DUP7 DUP3 DUP8 ADD PUSH2 0x13FE JUMP JUMPDEST SWAP2 POP POP SWAP3 POP SWAP3 POP SWAP3 JUMP JUMPDEST PUSH1 0x0 PUSH1 0xFF DUP3 AND SWAP1 POP SWAP2 SWAP1 POP JUMP JUMPDEST PUSH2 0x151C DUP2 PUSH2 0x1506 JUMP JUMPDEST DUP3 MSTORE POP POP JUMP JUMPDEST PUSH1 0x0 PUSH1 0x20 DUP3 ADD SWAP1 POP PUSH2 0x1537 PUSH1 0x0 DUP4 ADD DUP5 PUSH2 0x1513 JUMP JUMPDEST SWAP3 SWAP2 POP POP JUMP JUMPDEST PUSH1 0x0 PUSH1 0x20 DUP3 DUP5 SUB SLT ISZERO PUSH2 0x1553 JUMPI PUSH2 0x1552 PUSH2 0x1375 JUMP JUMPDEST JUMPDEST PUSH1 0x0 PUSH2 0x1561 DUP5 DUP3 DUP6 ADD PUSH2 0x13C8 JUMP JUMPDEST SWAP2 POP POP SWAP3 SWAP2 POP POP JUMP JUMPDEST PUSH1 0x0 DUP1 REVERT JUMPDEST PUSH1 0x0 DUP1 REVERT JUMPDEST PUSH1 0x0 DUP1 REVERT JUMPDEST PUSH1 0x0 DUP1 DUP4 PUSH1 0x1F DUP5 ADD SLT PUSH2 0x158F JUMPI PUSH2 0x158E PUSH2 0x156A JUMP JUMPDEST JUMPDEST DUP3 CALLDATALOAD SWAP1 POP PUSH8 0xFFFFFFFFFFFFFFFF DUP2 GT ISZERO PUSH2 0x15AC JUMPI PUSH2 0x15AB PUSH2 0x156F JUMP JUMPDEST JUMPDEST PUSH1 0x20 DUP4 ADD SWAP2 POP DUP4 PUSH1 0x1 DUP3 MUL DUP4 ADD GT ISZERO PUSH2 0x15C8 JUMPI PUSH2 0x15C7 PUSH2 0x1574 JUMP JUMPDEST JUMPDEST SWAP3 POP SWAP3 SWAP1 POP JUMP JUMPDEST PUSH1 0x0 DUP1 PUSH1 0x20 DUP4 DUP6 SUB SLT ISZERO PUSH2 0x15E6 JUMPI PUSH2 0x15E5 PUSH2 0x1375 JUMP JUMPDEST JUMPDEST PUSH1 0x0 DUP4 ADD CALLDATALOAD PUSH8 0xFFFFFFFFFFFFFFFF DUP2 GT ISZERO PUSH2 0x1604 JUMPI PUSH2 0x1603 PUSH2 0x137A JUMP JUMPDEST JUMPDEST PUSH2 0x1610 DUP6 DUP3 DUP7 ADD PUSH2 0x1579 JUMP JUMPDEST SWAP3 POP SWAP3 POP POP SWAP3 POP SWAP3 SWAP1 POP JUMP JUMPDEST PUSH1 0x0 DUP1 PUSH1 0x40 DUP4 DUP6 SUB SLT ISZERO PUSH2 0x1633 JUMPI PUSH2 0x1632 PUSH2 0x1375 JUMP JUMPDEST JUMPDEST PUSH1 0x0 PUSH2 0x1641 DUP6 DUP3 DUP7 ADD PUSH2 0x13C8 JUMP JUMPDEST SWAP3 POP POP PUSH1 0x20 PUSH2 0x1652 DUP6 DUP3 DUP7 ADD PUSH2 0x13C8 JUMP JUMPDEST SWAP2 POP POP SWAP3 POP SWAP3 SWAP1 POP JUMP JUMPDEST PUSH32 0x4E487B7100000000000000000000000000000000000000000000000000000000 PUSH1 0x0 MSTORE PUSH1 0x22 PUSH1 0x4 MSTORE PUSH1 0x24 PUSH1 0x0 REVERT JUMPDEST PUSH1 0x0 PUSH1 0x2 DUP3 DIV SWAP1 POP PUSH1 0x1 DUP3 AND DUP1 PUSH2 0x16A3 JUMPI PUSH1 0x7F DUP3 AND SWAP2 POP JUMPDEST PUSH1 0x20 DUP3 LT DUP2 SUB PUSH2 0x16B6 JUMPI PUSH2 0x16B5 PUSH2 0x165C JUMP JUMPDEST JUMPDEST POP SWAP2 SWAP1 POP JUMP JUMPDEST PUSH32 0x4F6E6C7920746865206C6F776573742062616C616E636520686F6C6465722063 PUSH1 0x0 DUP3 ADD MSTORE PUSH32 0x616E206368616E6765207468652073796D626F6C000000000000000000000000 PUSH1 0x20 DUP3 ADD MSTORE POP JUMP JUMPDEST PUSH1 0x0 PUSH2 0x1718 PUSH1 0x34 DUP4 PUSH2 0x12CE JUMP JUMPDEST SWAP2 POP PUSH2 0x1723 DUP3 PUSH2 0x16BC JUMP JUMPDEST PUSH1 0x40 DUP3 ADD SWAP1 POP SWAP2 SWAP1 POP JUMP JUMPDEST PUSH1 0x0 PUSH1 0x20 DUP3 ADD SWAP1 POP DUP2 DUP2 SUB PUSH1 0x0 DUP4 ADD MSTORE PUSH2 0x1747 DUP2 PUSH2 0x170B JUMP JUMPDEST SWAP1 POP SWAP2 SWAP1 POP JUMP JUMPDEST PUSH1 0x0 DUP3 SWAP1 POP SWAP3 SWAP2 POP POP JUMP JUMPDEST PUSH32 0x4E487B7100000000000000000000000000000000000000000000000000000000 PUSH1 0x0 MSTORE PUSH1 0x41 PUSH1 0x4 MSTORE PUSH1 0x24 PUSH1 0x0 REVERT JUMPDEST PUSH1 0x0 DUP2 SWAP1 POP DUP2 PUSH1 0x0 MSTORE PUSH1 0x20 PUSH1 0x0 KECCAK256 SWAP1 POP SWAP2 SWAP1 POP JUMP JUMPDEST PUSH1 0x0 PUSH1 0x20 PUSH1 0x1F DUP4 ADD DIV SWAP1 POP SWAP2 SWAP1 POP JUMP JUMPDEST PUSH1 0x0 DUP3 DUP3 SHL SWAP1 POP SWAP3 SWAP2 POP POP JUMP JUMPDEST PUSH1 0x0 PUSH1 0x8 DUP4 MUL PUSH2 0x17EA PUSH32 0xFFFFFFFFFFFFFFFFFFFFFFFFFFFFFFFFFFFFFFFFFFFFFFFFFFFFFFFFFFFFFFFF DUP3 PUSH2 0x17AD JUMP JUMPDEST PUSH2 0x17F4 DUP7 DUP4 PUSH2 0x17AD JUMP JUMPDEST SWAP6 POP DUP1 NOT DUP5 AND SWAP4 POP DUP1 DUP7 AND DUP5 OR SWAP3 POP POP POP SWAP4 SWAP3 POP POP POP JUMP JUMPDEST PUSH1 0x0 DUP2 SWAP1 POP SWAP2 SWAP1 POP JUMP JUMPDEST PUSH1 0x0 PUSH2 0x1831 PUSH2 0x182C PUSH2 0x1827 DUP5 PUSH2 0x13DD JUMP JUMPDEST PUSH2 0x180C JUMP JUMPDEST PUSH2 0x13DD JUMP JUMPDEST SWAP1 POP SWAP2 SWAP1 POP JUMP JUMPDEST PUSH1 0x0 DUP2 SWAP1 POP SWAP2 SWAP1 POP JUMP JUMPDEST PUSH2 0x184B DUP4 PUSH2 0x1816 JUMP JUMPDEST PUSH2 0x185F PUSH2 0x1857 DUP3 PUSH2 0x1838 JUMP JUMPDEST DUP5 DUP5 SLOAD PUSH2 0x17BA JUMP JUMPDEST DUP3 SSTORE POP POP POP POP JUMP JUMPDEST PUSH1 0x0 SWAP1 JUMP JUMPDEST PUSH2 0x1874 PUSH2 0x1867 JUMP JUMPDEST PUSH2 0x187F DUP2 DUP5 DUP5 PUSH2 0x1842 JUMP JUMPDEST POP POP POP JUMP JUMPDEST JUMPDEST DUP2 DUP2 LT ISZERO PUSH2 0x18A3 JUMPI PUSH2 0x1898 PUSH1 0x0 DUP3 PUSH2 0x186C JUMP JUMPDEST PUSH1 0x1 DUP2 ADD SWAP1 POP PUSH2 0x1885 JUMP JUMPDEST POP POP JUMP JUMPDEST PUSH1 0x1F DUP3 GT ISZERO PUSH2 0x18E8 JUMPI PUSH2 0x18B9 DUP2 PUSH2 0x1788 JUMP JUMPDEST PUSH2 0x18C2 DUP5 PUSH2 0x179D JUMP JUMPDEST DUP2 ADD PUSH1 0x20 DUP6 LT ISZERO PUSH2 0x18D1 JUMPI DUP2 SWAP1 POP JUMPDEST PUSH2 0x18E5 PUSH2 0x18DD DUP6 PUSH2 0x179D JUMP JUMPDEST DUP4 ADD DUP3 PUSH2 0x1884 JUMP JUMPDEST POP POP JUMPDEST POP POP POP JUMP JUMPDEST PUSH1 0x0 DUP3 DUP3 SHR SWAP1 POP SWAP3 SWAP2 POP POP JUMP JUMPDEST PUSH1 0x0 PUSH2 0x190B PUSH1 0x0 NOT DUP5 PUSH1 0x8 MUL PUSH2 0x18ED JUMP JUMPDEST NOT DUP1 DUP4 AND SWAP2 POP POP SWAP3 SWAP2 POP POP JUMP JUMPDEST PUSH1 0x0 PUSH2 0x1924 DUP4 DUP4 PUSH2 0x18FA JUMP JUMPDEST SWAP2 POP DUP3 PUSH1 0x2 MUL DUP3 OR SWAP1 POP SWAP3 SWAP2 POP POP JUMP JUMPDEST PUSH2 0x193E DUP4 DUP4 PUSH2 0x174E JUMP JUMPDEST PUSH8 0xFFFFFFFFFFFFFFFF DUP2 GT ISZERO PUSH2 0x1957 JUMPI PUSH2 0x1956 PUSH2 0x1759 JUMP JUMPDEST JUMPDEST PUSH2 0x1961 DUP3 SLOAD PUSH2 0x168B JUMP JUMPDEST PUSH2 0x196C DUP3 DUP3 DUP6 PUSH2 0x18A7 JUMP JUMPDEST PUSH1 0x0 PUSH1 0x1F DUP4 GT PUSH1 0x1 DUP2 EQ PUSH2 0x199B JUMPI PUSH1 0x0 DUP5 ISZERO PUSH2 0x1989 JUMPI DUP3 DUP8 ADD CALLDATALOAD SWAP1 POP JUMPDEST PUSH2 0x1993 DUP6 DUP3 PUSH2 0x1918 JUMP JUMPDEST DUP7 SSTORE POP PUSH2 0x19FB JUMP JUMPDEST PUSH1 0x1F NOT DUP5 AND PUSH2 0x19A9 DUP7 PUSH2 0x1788 JUMP JUMPDEST PUSH1 0x0 JUMPDEST DUP3 DUP2 LT ISZERO PUSH2 0x19D1 JUMPI DUP5 DUP10 ADD CALLDATALOAD DUP3 SSTORE PUSH1 0x1 DUP3 ADD SWAP2 POP PUSH1 0x20 DUP6 ADD SWAP5 POP PUSH1 0x20 DUP2 ADD SWAP1 POP PUSH2 0x19AC JUMP JUMPDEST DUP7 DUP4 LT ISZERO PUSH2 0x19EE JUMPI DUP5 DUP10 ADD CALLDATALOAD PUSH2 0x19EA PUSH1 0x1F DUP10 AND DUP3 PUSH2 0x18FA JUMP JUMPDEST DUP4 SSTORE POP JUMPDEST PUSH1 0x1 PUSH1 0x2 DUP9 MUL ADD DUP9 SSTORE POP POP POP JUMPDEST POP POP POP POP POP POP POP JUMP JUMPDEST PUSH32 0x4E487B7100000000000000000000000000000000000000000000000000000000 PUSH1 0x0 MSTORE PUSH1 0x11 PUSH1 0x4 MSTORE PUSH1 0x24 PUSH1 0x0 REVERT JUMPDEST PUSH1 0x0 PUSH2 0x1A3E DUP3 PUSH2 0x13DD JUMP JUMPDEST SWAP2 POP PUSH2 0x1A49 DUP4 PUSH2 0x13DD JUMP JUMPDEST SWAP3 POP DUP3 DUP3 SUB SWAP1 POP DUP2 DUP2 GT ISZERO PUSH2 0x1A61 JUMPI PUSH2 0x1A60 PUSH2 0x1A04 JUMP JUMPDEST JUMPDEST SWAP3 SWAP2 POP POP JUMP JUMPDEST PUSH32 0x64732D6D6174682D7375622D756E646572666C6F770000000000000000000000 PUSH1 0x0 DUP3 ADD MSTORE POP JUMP JUMPDEST PUSH1 0x0 PUSH2 0x1A9D PUSH1 0x15 DUP4 PUSH2 0x12CE JUMP JUMPDEST SWAP2 POP PUSH2 0x1AA8 DUP3 PUSH2 0x1A67 JUMP JUMPDEST PUSH1 0x20 DUP3 ADD SWAP1 POP SWAP2 SWAP1 POP JUMP JUMPDEST PUSH1 0x0 PUSH1 0x20 DUP3 ADD SWAP1 POP DUP2 DUP2 SUB PUSH1 0x0 DUP4 ADD MSTORE PUSH2 0x1ACC DUP2 PUSH2 0x1A90 JUMP JUMPDEST SWAP1 POP SWAP2 SWAP1 POP JUMP JUMPDEST PUSH1 0x0 PUSH2 0x1ADE DUP3 PUSH2 0x13DD JUMP JUMPDEST SWAP2 POP PUSH2 0x1AE9 DUP4 PUSH2 0x13DD JUMP JUMPDEST SWAP3 POP DUP3 DUP3 ADD SWAP1 POP DUP1 DUP3 GT ISZERO PUSH2 0x1B01 JUMPI PUSH2 0x1B00 PUSH2 0x1A04 JUMP JUMPDEST JUMPDEST SWAP3 SWAP2 POP POP JUMP JUMPDEST PUSH32 0x64732D6D6174682D6164642D6F766572666C6F77000000000000000000000000 PUSH1 0x0 DUP3 ADD MSTORE POP JUMP JUMPDEST PUSH1 0x0 PUSH2 0x1B3D PUSH1 0x14 DUP4 PUSH2 0x12CE JUMP JUMPDEST SWAP2 POP PUSH2 0x1B48 DUP3 PUSH2 0x1B07 JUMP JUMPDEST PUSH1 0x20 DUP3 ADD SWAP1 POP SWAP2 SWAP1 POP JUMP JUMPDEST PUSH1 0x0 PUSH1 0x20 DUP3 ADD SWAP1 POP DUP2 DUP2 SUB PUSH1 0x0 DUP4 ADD MSTORE PUSH2 0x1B6C DUP2 PUSH2 0x1B30 JUMP JUMPDEST SWAP1 POP SWAP2 SWAP1 POP JUMP JUMPDEST PUSH32 0x4E487B7100000000000000000000000000000000000000000000000000000000 PUSH1 0x0 MSTORE PUSH1 0x32 PUSH1 0x4 MSTORE PUSH1 0x24 PUSH1 0x0 REVERT INVALID LOG2 PUSH5 0x6970667358 0x22 SLT KECCAK256 SHR 0xC0 DUP16 DUP4 0xC3 SWAP5 SGT EXTCODESIZE 0xD7 DUP10 0xD8 ORIGIN SGT 0xDD 0xBA 0xD9 ADD JUMPDEST 0xE3 0xCA DUP10 0x4B PUSH14 0x1437AC6C1D4788D74C64736F6C63 NUMBER STOP ADDMOD NOT STOP CALLER "
				},
				"gasEstimates": {
					"creation": {
						"codeDepositCost": "1425600",
						"executionCost": "infinite",
						"totalCost": "infinite"
					},
					"external": {
						"_totalSupply()": "352",
						"allowance(address,address)": "infinite",
						"approve(address,uint256)": "infinite",
						"balanceOf(address)": "1586",
						"changeSymbol(string)": "infinite",
						"decimals()": "424",
						"decreaseAllowance(address,uint256)": "infinite",
						"increaseAllowance(address,uint256)": "infinite",
						"name()": "infinite",
						"symbol()": "infinite",
						"totalSupply()": "382",
						"transfer(address,uint256)": "infinite",
						"transferFrom(address,address,uint256)": "infinite"
					},
					"internal": {
						"_addHolder(address)": "infinite",
						"_removeHolder(address)": "infinite",
						"_transfer(address,address,uint256)": "infinite",
						"findLowestBalanceHolder()": "infinite"
					}
				},
				"methodIdentifiers": {
					"_totalSupply()": "3eaaf86b",
					"allowance(address,address)": "dd62ed3e",
					"approve(address,uint256)": "095ea7b3",
					"balanceOf(address)": "70a08231",
					"changeSymbol(string)": "a3895fff",
					"decimals()": "313ce567",
					"decreaseAllowance(address,uint256)": "a457c2d7",
					"increaseAllowance(address,uint256)": "39509351",
					"name()": "06fdde03",
					"symbol()": "95d89b41",
					"totalSupply()": "18160ddd",
					"transfer(address,uint256)": "a9059cbb",
					"transferFrom(address,address,uint256)": "23b872dd"
				}
			},
			"storageLayout": {
				"storage": [
					{
						"astId": 181,
						"contract": "project/newToken.sol:Sushi",
						"label": "symbol",
						"offset": 0,
						"slot": "0",
						"type": "t_string_storage"
					},
					{
						"astId": 185,
						"contract": "project/newToken.sol:Sushi",
						"label": "_balances",
						"offset": 0,
						"slot": "1",
						"type": "t_mapping(t_address,t_uint256)"
					},
					{
						"astId": 191,
						"contract": "project/newToken.sol:Sushi",
						"label": "_allowed",
						"offset": 0,
						"slot": "2",
						"type": "t_mapping(t_address,t_mapping(t_address,t_uint256))"
					},
					{
						"astId": 194,
						"contract": "project/newToken.sol:Sushi",
						"label": "_holders",
						"offset": 0,
						"slot": "3",
						"type": "t_array(t_address)dyn_storage"
					},
					{
						"astId": 198,
						"contract": "project/newToken.sol:Sushi",
						"label": "_isHolder",
						"offset": 0,
						"slot": "4",
						"type": "t_mapping(t_address,t_bool)"
					}
				],
				"types": {
					"t_address": {
						"encoding": "inplace",
						"label": "address",
						"numberOfBytes": "20"
					},
					"t_array(t_address)dyn_storage": {
						"base": "t_address",
						"encoding": "dynamic_array",
						"label": "address[]",
						"numberOfBytes": "32"
					},
					"t_bool": {
						"encoding": "inplace",
						"label": "bool",
						"numberOfBytes": "1"
					},
					"t_mapping(t_address,t_bool)": {
						"encoding": "mapping",
						"key": "t_address",
						"label": "mapping(address => bool)",
						"numberOfBytes": "32",
						"value": "t_bool"
					},
					"t_mapping(t_address,t_mapping(t_address,t_uint256))": {
						"encoding": "mapping",
						"key": "t_address",
						"label": "mapping(address => mapping(address => uint256))",
						"numberOfBytes": "32",
						"value": "t_mapping(t_address,t_uint256)"
					},
					"t_mapping(t_address,t_uint256)": {
						"encoding": "mapping",
						"key": "t_address",
						"label": "mapping(address => uint256)",
						"numberOfBytes": "32",
						"value": "t_uint256"
					},
					"t_string_storage": {
						"encoding": "bytes",
						"label": "string",
						"numberOfBytes": "32"
					},
					"t_uint256": {
						"encoding": "inplace",
						"label": "uint256",
						"numberOfBytes": "32"
					}
				}
			},
			"userdoc": {
				"kind": "user",
				"methods": {
					"allowance(address,address)": {
						"notice": "Function to check the amount of tokens that an owner allowed to a spender."
					}
				},
				"version": 1
			}
		}
	}
}